{
	"contracts/CourseManager.sol": {
		"CourseManager": {
			"abi": [
				{
					"inputs": [
						{
							"internalType": "string",
							"name": "_name",
							"type": "string"
						},
						{
							"internalType": "string",
							"name": "_description",
							"type": "string"
						},
						{
							"internalType": "uint256",
							"name": "_numberOfHoles",
							"type": "uint256"
						}
					],
					"name": "addGolfCourse",
					"outputs": [],
					"stateMutability": "nonpayable",
					"type": "function"
				},
				{
					"inputs": [],
					"name": "deleteCourse",
					"outputs": [],
					"stateMutability": "nonpayable",
					"type": "function"
				},
				{
					"inputs": [],
					"name": "getGolfCourses",
					"outputs": [
						{
							"internalType": "string[]",
							"name": "",
							"type": "string[]"
						},
						{
							"internalType": "string[]",
							"name": "",
							"type": "string[]"
						},
						{
							"internalType": "uint256[]",
							"name": "",
							"type": "uint256[]"
						}
					],
					"stateMutability": "view",
					"type": "function"
				},
				{
					"inputs": [
						{
							"internalType": "string",
							"name": "_courseName",
							"type": "string"
						}
					],
					"name": "isCourseExtant",
					"outputs": [
						{
							"internalType": "bool",
							"name": "",
							"type": "bool"
						}
					],
					"stateMutability": "view",
					"type": "function"
				}
			],
			"devdoc": {
				"kind": "dev",
				"methods": {},
				"version": 1
			},
			"evm": {
				"assembly": "    /* \"contracts/CourseManager.sol\":193:2292  contract CourseManager {... */\n  mstore(0x40, 0x80)\n  callvalue\n  dup1\n  iszero\n  tag_1\n  jumpi\n  0x00\n  dup1\n  revert\ntag_1:\n  pop\n  dataSize(sub_0)\n  dup1\n  dataOffset(sub_0)\n  0x00\n  codecopy\n  0x00\n  return\nstop\n\nsub_0: assembly {\n        /* \"contracts/CourseManager.sol\":193:2292  contract CourseManager {... */\n      mstore(0x40, 0x80)\n      callvalue\n      dup1\n      iszero\n      tag_1\n      jumpi\n      0x00\n      dup1\n      revert\n    tag_1:\n      pop\n      jumpi(tag_2, lt(calldatasize, 0x04))\n      shr(0xe0, calldataload(0x00))\n      dup1\n      0x18bc8216\n      eq\n      tag_3\n      jumpi\n      dup1\n      0x9e5b4fe4\n      eq\n      tag_4\n      jumpi\n      dup1\n      0xafd29766\n      eq\n      tag_5\n      jumpi\n      dup1\n      0xb3e7cb9d\n      eq\n      tag_6\n      jumpi\n    tag_2:\n      0x00\n      dup1\n      revert\n        /* \"contracts/CourseManager.sol\":1097:1701  function getGolfCourses() public view returns(string[] memory, string[] memory, uint[] memory) {... */\n    tag_3:\n      tag_7\n      tag_8\n      jump\t// in\n    tag_7:\n      mload(0x40)\n      tag_9\n      swap4\n      swap3\n      swap2\n      swap1\n      tag_10\n      jump\t// in\n    tag_9:\n      mload(0x40)\n      dup1\n      swap2\n      sub\n      swap1\n      return\n        /* \"contracts/CourseManager.sol\":1751:2284  function isCourseExtant(string memory _courseName) public view returns(bool) {... */\n    tag_4:\n      tag_11\n      0x04\n      dup1\n      calldatasize\n      sub\n      dup2\n      add\n      swap1\n      tag_12\n      swap2\n      swap1\n      tag_13\n      jump\t// in\n    tag_12:\n      tag_14\n      jump\t// in\n    tag_11:\n      mload(0x40)\n      tag_15\n      swap2\n      swap1\n      tag_16\n      jump\t// in\n    tag_15:\n      mload(0x40)\n      dup1\n      swap2\n      sub\n      swap1\n      return\n        /* \"contracts/CourseManager.sol\":769:1083  function addGolfCourse(string calldata _name, string calldata _description, uint _numberOfHoles) public {... */\n    tag_5:\n      tag_17\n      0x04\n      dup1\n      calldatasize\n      sub\n      dup2\n      add\n      swap1\n      tag_18\n      swap2\n      swap1\n      tag_19\n      jump\t// in\n    tag_18:\n      tag_20\n      jump\t// in\n    tag_17:\n      stop\n        /* \"contracts/CourseManager.sol\":1708:1741  function deleteCourse() public {} */\n    tag_6:\n      tag_21\n      tag_22\n      jump\t// in\n    tag_21:\n      stop\n        /* \"contracts/CourseManager.sol\":1097:1701  function getGolfCourses() public view returns(string[] memory, string[] memory, uint[] memory) {... */\n    tag_8:\n        /* \"contracts/CourseManager.sol\":1143:1158  string[] memory */\n      0x60\n        /* \"contracts/CourseManager.sol\":1160:1175  string[] memory */\n      dup1\n        /* \"contracts/CourseManager.sol\":1177:1190  uint[] memory */\n      0x60\n        /* \"contracts/CourseManager.sol\":1202:1223  string[] memory _keys */\n      0x00\n        /* \"contracts/CourseManager.sol\":1239:1253  golfCourseKeys */\n      0x01\n        /* \"contracts/CourseManager.sol\":1239:1260  golfCourseKeys.length */\n      dup1\n      sload\n      swap1\n      pop\n        /* \"contracts/CourseManager.sol\":1226:1261  new string[](golfCourseKeys.length) */\n      0xffffffffffffffff\n      dup2\n      gt\n      iszero\n      tag_24\n      jumpi\n      tag_25\n      tag_26\n      jump\t// in\n    tag_25:\n    tag_24:\n      mload(0x40)\n      swap1\n      dup1\n      dup3\n      mstore\n      dup1\n      0x20\n      mul\n      0x20\n      add\n      dup3\n      add\n      0x40\n      mstore\n      dup1\n      iszero\n      tag_27\n      jumpi\n      dup2\n      0x20\n      add\n    tag_28:\n      0x60\n      dup2\n      mstore\n      0x20\n      add\n      swap1\n      0x01\n      swap1\n      sub\n      swap1\n      dup2\n      tag_28\n      jumpi\n      swap1\n      pop\n    tag_27:\n      pop\n        /* \"contracts/CourseManager.sol\":1202:1261  string[] memory _keys = new string[](golfCourseKeys.length) */\n      swap1\n      pop\n        /* \"contracts/CourseManager.sol\":1271:1293  string[] memory _names */\n      0x00\n        /* \"contracts/CourseManager.sol\":1309:1323  golfCourseKeys */\n      0x01\n        /* \"contracts/CourseManager.sol\":1309:1330  golfCourseKeys.length */\n      dup1\n      sload\n      swap1\n      pop\n        /* \"contracts/CourseManager.sol\":1296:1331  new string[](golfCourseKeys.length) */\n      0xffffffffffffffff\n      dup2\n      gt\n      iszero\n      tag_29\n      jumpi\n      tag_30\n      tag_26\n      jump\t// in\n    tag_30:\n    tag_29:\n      mload(0x40)\n      swap1\n      dup1\n      dup3\n      mstore\n      dup1\n      0x20\n      mul\n      0x20\n      add\n      dup3\n      add\n      0x40\n      mstore\n      dup1\n      iszero\n      tag_31\n      jumpi\n      dup2\n      0x20\n      add\n    tag_32:\n      0x60\n      dup2\n      mstore\n      0x20\n      add\n      swap1\n      0x01\n      swap1\n      sub\n      swap1\n      dup2\n      tag_32\n      jumpi\n      swap1\n      pop\n    tag_31:\n      pop\n        /* \"contracts/CourseManager.sol\":1271:1331  string[] memory _names = new string[](golfCourseKeys.length) */\n      swap1\n      pop\n        /* \"contracts/CourseManager.sol\":1341:1361  uint[] memory _holes */\n      0x00\n        /* \"contracts/CourseManager.sol\":1375:1389  golfCourseKeys */\n      0x01\n        /* \"contracts/CourseManager.sol\":1375:1396  golfCourseKeys.length */\n      dup1\n      sload\n      swap1\n      pop\n        /* \"contracts/CourseManager.sol\":1364:1397  new uint[](golfCourseKeys.length) */\n      0xffffffffffffffff\n      dup2\n      gt\n      iszero\n      tag_33\n      jumpi\n      tag_34\n      tag_26\n      jump\t// in\n    tag_34:\n    tag_33:\n      mload(0x40)\n      swap1\n      dup1\n      dup3\n      mstore\n      dup1\n      0x20\n      mul\n      0x20\n      add\n      dup3\n      add\n      0x40\n      mstore\n      dup1\n      iszero\n      tag_35\n      jumpi\n      dup2\n      0x20\n      add\n      0x20\n      dup3\n      mul\n      dup1\n      calldatasize\n      dup4\n      calldatacopy\n      dup1\n      dup3\n      add\n      swap2\n      pop\n      pop\n      swap1\n      pop\n    tag_35:\n      pop\n        /* \"contracts/CourseManager.sol\":1341:1397  uint[] memory _holes = new uint[](golfCourseKeys.length) */\n      swap1\n      pop\n        /* \"contracts/CourseManager.sol\":1413:1422  uint256 i */\n      0x00\n        /* \"contracts/CourseManager.sol\":1408:1657  for (uint256 i=0; i< golfCourseKeys.length; i++) {... */\n    tag_36:\n        /* \"contracts/CourseManager.sol\":1429:1443  golfCourseKeys */\n      0x01\n        /* \"contracts/CourseManager.sol\":1429:1450  golfCourseKeys.length */\n      dup1\n      sload\n      swap1\n      pop\n        /* \"contracts/CourseManager.sol\":1426:1427  i */\n      dup2\n        /* \"contracts/CourseManager.sol\":1426:1450  i< golfCourseKeys.length */\n      lt\n        /* \"contracts/CourseManager.sol\":1408:1657  for (uint256 i=0; i< golfCourseKeys.length; i++) {... */\n      iszero\n      tag_37\n      jumpi\n        /* \"contracts/CourseManager.sol\":1482:1496  golfCourseKeys */\n      0x01\n        /* \"contracts/CourseManager.sol\":1497:1498  i */\n      dup2\n        /* \"contracts/CourseManager.sol\":1482:1499  golfCourseKeys[i] */\n      dup2\n      sload\n      dup2\n      lt\n      tag_39\n      jumpi\n      tag_40\n      tag_41\n      jump\t// in\n    tag_40:\n    tag_39:\n      swap1\n      0x00\n      mstore\n      keccak256(0x00, 0x20)\n      add\n        /* \"contracts/CourseManager.sol\":1471:1499  _keys[i] = golfCourseKeys[i] */\n      dup1\n      sload\n      tag_43\n      swap1\n      tag_44\n      jump\t// in\n    tag_43:\n      dup1\n      0x1f\n      add\n      0x20\n      dup1\n      swap2\n      div\n      mul\n      0x20\n      add\n      mload(0x40)\n      swap1\n      dup2\n      add\n      0x40\n      mstore\n      dup1\n      swap3\n      swap2\n      swap1\n      dup2\n      dup2\n      mstore\n      0x20\n      add\n      dup3\n      dup1\n      sload\n      tag_45\n      swap1\n      tag_44\n      jump\t// in\n    tag_45:\n      dup1\n      iszero\n      tag_46\n      jumpi\n      dup1\n      0x1f\n      lt\n      tag_47\n      jumpi\n      0x0100\n      dup1\n      dup4\n      sload\n      div\n      mul\n      dup4\n      mstore\n      swap2\n      0x20\n      add\n      swap2\n      jump(tag_46)\n    tag_47:\n      dup3\n      add\n      swap2\n      swap1\n      0x00\n      mstore\n      keccak256(0x00, 0x20)\n      swap1\n    tag_48:\n      dup2\n      sload\n      dup2\n      mstore\n      swap1\n      0x01\n      add\n      swap1\n      0x20\n      add\n      dup1\n      dup4\n      gt\n      tag_48\n      jumpi\n      dup3\n      swap1\n      sub\n      0x1f\n      and\n      dup3\n      add\n      swap2\n    tag_46:\n      pop\n      pop\n      pop\n      pop\n      pop\n        /* \"contracts/CourseManager.sol\":1471:1476  _keys */\n      dup5\n        /* \"contracts/CourseManager.sol\":1477:1478  i */\n      dup3\n        /* \"contracts/CourseManager.sol\":1471:1479  _keys[i] */\n      dup2\n      mload\n      dup2\n      lt\n      tag_49\n      jumpi\n      tag_50\n      tag_41\n      jump\t// in\n    tag_50:\n    tag_49:\n      0x20\n      mul\n      0x20\n      add\n      add\n        /* \"contracts/CourseManager.sol\":1471:1499  _keys[i] = golfCourseKeys[i] */\n      dup2\n      swap1\n      mstore\n      pop\n        /* \"contracts/CourseManager.sol\":1513:1532  GolfCourse memory x */\n      0x00\n        /* \"contracts/CourseManager.sol\":1535:1546  golfCourses */\n      dup1\n        /* \"contracts/CourseManager.sol\":1547:1561  golfCourseKeys */\n      0x01\n        /* \"contracts/CourseManager.sol\":1562:1563  i */\n      dup4\n        /* \"contracts/CourseManager.sol\":1547:1564  golfCourseKeys[i] */\n      dup2\n      sload\n      dup2\n      lt\n      tag_51\n      jumpi\n      tag_52\n      tag_41\n      jump\t// in\n    tag_52:\n    tag_51:\n      swap1\n      0x00\n      mstore\n      keccak256(0x00, 0x20)\n      add\n        /* \"contracts/CourseManager.sol\":1535:1565  golfCourses[golfCourseKeys[i]] */\n      mload(0x40)\n      tag_54\n      swap2\n      swap1\n      tag_55\n      jump\t// in\n    tag_54:\n      swap1\n      dup2\n      mstore\n      0x20\n      add\n      mload(0x40)\n      dup1\n      swap2\n      sub\n      swap1\n      keccak256\n        /* \"contracts/CourseManager.sol\":1513:1565  GolfCourse memory x = golfCourses[golfCourseKeys[i]] */\n      mload(0x40)\n      dup1\n      0x60\n      add\n      0x40\n      mstore\n      swap1\n      dup2\n      0x00\n      dup3\n      add\n      dup1\n      sload\n      tag_56\n      swap1\n      tag_44\n      jump\t// in\n    tag_56:\n      dup1\n      0x1f\n      add\n      0x20\n      dup1\n      swap2\n      div\n      mul\n      0x20\n      add\n      mload(0x40)\n      swap1\n      dup2\n      add\n      0x40\n      mstore\n      dup1\n      swap3\n      swap2\n      swap1\n      dup2\n      dup2\n      mstore\n      0x20\n      add\n      dup3\n      dup1\n      sload\n      tag_57\n      swap1\n      tag_44\n      jump\t// in\n    tag_57:\n      dup1\n      iszero\n      tag_58\n      jumpi\n      dup1\n      0x1f\n      lt\n      tag_59\n      jumpi\n      0x0100\n      dup1\n      dup4\n      sload\n      div\n      mul\n      dup4\n      mstore\n      swap2\n      0x20\n      add\n      swap2\n      jump(tag_58)\n    tag_59:\n      dup3\n      add\n      swap2\n      swap1\n      0x00\n      mstore\n      keccak256(0x00, 0x20)\n      swap1\n    tag_60:\n      dup2\n      sload\n      dup2\n      mstore\n      swap1\n      0x01\n      add\n      swap1\n      0x20\n      add\n      dup1\n      dup4\n      gt\n      tag_60\n      jumpi\n      dup3\n      swap1\n      sub\n      0x1f\n      and\n      dup3\n      add\n      swap2\n    tag_58:\n      pop\n      pop\n      pop\n      pop\n      pop\n      dup2\n      mstore\n      0x20\n      add\n      0x01\n      dup3\n      add\n      dup1\n      sload\n      tag_61\n      swap1\n      tag_44\n      jump\t// in\n    tag_61:\n      dup1\n      0x1f\n      add\n      0x20\n      dup1\n      swap2\n      div\n      mul\n      0x20\n      add\n      mload(0x40)\n      swap1\n      dup2\n      add\n      0x40\n      mstore\n      dup1\n      swap3\n      swap2\n      swap1\n      dup2\n      dup2\n      mstore\n      0x20\n      add\n      dup3\n      dup1\n      sload\n      tag_62\n      swap1\n      tag_44\n      jump\t// in\n    tag_62:\n      dup1\n      iszero\n      tag_63\n      jumpi\n      dup1\n      0x1f\n      lt\n      tag_64\n      jumpi\n      0x0100\n      dup1\n      dup4\n      sload\n      div\n      mul\n      dup4\n      mstore\n      swap2\n      0x20\n      add\n      swap2\n      jump(tag_63)\n    tag_64:\n      dup3\n      add\n      swap2\n      swap1\n      0x00\n      mstore\n      keccak256(0x00, 0x20)\n      swap1\n    tag_65:\n      dup2\n      sload\n      dup2\n      mstore\n      swap1\n      0x01\n      add\n      swap1\n      0x20\n      add\n      dup1\n      dup4\n      gt\n      tag_65\n      jumpi\n      dup3\n      swap1\n      sub\n      0x1f\n      and\n      dup3\n      add\n      swap2\n    tag_63:\n      pop\n      pop\n      pop\n      pop\n      pop\n      dup2\n      mstore\n      0x20\n      add\n      0x02\n      dup3\n      add\n      sload\n      dup2\n      mstore\n      pop\n      pop\n      swap1\n      pop\n        /* \"contracts/CourseManager.sol\":1591:1592  x */\n      dup1\n        /* \"contracts/CourseManager.sol\":1591:1604  x.description */\n      0x20\n      add\n      mload\n        /* \"contracts/CourseManager.sol\":1579:1585  _names */\n      dup5\n        /* \"contracts/CourseManager.sol\":1586:1587  i */\n      dup4\n        /* \"contracts/CourseManager.sol\":1579:1588  _names[i] */\n      dup2\n      mload\n      dup2\n      lt\n      tag_66\n      jumpi\n      tag_67\n      tag_41\n      jump\t// in\n    tag_67:\n    tag_66:\n      0x20\n      mul\n      0x20\n      add\n      add\n        /* \"contracts/CourseManager.sol\":1579:1604  _names[i] = x.description */\n      dup2\n      swap1\n      mstore\n      pop\n        /* \"contracts/CourseManager.sol\":1631:1632  x */\n      dup1\n        /* \"contracts/CourseManager.sol\":1631:1646  x.numberOfHoles */\n      0x40\n      add\n      mload\n        /* \"contracts/CourseManager.sol\":1619:1625  _holes */\n      dup4\n        /* \"contracts/CourseManager.sol\":1626:1627  i */\n      dup4\n        /* \"contracts/CourseManager.sol\":1619:1628  _holes[i] */\n      dup2\n      mload\n      dup2\n      lt\n      tag_68\n      jumpi\n      tag_69\n      tag_41\n      jump\t// in\n    tag_69:\n    tag_68:\n      0x20\n      mul\n      0x20\n      add\n      add\n        /* \"contracts/CourseManager.sol\":1619:1646  _holes[i] = x.numberOfHoles */\n      dup2\n      dup2\n      mstore\n      pop\n      pop\n        /* \"contracts/CourseManager.sol\":1457:1657  {... */\n      pop\n        /* \"contracts/CourseManager.sol\":1452:1455  i++ */\n      dup1\n      dup1\n      0x01\n      add\n      swap2\n      pop\n      pop\n        /* \"contracts/CourseManager.sol\":1408:1657  for (uint256 i=0; i< golfCourseKeys.length; i++) {... */\n      jump(tag_36)\n    tag_37:\n      pop\n        /* \"contracts/CourseManager.sol\":1674:1679  _keys */\n      dup3\n        /* \"contracts/CourseManager.sol\":1680:1686  _names */\n      dup3\n        /* \"contracts/CourseManager.sol\":1687:1693  _holes */\n      dup3\n        /* \"contracts/CourseManager.sol\":1666:1694  return (_keys,_names,_holes) */\n      swap6\n      pop\n      swap6\n      pop\n      swap6\n      pop\n      pop\n      pop\n      pop\n        /* \"contracts/CourseManager.sol\":1097:1701  function getGolfCourses() public view returns(string[] memory, string[] memory, uint[] memory) {... */\n      swap1\n      swap2\n      swap3\n      jump\t// out\n        /* \"contracts/CourseManager.sol\":1751:2284  function isCourseExtant(string memory _courseName) public view returns(bool) {... */\n    tag_14:\n        /* \"contracts/CourseManager.sol\":1822:1826  bool */\n      0x00\n        /* \"contracts/CourseManager.sol\":1836:1856  GolfCourse storage x */\n      dup1\n        /* \"contracts/CourseManager.sol\":1859:1870  golfCourses */\n      0x00\n        /* \"contracts/CourseManager.sol\":1871:1882  _courseName */\n      dup4\n        /* \"contracts/CourseManager.sol\":1859:1883  golfCourses[_courseName] */\n      mload(0x40)\n      tag_71\n      swap2\n      swap1\n      tag_72\n      jump\t// in\n    tag_71:\n      swap1\n      dup2\n      mstore\n      0x20\n      add\n      mload(0x40)\n      dup1\n      swap2\n      sub\n      swap1\n      keccak256\n        /* \"contracts/CourseManager.sol\":1836:1883  GolfCourse storage x = golfCourses[_courseName] */\n      swap1\n      pop\n        /* \"contracts/CourseManager.sol\":2269:2270  x */\n      dup1\n        /* \"contracts/CourseManager.sol\":2269:2275  x.name */\n      0x00\n      add\n        /* \"contracts/CourseManager.sol\":2252:2276  abi.encodePacked(x.name) */\n      add(0x20, mload(0x40))\n      tag_73\n      swap2\n      swap1\n      tag_55\n      jump\t// in\n    tag_73:\n      mload(0x40)\n      0x20\n      dup2\n      dup4\n      sub\n      sub\n      dup2\n      mstore\n      swap1\n      0x40\n      mstore\n        /* \"contracts/CourseManager.sol\":2242:2277  keccak256(abi.encodePacked(x.name)) */\n      dup1\n      mload\n      swap1\n      0x20\n      add\n      keccak256\n        /* \"contracts/CourseManager.sol\":2217:2237  abi.encodePacked(\"\") */\n      add(0x20, mload(0x40))\n      tag_74\n      swap1\n      tag_75\n      jump\t// in\n    tag_74:\n      mload(0x40)\n      0x20\n      dup2\n      dup4\n      sub\n      sub\n      dup2\n      mstore\n      swap1\n      0x40\n      mstore\n        /* \"contracts/CourseManager.sol\":2207:2238  keccak256(abi.encodePacked(\"\")) */\n      dup1\n      mload\n      swap1\n      0x20\n      add\n      keccak256\n        /* \"contracts/CourseManager.sol\":2207:2277  keccak256(abi.encodePacked(\"\")) == keccak256(abi.encodePacked(x.name)) */\n      eq\n        /* \"contracts/CourseManager.sol\":2200:2277  return keccak256(abi.encodePacked(\"\")) == keccak256(abi.encodePacked(x.name)) */\n      swap2\n      pop\n      pop\n        /* \"contracts/CourseManager.sol\":1751:2284  function isCourseExtant(string memory _courseName) public view returns(bool) {... */\n      swap2\n      swap1\n      pop\n      jump\t// out\n        /* \"contracts/CourseManager.sol\":769:1083  function addGolfCourse(string calldata _name, string calldata _description, uint _numberOfHoles) public {... */\n    tag_20:\n        /* \"contracts/CourseManager.sol\":904:1038  GolfCourse({... */\n      mload(0x40)\n      dup1\n      0x60\n      add\n      0x40\n      mstore\n      dup1\n        /* \"contracts/CourseManager.sol\":935:940  _name */\n      dup7\n      dup7\n        /* \"contracts/CourseManager.sol\":904:1038  GolfCourse({... */\n      dup1\n      dup1\n      0x1f\n      add\n      0x20\n      dup1\n      swap2\n      div\n      mul\n      0x20\n      add\n      mload(0x40)\n      swap1\n      dup2\n      add\n      0x40\n      mstore\n      dup1\n      swap4\n      swap3\n      swap2\n      swap1\n      dup2\n      dup2\n      mstore\n      0x20\n      add\n      dup4\n      dup4\n      dup1\n      dup3\n      dup5\n      calldatacopy\n      0x00\n      dup2\n      dup5\n      add\n      mstore\n      not(0x1f)\n      0x1f\n      dup3\n      add\n      and\n      swap1\n      pop\n      dup1\n      dup4\n      add\n      swap3\n      pop\n      pop\n      pop\n      pop\n      pop\n      pop\n      pop\n      dup2\n      mstore\n      0x20\n      add\n        /* \"contracts/CourseManager.sol\":968:980  _description */\n      dup5\n      dup5\n        /* \"contracts/CourseManager.sol\":904:1038  GolfCourse({... */\n      dup1\n      dup1\n      0x1f\n      add\n      0x20\n      dup1\n      swap2\n      div\n      mul\n      0x20\n      add\n      mload(0x40)\n      swap1\n      dup2\n      add\n      0x40\n      mstore\n      dup1\n      swap4\n      swap3\n      swap2\n      swap1\n      dup2\n      dup2\n      mstore\n      0x20\n      add\n      dup4\n      dup4\n      dup1\n      dup3\n      dup5\n      calldatacopy\n      0x00\n      dup2\n      dup5\n      add\n      mstore\n      not(0x1f)\n      0x1f\n      dup3\n      add\n      and\n      swap1\n      pop\n      dup1\n      dup4\n      add\n      swap3\n      pop\n      pop\n      pop\n      pop\n      pop\n      pop\n      pop\n      dup2\n      mstore\n      0x20\n      add\n        /* \"contracts/CourseManager.sol\":1009:1023  _numberOfHoles */\n      dup3\n        /* \"contracts/CourseManager.sol\":904:1038  GolfCourse({... */\n      dup2\n      mstore\n      pop\n        /* \"contracts/CourseManager.sol\":883:894  golfCourses */\n      0x00\n        /* \"contracts/CourseManager.sol\":895:900  _name */\n      dup7\n      dup7\n        /* \"contracts/CourseManager.sol\":883:901  golfCourses[_name] */\n      mload(0x40)\n      tag_77\n      swap3\n      swap2\n      swap1\n      tag_78\n      jump\t// in\n    tag_77:\n      swap1\n      dup2\n      mstore\n      0x20\n      add\n      mload(0x40)\n      dup1\n      swap2\n      sub\n      swap1\n      keccak256\n        /* \"contracts/CourseManager.sol\":883:1038  golfCourses[_name] = GolfCourse({... */\n      0x00\n      dup3\n      add\n      mload\n      dup2\n      0x00\n      add\n      swap1\n      dup2\n      tag_79\n      swap2\n      swap1\n      tag_80\n      jump\t// in\n    tag_79:\n      pop\n      0x20\n      dup3\n      add\n      mload\n      dup2\n      0x01\n      add\n      swap1\n      dup2\n      tag_81\n      swap2\n      swap1\n      tag_80\n      jump\t// in\n    tag_81:\n      pop\n      0x40\n      dup3\n      add\n      mload\n      dup2\n      0x02\n      add\n      sstore\n      swap1\n      pop\n      pop\n        /* \"contracts/CourseManager.sol\":1050:1064  golfCourseKeys */\n      0x01\n        /* \"contracts/CourseManager.sol\":1070:1075  _name */\n      dup6\n      dup6\n        /* \"contracts/CourseManager.sol\":1050:1076  golfCourseKeys.push(_name) */\n      swap1\n      swap2\n      dup1\n      0x01\n      dup2\n      sload\n      add\n      dup1\n      dup3\n      sstore\n      dup1\n      swap2\n      pop\n      pop\n      0x01\n      swap1\n      sub\n      swap1\n      0x00\n      mstore\n      keccak256(0x00, 0x20)\n      add\n      0x00\n      swap1\n      swap2\n      swap3\n      swap1\n      swap2\n      swap3\n      swap1\n      swap2\n      swap3\n      swap1\n      swap2\n      swap3\n      pop\n      swap2\n      dup3\n      tag_83\n      swap3\n      swap2\n      swap1\n      tag_84\n      jump\t// in\n    tag_83:\n      pop\n        /* \"contracts/CourseManager.sol\":769:1083  function addGolfCourse(string calldata _name, string calldata _description, uint _numberOfHoles) public {... */\n      pop\n      pop\n      pop\n      pop\n      pop\n      jump\t// out\n        /* \"contracts/CourseManager.sol\":1708:1741  function deleteCourse() public {} */\n    tag_22:\n      jump\t// out\n        /* \"#utility.yul\":7:131   */\n    tag_86:\n        /* \"#utility.yul\":84:90   */\n      0x00\n        /* \"#utility.yul\":118:123   */\n      dup2\n        /* \"#utility.yul\":112:124   */\n      mload\n        /* \"#utility.yul\":102:124   */\n      swap1\n      pop\n        /* \"#utility.yul\":7:131   */\n      swap2\n      swap1\n      pop\n      jump\t// out\n        /* \"#utility.yul\":137:331   */\n    tag_87:\n        /* \"#utility.yul\":246:257   */\n      0x00\n        /* \"#utility.yul\":280:286   */\n      dup3\n        /* \"#utility.yul\":275:278   */\n      dup3\n        /* \"#utility.yul\":268:287   */\n      mstore\n        /* \"#utility.yul\":320:324   */\n      0x20\n        /* \"#utility.yul\":315:318   */\n      dup3\n        /* \"#utility.yul\":311:325   */\n      add\n        /* \"#utility.yul\":296:325   */\n      swap1\n      pop\n        /* \"#utility.yul\":137:331   */\n      swap3\n      swap2\n      pop\n      pop\n      jump\t// out\n        /* \"#utility.yul\":337:479   */\n    tag_88:\n        /* \"#utility.yul\":414:418   */\n      0x00\n        /* \"#utility.yul\":437:440   */\n      dup2\n        /* \"#utility.yul\":429:440   */\n      swap1\n      pop\n        /* \"#utility.yul\":467:471   */\n      0x20\n        /* \"#utility.yul\":462:465   */\n      dup3\n        /* \"#utility.yul\":458:472   */\n      add\n        /* \"#utility.yul\":450:472   */\n      swap1\n      pop\n        /* \"#utility.yul\":337:479   */\n      swap2\n      swap1\n      pop\n      jump\t// out\n        /* \"#utility.yul\":485:584   */\n    tag_89:\n        /* \"#utility.yul\":537:543   */\n      0x00\n        /* \"#utility.yul\":571:576   */\n      dup2\n        /* \"#utility.yul\":565:577   */\n      mload\n        /* \"#utility.yul\":555:577   */\n      swap1\n      pop\n        /* \"#utility.yul\":485:584   */\n      swap2\n      swap1\n      pop\n      jump\t// out\n        /* \"#utility.yul\":590:749   */\n    tag_90:\n        /* \"#utility.yul\":664:675   */\n      0x00\n        /* \"#utility.yul\":698:704   */\n      dup3\n        /* \"#utility.yul\":693:696   */\n      dup3\n        /* \"#utility.yul\":686:705   */\n      mstore\n        /* \"#utility.yul\":738:742   */\n      0x20\n        /* \"#utility.yul\":733:736   */\n      dup3\n        /* \"#utility.yul\":729:743   */\n      add\n        /* \"#utility.yul\":714:743   */\n      swap1\n      pop\n        /* \"#utility.yul\":590:749   */\n      swap3\n      swap2\n      pop\n      pop\n      jump\t// out\n        /* \"#utility.yul\":755:894   */\n    tag_91:\n        /* \"#utility.yul\":844:850   */\n      dup3\n        /* \"#utility.yul\":839:842   */\n      dup2\n        /* \"#utility.yul\":834:837   */\n      dup4\n        /* \"#utility.yul\":828:851   */\n      mcopy\n        /* \"#utility.yul\":885:886   */\n      0x00\n        /* \"#utility.yul\":876:882   */\n      dup4\n        /* \"#utility.yul\":871:874   */\n      dup4\n        /* \"#utility.yul\":867:883   */\n      add\n        /* \"#utility.yul\":860:887   */\n      mstore\n        /* \"#utility.yul\":755:894   */\n      pop\n      pop\n      pop\n      jump\t// out\n        /* \"#utility.yul\":900:1002   */\n    tag_92:\n        /* \"#utility.yul\":941:947   */\n      0x00\n        /* \"#utility.yul\":992:994   */\n      0x1f\n        /* \"#utility.yul\":988:995   */\n      not\n        /* \"#utility.yul\":983:985   */\n      0x1f\n        /* \"#utility.yul\":976:981   */\n      dup4\n        /* \"#utility.yul\":972:986   */\n      add\n        /* \"#utility.yul\":968:996   */\n      and\n        /* \"#utility.yul\":958:996   */\n      swap1\n      pop\n        /* \"#utility.yul\":900:1002   */\n      swap2\n      swap1\n      pop\n      jump\t// out\n        /* \"#utility.yul\":1008:1365   */\n    tag_93:\n        /* \"#utility.yul\":1086:1089   */\n      0x00\n        /* \"#utility.yul\":1114:1153   */\n      tag_155\n        /* \"#utility.yul\":1147:1152   */\n      dup3\n        /* \"#utility.yul\":1114:1153   */\n      tag_89\n      jump\t// in\n    tag_155:\n        /* \"#utility.yul\":1169:1230   */\n      tag_156\n        /* \"#utility.yul\":1223:1229   */\n      dup2\n        /* \"#utility.yul\":1218:1221   */\n      dup6\n        /* \"#utility.yul\":1169:1230   */\n      tag_90\n      jump\t// in\n    tag_156:\n        /* \"#utility.yul\":1162:1230   */\n      swap4\n      pop\n        /* \"#utility.yul\":1239:1304   */\n      tag_157\n        /* \"#utility.yul\":1297:1303   */\n      dup2\n        /* \"#utility.yul\":1292:1295   */\n      dup6\n        /* \"#utility.yul\":1285:1289   */\n      0x20\n        /* \"#utility.yul\":1278:1283   */\n      dup7\n        /* \"#utility.yul\":1274:1290   */\n      add\n        /* \"#utility.yul\":1239:1304   */\n      tag_91\n      jump\t// in\n    tag_157:\n        /* \"#utility.yul\":1329:1358   */\n      tag_158\n        /* \"#utility.yul\":1351:1357   */\n      dup2\n        /* \"#utility.yul\":1329:1358   */\n      tag_92\n      jump\t// in\n    tag_158:\n        /* \"#utility.yul\":1324:1327   */\n      dup5\n        /* \"#utility.yul\":1320:1359   */\n      add\n        /* \"#utility.yul\":1313:1359   */\n      swap2\n      pop\n        /* \"#utility.yul\":1090:1365   */\n      pop\n        /* \"#utility.yul\":1008:1365   */\n      swap3\n      swap2\n      pop\n      pop\n      jump\t// out\n        /* \"#utility.yul\":1371:1567   */\n    tag_94:\n        /* \"#utility.yul\":1460:1470   */\n      0x00\n        /* \"#utility.yul\":1495:1561   */\n      tag_160\n        /* \"#utility.yul\":1557:1560   */\n      dup4\n        /* \"#utility.yul\":1549:1555   */\n      dup4\n        /* \"#utility.yul\":1495:1561   */\n      tag_93\n      jump\t// in\n    tag_160:\n        /* \"#utility.yul\":1481:1561   */\n      swap1\n      pop\n        /* \"#utility.yul\":1371:1567   */\n      swap3\n      swap2\n      pop\n      pop\n      jump\t// out\n        /* \"#utility.yul\":1573:1696   */\n    tag_95:\n        /* \"#utility.yul\":1653:1657   */\n      0x00\n        /* \"#utility.yul\":1685:1689   */\n      0x20\n        /* \"#utility.yul\":1680:1683   */\n      dup3\n        /* \"#utility.yul\":1676:1690   */\n      add\n        /* \"#utility.yul\":1668:1690   */\n      swap1\n      pop\n        /* \"#utility.yul\":1573:1696   */\n      swap2\n      swap1\n      pop\n      jump\t// out\n        /* \"#utility.yul\":1730:2721   */\n    tag_96:\n        /* \"#utility.yul\":1869:1872   */\n      0x00\n        /* \"#utility.yul\":1898:1962   */\n      tag_163\n        /* \"#utility.yul\":1956:1961   */\n      dup3\n        /* \"#utility.yul\":1898:1962   */\n      tag_86\n      jump\t// in\n    tag_163:\n        /* \"#utility.yul\":1978:2074   */\n      tag_164\n        /* \"#utility.yul\":2067:2073   */\n      dup2\n        /* \"#utility.yul\":2062:2065   */\n      dup6\n        /* \"#utility.yul\":1978:2074   */\n      tag_87\n      jump\t// in\n    tag_164:\n        /* \"#utility.yul\":1971:2074   */\n      swap4\n      pop\n        /* \"#utility.yul\":2100:2103   */\n      dup4\n        /* \"#utility.yul\":2145:2149   */\n      0x20\n        /* \"#utility.yul\":2137:2143   */\n      dup3\n        /* \"#utility.yul\":2133:2150   */\n      mul\n        /* \"#utility.yul\":2128:2131   */\n      dup6\n        /* \"#utility.yul\":2124:2151   */\n      add\n        /* \"#utility.yul\":2175:2241   */\n      tag_165\n        /* \"#utility.yul\":2235:2240   */\n      dup6\n        /* \"#utility.yul\":2175:2241   */\n      tag_88\n      jump\t// in\n    tag_165:\n        /* \"#utility.yul\":2264:2271   */\n      dup1\n        /* \"#utility.yul\":2295:2296   */\n      0x00\n        /* \"#utility.yul\":2280:2676   */\n    tag_166:\n        /* \"#utility.yul\":2305:2311   */\n      dup6\n        /* \"#utility.yul\":2302:2303   */\n      dup2\n        /* \"#utility.yul\":2299:2312   */\n      lt\n        /* \"#utility.yul\":2280:2676   */\n      iszero\n      tag_168\n      jumpi\n        /* \"#utility.yul\":2376:2385   */\n      dup5\n        /* \"#utility.yul\":2370:2374   */\n      dup5\n        /* \"#utility.yul\":2366:2386   */\n      sub\n        /* \"#utility.yul\":2361:2364   */\n      dup10\n        /* \"#utility.yul\":2354:2387   */\n      mstore\n        /* \"#utility.yul\":2427:2433   */\n      dup2\n        /* \"#utility.yul\":2421:2434   */\n      mload\n        /* \"#utility.yul\":2455:2539   */\n      tag_169\n        /* \"#utility.yul\":2534:2538   */\n      dup6\n        /* \"#utility.yul\":2519:2532   */\n      dup3\n        /* \"#utility.yul\":2455:2539   */\n      tag_94\n      jump\t// in\n    tag_169:\n        /* \"#utility.yul\":2447:2539   */\n      swap5\n      pop\n        /* \"#utility.yul\":2562:2632   */\n      tag_170\n        /* \"#utility.yul\":2625:2631   */\n      dup4\n        /* \"#utility.yul\":2562:2632   */\n      tag_95\n      jump\t// in\n    tag_170:\n        /* \"#utility.yul\":2552:2632   */\n      swap3\n      pop\n        /* \"#utility.yul\":2661:2665   */\n      0x20\n        /* \"#utility.yul\":2656:2659   */\n      dup11\n        /* \"#utility.yul\":2652:2666   */\n      add\n        /* \"#utility.yul\":2645:2666   */\n      swap10\n      pop\n        /* \"#utility.yul\":2340:2676   */\n      pop\n        /* \"#utility.yul\":2327:2328   */\n      0x01\n        /* \"#utility.yul\":2324:2325   */\n      dup2\n        /* \"#utility.yul\":2320:2329   */\n      add\n        /* \"#utility.yul\":2315:2329   */\n      swap1\n      pop\n        /* \"#utility.yul\":2280:2676   */\n      jump(tag_166)\n    tag_168:\n        /* \"#utility.yul\":2284:2298   */\n      pop\n        /* \"#utility.yul\":2692:2696   */\n      dup3\n        /* \"#utility.yul\":2685:2696   */\n      swap8\n      pop\n        /* \"#utility.yul\":2712:2715   */\n      dup8\n        /* \"#utility.yul\":2705:2715   */\n      swap6\n      pop\n        /* \"#utility.yul\":1874:2721   */\n      pop\n      pop\n      pop\n      pop\n      pop\n        /* \"#utility.yul\":1730:2721   */\n      swap3\n      swap2\n      pop\n      pop\n      jump\t// out\n        /* \"#utility.yul\":2727:2841   */\n    tag_97:\n        /* \"#utility.yul\":2794:2800   */\n      0x00\n        /* \"#utility.yul\":2828:2833   */\n      dup2\n        /* \"#utility.yul\":2822:2834   */\n      mload\n        /* \"#utility.yul\":2812:2834   */\n      swap1\n      pop\n        /* \"#utility.yul\":2727:2841   */\n      swap2\n      swap1\n      pop\n      jump\t// out\n        /* \"#utility.yul\":2847:3031   */\n    tag_98:\n        /* \"#utility.yul\":2946:2957   */\n      0x00\n        /* \"#utility.yul\":2980:2986   */\n      dup3\n        /* \"#utility.yul\":2975:2978   */\n      dup3\n        /* \"#utility.yul\":2968:2987   */\n      mstore\n        /* \"#utility.yul\":3020:3024   */\n      0x20\n        /* \"#utility.yul\":3015:3018   */\n      dup3\n        /* \"#utility.yul\":3011:3025   */\n      add\n        /* \"#utility.yul\":2996:3025   */\n      swap1\n      pop\n        /* \"#utility.yul\":2847:3031   */\n      swap3\n      swap2\n      pop\n      pop\n      jump\t// out\n        /* \"#utility.yul\":3037:3169   */\n    tag_99:\n        /* \"#utility.yul\":3104:3108   */\n      0x00\n        /* \"#utility.yul\":3127:3130   */\n      dup2\n        /* \"#utility.yul\":3119:3130   */\n      swap1\n      pop\n        /* \"#utility.yul\":3157:3161   */\n      0x20\n        /* \"#utility.yul\":3152:3155   */\n      dup3\n        /* \"#utility.yul\":3148:3162   */\n      add\n        /* \"#utility.yul\":3140:3162   */\n      swap1\n      pop\n        /* \"#utility.yul\":3037:3169   */\n      swap2\n      swap1\n      pop\n      jump\t// out\n        /* \"#utility.yul\":3175:3252   */\n    tag_100:\n        /* \"#utility.yul\":3212:3219   */\n      0x00\n        /* \"#utility.yul\":3241:3246   */\n      dup2\n        /* \"#utility.yul\":3230:3246   */\n      swap1\n      pop\n        /* \"#utility.yul\":3175:3252   */\n      swap2\n      swap1\n      pop\n      jump\t// out\n        /* \"#utility.yul\":3258:3366   */\n    tag_101:\n        /* \"#utility.yul\":3335:3359   */\n      tag_176\n        /* \"#utility.yul\":3353:3358   */\n      dup2\n        /* \"#utility.yul\":3335:3359   */\n      tag_100\n      jump\t// in\n    tag_176:\n        /* \"#utility.yul\":3330:3333   */\n      dup3\n        /* \"#utility.yul\":3323:3360   */\n      mstore\n        /* \"#utility.yul\":3258:3366   */\n      pop\n      pop\n      jump\t// out\n        /* \"#utility.yul\":3372:3551   */\n    tag_102:\n        /* \"#utility.yul\":3441:3451   */\n      0x00\n        /* \"#utility.yul\":3462:3508   */\n      tag_178\n        /* \"#utility.yul\":3504:3507   */\n      dup4\n        /* \"#utility.yul\":3496:3502   */\n      dup4\n        /* \"#utility.yul\":3462:3508   */\n      tag_101\n      jump\t// in\n    tag_178:\n        /* \"#utility.yul\":3540:3544   */\n      0x20\n        /* \"#utility.yul\":3535:3538   */\n      dup4\n        /* \"#utility.yul\":3531:3545   */\n      add\n        /* \"#utility.yul\":3517:3545   */\n      swap1\n      pop\n        /* \"#utility.yul\":3372:3551   */\n      swap3\n      swap2\n      pop\n      pop\n      jump\t// out\n        /* \"#utility.yul\":3557:3670   */\n    tag_103:\n        /* \"#utility.yul\":3627:3631   */\n      0x00\n        /* \"#utility.yul\":3659:3663   */\n      0x20\n        /* \"#utility.yul\":3654:3657   */\n      dup3\n        /* \"#utility.yul\":3650:3664   */\n      add\n        /* \"#utility.yul\":3642:3664   */\n      swap1\n      pop\n        /* \"#utility.yul\":3557:3670   */\n      swap2\n      swap1\n      pop\n      jump\t// out\n        /* \"#utility.yul\":3706:4438   */\n    tag_104:\n        /* \"#utility.yul\":3825:3828   */\n      0x00\n        /* \"#utility.yul\":3854:3908   */\n      tag_181\n        /* \"#utility.yul\":3902:3907   */\n      dup3\n        /* \"#utility.yul\":3854:3908   */\n      tag_97\n      jump\t// in\n    tag_181:\n        /* \"#utility.yul\":3924:4010   */\n      tag_182\n        /* \"#utility.yul\":4003:4009   */\n      dup2\n        /* \"#utility.yul\":3998:4001   */\n      dup6\n        /* \"#utility.yul\":3924:4010   */\n      tag_98\n      jump\t// in\n    tag_182:\n        /* \"#utility.yul\":3917:4010   */\n      swap4\n      pop\n        /* \"#utility.yul\":4034:4090   */\n      tag_183\n        /* \"#utility.yul\":4084:4089   */\n      dup4\n        /* \"#utility.yul\":4034:4090   */\n      tag_99\n      jump\t// in\n    tag_183:\n        /* \"#utility.yul\":4113:4120   */\n      dup1\n        /* \"#utility.yul\":4144:4145   */\n      0x00\n        /* \"#utility.yul\":4129:4413   */\n    tag_184:\n        /* \"#utility.yul\":4154:4160   */\n      dup4\n        /* \"#utility.yul\":4151:4152   */\n      dup2\n        /* \"#utility.yul\":4148:4161   */\n      lt\n        /* \"#utility.yul\":4129:4413   */\n      iszero\n      tag_186\n      jumpi\n        /* \"#utility.yul\":4230:4236   */\n      dup2\n        /* \"#utility.yul\":4224:4237   */\n      mload\n        /* \"#utility.yul\":4257:4320   */\n      tag_187\n        /* \"#utility.yul\":4316:4319   */\n      dup9\n        /* \"#utility.yul\":4301:4314   */\n      dup3\n        /* \"#utility.yul\":4257:4320   */\n      tag_102\n      jump\t// in\n    tag_187:\n        /* \"#utility.yul\":4250:4320   */\n      swap8\n      pop\n        /* \"#utility.yul\":4343:4403   */\n      tag_188\n        /* \"#utility.yul\":4396:4402   */\n      dup4\n        /* \"#utility.yul\":4343:4403   */\n      tag_103\n      jump\t// in\n    tag_188:\n        /* \"#utility.yul\":4333:4403   */\n      swap3\n      pop\n        /* \"#utility.yul\":4189:4413   */\n      pop\n        /* \"#utility.yul\":4176:4177   */\n      0x01\n        /* \"#utility.yul\":4173:4174   */\n      dup2\n        /* \"#utility.yul\":4169:4178   */\n      add\n        /* \"#utility.yul\":4164:4178   */\n      swap1\n      pop\n        /* \"#utility.yul\":4129:4413   */\n      jump(tag_184)\n    tag_186:\n        /* \"#utility.yul\":4133:4147   */\n      pop\n        /* \"#utility.yul\":4429:4432   */\n      dup6\n        /* \"#utility.yul\":4422:4432   */\n      swap4\n      pop\n        /* \"#utility.yul\":3830:4438   */\n      pop\n      pop\n      pop\n        /* \"#utility.yul\":3706:4438   */\n      swap3\n      swap2\n      pop\n      pop\n      jump\t// out\n        /* \"#utility.yul\":4444:5419   */\n    tag_10:\n        /* \"#utility.yul\":4783:4787   */\n      0x00\n        /* \"#utility.yul\":4821:4823   */\n      0x60\n        /* \"#utility.yul\":4810:4819   */\n      dup3\n        /* \"#utility.yul\":4806:4824   */\n      add\n        /* \"#utility.yul\":4798:4824   */\n      swap1\n      pop\n        /* \"#utility.yul\":4870:4879   */\n      dup2\n        /* \"#utility.yul\":4864:4868   */\n      dup2\n        /* \"#utility.yul\":4860:4880   */\n      sub\n        /* \"#utility.yul\":4856:4857   */\n      0x00\n        /* \"#utility.yul\":4845:4854   */\n      dup4\n        /* \"#utility.yul\":4841:4858   */\n      add\n        /* \"#utility.yul\":4834:4881   */\n      mstore\n        /* \"#utility.yul\":4898:5026   */\n      tag_190\n        /* \"#utility.yul\":5021:5025   */\n      dup2\n        /* \"#utility.yul\":5012:5018   */\n      dup7\n        /* \"#utility.yul\":4898:5026   */\n      tag_96\n      jump\t// in\n    tag_190:\n        /* \"#utility.yul\":4890:5026   */\n      swap1\n      pop\n        /* \"#utility.yul\":5073:5082   */\n      dup2\n        /* \"#utility.yul\":5067:5071   */\n      dup2\n        /* \"#utility.yul\":5063:5083   */\n      sub\n        /* \"#utility.yul\":5058:5060   */\n      0x20\n        /* \"#utility.yul\":5047:5056   */\n      dup4\n        /* \"#utility.yul\":5043:5061   */\n      add\n        /* \"#utility.yul\":5036:5084   */\n      mstore\n        /* \"#utility.yul\":5101:5229   */\n      tag_191\n        /* \"#utility.yul\":5224:5228   */\n      dup2\n        /* \"#utility.yul\":5215:5221   */\n      dup6\n        /* \"#utility.yul\":5101:5229   */\n      tag_96\n      jump\t// in\n    tag_191:\n        /* \"#utility.yul\":5093:5229   */\n      swap1\n      pop\n        /* \"#utility.yul\":5276:5285   */\n      dup2\n        /* \"#utility.yul\":5270:5274   */\n      dup2\n        /* \"#utility.yul\":5266:5286   */\n      sub\n        /* \"#utility.yul\":5261:5263   */\n      0x40\n        /* \"#utility.yul\":5250:5259   */\n      dup4\n        /* \"#utility.yul\":5246:5264   */\n      add\n        /* \"#utility.yul\":5239:5287   */\n      mstore\n        /* \"#utility.yul\":5304:5412   */\n      tag_192\n        /* \"#utility.yul\":5407:5411   */\n      dup2\n        /* \"#utility.yul\":5398:5404   */\n      dup5\n        /* \"#utility.yul\":5304:5412   */\n      tag_104\n      jump\t// in\n    tag_192:\n        /* \"#utility.yul\":5296:5412   */\n      swap1\n      pop\n        /* \"#utility.yul\":4444:5419   */\n      swap5\n      swap4\n      pop\n      pop\n      pop\n      pop\n      jump\t// out\n        /* \"#utility.yul\":5425:5500   */\n    tag_105:\n        /* \"#utility.yul\":5458:5464   */\n      0x00\n        /* \"#utility.yul\":5491:5493   */\n      0x40\n        /* \"#utility.yul\":5485:5494   */\n      mload\n        /* \"#utility.yul\":5475:5494   */\n      swap1\n      pop\n        /* \"#utility.yul\":5425:5500   */\n      swap1\n      jump\t// out\n        /* \"#utility.yul\":5506:5623   */\n    tag_106:\n        /* \"#utility.yul\":5615:5616   */\n      0x00\n        /* \"#utility.yul\":5612:5613   */\n      dup1\n        /* \"#utility.yul\":5605:5617   */\n      revert\n        /* \"#utility.yul\":5629:5746   */\n    tag_107:\n        /* \"#utility.yul\":5738:5739   */\n      0x00\n        /* \"#utility.yul\":5735:5736   */\n      dup1\n        /* \"#utility.yul\":5728:5740   */\n      revert\n        /* \"#utility.yul\":5752:5869   */\n    tag_108:\n        /* \"#utility.yul\":5861:5862   */\n      0x00\n        /* \"#utility.yul\":5858:5859   */\n      dup1\n        /* \"#utility.yul\":5851:5863   */\n      revert\n        /* \"#utility.yul\":5875:5992   */\n    tag_109:\n        /* \"#utility.yul\":5984:5985   */\n      0x00\n        /* \"#utility.yul\":5981:5982   */\n      dup1\n        /* \"#utility.yul\":5974:5986   */\n      revert\n        /* \"#utility.yul\":5998:6178   */\n    tag_26:\n        /* \"#utility.yul\":6046:6123   */\n      0x4e487b7100000000000000000000000000000000000000000000000000000000\n        /* \"#utility.yul\":6043:6044   */\n      0x00\n        /* \"#utility.yul\":6036:6124   */\n      mstore\n        /* \"#utility.yul\":6143:6147   */\n      0x41\n        /* \"#utility.yul\":6140:6141   */\n      0x04\n        /* \"#utility.yul\":6133:6148   */\n      mstore\n        /* \"#utility.yul\":6167:6171   */\n      0x24\n        /* \"#utility.yul\":6164:6165   */\n      0x00\n        /* \"#utility.yul\":6157:6172   */\n      revert\n        /* \"#utility.yul\":6184:6465   */\n    tag_110:\n        /* \"#utility.yul\":6267:6294   */\n      tag_200\n        /* \"#utility.yul\":6289:6293   */\n      dup3\n        /* \"#utility.yul\":6267:6294   */\n      tag_92\n      jump\t// in\n    tag_200:\n        /* \"#utility.yul\":6259:6265   */\n      dup2\n        /* \"#utility.yul\":6255:6295   */\n      add\n        /* \"#utility.yul\":6397:6403   */\n      dup2\n        /* \"#utility.yul\":6385:6395   */\n      dup2\n        /* \"#utility.yul\":6382:6404   */\n      lt\n        /* \"#utility.yul\":6361:6379   */\n      0xffffffffffffffff\n        /* \"#utility.yul\":6349:6359   */\n      dup3\n        /* \"#utility.yul\":6346:6380   */\n      gt\n        /* \"#utility.yul\":6343:6405   */\n      or\n        /* \"#utility.yul\":6340:6428   */\n      iszero\n      tag_201\n      jumpi\n        /* \"#utility.yul\":6408:6426   */\n      tag_202\n      tag_26\n      jump\t// in\n    tag_202:\n        /* \"#utility.yul\":6340:6428   */\n    tag_201:\n        /* \"#utility.yul\":6448:6458   */\n      dup1\n        /* \"#utility.yul\":6444:6446   */\n      0x40\n        /* \"#utility.yul\":6437:6459   */\n      mstore\n        /* \"#utility.yul\":6227:6465   */\n      pop\n        /* \"#utility.yul\":6184:6465   */\n      pop\n      pop\n      jump\t// out\n        /* \"#utility.yul\":6471:6600   */\n    tag_111:\n        /* \"#utility.yul\":6505:6511   */\n      0x00\n        /* \"#utility.yul\":6532:6552   */\n      tag_204\n      tag_105\n      jump\t// in\n    tag_204:\n        /* \"#utility.yul\":6522:6552   */\n      swap1\n      pop\n        /* \"#utility.yul\":6561:6594   */\n      tag_205\n        /* \"#utility.yul\":6589:6593   */\n      dup3\n        /* \"#utility.yul\":6581:6587   */\n      dup3\n        /* \"#utility.yul\":6561:6594   */\n      tag_110\n      jump\t// in\n    tag_205:\n        /* \"#utility.yul\":6471:6600   */\n      swap2\n      swap1\n      pop\n      jump\t// out\n        /* \"#utility.yul\":6606:6914   */\n    tag_112:\n        /* \"#utility.yul\":6668:6672   */\n      0x00\n        /* \"#utility.yul\":6758:6776   */\n      0xffffffffffffffff\n        /* \"#utility.yul\":6750:6756   */\n      dup3\n        /* \"#utility.yul\":6747:6777   */\n      gt\n        /* \"#utility.yul\":6744:6800   */\n      iszero\n      tag_207\n      jumpi\n        /* \"#utility.yul\":6780:6798   */\n      tag_208\n      tag_26\n      jump\t// in\n    tag_208:\n        /* \"#utility.yul\":6744:6800   */\n    tag_207:\n        /* \"#utility.yul\":6818:6847   */\n      tag_209\n        /* \"#utility.yul\":6840:6846   */\n      dup3\n        /* \"#utility.yul\":6818:6847   */\n      tag_92\n      jump\t// in\n    tag_209:\n        /* \"#utility.yul\":6810:6847   */\n      swap1\n      pop\n        /* \"#utility.yul\":6902:6906   */\n      0x20\n        /* \"#utility.yul\":6896:6900   */\n      dup2\n        /* \"#utility.yul\":6892:6907   */\n      add\n        /* \"#utility.yul\":6884:6907   */\n      swap1\n      pop\n        /* \"#utility.yul\":6606:6914   */\n      swap2\n      swap1\n      pop\n      jump\t// out\n        /* \"#utility.yul\":6920:7068   */\n    tag_113:\n        /* \"#utility.yul\":7018:7024   */\n      dup3\n        /* \"#utility.yul\":7013:7016   */\n      dup2\n        /* \"#utility.yul\":7008:7011   */\n      dup4\n        /* \"#utility.yul\":6995:7025   */\n      calldatacopy\n        /* \"#utility.yul\":7059:7060   */\n      0x00\n        /* \"#utility.yul\":7050:7056   */\n      dup4\n        /* \"#utility.yul\":7045:7048   */\n      dup4\n        /* \"#utility.yul\":7041:7057   */\n      add\n        /* \"#utility.yul\":7034:7061   */\n      mstore\n        /* \"#utility.yul\":6920:7068   */\n      pop\n      pop\n      pop\n      jump\t// out\n        /* \"#utility.yul\":7074:7499   */\n    tag_114:\n        /* \"#utility.yul\":7152:7157   */\n      0x00\n        /* \"#utility.yul\":7177:7243   */\n      tag_212\n        /* \"#utility.yul\":7193:7242   */\n      tag_213\n        /* \"#utility.yul\":7235:7241   */\n      dup5\n        /* \"#utility.yul\":7193:7242   */\n      tag_112\n      jump\t// in\n    tag_213:\n        /* \"#utility.yul\":7177:7243   */\n      tag_111\n      jump\t// in\n    tag_212:\n        /* \"#utility.yul\":7168:7243   */\n      swap1\n      pop\n        /* \"#utility.yul\":7266:7272   */\n      dup3\n        /* \"#utility.yul\":7259:7264   */\n      dup2\n        /* \"#utility.yul\":7252:7273   */\n      mstore\n        /* \"#utility.yul\":7304:7308   */\n      0x20\n        /* \"#utility.yul\":7297:7302   */\n      dup2\n        /* \"#utility.yul\":7293:7309   */\n      add\n        /* \"#utility.yul\":7342:7345   */\n      dup5\n        /* \"#utility.yul\":7333:7339   */\n      dup5\n        /* \"#utility.yul\":7328:7331   */\n      dup5\n        /* \"#utility.yul\":7324:7340   */\n      add\n        /* \"#utility.yul\":7321:7346   */\n      gt\n        /* \"#utility.yul\":7318:7430   */\n      iszero\n      tag_214\n      jumpi\n        /* \"#utility.yul\":7349:7428   */\n      tag_215\n      tag_109\n      jump\t// in\n    tag_215:\n        /* \"#utility.yul\":7318:7430   */\n    tag_214:\n        /* \"#utility.yul\":7439:7493   */\n      tag_216\n        /* \"#utility.yul\":7486:7492   */\n      dup5\n        /* \"#utility.yul\":7481:7484   */\n      dup3\n        /* \"#utility.yul\":7476:7479   */\n      dup6\n        /* \"#utility.yul\":7439:7493   */\n      tag_113\n      jump\t// in\n    tag_216:\n        /* \"#utility.yul\":7158:7499   */\n      pop\n        /* \"#utility.yul\":7074:7499   */\n      swap4\n      swap3\n      pop\n      pop\n      pop\n      jump\t// out\n        /* \"#utility.yul\":7519:7859   */\n    tag_115:\n        /* \"#utility.yul\":7575:7580   */\n      0x00\n        /* \"#utility.yul\":7624:7627   */\n      dup3\n        /* \"#utility.yul\":7617:7621   */\n      0x1f\n        /* \"#utility.yul\":7609:7615   */\n      dup4\n        /* \"#utility.yul\":7605:7622   */\n      add\n        /* \"#utility.yul\":7601:7628   */\n      slt\n        /* \"#utility.yul\":7591:7713   */\n      tag_218\n      jumpi\n        /* \"#utility.yul\":7632:7711   */\n      tag_219\n      tag_108\n      jump\t// in\n    tag_219:\n        /* \"#utility.yul\":7591:7713   */\n    tag_218:\n        /* \"#utility.yul\":7749:7755   */\n      dup2\n        /* \"#utility.yul\":7736:7756   */\n      calldataload\n        /* \"#utility.yul\":7774:7853   */\n      tag_220\n        /* \"#utility.yul\":7849:7852   */\n      dup5\n        /* \"#utility.yul\":7841:7847   */\n      dup3\n        /* \"#utility.yul\":7834:7838   */\n      0x20\n        /* \"#utility.yul\":7826:7832   */\n      dup7\n        /* \"#utility.yul\":7822:7839   */\n      add\n        /* \"#utility.yul\":7774:7853   */\n      tag_114\n      jump\t// in\n    tag_220:\n        /* \"#utility.yul\":7765:7853   */\n      swap2\n      pop\n        /* \"#utility.yul\":7581:7859   */\n      pop\n        /* \"#utility.yul\":7519:7859   */\n      swap3\n      swap2\n      pop\n      pop\n      jump\t// out\n        /* \"#utility.yul\":7865:8374   */\n    tag_13:\n        /* \"#utility.yul\":7934:7940   */\n      0x00\n        /* \"#utility.yul\":7983:7985   */\n      0x20\n        /* \"#utility.yul\":7971:7980   */\n      dup3\n        /* \"#utility.yul\":7962:7969   */\n      dup5\n        /* \"#utility.yul\":7958:7981   */\n      sub\n        /* \"#utility.yul\":7954:7986   */\n      slt\n        /* \"#utility.yul\":7951:8070   */\n      iszero\n      tag_222\n      jumpi\n        /* \"#utility.yul\":7989:8068   */\n      tag_223\n      tag_106\n      jump\t// in\n    tag_223:\n        /* \"#utility.yul\":7951:8070   */\n    tag_222:\n        /* \"#utility.yul\":8137:8138   */\n      0x00\n        /* \"#utility.yul\":8126:8135   */\n      dup3\n        /* \"#utility.yul\":8122:8139   */\n      add\n        /* \"#utility.yul\":8109:8140   */\n      calldataload\n        /* \"#utility.yul\":8167:8185   */\n      0xffffffffffffffff\n        /* \"#utility.yul\":8159:8165   */\n      dup2\n        /* \"#utility.yul\":8156:8186   */\n      gt\n        /* \"#utility.yul\":8153:8270   */\n      iszero\n      tag_224\n      jumpi\n        /* \"#utility.yul\":8189:8268   */\n      tag_225\n      tag_107\n      jump\t// in\n    tag_225:\n        /* \"#utility.yul\":8153:8270   */\n    tag_224:\n        /* \"#utility.yul\":8294:8357   */\n      tag_226\n        /* \"#utility.yul\":8349:8356   */\n      dup5\n        /* \"#utility.yul\":8340:8346   */\n      dup3\n        /* \"#utility.yul\":8329:8338   */\n      dup6\n        /* \"#utility.yul\":8325:8347   */\n      add\n        /* \"#utility.yul\":8294:8357   */\n      tag_115\n      jump\t// in\n    tag_226:\n        /* \"#utility.yul\":8284:8357   */\n      swap2\n      pop\n        /* \"#utility.yul\":8080:8367   */\n      pop\n        /* \"#utility.yul\":7865:8374   */\n      swap3\n      swap2\n      pop\n      pop\n      jump\t// out\n        /* \"#utility.yul\":8380:8470   */\n    tag_116:\n        /* \"#utility.yul\":8414:8421   */\n      0x00\n        /* \"#utility.yul\":8457:8462   */\n      dup2\n        /* \"#utility.yul\":8450:8463   */\n      iszero\n        /* \"#utility.yul\":8443:8464   */\n      iszero\n        /* \"#utility.yul\":8432:8464   */\n      swap1\n      pop\n        /* \"#utility.yul\":8380:8470   */\n      swap2\n      swap1\n      pop\n      jump\t// out\n        /* \"#utility.yul\":8476:8585   */\n    tag_117:\n        /* \"#utility.yul\":8557:8578   */\n      tag_229\n        /* \"#utility.yul\":8572:8577   */\n      dup2\n        /* \"#utility.yul\":8557:8578   */\n      tag_116\n      jump\t// in\n    tag_229:\n        /* \"#utility.yul\":8552:8555   */\n      dup3\n        /* \"#utility.yul\":8545:8579   */\n      mstore\n        /* \"#utility.yul\":8476:8585   */\n      pop\n      pop\n      jump\t// out\n        /* \"#utility.yul\":8591:8801   */\n    tag_16:\n        /* \"#utility.yul\":8678:8682   */\n      0x00\n        /* \"#utility.yul\":8716:8718   */\n      0x20\n        /* \"#utility.yul\":8705:8714   */\n      dup3\n        /* \"#utility.yul\":8701:8719   */\n      add\n        /* \"#utility.yul\":8693:8719   */\n      swap1\n      pop\n        /* \"#utility.yul\":8729:8794   */\n      tag_231\n        /* \"#utility.yul\":8791:8792   */\n      0x00\n        /* \"#utility.yul\":8780:8789   */\n      dup4\n        /* \"#utility.yul\":8776:8793   */\n      add\n        /* \"#utility.yul\":8767:8773   */\n      dup5\n        /* \"#utility.yul\":8729:8794   */\n      tag_117\n      jump\t// in\n    tag_231:\n        /* \"#utility.yul\":8591:8801   */\n      swap3\n      swap2\n      pop\n      pop\n      jump\t// out\n        /* \"#utility.yul\":8807:8924   */\n    tag_118:\n        /* \"#utility.yul\":8916:8917   */\n      0x00\n        /* \"#utility.yul\":8913:8914   */\n      dup1\n        /* \"#utility.yul\":8906:8918   */\n      revert\n        /* \"#utility.yul\":8930:9047   */\n    tag_119:\n        /* \"#utility.yul\":9039:9040   */\n      0x00\n        /* \"#utility.yul\":9036:9037   */\n      dup1\n        /* \"#utility.yul\":9029:9041   */\n      revert\n        /* \"#utility.yul\":9067:9620   */\n    tag_120:\n        /* \"#utility.yul\":9125:9133   */\n      0x00\n        /* \"#utility.yul\":9135:9141   */\n      dup1\n        /* \"#utility.yul\":9185:9188   */\n      dup4\n        /* \"#utility.yul\":9178:9182   */\n      0x1f\n        /* \"#utility.yul\":9170:9176   */\n      dup5\n        /* \"#utility.yul\":9166:9183   */\n      add\n        /* \"#utility.yul\":9162:9189   */\n      slt\n        /* \"#utility.yul\":9152:9274   */\n      tag_235\n      jumpi\n        /* \"#utility.yul\":9193:9272   */\n      tag_236\n      tag_108\n      jump\t// in\n    tag_236:\n        /* \"#utility.yul\":9152:9274   */\n    tag_235:\n        /* \"#utility.yul\":9306:9312   */\n      dup3\n        /* \"#utility.yul\":9293:9313   */\n      calldataload\n        /* \"#utility.yul\":9283:9313   */\n      swap1\n      pop\n        /* \"#utility.yul\":9336:9354   */\n      0xffffffffffffffff\n        /* \"#utility.yul\":9328:9334   */\n      dup2\n        /* \"#utility.yul\":9325:9355   */\n      gt\n        /* \"#utility.yul\":9322:9439   */\n      iszero\n      tag_237\n      jumpi\n        /* \"#utility.yul\":9358:9437   */\n      tag_238\n      tag_118\n      jump\t// in\n    tag_238:\n        /* \"#utility.yul\":9322:9439   */\n    tag_237:\n        /* \"#utility.yul\":9472:9476   */\n      0x20\n        /* \"#utility.yul\":9464:9470   */\n      dup4\n        /* \"#utility.yul\":9460:9477   */\n      add\n        /* \"#utility.yul\":9448:9477   */\n      swap2\n      pop\n        /* \"#utility.yul\":9526:9529   */\n      dup4\n        /* \"#utility.yul\":9518:9522   */\n      0x01\n        /* \"#utility.yul\":9510:9516   */\n      dup3\n        /* \"#utility.yul\":9506:9523   */\n      mul\n        /* \"#utility.yul\":9496:9504   */\n      dup4\n        /* \"#utility.yul\":9492:9524   */\n      add\n        /* \"#utility.yul\":9489:9530   */\n      gt\n        /* \"#utility.yul\":9486:9614   */\n      iszero\n      tag_239\n      jumpi\n        /* \"#utility.yul\":9533:9612   */\n      tag_240\n      tag_119\n      jump\t// in\n    tag_240:\n        /* \"#utility.yul\":9486:9614   */\n    tag_239:\n        /* \"#utility.yul\":9067:9620   */\n      swap3\n      pop\n      swap3\n      swap1\n      pop\n      jump\t// out\n        /* \"#utility.yul\":9626:9748   */\n    tag_121:\n        /* \"#utility.yul\":9699:9723   */\n      tag_242\n        /* \"#utility.yul\":9717:9722   */\n      dup2\n        /* \"#utility.yul\":9699:9723   */\n      tag_100\n      jump\t// in\n    tag_242:\n        /* \"#utility.yul\":9692:9697   */\n      dup2\n        /* \"#utility.yul\":9689:9724   */\n      eq\n        /* \"#utility.yul\":9679:9742   */\n      tag_243\n      jumpi\n        /* \"#utility.yul\":9738:9739   */\n      0x00\n        /* \"#utility.yul\":9735:9736   */\n      dup1\n        /* \"#utility.yul\":9728:9740   */\n      revert\n        /* \"#utility.yul\":9679:9742   */\n    tag_243:\n        /* \"#utility.yul\":9626:9748   */\n      pop\n      jump\t// out\n        /* \"#utility.yul\":9754:9893   */\n    tag_122:\n        /* \"#utility.yul\":9800:9805   */\n      0x00\n        /* \"#utility.yul\":9838:9844   */\n      dup2\n        /* \"#utility.yul\":9825:9845   */\n      calldataload\n        /* \"#utility.yul\":9816:9845   */\n      swap1\n      pop\n        /* \"#utility.yul\":9854:9887   */\n      tag_245\n        /* \"#utility.yul\":9881:9886   */\n      dup2\n        /* \"#utility.yul\":9854:9887   */\n      tag_121\n      jump\t// in\n    tag_245:\n        /* \"#utility.yul\":9754:9893   */\n      swap3\n      swap2\n      pop\n      pop\n      jump\t// out\n        /* \"#utility.yul\":9899:10918   */\n    tag_19:\n        /* \"#utility.yul\":10000:10006   */\n      0x00\n        /* \"#utility.yul\":10008:10014   */\n      dup1\n        /* \"#utility.yul\":10016:10022   */\n      0x00\n        /* \"#utility.yul\":10024:10030   */\n      dup1\n        /* \"#utility.yul\":10032:10038   */\n      0x00\n        /* \"#utility.yul\":10081:10083   */\n      0x60\n        /* \"#utility.yul\":10069:10078   */\n      dup7\n        /* \"#utility.yul\":10060:10067   */\n      dup9\n        /* \"#utility.yul\":10056:10079   */\n      sub\n        /* \"#utility.yul\":10052:10084   */\n      slt\n        /* \"#utility.yul\":10049:10168   */\n      iszero\n      tag_247\n      jumpi\n        /* \"#utility.yul\":10087:10166   */\n      tag_248\n      tag_106\n      jump\t// in\n    tag_248:\n        /* \"#utility.yul\":10049:10168   */\n    tag_247:\n        /* \"#utility.yul\":10235:10236   */\n      0x00\n        /* \"#utility.yul\":10224:10233   */\n      dup7\n        /* \"#utility.yul\":10220:10237   */\n      add\n        /* \"#utility.yul\":10207:10238   */\n      calldataload\n        /* \"#utility.yul\":10265:10283   */\n      0xffffffffffffffff\n        /* \"#utility.yul\":10257:10263   */\n      dup2\n        /* \"#utility.yul\":10254:10284   */\n      gt\n        /* \"#utility.yul\":10251:10368   */\n      iszero\n      tag_249\n      jumpi\n        /* \"#utility.yul\":10287:10366   */\n      tag_250\n      tag_107\n      jump\t// in\n    tag_250:\n        /* \"#utility.yul\":10251:10368   */\n    tag_249:\n        /* \"#utility.yul\":10400:10465   */\n      tag_251\n        /* \"#utility.yul\":10457:10464   */\n      dup9\n        /* \"#utility.yul\":10448:10454   */\n      dup3\n        /* \"#utility.yul\":10437:10446   */\n      dup10\n        /* \"#utility.yul\":10433:10455   */\n      add\n        /* \"#utility.yul\":10400:10465   */\n      tag_120\n      jump\t// in\n    tag_251:\n        /* \"#utility.yul\":10382:10465   */\n      swap6\n      pop\n      swap6\n      pop\n        /* \"#utility.yul\":10178:10475   */\n      pop\n        /* \"#utility.yul\":10542:10544   */\n      0x20\n        /* \"#utility.yul\":10531:10540   */\n      dup7\n        /* \"#utility.yul\":10527:10545   */\n      add\n        /* \"#utility.yul\":10514:10546   */\n      calldataload\n        /* \"#utility.yul\":10573:10591   */\n      0xffffffffffffffff\n        /* \"#utility.yul\":10565:10571   */\n      dup2\n        /* \"#utility.yul\":10562:10592   */\n      gt\n        /* \"#utility.yul\":10559:10676   */\n      iszero\n      tag_252\n      jumpi\n        /* \"#utility.yul\":10595:10674   */\n      tag_253\n      tag_107\n      jump\t// in\n    tag_253:\n        /* \"#utility.yul\":10559:10676   */\n    tag_252:\n        /* \"#utility.yul\":10708:10773   */\n      tag_254\n        /* \"#utility.yul\":10765:10772   */\n      dup9\n        /* \"#utility.yul\":10756:10762   */\n      dup3\n        /* \"#utility.yul\":10745:10754   */\n      dup10\n        /* \"#utility.yul\":10741:10763   */\n      add\n        /* \"#utility.yul\":10708:10773   */\n      tag_120\n      jump\t// in\n    tag_254:\n        /* \"#utility.yul\":10690:10773   */\n      swap4\n      pop\n      swap4\n      pop\n        /* \"#utility.yul\":10485:10783   */\n      pop\n        /* \"#utility.yul\":10822:10824   */\n      0x40\n        /* \"#utility.yul\":10848:10901   */\n      tag_255\n        /* \"#utility.yul\":10893:10900   */\n      dup9\n        /* \"#utility.yul\":10884:10890   */\n      dup3\n        /* \"#utility.yul\":10873:10882   */\n      dup10\n        /* \"#utility.yul\":10869:10891   */\n      add\n        /* \"#utility.yul\":10848:10901   */\n      tag_122\n      jump\t// in\n    tag_255:\n        /* \"#utility.yul\":10838:10901   */\n      swap2\n      pop\n        /* \"#utility.yul\":10793:10911   */\n      pop\n        /* \"#utility.yul\":9899:10918   */\n      swap3\n      swap6\n      pop\n      swap3\n      swap6\n      swap1\n      swap4\n      pop\n      jump\t// out\n        /* \"#utility.yul\":10924:11104   */\n    tag_41:\n        /* \"#utility.yul\":10972:11049   */\n      0x4e487b7100000000000000000000000000000000000000000000000000000000\n        /* \"#utility.yul\":10969:10970   */\n      0x00\n        /* \"#utility.yul\":10962:11050   */\n      mstore\n        /* \"#utility.yul\":11069:11073   */\n      0x32\n        /* \"#utility.yul\":11066:11067   */\n      0x04\n        /* \"#utility.yul\":11059:11074   */\n      mstore\n        /* \"#utility.yul\":11093:11097   */\n      0x24\n        /* \"#utility.yul\":11090:11091   */\n      0x00\n        /* \"#utility.yul\":11083:11098   */\n      revert\n        /* \"#utility.yul\":11110:11290   */\n    tag_123:\n        /* \"#utility.yul\":11158:11235   */\n      0x4e487b7100000000000000000000000000000000000000000000000000000000\n        /* \"#utility.yul\":11155:11156   */\n      0x00\n        /* \"#utility.yul\":11148:11236   */\n      mstore\n        /* \"#utility.yul\":11255:11259   */\n      0x22\n        /* \"#utility.yul\":11252:11253   */\n      0x04\n        /* \"#utility.yul\":11245:11260   */\n      mstore\n        /* \"#utility.yul\":11279:11283   */\n      0x24\n        /* \"#utility.yul\":11276:11277   */\n      0x00\n        /* \"#utility.yul\":11269:11284   */\n      revert\n        /* \"#utility.yul\":11296:11616   */\n    tag_44:\n        /* \"#utility.yul\":11340:11346   */\n      0x00\n        /* \"#utility.yul\":11377:11378   */\n      0x02\n        /* \"#utility.yul\":11371:11375   */\n      dup3\n        /* \"#utility.yul\":11367:11379   */\n      div\n        /* \"#utility.yul\":11357:11379   */\n      swap1\n      pop\n        /* \"#utility.yul\":11424:11425   */\n      0x01\n        /* \"#utility.yul\":11418:11422   */\n      dup3\n        /* \"#utility.yul\":11414:11426   */\n      and\n        /* \"#utility.yul\":11445:11463   */\n      dup1\n        /* \"#utility.yul\":11435:11516   */\n      tag_259\n      jumpi\n        /* \"#utility.yul\":11501:11505   */\n      0x7f\n        /* \"#utility.yul\":11493:11499   */\n      dup3\n        /* \"#utility.yul\":11489:11506   */\n      and\n        /* \"#utility.yul\":11479:11506   */\n      swap2\n      pop\n        /* \"#utility.yul\":11435:11516   */\n    tag_259:\n        /* \"#utility.yul\":11563:11565   */\n      0x20\n        /* \"#utility.yul\":11555:11561   */\n      dup3\n        /* \"#utility.yul\":11552:11566   */\n      lt\n        /* \"#utility.yul\":11532:11550   */\n      dup2\n        /* \"#utility.yul\":11529:11567   */\n      sub\n        /* \"#utility.yul\":11526:11610   */\n      tag_260\n      jumpi\n        /* \"#utility.yul\":11582:11600   */\n      tag_261\n      tag_123\n      jump\t// in\n    tag_261:\n        /* \"#utility.yul\":11526:11610   */\n    tag_260:\n        /* \"#utility.yul\":11347:11616   */\n      pop\n        /* \"#utility.yul\":11296:11616   */\n      swap2\n      swap1\n      pop\n      jump\t// out\n        /* \"#utility.yul\":11622:11770   */\n    tag_124:\n        /* \"#utility.yul\":11724:11735   */\n      0x00\n        /* \"#utility.yul\":11761:11764   */\n      dup2\n        /* \"#utility.yul\":11746:11764   */\n      swap1\n      pop\n        /* \"#utility.yul\":11622:11770   */\n      swap3\n      swap2\n      pop\n      pop\n      jump\t// out\n        /* \"#utility.yul\":11776:11917   */\n    tag_125:\n        /* \"#utility.yul\":11825:11829   */\n      0x00\n        /* \"#utility.yul\":11848:11851   */\n      dup2\n        /* \"#utility.yul\":11840:11851   */\n      swap1\n      pop\n        /* \"#utility.yul\":11871:11874   */\n      dup2\n        /* \"#utility.yul\":11868:11869   */\n      0x00\n        /* \"#utility.yul\":11861:11875   */\n      mstore\n        /* \"#utility.yul\":11905:11909   */\n      0x20\n        /* \"#utility.yul\":11902:11903   */\n      0x00\n        /* \"#utility.yul\":11892:11910   */\n      keccak256\n        /* \"#utility.yul\":11884:11910   */\n      swap1\n      pop\n        /* \"#utility.yul\":11776:11917   */\n      swap2\n      swap1\n      pop\n      jump\t// out\n        /* \"#utility.yul\":11947:12821   */\n    tag_126:\n        /* \"#utility.yul\":12050:12053   */\n      0x00\n        /* \"#utility.yul\":12087:12092   */\n      dup2\n        /* \"#utility.yul\":12081:12093   */\n      sload\n        /* \"#utility.yul\":12116:12152   */\n      tag_265\n        /* \"#utility.yul\":12142:12151   */\n      dup2\n        /* \"#utility.yul\":12116:12152   */\n      tag_44\n      jump\t// in\n    tag_265:\n        /* \"#utility.yul\":12168:12257   */\n      tag_266\n        /* \"#utility.yul\":12250:12256   */\n      dup2\n        /* \"#utility.yul\":12245:12248   */\n      dup7\n        /* \"#utility.yul\":12168:12257   */\n      tag_124\n      jump\t// in\n    tag_266:\n        /* \"#utility.yul\":12161:12257   */\n      swap5\n      pop\n        /* \"#utility.yul\":12288:12289   */\n      0x01\n        /* \"#utility.yul\":12277:12286   */\n      dup3\n        /* \"#utility.yul\":12273:12290   */\n      and\n        /* \"#utility.yul\":12304:12305   */\n      0x00\n        /* \"#utility.yul\":12299:12465   */\n      dup2\n      eq\n      tag_268\n      jumpi\n        /* \"#utility.yul\":12479:12480   */\n      0x01\n        /* \"#utility.yul\":12474:12815   */\n      dup2\n      eq\n      tag_269\n      jumpi\n        /* \"#utility.yul\":12266:12815   */\n      jump(tag_267)\n        /* \"#utility.yul\":12299:12465   */\n    tag_268:\n        /* \"#utility.yul\":12383:12387   */\n      0xff\n        /* \"#utility.yul\":12379:12388   */\n      not\n        /* \"#utility.yul\":12368:12377   */\n      dup4\n        /* \"#utility.yul\":12364:12389   */\n      and\n        /* \"#utility.yul\":12359:12362   */\n      dup7\n        /* \"#utility.yul\":12352:12390   */\n      mstore\n        /* \"#utility.yul\":12445:12451   */\n      dup2\n        /* \"#utility.yul\":12438:12452   */\n      iszero\n        /* \"#utility.yul\":12431:12453   */\n      iszero\n        /* \"#utility.yul\":12423:12429   */\n      dup3\n        /* \"#utility.yul\":12419:12454   */\n      mul\n        /* \"#utility.yul\":12414:12417   */\n      dup7\n        /* \"#utility.yul\":12410:12455   */\n      add\n        /* \"#utility.yul\":12403:12455   */\n      swap4\n      pop\n        /* \"#utility.yul\":12299:12465   */\n      jump(tag_267)\n        /* \"#utility.yul\":12474:12815   */\n    tag_269:\n        /* \"#utility.yul\":12541:12579   */\n      tag_270\n        /* \"#utility.yul\":12573:12578   */\n      dup6\n        /* \"#utility.yul\":12541:12579   */\n      tag_125\n      jump\t// in\n    tag_270:\n        /* \"#utility.yul\":12601:12602   */\n      0x00\n        /* \"#utility.yul\":12615:12769   */\n    tag_271:\n        /* \"#utility.yul\":12629:12635   */\n      dup4\n        /* \"#utility.yul\":12626:12627   */\n      dup2\n        /* \"#utility.yul\":12623:12636   */\n      lt\n        /* \"#utility.yul\":12615:12769   */\n      iszero\n      tag_273\n      jumpi\n        /* \"#utility.yul\":12703:12710   */\n      dup2\n        /* \"#utility.yul\":12697:12711   */\n      sload\n        /* \"#utility.yul\":12693:12694   */\n      dup2\n        /* \"#utility.yul\":12688:12691   */\n      dup10\n        /* \"#utility.yul\":12684:12695   */\n      add\n        /* \"#utility.yul\":12677:12712   */\n      mstore\n        /* \"#utility.yul\":12753:12754   */\n      0x01\n        /* \"#utility.yul\":12744:12751   */\n      dup3\n        /* \"#utility.yul\":12740:12755   */\n      add\n        /* \"#utility.yul\":12729:12755   */\n      swap2\n      pop\n        /* \"#utility.yul\":12651:12655   */\n      0x20\n        /* \"#utility.yul\":12648:12649   */\n      dup2\n        /* \"#utility.yul\":12644:12656   */\n      add\n        /* \"#utility.yul\":12639:12656   */\n      swap1\n      pop\n        /* \"#utility.yul\":12615:12769   */\n      jump(tag_271)\n    tag_273:\n        /* \"#utility.yul\":12798:12804   */\n      dup4\n        /* \"#utility.yul\":12793:12796   */\n      dup9\n        /* \"#utility.yul\":12789:12805   */\n      add\n        /* \"#utility.yul\":12782:12805   */\n      swap6\n      pop\n        /* \"#utility.yul\":12481:12815   */\n      pop\n      pop\n        /* \"#utility.yul\":12266:12815   */\n    tag_267:\n      pop\n        /* \"#utility.yul\":12054:12821   */\n      pop\n      pop\n        /* \"#utility.yul\":11947:12821   */\n      swap3\n      swap2\n      pop\n      pop\n      jump\t// out\n        /* \"#utility.yul\":12827:13096   */\n    tag_55:\n        /* \"#utility.yul\":12956:12959   */\n      0x00\n        /* \"#utility.yul\":12978:13070   */\n      tag_275\n        /* \"#utility.yul\":13066:13069   */\n      dup3\n        /* \"#utility.yul\":13057:13063   */\n      dup5\n        /* \"#utility.yul\":12978:13070   */\n      tag_126\n      jump\t// in\n    tag_275:\n        /* \"#utility.yul\":12971:13070   */\n      swap2\n      pop\n        /* \"#utility.yul\":13087:13090   */\n      dup2\n        /* \"#utility.yul\":13080:13090   */\n      swap1\n      pop\n        /* \"#utility.yul\":12827:13096   */\n      swap3\n      swap2\n      pop\n      pop\n      jump\t// out\n        /* \"#utility.yul\":13102:13492   */\n    tag_127:\n        /* \"#utility.yul\":13208:13211   */\n      0x00\n        /* \"#utility.yul\":13236:13275   */\n      tag_277\n        /* \"#utility.yul\":13269:13274   */\n      dup3\n        /* \"#utility.yul\":13236:13275   */\n      tag_89\n      jump\t// in\n    tag_277:\n        /* \"#utility.yul\":13291:13380   */\n      tag_278\n        /* \"#utility.yul\":13373:13379   */\n      dup2\n        /* \"#utility.yul\":13368:13371   */\n      dup6\n        /* \"#utility.yul\":13291:13380   */\n      tag_124\n      jump\t// in\n    tag_278:\n        /* \"#utility.yul\":13284:13380   */\n      swap4\n      pop\n        /* \"#utility.yul\":13389:13454   */\n      tag_279\n        /* \"#utility.yul\":13447:13453   */\n      dup2\n        /* \"#utility.yul\":13442:13445   */\n      dup6\n        /* \"#utility.yul\":13435:13439   */\n      0x20\n        /* \"#utility.yul\":13428:13433   */\n      dup7\n        /* \"#utility.yul\":13424:13440   */\n      add\n        /* \"#utility.yul\":13389:13454   */\n      tag_91\n      jump\t// in\n    tag_279:\n        /* \"#utility.yul\":13479:13485   */\n      dup1\n        /* \"#utility.yul\":13474:13477   */\n      dup5\n        /* \"#utility.yul\":13470:13486   */\n      add\n        /* \"#utility.yul\":13463:13486   */\n      swap2\n      pop\n        /* \"#utility.yul\":13212:13492   */\n      pop\n        /* \"#utility.yul\":13102:13492   */\n      swap3\n      swap2\n      pop\n      pop\n      jump\t// out\n        /* \"#utility.yul\":13498:13773   */\n    tag_72:\n        /* \"#utility.yul\":13630:13633   */\n      0x00\n        /* \"#utility.yul\":13652:13747   */\n      tag_281\n        /* \"#utility.yul\":13743:13746   */\n      dup3\n        /* \"#utility.yul\":13734:13740   */\n      dup5\n        /* \"#utility.yul\":13652:13747   */\n      tag_127\n      jump\t// in\n    tag_281:\n        /* \"#utility.yul\":13645:13747   */\n      swap2\n      pop\n        /* \"#utility.yul\":13764:13767   */\n      dup2\n        /* \"#utility.yul\":13757:13767   */\n      swap1\n      pop\n        /* \"#utility.yul\":13498:13773   */\n      swap3\n      swap2\n      pop\n      pop\n      jump\t// out\n        /* \"#utility.yul\":13779:13893   */\n    tag_128:\n      pop\n      jump\t// out\n        /* \"#utility.yul\":13899:14299   */\n    tag_129:\n        /* \"#utility.yul\":14059:14062   */\n      0x00\n        /* \"#utility.yul\":14080:14164   */\n      tag_284\n        /* \"#utility.yul\":14162:14163   */\n      0x00\n        /* \"#utility.yul\":14157:14160   */\n      dup4\n        /* \"#utility.yul\":14080:14164   */\n      tag_124\n      jump\t// in\n    tag_284:\n        /* \"#utility.yul\":14073:14164   */\n      swap2\n      pop\n        /* \"#utility.yul\":14173:14266   */\n      tag_285\n        /* \"#utility.yul\":14262:14265   */\n      dup3\n        /* \"#utility.yul\":14173:14266   */\n      tag_128\n      jump\t// in\n    tag_285:\n        /* \"#utility.yul\":14291:14292   */\n      0x00\n        /* \"#utility.yul\":14286:14289   */\n      dup3\n        /* \"#utility.yul\":14282:14293   */\n      add\n        /* \"#utility.yul\":14275:14293   */\n      swap1\n      pop\n        /* \"#utility.yul\":13899:14299   */\n      swap2\n      swap1\n      pop\n      jump\t// out\n        /* \"#utility.yul\":14305:14686   */\n    tag_75:\n        /* \"#utility.yul\":14490:14493   */\n      0x00\n        /* \"#utility.yul\":14512:14660   */\n      tag_287\n        /* \"#utility.yul\":14656:14659   */\n      dup3\n        /* \"#utility.yul\":14512:14660   */\n      tag_129\n      jump\t// in\n    tag_287:\n        /* \"#utility.yul\":14505:14660   */\n      swap2\n      pop\n        /* \"#utility.yul\":14677:14680   */\n      dup2\n        /* \"#utility.yul\":14670:14680   */\n      swap1\n      pop\n        /* \"#utility.yul\":14305:14686   */\n      swap2\n      swap1\n      pop\n      jump\t// out\n        /* \"#utility.yul\":14716:15046   */\n    tag_130:\n        /* \"#utility.yul\":14832:14835   */\n      0x00\n        /* \"#utility.yul\":14853:14942   */\n      tag_289\n        /* \"#utility.yul\":14935:14941   */\n      dup4\n        /* \"#utility.yul\":14930:14933   */\n      dup6\n        /* \"#utility.yul\":14853:14942   */\n      tag_124\n      jump\t// in\n    tag_289:\n        /* \"#utility.yul\":14846:14942   */\n      swap4\n      pop\n        /* \"#utility.yul\":14952:15008   */\n      tag_290\n        /* \"#utility.yul\":15001:15007   */\n      dup4\n        /* \"#utility.yul\":14996:14999   */\n      dup6\n        /* \"#utility.yul\":14989:14994   */\n      dup5\n        /* \"#utility.yul\":14952:15008   */\n      tag_113\n      jump\t// in\n    tag_290:\n        /* \"#utility.yul\":15033:15039   */\n      dup3\n        /* \"#utility.yul\":15028:15031   */\n      dup5\n        /* \"#utility.yul\":15024:15040   */\n      add\n        /* \"#utility.yul\":15017:15040   */\n      swap1\n      pop\n        /* \"#utility.yul\":14716:15046   */\n      swap4\n      swap3\n      pop\n      pop\n      pop\n      jump\t// out\n        /* \"#utility.yul\":15052:15347   */\n    tag_78:\n        /* \"#utility.yul\":15194:15197   */\n      0x00\n        /* \"#utility.yul\":15216:15321   */\n      tag_292\n        /* \"#utility.yul\":15317:15320   */\n      dup3\n        /* \"#utility.yul\":15308:15314   */\n      dup5\n        /* \"#utility.yul\":15300:15306   */\n      dup7\n        /* \"#utility.yul\":15216:15321   */\n      tag_130\n      jump\t// in\n    tag_292:\n        /* \"#utility.yul\":15209:15321   */\n      swap2\n      pop\n        /* \"#utility.yul\":15338:15341   */\n      dup2\n        /* \"#utility.yul\":15331:15341   */\n      swap1\n      pop\n        /* \"#utility.yul\":15052:15347   */\n      swap4\n      swap3\n      pop\n      pop\n      pop\n      jump\t// out\n        /* \"#utility.yul\":15353:15446   */\n    tag_131:\n        /* \"#utility.yul\":15390:15396   */\n      0x00\n        /* \"#utility.yul\":15437:15439   */\n      0x20\n        /* \"#utility.yul\":15432:15434   */\n      0x1f\n        /* \"#utility.yul\":15425:15430   */\n      dup4\n        /* \"#utility.yul\":15421:15435   */\n      add\n        /* \"#utility.yul\":15417:15440   */\n      div\n        /* \"#utility.yul\":15407:15440   */\n      swap1\n      pop\n        /* \"#utility.yul\":15353:15446   */\n      swap2\n      swap1\n      pop\n      jump\t// out\n        /* \"#utility.yul\":15452:15559   */\n    tag_132:\n        /* \"#utility.yul\":15496:15504   */\n      0x00\n        /* \"#utility.yul\":15546:15551   */\n      dup3\n        /* \"#utility.yul\":15540:15544   */\n      dup3\n        /* \"#utility.yul\":15536:15552   */\n      shl\n        /* \"#utility.yul\":15515:15552   */\n      swap1\n      pop\n        /* \"#utility.yul\":15452:15559   */\n      swap3\n      swap2\n      pop\n      pop\n      jump\t// out\n        /* \"#utility.yul\":15565:15958   */\n    tag_133:\n        /* \"#utility.yul\":15634:15640   */\n      0x00\n        /* \"#utility.yul\":15684:15685   */\n      0x08\n        /* \"#utility.yul\":15672:15682   */\n      dup4\n        /* \"#utility.yul\":15668:15686   */\n      mul\n        /* \"#utility.yul\":15707:15804   */\n      tag_296\n        /* \"#utility.yul\":15737:15803   */\n      0xffffffffffffffffffffffffffffffffffffffffffffffffffffffffffffffff\n        /* \"#utility.yul\":15726:15735   */\n      dup3\n        /* \"#utility.yul\":15707:15804   */\n      tag_132\n      jump\t// in\n    tag_296:\n        /* \"#utility.yul\":15825:15864   */\n      tag_297\n        /* \"#utility.yul\":15855:15863   */\n      dup7\n        /* \"#utility.yul\":15844:15853   */\n      dup4\n        /* \"#utility.yul\":15825:15864   */\n      tag_132\n      jump\t// in\n    tag_297:\n        /* \"#utility.yul\":15813:15864   */\n      swap6\n      pop\n        /* \"#utility.yul\":15897:15901   */\n      dup1\n        /* \"#utility.yul\":15893:15902   */\n      not\n        /* \"#utility.yul\":15886:15891   */\n      dup5\n        /* \"#utility.yul\":15882:15903   */\n      and\n        /* \"#utility.yul\":15873:15903   */\n      swap4\n      pop\n        /* \"#utility.yul\":15946:15950   */\n      dup1\n        /* \"#utility.yul\":15936:15944   */\n      dup7\n        /* \"#utility.yul\":15932:15951   */\n      and\n        /* \"#utility.yul\":15925:15930   */\n      dup5\n        /* \"#utility.yul\":15922:15952   */\n      or\n        /* \"#utility.yul\":15912:15952   */\n      swap3\n      pop\n        /* \"#utility.yul\":15641:15958   */\n      pop\n      pop\n        /* \"#utility.yul\":15565:15958   */\n      swap4\n      swap3\n      pop\n      pop\n      pop\n      jump\t// out\n        /* \"#utility.yul\":15964:16024   */\n    tag_134:\n        /* \"#utility.yul\":15992:15995   */\n      0x00\n        /* \"#utility.yul\":16013:16018   */\n      dup2\n        /* \"#utility.yul\":16006:16018   */\n      swap1\n      pop\n        /* \"#utility.yul\":15964:16024   */\n      swap2\n      swap1\n      pop\n      jump\t// out\n        /* \"#utility.yul\":16030:16172   */\n    tag_135:\n        /* \"#utility.yul\":16080:16089   */\n      0x00\n        /* \"#utility.yul\":16113:16166   */\n      tag_300\n        /* \"#utility.yul\":16131:16165   */\n      tag_301\n        /* \"#utility.yul\":16140:16164   */\n      tag_302\n        /* \"#utility.yul\":16158:16163   */\n      dup5\n        /* \"#utility.yul\":16140:16164   */\n      tag_100\n      jump\t// in\n    tag_302:\n        /* \"#utility.yul\":16131:16165   */\n      tag_134\n      jump\t// in\n    tag_301:\n        /* \"#utility.yul\":16113:16166   */\n      tag_100\n      jump\t// in\n    tag_300:\n        /* \"#utility.yul\":16100:16166   */\n      swap1\n      pop\n        /* \"#utility.yul\":16030:16172   */\n      swap2\n      swap1\n      pop\n      jump\t// out\n        /* \"#utility.yul\":16178:16253   */\n    tag_136:\n        /* \"#utility.yul\":16221:16224   */\n      0x00\n        /* \"#utility.yul\":16242:16247   */\n      dup2\n        /* \"#utility.yul\":16235:16247   */\n      swap1\n      pop\n        /* \"#utility.yul\":16178:16253   */\n      swap2\n      swap1\n      pop\n      jump\t// out\n        /* \"#utility.yul\":16259:16528   */\n    tag_137:\n        /* \"#utility.yul\":16369:16408   */\n      tag_305\n        /* \"#utility.yul\":16400:16407   */\n      dup4\n        /* \"#utility.yul\":16369:16408   */\n      tag_135\n      jump\t// in\n    tag_305:\n        /* \"#utility.yul\":16430:16521   */\n      tag_306\n        /* \"#utility.yul\":16479:16520   */\n      tag_307\n        /* \"#utility.yul\":16503:16519   */\n      dup3\n        /* \"#utility.yul\":16479:16520   */\n      tag_136\n      jump\t// in\n    tag_307:\n        /* \"#utility.yul\":16471:16477   */\n      dup5\n        /* \"#utility.yul\":16464:16468   */\n      dup5\n        /* \"#utility.yul\":16458:16469   */\n      sload\n        /* \"#utility.yul\":16430:16521   */\n      tag_133\n      jump\t// in\n    tag_306:\n        /* \"#utility.yul\":16424:16428   */\n      dup3\n        /* \"#utility.yul\":16417:16522   */\n      sstore\n        /* \"#utility.yul\":16335:16528   */\n      pop\n        /* \"#utility.yul\":16259:16528   */\n      pop\n      pop\n      pop\n      jump\t// out\n        /* \"#utility.yul\":16534:16607   */\n    tag_138:\n        /* \"#utility.yul\":16579:16582   */\n      0x00\n        /* \"#utility.yul\":16534:16607   */\n      swap1\n      jump\t// out\n        /* \"#utility.yul\":16613:16802   */\n    tag_139:\n        /* \"#utility.yul\":16690:16722   */\n      tag_310\n      tag_138\n      jump\t// in\n    tag_310:\n        /* \"#utility.yul\":16731:16796   */\n      tag_311\n        /* \"#utility.yul\":16789:16795   */\n      dup2\n        /* \"#utility.yul\":16781:16787   */\n      dup5\n        /* \"#utility.yul\":16775:16779   */\n      dup5\n        /* \"#utility.yul\":16731:16796   */\n      tag_137\n      jump\t// in\n    tag_311:\n        /* \"#utility.yul\":16666:16802   */\n      pop\n        /* \"#utility.yul\":16613:16802   */\n      pop\n      pop\n      jump\t// out\n        /* \"#utility.yul\":16808:16994   */\n    tag_140:\n        /* \"#utility.yul\":16868:16988   */\n    tag_313:\n        /* \"#utility.yul\":16885:16888   */\n      dup2\n        /* \"#utility.yul\":16878:16883   */\n      dup2\n        /* \"#utility.yul\":16875:16889   */\n      lt\n        /* \"#utility.yul\":16868:16988   */\n      iszero\n      tag_315\n      jumpi\n        /* \"#utility.yul\":16939:16978   */\n      tag_316\n        /* \"#utility.yul\":16976:16977   */\n      0x00\n        /* \"#utility.yul\":16969:16974   */\n      dup3\n        /* \"#utility.yul\":16939:16978   */\n      tag_139\n      jump\t// in\n    tag_316:\n        /* \"#utility.yul\":16912:16913   */\n      0x01\n        /* \"#utility.yul\":16905:16910   */\n      dup2\n        /* \"#utility.yul\":16901:16914   */\n      add\n        /* \"#utility.yul\":16892:16914   */\n      swap1\n      pop\n        /* \"#utility.yul\":16868:16988   */\n      jump(tag_313)\n    tag_315:\n        /* \"#utility.yul\":16808:16994   */\n      pop\n      pop\n      jump\t// out\n        /* \"#utility.yul\":17000:17543   */\n    tag_141:\n        /* \"#utility.yul\":17101:17103   */\n      0x1f\n        /* \"#utility.yul\":17096:17099   */\n      dup3\n        /* \"#utility.yul\":17093:17104   */\n      gt\n        /* \"#utility.yul\":17090:17536   */\n      iszero\n      tag_318\n      jumpi\n        /* \"#utility.yul\":17135:17173   */\n      tag_319\n        /* \"#utility.yul\":17167:17172   */\n      dup2\n        /* \"#utility.yul\":17135:17173   */\n      tag_125\n      jump\t// in\n    tag_319:\n        /* \"#utility.yul\":17219:17248   */\n      tag_320\n        /* \"#utility.yul\":17237:17247   */\n      dup5\n        /* \"#utility.yul\":17219:17248   */\n      tag_131\n      jump\t// in\n    tag_320:\n        /* \"#utility.yul\":17209:17217   */\n      dup2\n        /* \"#utility.yul\":17205:17249   */\n      add\n        /* \"#utility.yul\":17402:17404   */\n      0x20\n        /* \"#utility.yul\":17390:17400   */\n      dup6\n        /* \"#utility.yul\":17387:17405   */\n      lt\n        /* \"#utility.yul\":17384:17433   */\n      iszero\n      tag_321\n      jumpi\n        /* \"#utility.yul\":17423:17431   */\n      dup2\n        /* \"#utility.yul\":17408:17431   */\n      swap1\n      pop\n        /* \"#utility.yul\":17384:17433   */\n    tag_321:\n        /* \"#utility.yul\":17446:17526   */\n      tag_322\n        /* \"#utility.yul\":17502:17524   */\n      tag_323\n        /* \"#utility.yul\":17520:17523   */\n      dup6\n        /* \"#utility.yul\":17502:17524   */\n      tag_131\n      jump\t// in\n    tag_323:\n        /* \"#utility.yul\":17492:17500   */\n      dup4\n        /* \"#utility.yul\":17488:17525   */\n      add\n        /* \"#utility.yul\":17475:17486   */\n      dup3\n        /* \"#utility.yul\":17446:17526   */\n      tag_140\n      jump\t// in\n    tag_322:\n        /* \"#utility.yul\":17105:17536   */\n      pop\n      pop\n        /* \"#utility.yul\":17090:17536   */\n    tag_318:\n        /* \"#utility.yul\":17000:17543   */\n      pop\n      pop\n      pop\n      jump\t// out\n        /* \"#utility.yul\":17549:17666   */\n    tag_142:\n        /* \"#utility.yul\":17603:17611   */\n      0x00\n        /* \"#utility.yul\":17653:17658   */\n      dup3\n        /* \"#utility.yul\":17647:17651   */\n      dup3\n        /* \"#utility.yul\":17643:17659   */\n      shr\n        /* \"#utility.yul\":17622:17659   */\n      swap1\n      pop\n        /* \"#utility.yul\":17549:17666   */\n      swap3\n      swap2\n      pop\n      pop\n      jump\t// out\n        /* \"#utility.yul\":17672:17841   */\n    tag_143:\n        /* \"#utility.yul\":17716:17722   */\n      0x00\n        /* \"#utility.yul\":17749:17800   */\n      tag_326\n        /* \"#utility.yul\":17797:17798   */\n      0x00\n        /* \"#utility.yul\":17793:17799   */\n      not\n        /* \"#utility.yul\":17785:17790   */\n      dup5\n        /* \"#utility.yul\":17782:17783   */\n      0x08\n        /* \"#utility.yul\":17778:17791   */\n      mul\n        /* \"#utility.yul\":17749:17800   */\n      tag_142\n      jump\t// in\n    tag_326:\n        /* \"#utility.yul\":17745:17801   */\n      not\n        /* \"#utility.yul\":17830:17834   */\n      dup1\n        /* \"#utility.yul\":17824:17828   */\n      dup4\n        /* \"#utility.yul\":17820:17835   */\n      and\n        /* \"#utility.yul\":17810:17835   */\n      swap2\n      pop\n        /* \"#utility.yul\":17723:17841   */\n      pop\n        /* \"#utility.yul\":17672:17841   */\n      swap3\n      swap2\n      pop\n      pop\n      jump\t// out\n        /* \"#utility.yul\":17846:18141   */\n    tag_144:\n        /* \"#utility.yul\":17922:17926   */\n      0x00\n        /* \"#utility.yul\":18068:18097   */\n      tag_328\n        /* \"#utility.yul\":18093:18096   */\n      dup4\n        /* \"#utility.yul\":18087:18091   */\n      dup4\n        /* \"#utility.yul\":18068:18097   */\n      tag_143\n      jump\t// in\n    tag_328:\n        /* \"#utility.yul\":18060:18097   */\n      swap2\n      pop\n        /* \"#utility.yul\":18130:18133   */\n      dup3\n        /* \"#utility.yul\":18127:18128   */\n      0x02\n        /* \"#utility.yul\":18123:18134   */\n      mul\n        /* \"#utility.yul\":18117:18121   */\n      dup3\n        /* \"#utility.yul\":18114:18135   */\n      or\n        /* \"#utility.yul\":18106:18135   */\n      swap1\n      pop\n        /* \"#utility.yul\":17846:18141   */\n      swap3\n      swap2\n      pop\n      pop\n      jump\t// out\n        /* \"#utility.yul\":18146:19541   */\n    tag_80:\n        /* \"#utility.yul\":18263:18300   */\n      tag_330\n        /* \"#utility.yul\":18296:18299   */\n      dup3\n        /* \"#utility.yul\":18263:18300   */\n      tag_89\n      jump\t// in\n    tag_330:\n        /* \"#utility.yul\":18365:18383   */\n      0xffffffffffffffff\n        /* \"#utility.yul\":18357:18363   */\n      dup2\n        /* \"#utility.yul\":18354:18384   */\n      gt\n        /* \"#utility.yul\":18351:18407   */\n      iszero\n      tag_331\n      jumpi\n        /* \"#utility.yul\":18387:18405   */\n      tag_332\n      tag_26\n      jump\t// in\n    tag_332:\n        /* \"#utility.yul\":18351:18407   */\n    tag_331:\n        /* \"#utility.yul\":18431:18469   */\n      tag_333\n        /* \"#utility.yul\":18463:18467   */\n      dup3\n        /* \"#utility.yul\":18457:18468   */\n      sload\n        /* \"#utility.yul\":18431:18469   */\n      tag_44\n      jump\t// in\n    tag_333:\n        /* \"#utility.yul\":18516:18583   */\n      tag_334\n        /* \"#utility.yul\":18576:18582   */\n      dup3\n        /* \"#utility.yul\":18568:18574   */\n      dup3\n        /* \"#utility.yul\":18562:18566   */\n      dup6\n        /* \"#utility.yul\":18516:18583   */\n      tag_141\n      jump\t// in\n    tag_334:\n        /* \"#utility.yul\":18610:18611   */\n      0x00\n        /* \"#utility.yul\":18634:18638   */\n      0x20\n        /* \"#utility.yul\":18621:18638   */\n      swap1\n      pop\n        /* \"#utility.yul\":18666:18668   */\n      0x1f\n        /* \"#utility.yul\":18658:18664   */\n      dup4\n        /* \"#utility.yul\":18655:18669   */\n      gt\n        /* \"#utility.yul\":18683:18684   */\n      0x01\n        /* \"#utility.yul\":18678:19296   */\n      dup2\n      eq\n      tag_336\n      jumpi\n        /* \"#utility.yul\":19340:19341   */\n      0x00\n        /* \"#utility.yul\":19357:19363   */\n      dup5\n        /* \"#utility.yul\":19354:19431   */\n      iszero\n      tag_337\n      jumpi\n        /* \"#utility.yul\":19406:19415   */\n      dup3\n        /* \"#utility.yul\":19401:19404   */\n      dup8\n        /* \"#utility.yul\":19397:19416   */\n      add\n        /* \"#utility.yul\":19391:19417   */\n      mload\n        /* \"#utility.yul\":19382:19417   */\n      swap1\n      pop\n        /* \"#utility.yul\":19354:19431   */\n    tag_337:\n        /* \"#utility.yul\":19457:19524   */\n      tag_338\n        /* \"#utility.yul\":19517:19523   */\n      dup6\n        /* \"#utility.yul\":19510:19515   */\n      dup3\n        /* \"#utility.yul\":19457:19524   */\n      tag_144\n      jump\t// in\n    tag_338:\n        /* \"#utility.yul\":19451:19455   */\n      dup7\n        /* \"#utility.yul\":19444:19525   */\n      sstore\n        /* \"#utility.yul\":19313:19535   */\n      pop\n        /* \"#utility.yul\":18648:19535   */\n      jump(tag_335)\n        /* \"#utility.yul\":18678:19296   */\n    tag_336:\n        /* \"#utility.yul\":18730:18734   */\n      0x1f\n        /* \"#utility.yul\":18726:18735   */\n      not\n        /* \"#utility.yul\":18718:18724   */\n      dup5\n        /* \"#utility.yul\":18714:18736   */\n      and\n        /* \"#utility.yul\":18764:18801   */\n      tag_339\n        /* \"#utility.yul\":18796:18800   */\n      dup7\n        /* \"#utility.yul\":18764:18801   */\n      tag_125\n      jump\t// in\n    tag_339:\n        /* \"#utility.yul\":18823:18824   */\n      0x00\n        /* \"#utility.yul\":18837:19045   */\n    tag_340:\n        /* \"#utility.yul\":18851:18858   */\n      dup3\n        /* \"#utility.yul\":18848:18849   */\n      dup2\n        /* \"#utility.yul\":18845:18859   */\n      lt\n        /* \"#utility.yul\":18837:19045   */\n      iszero\n      tag_342\n      jumpi\n        /* \"#utility.yul\":18930:18939   */\n      dup5\n        /* \"#utility.yul\":18925:18928   */\n      dup10\n        /* \"#utility.yul\":18921:18940   */\n      add\n        /* \"#utility.yul\":18915:18941   */\n      mload\n        /* \"#utility.yul\":18907:18913   */\n      dup3\n        /* \"#utility.yul\":18900:18942   */\n      sstore\n        /* \"#utility.yul\":18981:18982   */\n      0x01\n        /* \"#utility.yul\":18973:18979   */\n      dup3\n        /* \"#utility.yul\":18969:18983   */\n      add\n        /* \"#utility.yul\":18959:18983   */\n      swap2\n      pop\n        /* \"#utility.yul\":19028:19030   */\n      0x20\n        /* \"#utility.yul\":19017:19026   */\n      dup6\n        /* \"#utility.yul\":19013:19031   */\n      add\n        /* \"#utility.yul\":19000:19031   */\n      swap5\n      pop\n        /* \"#utility.yul\":18874:18878   */\n      0x20\n        /* \"#utility.yul\":18871:18872   */\n      dup2\n        /* \"#utility.yul\":18867:18879   */\n      add\n        /* \"#utility.yul\":18862:18879   */\n      swap1\n      pop\n        /* \"#utility.yul\":18837:19045   */\n      jump(tag_340)\n    tag_342:\n        /* \"#utility.yul\":19073:19079   */\n      dup7\n        /* \"#utility.yul\":19064:19071   */\n      dup4\n        /* \"#utility.yul\":19061:19080   */\n      lt\n        /* \"#utility.yul\":19058:19237   */\n      iszero\n      tag_343\n      jumpi\n        /* \"#utility.yul\":19131:19140   */\n      dup5\n        /* \"#utility.yul\":19126:19129   */\n      dup10\n        /* \"#utility.yul\":19122:19141   */\n      add\n        /* \"#utility.yul\":19116:19142   */\n      mload\n        /* \"#utility.yul\":19174:19222   */\n      tag_344\n        /* \"#utility.yul\":19216:19220   */\n      0x1f\n        /* \"#utility.yul\":19208:19214   */\n      dup10\n        /* \"#utility.yul\":19204:19221   */\n      and\n        /* \"#utility.yul\":19193:19202   */\n      dup3\n        /* \"#utility.yul\":19174:19222   */\n      tag_143\n      jump\t// in\n    tag_344:\n        /* \"#utility.yul\":19166:19172   */\n      dup4\n        /* \"#utility.yul\":19159:19223   */\n      sstore\n        /* \"#utility.yul\":19081:19237   */\n      pop\n        /* \"#utility.yul\":19058:19237   */\n    tag_343:\n        /* \"#utility.yul\":19283:19284   */\n      0x01\n        /* \"#utility.yul\":19279:19280   */\n      0x02\n        /* \"#utility.yul\":19271:19277   */\n      dup9\n        /* \"#utility.yul\":19267:19281   */\n      mul\n        /* \"#utility.yul\":19263:19285   */\n      add\n        /* \"#utility.yul\":19257:19261   */\n      dup9\n        /* \"#utility.yul\":19250:19286   */\n      sstore\n        /* \"#utility.yul\":18685:19296   */\n      pop\n      pop\n      pop\n        /* \"#utility.yul\":18648:19535   */\n    tag_335:\n      pop\n        /* \"#utility.yul\":18238:19541   */\n      pop\n      pop\n      pop\n        /* \"#utility.yul\":18146:19541   */\n      pop\n      pop\n      jump\t// out\n        /* \"#utility.yul\":19547:19644   */\n    tag_145:\n        /* \"#utility.yul\":19606:19612   */\n      0x00\n        /* \"#utility.yul\":19634:19637   */\n      dup3\n        /* \"#utility.yul\":19624:19637   */\n      swap1\n      pop\n        /* \"#utility.yul\":19547:19644   */\n      swap3\n      swap2\n      pop\n      pop\n      jump\t// out\n        /* \"#utility.yul\":19650:21053   */\n    tag_84:\n        /* \"#utility.yul\":19774:19818   */\n      tag_347\n        /* \"#utility.yul\":19814:19817   */\n      dup4\n        /* \"#utility.yul\":19809:19812   */\n      dup4\n        /* \"#utility.yul\":19774:19818   */\n      tag_145\n      jump\t// in\n    tag_347:\n        /* \"#utility.yul\":19883:19901   */\n      0xffffffffffffffff\n        /* \"#utility.yul\":19875:19881   */\n      dup2\n        /* \"#utility.yul\":19872:19902   */\n      gt\n        /* \"#utility.yul\":19869:19925   */\n      iszero\n      tag_348\n      jumpi\n        /* \"#utility.yul\":19905:19923   */\n      tag_349\n      tag_26\n      jump\t// in\n    tag_349:\n        /* \"#utility.yul\":19869:19925   */\n    tag_348:\n        /* \"#utility.yul\":19949:19987   */\n      tag_350\n        /* \"#utility.yul\":19981:19985   */\n      dup3\n        /* \"#utility.yul\":19975:19986   */\n      sload\n        /* \"#utility.yul\":19949:19987   */\n      tag_44\n      jump\t// in\n    tag_350:\n        /* \"#utility.yul\":20034:20101   */\n      tag_351\n        /* \"#utility.yul\":20094:20100   */\n      dup3\n        /* \"#utility.yul\":20086:20092   */\n      dup3\n        /* \"#utility.yul\":20080:20084   */\n      dup6\n        /* \"#utility.yul\":20034:20101   */\n      tag_141\n      jump\t// in\n    tag_351:\n        /* \"#utility.yul\":20128:20129   */\n      0x00\n        /* \"#utility.yul\":20157:20159   */\n      0x1f\n        /* \"#utility.yul\":20149:20155   */\n      dup4\n        /* \"#utility.yul\":20146:20160   */\n      gt\n        /* \"#utility.yul\":20174:20175   */\n      0x01\n        /* \"#utility.yul\":20169:20801   */\n      dup2\n      eq\n      tag_353\n      jumpi\n        /* \"#utility.yul\":20845:20846   */\n      0x00\n        /* \"#utility.yul\":20862:20868   */\n      dup5\n        /* \"#utility.yul\":20859:20943   */\n      iszero\n      tag_354\n      jumpi\n        /* \"#utility.yul\":20918:20927   */\n      dup3\n        /* \"#utility.yul\":20913:20916   */\n      dup8\n        /* \"#utility.yul\":20909:20928   */\n      add\n        /* \"#utility.yul\":20896:20929   */\n      calldataload\n        /* \"#utility.yul\":20887:20929   */\n      swap1\n      pop\n        /* \"#utility.yul\":20859:20943   */\n    tag_354:\n        /* \"#utility.yul\":20969:21036   */\n      tag_355\n        /* \"#utility.yul\":21029:21035   */\n      dup6\n        /* \"#utility.yul\":21022:21027   */\n      dup3\n        /* \"#utility.yul\":20969:21036   */\n      tag_144\n      jump\t// in\n    tag_355:\n        /* \"#utility.yul\":20963:20967   */\n      dup7\n        /* \"#utility.yul\":20956:21037   */\n      sstore\n        /* \"#utility.yul\":20818:21047   */\n      pop\n        /* \"#utility.yul\":20139:21047   */\n      jump(tag_352)\n        /* \"#utility.yul\":20169:20801   */\n    tag_353:\n        /* \"#utility.yul\":20221:20225   */\n      0x1f\n        /* \"#utility.yul\":20217:20226   */\n      not\n        /* \"#utility.yul\":20209:20215   */\n      dup5\n        /* \"#utility.yul\":20205:20227   */\n      and\n        /* \"#utility.yul\":20255:20292   */\n      tag_356\n        /* \"#utility.yul\":20287:20291   */\n      dup7\n        /* \"#utility.yul\":20255:20292   */\n      tag_125\n      jump\t// in\n    tag_356:\n        /* \"#utility.yul\":20314:20315   */\n      0x00\n        /* \"#utility.yul\":20328:20543   */\n    tag_357:\n        /* \"#utility.yul\":20342:20349   */\n      dup3\n        /* \"#utility.yul\":20339:20340   */\n      dup2\n        /* \"#utility.yul\":20336:20350   */\n      lt\n        /* \"#utility.yul\":20328:20543   */\n      iszero\n      tag_359\n      jumpi\n        /* \"#utility.yul\":20428:20437   */\n      dup5\n        /* \"#utility.yul\":20423:20426   */\n      dup10\n        /* \"#utility.yul\":20419:20438   */\n      add\n        /* \"#utility.yul\":20406:20439   */\n      calldataload\n        /* \"#utility.yul\":20398:20404   */\n      dup3\n        /* \"#utility.yul\":20391:20440   */\n      sstore\n        /* \"#utility.yul\":20479:20480   */\n      0x01\n        /* \"#utility.yul\":20471:20477   */\n      dup3\n        /* \"#utility.yul\":20467:20481   */\n      add\n        /* \"#utility.yul\":20457:20481   */\n      swap2\n      pop\n        /* \"#utility.yul\":20526:20528   */\n      0x20\n        /* \"#utility.yul\":20515:20524   */\n      dup6\n        /* \"#utility.yul\":20511:20529   */\n      add\n        /* \"#utility.yul\":20498:20529   */\n      swap5\n      pop\n        /* \"#utility.yul\":20365:20369   */\n      0x20\n        /* \"#utility.yul\":20362:20363   */\n      dup2\n        /* \"#utility.yul\":20358:20370   */\n      add\n        /* \"#utility.yul\":20353:20370   */\n      swap1\n      pop\n        /* \"#utility.yul\":20328:20543   */\n      jump(tag_357)\n    tag_359:\n        /* \"#utility.yul\":20571:20577   */\n      dup7\n        /* \"#utility.yul\":20562:20569   */\n      dup4\n        /* \"#utility.yul\":20559:20578   */\n      lt\n        /* \"#utility.yul\":20556:20742   */\n      iszero\n      tag_360\n      jumpi\n        /* \"#utility.yul\":20636:20645   */\n      dup5\n        /* \"#utility.yul\":20631:20634   */\n      dup10\n        /* \"#utility.yul\":20627:20646   */\n      add\n        /* \"#utility.yul\":20614:20647   */\n      calldataload\n        /* \"#utility.yul\":20679:20727   */\n      tag_361\n        /* \"#utility.yul\":20721:20725   */\n      0x1f\n        /* \"#utility.yul\":20713:20719   */\n      dup10\n        /* \"#utility.yul\":20709:20726   */\n      and\n        /* \"#utility.yul\":20698:20707   */\n      dup3\n        /* \"#utility.yul\":20679:20727   */\n      tag_143\n      jump\t// in\n    tag_361:\n        /* \"#utility.yul\":20671:20677   */\n      dup4\n        /* \"#utility.yul\":20664:20728   */\n      sstore\n        /* \"#utility.yul\":20579:20742   */\n      pop\n        /* \"#utility.yul\":20556:20742   */\n    tag_360:\n        /* \"#utility.yul\":20788:20789   */\n      0x01\n        /* \"#utility.yul\":20784:20785   */\n      0x02\n        /* \"#utility.yul\":20776:20782   */\n      dup9\n        /* \"#utility.yul\":20772:20786   */\n      mul\n        /* \"#utility.yul\":20768:20790   */\n      add\n        /* \"#utility.yul\":20762:20766   */\n      dup9\n        /* \"#utility.yul\":20755:20791   */\n      sstore\n        /* \"#utility.yul\":20176:20801   */\n      pop\n      pop\n      pop\n        /* \"#utility.yul\":20139:21047   */\n    tag_352:\n      pop\n        /* \"#utility.yul\":19749:21053   */\n      pop\n      pop\n      pop\n        /* \"#utility.yul\":19650:21053   */\n      pop\n      pop\n      pop\n      jump\t// out\n\n    auxdata: 0xa2646970667358221220f65e7848a250e1e02270e6213fd2960308f3d18369298b3781f07aa7fde5322664736f6c63430008190033\n}\n",
				"bytecode": {
					"linkReferences": {},
					"object": "6080604052348015600e575f80fd5b5061107f8061001c5f395ff3fe608060405234801561000f575f80fd5b506004361061004a575f3560e01c806318bc82161461004e5780639e5b4fe41461006e578063afd297661461009e578063b3e7cb9d146100ba575b5f80fd5b6100566100c4565b6040516100659392919061080a565b60405180910390f35b61008860048036038101906100839190610991565b61046c565b60405161009591906109f2565b60405180910390f35b6100b860048036038101906100b39190610a92565b6104e4565b005b6100c261061d565b005b60608060605f60018054905067ffffffffffffffff8111156100e9576100e861086d565b5b60405190808252806020026020018201604052801561011c57816020015b60608152602001906001900390816101075790505b5090505f60018054905067ffffffffffffffff81111561013f5761013e61086d565b5b60405190808252806020026020018201604052801561017257816020015b606081526020019060019003908161015d5790505b5090505f60018054905067ffffffffffffffff8111156101955761019461086d565b5b6040519080825280602002602001820160405280156101c35781602001602082028036833780820191505090505b5090505f5b60018054905081101561045a57600181815481106101e9576101e8610b23565b5b905f5260205f200180546101fc90610b7d565b80601f016020809104026020016040519081016040528092919081815260200182805461022890610b7d565b80156102735780601f1061024a57610100808354040283529160200191610273565b820191905f5260205f20905b81548152906001019060200180831161025657829003601f168201915b505050505084828151811061028b5761028a610b23565b5b60200260200101819052505f80600183815481106102ac576102ab610b23565b5b905f5260205f20016040516102c19190610c49565b90815260200160405180910390206040518060600160405290815f820180546102e990610b7d565b80601f016020809104026020016040519081016040528092919081815260200182805461031590610b7d565b80156103605780601f1061033757610100808354040283529160200191610360565b820191905f5260205f20905b81548152906001019060200180831161034357829003601f168201915b5050505050815260200160018201805461037990610b7d565b80601f01602080910402602001604051908101604052809291908181526020018280546103a590610b7d565b80156103f05780601f106103c7576101008083540402835291602001916103f0565b820191905f5260205f20905b8154815290600101906020018083116103d357829003601f168201915b505050505081526020016002820154815250509050806020015184838151811061041d5761041c610b23565b5b602002602001018190525080604001518383815181106104405761043f610b23565b5b6020026020010181815250505080806001019150506101c8565b50828282955095509550505050909192565b5f805f8360405161047d9190610c8f565b90815260200160405180910390209050805f016040516020016104a09190610c49565b604051602081830303815290604052805190602001206040516020016104c590610cc8565b6040516020818303038152906040528051906020012014915050919050565b604051806060016040528086868080601f0160208091040260200160405190810160405280939291908181526020018383808284375f81840152601f19601f82011690508083019250505050505050815260200184848080601f0160208091040260200160405190810160405280939291908181526020018383808284375f81840152601f19601f820116905080830192505050505050508152602001828152505f8686604051610596929190610d00565b90815260200160405180910390205f820151815f0190816105b79190610ea3565b5060208201518160010190816105cd9190610ea3565b50604082015181600201559050506001858590918060018154018082558091505060019003905f5260205f20015f909192909192909192909192509182610615929190610f7c565b505050505050565b565b5f81519050919050565b5f82825260208201905092915050565b5f819050602082019050919050565b5f81519050919050565b5f82825260208201905092915050565b8281835e5f83830152505050565b5f601f19601f8301169050919050565b5f61068a82610648565b6106948185610652565b93506106a4818560208601610662565b6106ad81610670565b840191505092915050565b5f6106c38383610680565b905092915050565b5f602082019050919050565b5f6106e18261061f565b6106eb8185610629565b9350836020820285016106fd85610639565b805f5b85811015610738578484038952815161071985826106b8565b9450610724836106cb565b925060208a01995050600181019050610700565b50829750879550505050505092915050565b5f81519050919050565b5f82825260208201905092915050565b5f819050602082019050919050565b5f819050919050565b61078581610773565b82525050565b5f610796838361077c565b60208301905092915050565b5f602082019050919050565b5f6107b88261074a565b6107c28185610754565b93506107cd83610764565b805f5b838110156107fd5781516107e4888261078b565b97506107ef836107a2565b9250506001810190506107d0565b5085935050505092915050565b5f6060820190508181035f83015261082281866106d7565b9050818103602083015261083681856106d7565b9050818103604083015261084a81846107ae565b9050949350505050565b5f604051905090565b5f80fd5b5f80fd5b5f80fd5b5f80fd5b7f4e487b71000000000000000000000000000000000000000000000000000000005f52604160045260245ffd5b6108a382610670565b810181811067ffffffffffffffff821117156108c2576108c161086d565b5b80604052505050565b5f6108d4610854565b90506108e0828261089a565b919050565b5f67ffffffffffffffff8211156108ff576108fe61086d565b5b61090882610670565b9050602081019050919050565b828183375f83830152505050565b5f610935610930846108e5565b6108cb565b90508281526020810184848401111561095157610950610869565b5b61095c848285610915565b509392505050565b5f82601f83011261097857610977610865565b5b8135610988848260208601610923565b91505092915050565b5f602082840312156109a6576109a561085d565b5b5f82013567ffffffffffffffff8111156109c3576109c2610861565b5b6109cf84828501610964565b91505092915050565b5f8115159050919050565b6109ec816109d8565b82525050565b5f602082019050610a055f8301846109e3565b92915050565b5f80fd5b5f80fd5b5f8083601f840112610a2857610a27610865565b5b8235905067ffffffffffffffff811115610a4557610a44610a0b565b5b602083019150836001820283011115610a6157610a60610a0f565b5b9250929050565b610a7181610773565b8114610a7b575f80fd5b50565b5f81359050610a8c81610a68565b92915050565b5f805f805f60608688031215610aab57610aaa61085d565b5b5f86013567ffffffffffffffff811115610ac857610ac7610861565b5b610ad488828901610a13565b9550955050602086013567ffffffffffffffff811115610af757610af6610861565b5b610b0388828901610a13565b93509350506040610b1688828901610a7e565b9150509295509295909350565b7f4e487b71000000000000000000000000000000000000000000000000000000005f52603260045260245ffd5b7f4e487b71000000000000000000000000000000000000000000000000000000005f52602260045260245ffd5b5f6002820490506001821680610b9457607f821691505b602082108103610ba757610ba6610b50565b5b50919050565b5f81905092915050565b5f819050815f5260205f209050919050565b5f8154610bd581610b7d565b610bdf8186610bad565b9450600182165f8114610bf95760018114610c0e57610c40565b60ff1983168652811515820286019350610c40565b610c1785610bb7565b5f5b83811015610c3857815481890152600182019150602081019050610c19565b838801955050505b50505092915050565b5f610c548284610bc9565b915081905092915050565b5f610c6982610648565b610c738185610bad565b9350610c83818560208601610662565b80840191505092915050565b5f610c9a8284610c5f565b915081905092915050565b50565b5f610cb35f83610bad565b9150610cbe82610ca5565b5f82019050919050565b5f610cd282610ca8565b9150819050919050565b5f610ce78385610bad565b9350610cf4838584610915565b82840190509392505050565b5f610d0c828486610cdc565b91508190509392505050565b5f6020601f8301049050919050565b5f82821b905092915050565b5f60088302610d627fffffffffffffffffffffffffffffffffffffffffffffffffffffffffffffffff82610d27565b610d6c8683610d27565b95508019841693508086168417925050509392505050565b5f819050919050565b5f610da7610da2610d9d84610773565b610d84565b610773565b9050919050565b5f819050919050565b610dc083610d8d565b610dd4610dcc82610dae565b848454610d33565b825550505050565b5f90565b610de8610ddc565b610df3818484610db7565b505050565b5b81811015610e1657610e0b5f82610de0565b600181019050610df9565b5050565b601f821115610e5b57610e2c81610bb7565b610e3584610d18565b81016020851015610e44578190505b610e58610e5085610d18565b830182610df8565b50505b505050565b5f82821c905092915050565b5f610e7b5f1984600802610e60565b1980831691505092915050565b5f610e938383610e6c565b9150826002028217905092915050565b610eac82610648565b67ffffffffffffffff811115610ec557610ec461086d565b5b610ecf8254610b7d565b610eda828285610e1a565b5f60209050601f831160018114610f0b575f8415610ef9578287015190505b610f038582610e88565b865550610f6a565b601f198416610f1986610bb7565b5f5b82811015610f4057848901518255600182019150602085019450602081019050610f1b565b86831015610f5d5784890151610f59601f891682610e6c565b8355505b6001600288020188555050505b505050505050565b5f82905092915050565b610f868383610f72565b67ffffffffffffffff811115610f9f57610f9e61086d565b5b610fa98254610b7d565b610fb4828285610e1a565b5f601f831160018114610fe1575f8415610fcf578287013590505b610fd98582610e88565b865550611040565b601f198416610fef86610bb7565b5f5b8281101561101657848901358255600182019150602085019450602081019050610ff1565b86831015611033578489013561102f601f891682610e6c565b8355505b6001600288020188555050505b5050505050505056fea2646970667358221220f65e7848a250e1e02270e6213fd2960308f3d18369298b3781f07aa7fde5322664736f6c63430008190033",
					"opcodes": "PUSH1 0x80 PUSH1 0x40 MSTORE CALLVALUE DUP1 ISZERO PUSH1 0xE JUMPI PUSH0 DUP1 REVERT JUMPDEST POP PUSH2 0x107F DUP1 PUSH2 0x1C PUSH0 CODECOPY PUSH0 RETURN INVALID PUSH1 0x80 PUSH1 0x40 MSTORE CALLVALUE DUP1 ISZERO PUSH2 0xF JUMPI PUSH0 DUP1 REVERT JUMPDEST POP PUSH1 0x4 CALLDATASIZE LT PUSH2 0x4A JUMPI PUSH0 CALLDATALOAD PUSH1 0xE0 SHR DUP1 PUSH4 0x18BC8216 EQ PUSH2 0x4E JUMPI DUP1 PUSH4 0x9E5B4FE4 EQ PUSH2 0x6E JUMPI DUP1 PUSH4 0xAFD29766 EQ PUSH2 0x9E JUMPI DUP1 PUSH4 0xB3E7CB9D EQ PUSH2 0xBA JUMPI JUMPDEST PUSH0 DUP1 REVERT JUMPDEST PUSH2 0x56 PUSH2 0xC4 JUMP JUMPDEST PUSH1 0x40 MLOAD PUSH2 0x65 SWAP4 SWAP3 SWAP2 SWAP1 PUSH2 0x80A JUMP JUMPDEST PUSH1 0x40 MLOAD DUP1 SWAP2 SUB SWAP1 RETURN JUMPDEST PUSH2 0x88 PUSH1 0x4 DUP1 CALLDATASIZE SUB DUP2 ADD SWAP1 PUSH2 0x83 SWAP2 SWAP1 PUSH2 0x991 JUMP JUMPDEST PUSH2 0x46C JUMP JUMPDEST PUSH1 0x40 MLOAD PUSH2 0x95 SWAP2 SWAP1 PUSH2 0x9F2 JUMP JUMPDEST PUSH1 0x40 MLOAD DUP1 SWAP2 SUB SWAP1 RETURN JUMPDEST PUSH2 0xB8 PUSH1 0x4 DUP1 CALLDATASIZE SUB DUP2 ADD SWAP1 PUSH2 0xB3 SWAP2 SWAP1 PUSH2 0xA92 JUMP JUMPDEST PUSH2 0x4E4 JUMP JUMPDEST STOP JUMPDEST PUSH2 0xC2 PUSH2 0x61D JUMP JUMPDEST STOP JUMPDEST PUSH1 0x60 DUP1 PUSH1 0x60 PUSH0 PUSH1 0x1 DUP1 SLOAD SWAP1 POP PUSH8 0xFFFFFFFFFFFFFFFF DUP2 GT ISZERO PUSH2 0xE9 JUMPI PUSH2 0xE8 PUSH2 0x86D JUMP JUMPDEST JUMPDEST PUSH1 0x40 MLOAD SWAP1 DUP1 DUP3 MSTORE DUP1 PUSH1 0x20 MUL PUSH1 0x20 ADD DUP3 ADD PUSH1 0x40 MSTORE DUP1 ISZERO PUSH2 0x11C JUMPI DUP2 PUSH1 0x20 ADD JUMPDEST PUSH1 0x60 DUP2 MSTORE PUSH1 0x20 ADD SWAP1 PUSH1 0x1 SWAP1 SUB SWAP1 DUP2 PUSH2 0x107 JUMPI SWAP1 POP JUMPDEST POP SWAP1 POP PUSH0 PUSH1 0x1 DUP1 SLOAD SWAP1 POP PUSH8 0xFFFFFFFFFFFFFFFF DUP2 GT ISZERO PUSH2 0x13F JUMPI PUSH2 0x13E PUSH2 0x86D JUMP JUMPDEST JUMPDEST PUSH1 0x40 MLOAD SWAP1 DUP1 DUP3 MSTORE DUP1 PUSH1 0x20 MUL PUSH1 0x20 ADD DUP3 ADD PUSH1 0x40 MSTORE DUP1 ISZERO PUSH2 0x172 JUMPI DUP2 PUSH1 0x20 ADD JUMPDEST PUSH1 0x60 DUP2 MSTORE PUSH1 0x20 ADD SWAP1 PUSH1 0x1 SWAP1 SUB SWAP1 DUP2 PUSH2 0x15D JUMPI SWAP1 POP JUMPDEST POP SWAP1 POP PUSH0 PUSH1 0x1 DUP1 SLOAD SWAP1 POP PUSH8 0xFFFFFFFFFFFFFFFF DUP2 GT ISZERO PUSH2 0x195 JUMPI PUSH2 0x194 PUSH2 0x86D JUMP JUMPDEST JUMPDEST PUSH1 0x40 MLOAD SWAP1 DUP1 DUP3 MSTORE DUP1 PUSH1 0x20 MUL PUSH1 0x20 ADD DUP3 ADD PUSH1 0x40 MSTORE DUP1 ISZERO PUSH2 0x1C3 JUMPI DUP2 PUSH1 0x20 ADD PUSH1 0x20 DUP3 MUL DUP1 CALLDATASIZE DUP4 CALLDATACOPY DUP1 DUP3 ADD SWAP2 POP POP SWAP1 POP JUMPDEST POP SWAP1 POP PUSH0 JUMPDEST PUSH1 0x1 DUP1 SLOAD SWAP1 POP DUP2 LT ISZERO PUSH2 0x45A JUMPI PUSH1 0x1 DUP2 DUP2 SLOAD DUP2 LT PUSH2 0x1E9 JUMPI PUSH2 0x1E8 PUSH2 0xB23 JUMP JUMPDEST JUMPDEST SWAP1 PUSH0 MSTORE PUSH1 0x20 PUSH0 KECCAK256 ADD DUP1 SLOAD PUSH2 0x1FC SWAP1 PUSH2 0xB7D JUMP JUMPDEST DUP1 PUSH1 0x1F ADD PUSH1 0x20 DUP1 SWAP2 DIV MUL PUSH1 0x20 ADD PUSH1 0x40 MLOAD SWAP1 DUP2 ADD PUSH1 0x40 MSTORE DUP1 SWAP3 SWAP2 SWAP1 DUP2 DUP2 MSTORE PUSH1 0x20 ADD DUP3 DUP1 SLOAD PUSH2 0x228 SWAP1 PUSH2 0xB7D JUMP JUMPDEST DUP1 ISZERO PUSH2 0x273 JUMPI DUP1 PUSH1 0x1F LT PUSH2 0x24A JUMPI PUSH2 0x100 DUP1 DUP4 SLOAD DIV MUL DUP4 MSTORE SWAP2 PUSH1 0x20 ADD SWAP2 PUSH2 0x273 JUMP JUMPDEST DUP3 ADD SWAP2 SWAP1 PUSH0 MSTORE PUSH1 0x20 PUSH0 KECCAK256 SWAP1 JUMPDEST DUP2 SLOAD DUP2 MSTORE SWAP1 PUSH1 0x1 ADD SWAP1 PUSH1 0x20 ADD DUP1 DUP4 GT PUSH2 0x256 JUMPI DUP3 SWAP1 SUB PUSH1 0x1F AND DUP3 ADD SWAP2 JUMPDEST POP POP POP POP POP DUP5 DUP3 DUP2 MLOAD DUP2 LT PUSH2 0x28B JUMPI PUSH2 0x28A PUSH2 0xB23 JUMP JUMPDEST JUMPDEST PUSH1 0x20 MUL PUSH1 0x20 ADD ADD DUP2 SWAP1 MSTORE POP PUSH0 DUP1 PUSH1 0x1 DUP4 DUP2 SLOAD DUP2 LT PUSH2 0x2AC JUMPI PUSH2 0x2AB PUSH2 0xB23 JUMP JUMPDEST JUMPDEST SWAP1 PUSH0 MSTORE PUSH1 0x20 PUSH0 KECCAK256 ADD PUSH1 0x40 MLOAD PUSH2 0x2C1 SWAP2 SWAP1 PUSH2 0xC49 JUMP JUMPDEST SWAP1 DUP2 MSTORE PUSH1 0x20 ADD PUSH1 0x40 MLOAD DUP1 SWAP2 SUB SWAP1 KECCAK256 PUSH1 0x40 MLOAD DUP1 PUSH1 0x60 ADD PUSH1 0x40 MSTORE SWAP1 DUP2 PUSH0 DUP3 ADD DUP1 SLOAD PUSH2 0x2E9 SWAP1 PUSH2 0xB7D JUMP JUMPDEST DUP1 PUSH1 0x1F ADD PUSH1 0x20 DUP1 SWAP2 DIV MUL PUSH1 0x20 ADD PUSH1 0x40 MLOAD SWAP1 DUP2 ADD PUSH1 0x40 MSTORE DUP1 SWAP3 SWAP2 SWAP1 DUP2 DUP2 MSTORE PUSH1 0x20 ADD DUP3 DUP1 SLOAD PUSH2 0x315 SWAP1 PUSH2 0xB7D JUMP JUMPDEST DUP1 ISZERO PUSH2 0x360 JUMPI DUP1 PUSH1 0x1F LT PUSH2 0x337 JUMPI PUSH2 0x100 DUP1 DUP4 SLOAD DIV MUL DUP4 MSTORE SWAP2 PUSH1 0x20 ADD SWAP2 PUSH2 0x360 JUMP JUMPDEST DUP3 ADD SWAP2 SWAP1 PUSH0 MSTORE PUSH1 0x20 PUSH0 KECCAK256 SWAP1 JUMPDEST DUP2 SLOAD DUP2 MSTORE SWAP1 PUSH1 0x1 ADD SWAP1 PUSH1 0x20 ADD DUP1 DUP4 GT PUSH2 0x343 JUMPI DUP3 SWAP1 SUB PUSH1 0x1F AND DUP3 ADD SWAP2 JUMPDEST POP POP POP POP POP DUP2 MSTORE PUSH1 0x20 ADD PUSH1 0x1 DUP3 ADD DUP1 SLOAD PUSH2 0x379 SWAP1 PUSH2 0xB7D JUMP JUMPDEST DUP1 PUSH1 0x1F ADD PUSH1 0x20 DUP1 SWAP2 DIV MUL PUSH1 0x20 ADD PUSH1 0x40 MLOAD SWAP1 DUP2 ADD PUSH1 0x40 MSTORE DUP1 SWAP3 SWAP2 SWAP1 DUP2 DUP2 MSTORE PUSH1 0x20 ADD DUP3 DUP1 SLOAD PUSH2 0x3A5 SWAP1 PUSH2 0xB7D JUMP JUMPDEST DUP1 ISZERO PUSH2 0x3F0 JUMPI DUP1 PUSH1 0x1F LT PUSH2 0x3C7 JUMPI PUSH2 0x100 DUP1 DUP4 SLOAD DIV MUL DUP4 MSTORE SWAP2 PUSH1 0x20 ADD SWAP2 PUSH2 0x3F0 JUMP JUMPDEST DUP3 ADD SWAP2 SWAP1 PUSH0 MSTORE PUSH1 0x20 PUSH0 KECCAK256 SWAP1 JUMPDEST DUP2 SLOAD DUP2 MSTORE SWAP1 PUSH1 0x1 ADD SWAP1 PUSH1 0x20 ADD DUP1 DUP4 GT PUSH2 0x3D3 JUMPI DUP3 SWAP1 SUB PUSH1 0x1F AND DUP3 ADD SWAP2 JUMPDEST POP POP POP POP POP DUP2 MSTORE PUSH1 0x20 ADD PUSH1 0x2 DUP3 ADD SLOAD DUP2 MSTORE POP POP SWAP1 POP DUP1 PUSH1 0x20 ADD MLOAD DUP5 DUP4 DUP2 MLOAD DUP2 LT PUSH2 0x41D JUMPI PUSH2 0x41C PUSH2 0xB23 JUMP JUMPDEST JUMPDEST PUSH1 0x20 MUL PUSH1 0x20 ADD ADD DUP2 SWAP1 MSTORE POP DUP1 PUSH1 0x40 ADD MLOAD DUP4 DUP4 DUP2 MLOAD DUP2 LT PUSH2 0x440 JUMPI PUSH2 0x43F PUSH2 0xB23 JUMP JUMPDEST JUMPDEST PUSH1 0x20 MUL PUSH1 0x20 ADD ADD DUP2 DUP2 MSTORE POP POP POP DUP1 DUP1 PUSH1 0x1 ADD SWAP2 POP POP PUSH2 0x1C8 JUMP JUMPDEST POP DUP3 DUP3 DUP3 SWAP6 POP SWAP6 POP SWAP6 POP POP POP POP SWAP1 SWAP2 SWAP3 JUMP JUMPDEST PUSH0 DUP1 PUSH0 DUP4 PUSH1 0x40 MLOAD PUSH2 0x47D SWAP2 SWAP1 PUSH2 0xC8F JUMP JUMPDEST SWAP1 DUP2 MSTORE PUSH1 0x20 ADD PUSH1 0x40 MLOAD DUP1 SWAP2 SUB SWAP1 KECCAK256 SWAP1 POP DUP1 PUSH0 ADD PUSH1 0x40 MLOAD PUSH1 0x20 ADD PUSH2 0x4A0 SWAP2 SWAP1 PUSH2 0xC49 JUMP JUMPDEST PUSH1 0x40 MLOAD PUSH1 0x20 DUP2 DUP4 SUB SUB DUP2 MSTORE SWAP1 PUSH1 0x40 MSTORE DUP1 MLOAD SWAP1 PUSH1 0x20 ADD KECCAK256 PUSH1 0x40 MLOAD PUSH1 0x20 ADD PUSH2 0x4C5 SWAP1 PUSH2 0xCC8 JUMP JUMPDEST PUSH1 0x40 MLOAD PUSH1 0x20 DUP2 DUP4 SUB SUB DUP2 MSTORE SWAP1 PUSH1 0x40 MSTORE DUP1 MLOAD SWAP1 PUSH1 0x20 ADD KECCAK256 EQ SWAP2 POP POP SWAP2 SWAP1 POP JUMP JUMPDEST PUSH1 0x40 MLOAD DUP1 PUSH1 0x60 ADD PUSH1 0x40 MSTORE DUP1 DUP7 DUP7 DUP1 DUP1 PUSH1 0x1F ADD PUSH1 0x20 DUP1 SWAP2 DIV MUL PUSH1 0x20 ADD PUSH1 0x40 MLOAD SWAP1 DUP2 ADD PUSH1 0x40 MSTORE DUP1 SWAP4 SWAP3 SWAP2 SWAP1 DUP2 DUP2 MSTORE PUSH1 0x20 ADD DUP4 DUP4 DUP1 DUP3 DUP5 CALLDATACOPY PUSH0 DUP2 DUP5 ADD MSTORE PUSH1 0x1F NOT PUSH1 0x1F DUP3 ADD AND SWAP1 POP DUP1 DUP4 ADD SWAP3 POP POP POP POP POP POP POP DUP2 MSTORE PUSH1 0x20 ADD DUP5 DUP5 DUP1 DUP1 PUSH1 0x1F ADD PUSH1 0x20 DUP1 SWAP2 DIV MUL PUSH1 0x20 ADD PUSH1 0x40 MLOAD SWAP1 DUP2 ADD PUSH1 0x40 MSTORE DUP1 SWAP4 SWAP3 SWAP2 SWAP1 DUP2 DUP2 MSTORE PUSH1 0x20 ADD DUP4 DUP4 DUP1 DUP3 DUP5 CALLDATACOPY PUSH0 DUP2 DUP5 ADD MSTORE PUSH1 0x1F NOT PUSH1 0x1F DUP3 ADD AND SWAP1 POP DUP1 DUP4 ADD SWAP3 POP POP POP POP POP POP POP DUP2 MSTORE PUSH1 0x20 ADD DUP3 DUP2 MSTORE POP PUSH0 DUP7 DUP7 PUSH1 0x40 MLOAD PUSH2 0x596 SWAP3 SWAP2 SWAP1 PUSH2 0xD00 JUMP JUMPDEST SWAP1 DUP2 MSTORE PUSH1 0x20 ADD PUSH1 0x40 MLOAD DUP1 SWAP2 SUB SWAP1 KECCAK256 PUSH0 DUP3 ADD MLOAD DUP2 PUSH0 ADD SWAP1 DUP2 PUSH2 0x5B7 SWAP2 SWAP1 PUSH2 0xEA3 JUMP JUMPDEST POP PUSH1 0x20 DUP3 ADD MLOAD DUP2 PUSH1 0x1 ADD SWAP1 DUP2 PUSH2 0x5CD SWAP2 SWAP1 PUSH2 0xEA3 JUMP JUMPDEST POP PUSH1 0x40 DUP3 ADD MLOAD DUP2 PUSH1 0x2 ADD SSTORE SWAP1 POP POP PUSH1 0x1 DUP6 DUP6 SWAP1 SWAP2 DUP1 PUSH1 0x1 DUP2 SLOAD ADD DUP1 DUP3 SSTORE DUP1 SWAP2 POP POP PUSH1 0x1 SWAP1 SUB SWAP1 PUSH0 MSTORE PUSH1 0x20 PUSH0 KECCAK256 ADD PUSH0 SWAP1 SWAP2 SWAP3 SWAP1 SWAP2 SWAP3 SWAP1 SWAP2 SWAP3 SWAP1 SWAP2 SWAP3 POP SWAP2 DUP3 PUSH2 0x615 SWAP3 SWAP2 SWAP1 PUSH2 0xF7C JUMP JUMPDEST POP POP POP POP POP POP JUMP JUMPDEST JUMP JUMPDEST PUSH0 DUP2 MLOAD SWAP1 POP SWAP2 SWAP1 POP JUMP JUMPDEST PUSH0 DUP3 DUP3 MSTORE PUSH1 0x20 DUP3 ADD SWAP1 POP SWAP3 SWAP2 POP POP JUMP JUMPDEST PUSH0 DUP2 SWAP1 POP PUSH1 0x20 DUP3 ADD SWAP1 POP SWAP2 SWAP1 POP JUMP JUMPDEST PUSH0 DUP2 MLOAD SWAP1 POP SWAP2 SWAP1 POP JUMP JUMPDEST PUSH0 DUP3 DUP3 MSTORE PUSH1 0x20 DUP3 ADD SWAP1 POP SWAP3 SWAP2 POP POP JUMP JUMPDEST DUP3 DUP2 DUP4 MCOPY PUSH0 DUP4 DUP4 ADD MSTORE POP POP POP JUMP JUMPDEST PUSH0 PUSH1 0x1F NOT PUSH1 0x1F DUP4 ADD AND SWAP1 POP SWAP2 SWAP1 POP JUMP JUMPDEST PUSH0 PUSH2 0x68A DUP3 PUSH2 0x648 JUMP JUMPDEST PUSH2 0x694 DUP2 DUP6 PUSH2 0x652 JUMP JUMPDEST SWAP4 POP PUSH2 0x6A4 DUP2 DUP6 PUSH1 0x20 DUP7 ADD PUSH2 0x662 JUMP JUMPDEST PUSH2 0x6AD DUP2 PUSH2 0x670 JUMP JUMPDEST DUP5 ADD SWAP2 POP POP SWAP3 SWAP2 POP POP JUMP JUMPDEST PUSH0 PUSH2 0x6C3 DUP4 DUP4 PUSH2 0x680 JUMP JUMPDEST SWAP1 POP SWAP3 SWAP2 POP POP JUMP JUMPDEST PUSH0 PUSH1 0x20 DUP3 ADD SWAP1 POP SWAP2 SWAP1 POP JUMP JUMPDEST PUSH0 PUSH2 0x6E1 DUP3 PUSH2 0x61F JUMP JUMPDEST PUSH2 0x6EB DUP2 DUP6 PUSH2 0x629 JUMP JUMPDEST SWAP4 POP DUP4 PUSH1 0x20 DUP3 MUL DUP6 ADD PUSH2 0x6FD DUP6 PUSH2 0x639 JUMP JUMPDEST DUP1 PUSH0 JUMPDEST DUP6 DUP2 LT ISZERO PUSH2 0x738 JUMPI DUP5 DUP5 SUB DUP10 MSTORE DUP2 MLOAD PUSH2 0x719 DUP6 DUP3 PUSH2 0x6B8 JUMP JUMPDEST SWAP5 POP PUSH2 0x724 DUP4 PUSH2 0x6CB JUMP JUMPDEST SWAP3 POP PUSH1 0x20 DUP11 ADD SWAP10 POP POP PUSH1 0x1 DUP2 ADD SWAP1 POP PUSH2 0x700 JUMP JUMPDEST POP DUP3 SWAP8 POP DUP8 SWAP6 POP POP POP POP POP POP SWAP3 SWAP2 POP POP JUMP JUMPDEST PUSH0 DUP2 MLOAD SWAP1 POP SWAP2 SWAP1 POP JUMP JUMPDEST PUSH0 DUP3 DUP3 MSTORE PUSH1 0x20 DUP3 ADD SWAP1 POP SWAP3 SWAP2 POP POP JUMP JUMPDEST PUSH0 DUP2 SWAP1 POP PUSH1 0x20 DUP3 ADD SWAP1 POP SWAP2 SWAP1 POP JUMP JUMPDEST PUSH0 DUP2 SWAP1 POP SWAP2 SWAP1 POP JUMP JUMPDEST PUSH2 0x785 DUP2 PUSH2 0x773 JUMP JUMPDEST DUP3 MSTORE POP POP JUMP JUMPDEST PUSH0 PUSH2 0x796 DUP4 DUP4 PUSH2 0x77C JUMP JUMPDEST PUSH1 0x20 DUP4 ADD SWAP1 POP SWAP3 SWAP2 POP POP JUMP JUMPDEST PUSH0 PUSH1 0x20 DUP3 ADD SWAP1 POP SWAP2 SWAP1 POP JUMP JUMPDEST PUSH0 PUSH2 0x7B8 DUP3 PUSH2 0x74A JUMP JUMPDEST PUSH2 0x7C2 DUP2 DUP6 PUSH2 0x754 JUMP JUMPDEST SWAP4 POP PUSH2 0x7CD DUP4 PUSH2 0x764 JUMP JUMPDEST DUP1 PUSH0 JUMPDEST DUP4 DUP2 LT ISZERO PUSH2 0x7FD JUMPI DUP2 MLOAD PUSH2 0x7E4 DUP9 DUP3 PUSH2 0x78B JUMP JUMPDEST SWAP8 POP PUSH2 0x7EF DUP4 PUSH2 0x7A2 JUMP JUMPDEST SWAP3 POP POP PUSH1 0x1 DUP2 ADD SWAP1 POP PUSH2 0x7D0 JUMP JUMPDEST POP DUP6 SWAP4 POP POP POP POP SWAP3 SWAP2 POP POP JUMP JUMPDEST PUSH0 PUSH1 0x60 DUP3 ADD SWAP1 POP DUP2 DUP2 SUB PUSH0 DUP4 ADD MSTORE PUSH2 0x822 DUP2 DUP7 PUSH2 0x6D7 JUMP JUMPDEST SWAP1 POP DUP2 DUP2 SUB PUSH1 0x20 DUP4 ADD MSTORE PUSH2 0x836 DUP2 DUP6 PUSH2 0x6D7 JUMP JUMPDEST SWAP1 POP DUP2 DUP2 SUB PUSH1 0x40 DUP4 ADD MSTORE PUSH2 0x84A DUP2 DUP5 PUSH2 0x7AE JUMP JUMPDEST SWAP1 POP SWAP5 SWAP4 POP POP POP POP JUMP JUMPDEST PUSH0 PUSH1 0x40 MLOAD SWAP1 POP SWAP1 JUMP JUMPDEST PUSH0 DUP1 REVERT JUMPDEST PUSH0 DUP1 REVERT JUMPDEST PUSH0 DUP1 REVERT JUMPDEST PUSH0 DUP1 REVERT JUMPDEST PUSH32 0x4E487B7100000000000000000000000000000000000000000000000000000000 PUSH0 MSTORE PUSH1 0x41 PUSH1 0x4 MSTORE PUSH1 0x24 PUSH0 REVERT JUMPDEST PUSH2 0x8A3 DUP3 PUSH2 0x670 JUMP JUMPDEST DUP2 ADD DUP2 DUP2 LT PUSH8 0xFFFFFFFFFFFFFFFF DUP3 GT OR ISZERO PUSH2 0x8C2 JUMPI PUSH2 0x8C1 PUSH2 0x86D JUMP JUMPDEST JUMPDEST DUP1 PUSH1 0x40 MSTORE POP POP POP JUMP JUMPDEST PUSH0 PUSH2 0x8D4 PUSH2 0x854 JUMP JUMPDEST SWAP1 POP PUSH2 0x8E0 DUP3 DUP3 PUSH2 0x89A JUMP JUMPDEST SWAP2 SWAP1 POP JUMP JUMPDEST PUSH0 PUSH8 0xFFFFFFFFFFFFFFFF DUP3 GT ISZERO PUSH2 0x8FF JUMPI PUSH2 0x8FE PUSH2 0x86D JUMP JUMPDEST JUMPDEST PUSH2 0x908 DUP3 PUSH2 0x670 JUMP JUMPDEST SWAP1 POP PUSH1 0x20 DUP2 ADD SWAP1 POP SWAP2 SWAP1 POP JUMP JUMPDEST DUP3 DUP2 DUP4 CALLDATACOPY PUSH0 DUP4 DUP4 ADD MSTORE POP POP POP JUMP JUMPDEST PUSH0 PUSH2 0x935 PUSH2 0x930 DUP5 PUSH2 0x8E5 JUMP JUMPDEST PUSH2 0x8CB JUMP JUMPDEST SWAP1 POP DUP3 DUP2 MSTORE PUSH1 0x20 DUP2 ADD DUP5 DUP5 DUP5 ADD GT ISZERO PUSH2 0x951 JUMPI PUSH2 0x950 PUSH2 0x869 JUMP JUMPDEST JUMPDEST PUSH2 0x95C DUP5 DUP3 DUP6 PUSH2 0x915 JUMP JUMPDEST POP SWAP4 SWAP3 POP POP POP JUMP JUMPDEST PUSH0 DUP3 PUSH1 0x1F DUP4 ADD SLT PUSH2 0x978 JUMPI PUSH2 0x977 PUSH2 0x865 JUMP JUMPDEST JUMPDEST DUP2 CALLDATALOAD PUSH2 0x988 DUP5 DUP3 PUSH1 0x20 DUP7 ADD PUSH2 0x923 JUMP JUMPDEST SWAP2 POP POP SWAP3 SWAP2 POP POP JUMP JUMPDEST PUSH0 PUSH1 0x20 DUP3 DUP5 SUB SLT ISZERO PUSH2 0x9A6 JUMPI PUSH2 0x9A5 PUSH2 0x85D JUMP JUMPDEST JUMPDEST PUSH0 DUP3 ADD CALLDATALOAD PUSH8 0xFFFFFFFFFFFFFFFF DUP2 GT ISZERO PUSH2 0x9C3 JUMPI PUSH2 0x9C2 PUSH2 0x861 JUMP JUMPDEST JUMPDEST PUSH2 0x9CF DUP5 DUP3 DUP6 ADD PUSH2 0x964 JUMP JUMPDEST SWAP2 POP POP SWAP3 SWAP2 POP POP JUMP JUMPDEST PUSH0 DUP2 ISZERO ISZERO SWAP1 POP SWAP2 SWAP1 POP JUMP JUMPDEST PUSH2 0x9EC DUP2 PUSH2 0x9D8 JUMP JUMPDEST DUP3 MSTORE POP POP JUMP JUMPDEST PUSH0 PUSH1 0x20 DUP3 ADD SWAP1 POP PUSH2 0xA05 PUSH0 DUP4 ADD DUP5 PUSH2 0x9E3 JUMP JUMPDEST SWAP3 SWAP2 POP POP JUMP JUMPDEST PUSH0 DUP1 REVERT JUMPDEST PUSH0 DUP1 REVERT JUMPDEST PUSH0 DUP1 DUP4 PUSH1 0x1F DUP5 ADD SLT PUSH2 0xA28 JUMPI PUSH2 0xA27 PUSH2 0x865 JUMP JUMPDEST JUMPDEST DUP3 CALLDATALOAD SWAP1 POP PUSH8 0xFFFFFFFFFFFFFFFF DUP2 GT ISZERO PUSH2 0xA45 JUMPI PUSH2 0xA44 PUSH2 0xA0B JUMP JUMPDEST JUMPDEST PUSH1 0x20 DUP4 ADD SWAP2 POP DUP4 PUSH1 0x1 DUP3 MUL DUP4 ADD GT ISZERO PUSH2 0xA61 JUMPI PUSH2 0xA60 PUSH2 0xA0F JUMP JUMPDEST JUMPDEST SWAP3 POP SWAP3 SWAP1 POP JUMP JUMPDEST PUSH2 0xA71 DUP2 PUSH2 0x773 JUMP JUMPDEST DUP2 EQ PUSH2 0xA7B JUMPI PUSH0 DUP1 REVERT JUMPDEST POP JUMP JUMPDEST PUSH0 DUP2 CALLDATALOAD SWAP1 POP PUSH2 0xA8C DUP2 PUSH2 0xA68 JUMP JUMPDEST SWAP3 SWAP2 POP POP JUMP JUMPDEST PUSH0 DUP1 PUSH0 DUP1 PUSH0 PUSH1 0x60 DUP7 DUP9 SUB SLT ISZERO PUSH2 0xAAB JUMPI PUSH2 0xAAA PUSH2 0x85D JUMP JUMPDEST JUMPDEST PUSH0 DUP7 ADD CALLDATALOAD PUSH8 0xFFFFFFFFFFFFFFFF DUP2 GT ISZERO PUSH2 0xAC8 JUMPI PUSH2 0xAC7 PUSH2 0x861 JUMP JUMPDEST JUMPDEST PUSH2 0xAD4 DUP9 DUP3 DUP10 ADD PUSH2 0xA13 JUMP JUMPDEST SWAP6 POP SWAP6 POP POP PUSH1 0x20 DUP7 ADD CALLDATALOAD PUSH8 0xFFFFFFFFFFFFFFFF DUP2 GT ISZERO PUSH2 0xAF7 JUMPI PUSH2 0xAF6 PUSH2 0x861 JUMP JUMPDEST JUMPDEST PUSH2 0xB03 DUP9 DUP3 DUP10 ADD PUSH2 0xA13 JUMP JUMPDEST SWAP4 POP SWAP4 POP POP PUSH1 0x40 PUSH2 0xB16 DUP9 DUP3 DUP10 ADD PUSH2 0xA7E JUMP JUMPDEST SWAP2 POP POP SWAP3 SWAP6 POP SWAP3 SWAP6 SWAP1 SWAP4 POP JUMP JUMPDEST PUSH32 0x4E487B7100000000000000000000000000000000000000000000000000000000 PUSH0 MSTORE PUSH1 0x32 PUSH1 0x4 MSTORE PUSH1 0x24 PUSH0 REVERT JUMPDEST PUSH32 0x4E487B7100000000000000000000000000000000000000000000000000000000 PUSH0 MSTORE PUSH1 0x22 PUSH1 0x4 MSTORE PUSH1 0x24 PUSH0 REVERT JUMPDEST PUSH0 PUSH1 0x2 DUP3 DIV SWAP1 POP PUSH1 0x1 DUP3 AND DUP1 PUSH2 0xB94 JUMPI PUSH1 0x7F DUP3 AND SWAP2 POP JUMPDEST PUSH1 0x20 DUP3 LT DUP2 SUB PUSH2 0xBA7 JUMPI PUSH2 0xBA6 PUSH2 0xB50 JUMP JUMPDEST JUMPDEST POP SWAP2 SWAP1 POP JUMP JUMPDEST PUSH0 DUP2 SWAP1 POP SWAP3 SWAP2 POP POP JUMP JUMPDEST PUSH0 DUP2 SWAP1 POP DUP2 PUSH0 MSTORE PUSH1 0x20 PUSH0 KECCAK256 SWAP1 POP SWAP2 SWAP1 POP JUMP JUMPDEST PUSH0 DUP2 SLOAD PUSH2 0xBD5 DUP2 PUSH2 0xB7D JUMP JUMPDEST PUSH2 0xBDF DUP2 DUP7 PUSH2 0xBAD JUMP JUMPDEST SWAP5 POP PUSH1 0x1 DUP3 AND PUSH0 DUP2 EQ PUSH2 0xBF9 JUMPI PUSH1 0x1 DUP2 EQ PUSH2 0xC0E JUMPI PUSH2 0xC40 JUMP JUMPDEST PUSH1 0xFF NOT DUP4 AND DUP7 MSTORE DUP2 ISZERO ISZERO DUP3 MUL DUP7 ADD SWAP4 POP PUSH2 0xC40 JUMP JUMPDEST PUSH2 0xC17 DUP6 PUSH2 0xBB7 JUMP JUMPDEST PUSH0 JUMPDEST DUP4 DUP2 LT ISZERO PUSH2 0xC38 JUMPI DUP2 SLOAD DUP2 DUP10 ADD MSTORE PUSH1 0x1 DUP3 ADD SWAP2 POP PUSH1 0x20 DUP2 ADD SWAP1 POP PUSH2 0xC19 JUMP JUMPDEST DUP4 DUP9 ADD SWAP6 POP POP POP JUMPDEST POP POP POP SWAP3 SWAP2 POP POP JUMP JUMPDEST PUSH0 PUSH2 0xC54 DUP3 DUP5 PUSH2 0xBC9 JUMP JUMPDEST SWAP2 POP DUP2 SWAP1 POP SWAP3 SWAP2 POP POP JUMP JUMPDEST PUSH0 PUSH2 0xC69 DUP3 PUSH2 0x648 JUMP JUMPDEST PUSH2 0xC73 DUP2 DUP6 PUSH2 0xBAD JUMP JUMPDEST SWAP4 POP PUSH2 0xC83 DUP2 DUP6 PUSH1 0x20 DUP7 ADD PUSH2 0x662 JUMP JUMPDEST DUP1 DUP5 ADD SWAP2 POP POP SWAP3 SWAP2 POP POP JUMP JUMPDEST PUSH0 PUSH2 0xC9A DUP3 DUP5 PUSH2 0xC5F JUMP JUMPDEST SWAP2 POP DUP2 SWAP1 POP SWAP3 SWAP2 POP POP JUMP JUMPDEST POP JUMP JUMPDEST PUSH0 PUSH2 0xCB3 PUSH0 DUP4 PUSH2 0xBAD JUMP JUMPDEST SWAP2 POP PUSH2 0xCBE DUP3 PUSH2 0xCA5 JUMP JUMPDEST PUSH0 DUP3 ADD SWAP1 POP SWAP2 SWAP1 POP JUMP JUMPDEST PUSH0 PUSH2 0xCD2 DUP3 PUSH2 0xCA8 JUMP JUMPDEST SWAP2 POP DUP2 SWAP1 POP SWAP2 SWAP1 POP JUMP JUMPDEST PUSH0 PUSH2 0xCE7 DUP4 DUP6 PUSH2 0xBAD JUMP JUMPDEST SWAP4 POP PUSH2 0xCF4 DUP4 DUP6 DUP5 PUSH2 0x915 JUMP JUMPDEST DUP3 DUP5 ADD SWAP1 POP SWAP4 SWAP3 POP POP POP JUMP JUMPDEST PUSH0 PUSH2 0xD0C DUP3 DUP5 DUP7 PUSH2 0xCDC JUMP JUMPDEST SWAP2 POP DUP2 SWAP1 POP SWAP4 SWAP3 POP POP POP JUMP JUMPDEST PUSH0 PUSH1 0x20 PUSH1 0x1F DUP4 ADD DIV SWAP1 POP SWAP2 SWAP1 POP JUMP JUMPDEST PUSH0 DUP3 DUP3 SHL SWAP1 POP SWAP3 SWAP2 POP POP JUMP JUMPDEST PUSH0 PUSH1 0x8 DUP4 MUL PUSH2 0xD62 PUSH32 0xFFFFFFFFFFFFFFFFFFFFFFFFFFFFFFFFFFFFFFFFFFFFFFFFFFFFFFFFFFFFFFFF DUP3 PUSH2 0xD27 JUMP JUMPDEST PUSH2 0xD6C DUP7 DUP4 PUSH2 0xD27 JUMP JUMPDEST SWAP6 POP DUP1 NOT DUP5 AND SWAP4 POP DUP1 DUP7 AND DUP5 OR SWAP3 POP POP POP SWAP4 SWAP3 POP POP POP JUMP JUMPDEST PUSH0 DUP2 SWAP1 POP SWAP2 SWAP1 POP JUMP JUMPDEST PUSH0 PUSH2 0xDA7 PUSH2 0xDA2 PUSH2 0xD9D DUP5 PUSH2 0x773 JUMP JUMPDEST PUSH2 0xD84 JUMP JUMPDEST PUSH2 0x773 JUMP JUMPDEST SWAP1 POP SWAP2 SWAP1 POP JUMP JUMPDEST PUSH0 DUP2 SWAP1 POP SWAP2 SWAP1 POP JUMP JUMPDEST PUSH2 0xDC0 DUP4 PUSH2 0xD8D JUMP JUMPDEST PUSH2 0xDD4 PUSH2 0xDCC DUP3 PUSH2 0xDAE JUMP JUMPDEST DUP5 DUP5 SLOAD PUSH2 0xD33 JUMP JUMPDEST DUP3 SSTORE POP POP POP POP JUMP JUMPDEST PUSH0 SWAP1 JUMP JUMPDEST PUSH2 0xDE8 PUSH2 0xDDC JUMP JUMPDEST PUSH2 0xDF3 DUP2 DUP5 DUP5 PUSH2 0xDB7 JUMP JUMPDEST POP POP POP JUMP JUMPDEST JUMPDEST DUP2 DUP2 LT ISZERO PUSH2 0xE16 JUMPI PUSH2 0xE0B PUSH0 DUP3 PUSH2 0xDE0 JUMP JUMPDEST PUSH1 0x1 DUP2 ADD SWAP1 POP PUSH2 0xDF9 JUMP JUMPDEST POP POP JUMP JUMPDEST PUSH1 0x1F DUP3 GT ISZERO PUSH2 0xE5B JUMPI PUSH2 0xE2C DUP2 PUSH2 0xBB7 JUMP JUMPDEST PUSH2 0xE35 DUP5 PUSH2 0xD18 JUMP JUMPDEST DUP2 ADD PUSH1 0x20 DUP6 LT ISZERO PUSH2 0xE44 JUMPI DUP2 SWAP1 POP JUMPDEST PUSH2 0xE58 PUSH2 0xE50 DUP6 PUSH2 0xD18 JUMP JUMPDEST DUP4 ADD DUP3 PUSH2 0xDF8 JUMP JUMPDEST POP POP JUMPDEST POP POP POP JUMP JUMPDEST PUSH0 DUP3 DUP3 SHR SWAP1 POP SWAP3 SWAP2 POP POP JUMP JUMPDEST PUSH0 PUSH2 0xE7B PUSH0 NOT DUP5 PUSH1 0x8 MUL PUSH2 0xE60 JUMP JUMPDEST NOT DUP1 DUP4 AND SWAP2 POP POP SWAP3 SWAP2 POP POP JUMP JUMPDEST PUSH0 PUSH2 0xE93 DUP4 DUP4 PUSH2 0xE6C JUMP JUMPDEST SWAP2 POP DUP3 PUSH1 0x2 MUL DUP3 OR SWAP1 POP SWAP3 SWAP2 POP POP JUMP JUMPDEST PUSH2 0xEAC DUP3 PUSH2 0x648 JUMP JUMPDEST PUSH8 0xFFFFFFFFFFFFFFFF DUP2 GT ISZERO PUSH2 0xEC5 JUMPI PUSH2 0xEC4 PUSH2 0x86D JUMP JUMPDEST JUMPDEST PUSH2 0xECF DUP3 SLOAD PUSH2 0xB7D JUMP JUMPDEST PUSH2 0xEDA DUP3 DUP3 DUP6 PUSH2 0xE1A JUMP JUMPDEST PUSH0 PUSH1 0x20 SWAP1 POP PUSH1 0x1F DUP4 GT PUSH1 0x1 DUP2 EQ PUSH2 0xF0B JUMPI PUSH0 DUP5 ISZERO PUSH2 0xEF9 JUMPI DUP3 DUP8 ADD MLOAD SWAP1 POP JUMPDEST PUSH2 0xF03 DUP6 DUP3 PUSH2 0xE88 JUMP JUMPDEST DUP7 SSTORE POP PUSH2 0xF6A JUMP JUMPDEST PUSH1 0x1F NOT DUP5 AND PUSH2 0xF19 DUP7 PUSH2 0xBB7 JUMP JUMPDEST PUSH0 JUMPDEST DUP3 DUP2 LT ISZERO PUSH2 0xF40 JUMPI DUP5 DUP10 ADD MLOAD DUP3 SSTORE PUSH1 0x1 DUP3 ADD SWAP2 POP PUSH1 0x20 DUP6 ADD SWAP5 POP PUSH1 0x20 DUP2 ADD SWAP1 POP PUSH2 0xF1B JUMP JUMPDEST DUP7 DUP4 LT ISZERO PUSH2 0xF5D JUMPI DUP5 DUP10 ADD MLOAD PUSH2 0xF59 PUSH1 0x1F DUP10 AND DUP3 PUSH2 0xE6C JUMP JUMPDEST DUP4 SSTORE POP JUMPDEST PUSH1 0x1 PUSH1 0x2 DUP9 MUL ADD DUP9 SSTORE POP POP POP JUMPDEST POP POP POP POP POP POP JUMP JUMPDEST PUSH0 DUP3 SWAP1 POP SWAP3 SWAP2 POP POP JUMP JUMPDEST PUSH2 0xF86 DUP4 DUP4 PUSH2 0xF72 JUMP JUMPDEST PUSH8 0xFFFFFFFFFFFFFFFF DUP2 GT ISZERO PUSH2 0xF9F JUMPI PUSH2 0xF9E PUSH2 0x86D JUMP JUMPDEST JUMPDEST PUSH2 0xFA9 DUP3 SLOAD PUSH2 0xB7D JUMP JUMPDEST PUSH2 0xFB4 DUP3 DUP3 DUP6 PUSH2 0xE1A JUMP JUMPDEST PUSH0 PUSH1 0x1F DUP4 GT PUSH1 0x1 DUP2 EQ PUSH2 0xFE1 JUMPI PUSH0 DUP5 ISZERO PUSH2 0xFCF JUMPI DUP3 DUP8 ADD CALLDATALOAD SWAP1 POP JUMPDEST PUSH2 0xFD9 DUP6 DUP3 PUSH2 0xE88 JUMP JUMPDEST DUP7 SSTORE POP PUSH2 0x1040 JUMP JUMPDEST PUSH1 0x1F NOT DUP5 AND PUSH2 0xFEF DUP7 PUSH2 0xBB7 JUMP JUMPDEST PUSH0 JUMPDEST DUP3 DUP2 LT ISZERO PUSH2 0x1016 JUMPI DUP5 DUP10 ADD CALLDATALOAD DUP3 SSTORE PUSH1 0x1 DUP3 ADD SWAP2 POP PUSH1 0x20 DUP6 ADD SWAP5 POP PUSH1 0x20 DUP2 ADD SWAP1 POP PUSH2 0xFF1 JUMP JUMPDEST DUP7 DUP4 LT ISZERO PUSH2 0x1033 JUMPI DUP5 DUP10 ADD CALLDATALOAD PUSH2 0x102F PUSH1 0x1F DUP10 AND DUP3 PUSH2 0xE6C JUMP JUMPDEST DUP4 SSTORE POP JUMPDEST PUSH1 0x1 PUSH1 0x2 DUP9 MUL ADD DUP9 SSTORE POP POP POP JUMPDEST POP POP POP POP POP POP POP JUMP INVALID LOG2 PUSH5 0x6970667358 0x22 SLT KECCAK256 0xF6 MCOPY PUSH25 0x48A250E1E02270E6213FD2960308F3D18369298B3781F07AA7 REVERT 0xE5 ORIGIN 0x26 PUSH5 0x736F6C6343 STOP ADDMOD NOT STOP CALLER "
				},
				"gasEstimates": {
					"creation": {
						"codeDepositCost": "844600",
						"executionCost": "875",
						"totalCost": "845475"
					},
					"external": {
						"addGolfCourse(string,string,uint256)": "infinite",
						"deleteCourse()": "187",
						"getGolfCourses()": "infinite",
						"isCourseExtant(string)": "infinite"
					}
				},
				"methodIdentifiers": {
					"addGolfCourse(string,string,uint256)": "afd29766",
					"deleteCourse()": "b3e7cb9d",
					"getGolfCourses()": "18bc8216",
					"isCourseExtant(string)": "9e5b4fe4"
				}
			},
			"storageLayout": {
				"storage": [
					{
						"astId": 18,
						"contract": "contracts/CourseManager.sol:CourseManager",
						"label": "golfCourses",
						"offset": 0,
						"slot": "0",
						"type": "t_mapping(t_string_memory_ptr,t_struct(GolfCourse)13_storage)"
					},
					{
						"astId": 21,
						"contract": "contracts/CourseManager.sol:CourseManager",
						"label": "golfCourseKeys",
						"offset": 0,
						"slot": "1",
						"type": "t_array(t_string_storage)dyn_storage"
					},
					{
						"astId": 26,
						"contract": "contracts/CourseManager.sol:CourseManager",
						"label": "Holes",
						"offset": 0,
						"slot": "2",
						"type": "t_mapping(t_string_memory_ptr,t_struct(Hole)6_storage)"
					}
				],
				"types": {
					"t_array(t_string_storage)dyn_storage": {
						"base": "t_string_storage",
						"encoding": "dynamic_array",
						"label": "string[]",
						"numberOfBytes": "32"
					},
					"t_mapping(t_string_memory_ptr,t_struct(GolfCourse)13_storage)": {
						"encoding": "mapping",
						"key": "t_string_memory_ptr",
						"label": "mapping(string => struct CourseManager.GolfCourse)",
						"numberOfBytes": "32",
						"value": "t_struct(GolfCourse)13_storage"
					},
					"t_mapping(t_string_memory_ptr,t_struct(Hole)6_storage)": {
						"encoding": "mapping",
						"key": "t_string_memory_ptr",
						"label": "mapping(string => struct CourseManager.Hole)",
						"numberOfBytes": "32",
						"value": "t_struct(Hole)6_storage"
					},
					"t_string_memory_ptr": {
						"encoding": "bytes",
						"label": "string",
						"numberOfBytes": "32"
					},
					"t_string_storage": {
						"encoding": "bytes",
						"label": "string",
						"numberOfBytes": "32"
					},
					"t_struct(GolfCourse)13_storage": {
						"encoding": "inplace",
						"label": "struct CourseManager.GolfCourse",
						"members": [
							{
								"astId": 8,
								"contract": "contracts/CourseManager.sol:CourseManager",
								"label": "name",
								"offset": 0,
								"slot": "0",
								"type": "t_string_storage"
							},
							{
								"astId": 10,
								"contract": "contracts/CourseManager.sol:CourseManager",
								"label": "description",
								"offset": 0,
								"slot": "1",
								"type": "t_string_storage"
							},
							{
								"astId": 12,
								"contract": "contracts/CourseManager.sol:CourseManager",
								"label": "numberOfHoles",
								"offset": 0,
								"slot": "2",
								"type": "t_uint256"
							}
						],
						"numberOfBytes": "96"
					},
					"t_struct(Hole)6_storage": {
						"encoding": "inplace",
						"label": "struct CourseManager.Hole",
						"members": [
							{
								"astId": 3,
								"contract": "contracts/CourseManager.sol:CourseManager",
								"label": "courseAndHole",
								"offset": 0,
								"slot": "0",
								"type": "t_string_storage"
							},
							{
								"astId": 5,
								"contract": "contracts/CourseManager.sol:CourseManager",
								"label": "par",
								"offset": 0,
								"slot": "1",
								"type": "t_uint256"
							}
						],
						"numberOfBytes": "64"
					},
					"t_uint256": {
						"encoding": "inplace",
						"label": "uint256",
						"numberOfBytes": "32"
					}
				}
			},
			"userdoc": {
				"kind": "user",
				"methods": {},
				"version": 1
			}
		}
	}
}