{
	"contracts/CourseManager.sol": {
		"CourseManager": {
			"abi": [
				{
					"inputs": [
						{
							"internalType": "string",
							"name": "_name",
							"type": "string"
						},
						{
							"internalType": "string",
							"name": "_description",
							"type": "string"
						},
						{
							"internalType": "uint256",
							"name": "_numberOfHoles",
							"type": "uint256"
						},
						{
							"internalType": "uint256[]",
							"name": "pars",
							"type": "uint256[]"
						}
					],
					"name": "addGolfCourse",
					"outputs": [],
					"stateMutability": "nonpayable",
					"type": "function"
				},
				{
					"inputs": [
						{
							"internalType": "string",
							"name": "_a",
							"type": "string"
						},
						{
							"internalType": "string",
							"name": "_b",
							"type": "string"
						}
					],
					"name": "concatenateStrings",
					"outputs": [
						{
							"internalType": "string",
							"name": "",
							"type": "string"
						}
					],
					"stateMutability": "pure",
					"type": "function"
				},
				{
					"inputs": [
						{
							"internalType": "string",
							"name": "_courseName",
							"type": "string"
						}
					],
					"name": "deleteCourse",
					"outputs": [],
					"stateMutability": "nonpayable",
					"type": "function"
				},
				{
					"inputs": [],
					"name": "getGolfCourses",
					"outputs": [
						{
							"internalType": "string[]",
							"name": "",
							"type": "string[]"
						},
						{
							"internalType": "string[]",
							"name": "",
							"type": "string[]"
						},
						{
							"internalType": "uint256[]",
							"name": "",
							"type": "uint256[]"
						}
					],
					"stateMutability": "view",
					"type": "function"
				},
				{
					"inputs": [
						{
							"internalType": "string",
							"name": "_courseName",
							"type": "string"
						}
					],
					"name": "isCourseExtant",
					"outputs": [
						{
							"internalType": "bool",
							"name": "",
							"type": "bool"
						}
					],
					"stateMutability": "view",
					"type": "function"
				},
				{
					"inputs": [
						{
							"internalType": "uint256",
							"name": "_uint",
							"type": "uint256"
						}
					],
					"name": "uintToString",
					"outputs": [
						{
							"internalType": "string",
							"name": "",
							"type": "string"
						}
					],
					"stateMutability": "pure",
					"type": "function"
				}
			],
			"devdoc": {
				"kind": "dev",
				"methods": {},
				"version": 1
			},
			"evm": {
				"assembly": "    /* \"contracts/CourseManager.sol\":224:3194  contract CourseManager is CamelFramework {... */\n  mstore(0x40, 0x80)\n  callvalue\n  dup1\n  iszero\n  tag_1\n  jumpi\n  0x00\n  dup1\n  revert\ntag_1:\n  pop\n    /* \"contracts/CamelFramework.sol\":248:258  msg.sender */\n  caller\n    /* \"contracts/CamelFramework.sol\":240:245  owner */\n  0x00\n  dup1\n    /* \"contracts/CamelFramework.sol\":240:258  owner = msg.sender */\n  0x0100\n  exp\n  dup2\n  sload\n  dup2\n  0xffffffffffffffffffffffffffffffffffffffff\n  mul\n  not\n  and\n  swap1\n  dup4\n  0xffffffffffffffffffffffffffffffffffffffff\n  and\n  mul\n  or\n  swap1\n  sstore\n  pop\n    /* \"contracts/CourseManager.sol\":224:3194  contract CourseManager is CamelFramework {... */\n  dataSize(sub_0)\n  dup1\n  dataOffset(sub_0)\n  0x00\n  codecopy\n  0x00\n  return\nstop\n\nsub_0: assembly {\n        /* \"contracts/CourseManager.sol\":224:3194  contract CourseManager is CamelFramework {... */\n      mstore(0x40, 0x80)\n      callvalue\n      dup1\n      iszero\n      tag_1\n      jumpi\n      0x00\n      dup1\n      revert\n    tag_1:\n      pop\n      jumpi(tag_2, lt(calldatasize, 0x04))\n      shr(0xe0, calldataload(0x00))\n      dup1\n      0x18bc8216\n      eq\n      tag_3\n      jumpi\n      dup1\n      0x3e6b6de2\n      eq\n      tag_4\n      jumpi\n      dup1\n      0x7a36b3ee\n      eq\n      tag_5\n      jumpi\n      dup1\n      0x9e5b4fe4\n      eq\n      tag_6\n      jumpi\n      dup1\n      0xadb5097f\n      eq\n      tag_7\n      jumpi\n      dup1\n      0xe9395679\n      eq\n      tag_8\n      jumpi\n    tag_2:\n      0x00\n      dup1\n      revert\n        /* \"contracts/CourseManager.sol\":1340:1944  function getGolfCourses() public view returns(string[] memory, string[] memory, uint[] memory) {... */\n    tag_3:\n      tag_9\n      tag_10\n      jump\t// in\n    tag_9:\n      mload(0x40)\n      tag_11\n      swap4\n      swap3\n      swap2\n      swap1\n      tag_12\n      jump\t// in\n    tag_11:\n      mload(0x40)\n      dup1\n      swap2\n      sub\n      swap1\n      return\n        /* \"contracts/CourseManager.sol\":1952:2643  function deleteCourse(string calldata _courseName) public  {... */\n    tag_4:\n      tag_13\n      0x04\n      dup1\n      calldatasize\n      sub\n      dup2\n      add\n      swap1\n      tag_14\n      swap2\n      swap1\n      tag_15\n      jump\t// in\n    tag_14:\n      tag_16\n      jump\t// in\n    tag_13:\n      stop\n        /* \"contracts/CamelFramework.sol\":876:1339  function concatenateStrings(string memory _a, string memory _b) public pure returns (string memory) {... */\n    tag_5:\n      tag_17\n      0x04\n      dup1\n      calldatasize\n      sub\n      dup2\n      add\n      swap1\n      tag_18\n      swap2\n      swap1\n      tag_19\n      jump\t// in\n    tag_18:\n      tag_20\n      jump\t// in\n    tag_17:\n      mload(0x40)\n      tag_21\n      swap2\n      swap1\n      tag_22\n      jump\t// in\n    tag_21:\n      mload(0x40)\n      dup1\n      swap2\n      sub\n      swap1\n      return\n        /* \"contracts/CourseManager.sol\":2653:3186  function isCourseExtant(string memory _courseName) public view returns(bool) {... */\n    tag_6:\n      tag_23\n      0x04\n      dup1\n      calldatasize\n      sub\n      dup2\n      add\n      swap1\n      tag_24\n      swap2\n      swap1\n      tag_25\n      jump\t// in\n    tag_24:\n      tag_26\n      jump\t// in\n    tag_23:\n      mload(0x40)\n      tag_27\n      swap2\n      swap1\n      tag_28\n      jump\t// in\n    tag_27:\n      mload(0x40)\n      dup1\n      swap2\n      sub\n      swap1\n      return\n        /* \"contracts/CourseManager.sol\":728:1153  function addGolfCourse(string calldata _name, string calldata _description, uint _numberOfHoles, uint[] calldata pars) public {... */\n    tag_7:\n      tag_29\n      0x04\n      dup1\n      calldatasize\n      sub\n      dup2\n      add\n      swap1\n      tag_30\n      swap2\n      swap1\n      tag_31\n      jump\t// in\n    tag_30:\n      tag_32\n      jump\t// in\n    tag_29:\n      stop\n        /* \"contracts/CamelFramework.sol\":294:870  function uintToString(uint _uint) public pure returns (string memory) {... */\n    tag_8:\n      tag_33\n      0x04\n      dup1\n      calldatasize\n      sub\n      dup2\n      add\n      swap1\n      tag_34\n      swap2\n      swap1\n      tag_35\n      jump\t// in\n    tag_34:\n      tag_36\n      jump\t// in\n    tag_33:\n      mload(0x40)\n      tag_37\n      swap2\n      swap1\n      tag_22\n      jump\t// in\n    tag_37:\n      mload(0x40)\n      dup1\n      swap2\n      sub\n      swap1\n      return\n        /* \"contracts/CourseManager.sol\":1340:1944  function getGolfCourses() public view returns(string[] memory, string[] memory, uint[] memory) {... */\n    tag_10:\n        /* \"contracts/CourseManager.sol\":1386:1401  string[] memory */\n      0x60\n        /* \"contracts/CourseManager.sol\":1403:1418  string[] memory */\n      dup1\n        /* \"contracts/CourseManager.sol\":1420:1433  uint[] memory */\n      0x60\n        /* \"contracts/CourseManager.sol\":1445:1466  string[] memory _keys */\n      0x00\n        /* \"contracts/CourseManager.sol\":1482:1496  golfCourseKeys */\n      0x02\n        /* \"contracts/CourseManager.sol\":1482:1503  golfCourseKeys.length */\n      dup1\n      sload\n      swap1\n      pop\n        /* \"contracts/CourseManager.sol\":1469:1504  new string[](golfCourseKeys.length) */\n      0xffffffffffffffff\n      dup2\n      gt\n      iszero\n      tag_39\n      jumpi\n      tag_40\n      tag_41\n      jump\t// in\n    tag_40:\n    tag_39:\n      mload(0x40)\n      swap1\n      dup1\n      dup3\n      mstore\n      dup1\n      0x20\n      mul\n      0x20\n      add\n      dup3\n      add\n      0x40\n      mstore\n      dup1\n      iszero\n      tag_42\n      jumpi\n      dup2\n      0x20\n      add\n    tag_43:\n      0x60\n      dup2\n      mstore\n      0x20\n      add\n      swap1\n      0x01\n      swap1\n      sub\n      swap1\n      dup2\n      tag_43\n      jumpi\n      swap1\n      pop\n    tag_42:\n      pop\n        /* \"contracts/CourseManager.sol\":1445:1504  string[] memory _keys = new string[](golfCourseKeys.length) */\n      swap1\n      pop\n        /* \"contracts/CourseManager.sol\":1514:1536  string[] memory _names */\n      0x00\n        /* \"contracts/CourseManager.sol\":1552:1566  golfCourseKeys */\n      0x02\n        /* \"contracts/CourseManager.sol\":1552:1573  golfCourseKeys.length */\n      dup1\n      sload\n      swap1\n      pop\n        /* \"contracts/CourseManager.sol\":1539:1574  new string[](golfCourseKeys.length) */\n      0xffffffffffffffff\n      dup2\n      gt\n      iszero\n      tag_44\n      jumpi\n      tag_45\n      tag_41\n      jump\t// in\n    tag_45:\n    tag_44:\n      mload(0x40)\n      swap1\n      dup1\n      dup3\n      mstore\n      dup1\n      0x20\n      mul\n      0x20\n      add\n      dup3\n      add\n      0x40\n      mstore\n      dup1\n      iszero\n      tag_46\n      jumpi\n      dup2\n      0x20\n      add\n    tag_47:\n      0x60\n      dup2\n      mstore\n      0x20\n      add\n      swap1\n      0x01\n      swap1\n      sub\n      swap1\n      dup2\n      tag_47\n      jumpi\n      swap1\n      pop\n    tag_46:\n      pop\n        /* \"contracts/CourseManager.sol\":1514:1574  string[] memory _names = new string[](golfCourseKeys.length) */\n      swap1\n      pop\n        /* \"contracts/CourseManager.sol\":1584:1604  uint[] memory _holes */\n      0x00\n        /* \"contracts/CourseManager.sol\":1618:1632  golfCourseKeys */\n      0x02\n        /* \"contracts/CourseManager.sol\":1618:1639  golfCourseKeys.length */\n      dup1\n      sload\n      swap1\n      pop\n        /* \"contracts/CourseManager.sol\":1607:1640  new uint[](golfCourseKeys.length) */\n      0xffffffffffffffff\n      dup2\n      gt\n      iszero\n      tag_48\n      jumpi\n      tag_49\n      tag_41\n      jump\t// in\n    tag_49:\n    tag_48:\n      mload(0x40)\n      swap1\n      dup1\n      dup3\n      mstore\n      dup1\n      0x20\n      mul\n      0x20\n      add\n      dup3\n      add\n      0x40\n      mstore\n      dup1\n      iszero\n      tag_50\n      jumpi\n      dup2\n      0x20\n      add\n      0x20\n      dup3\n      mul\n      dup1\n      calldatasize\n      dup4\n      calldatacopy\n      dup1\n      dup3\n      add\n      swap2\n      pop\n      pop\n      swap1\n      pop\n    tag_50:\n      pop\n        /* \"contracts/CourseManager.sol\":1584:1640  uint[] memory _holes = new uint[](golfCourseKeys.length) */\n      swap1\n      pop\n        /* \"contracts/CourseManager.sol\":1656:1665  uint256 i */\n      0x00\n        /* \"contracts/CourseManager.sol\":1651:1900  for (uint256 i=0; i< golfCourseKeys.length; i++) {... */\n    tag_51:\n        /* \"contracts/CourseManager.sol\":1672:1686  golfCourseKeys */\n      0x02\n        /* \"contracts/CourseManager.sol\":1672:1693  golfCourseKeys.length */\n      dup1\n      sload\n      swap1\n      pop\n        /* \"contracts/CourseManager.sol\":1669:1670  i */\n      dup2\n        /* \"contracts/CourseManager.sol\":1669:1693  i< golfCourseKeys.length */\n      lt\n        /* \"contracts/CourseManager.sol\":1651:1900  for (uint256 i=0; i< golfCourseKeys.length; i++) {... */\n      iszero\n      tag_52\n      jumpi\n        /* \"contracts/CourseManager.sol\":1725:1739  golfCourseKeys */\n      0x02\n        /* \"contracts/CourseManager.sol\":1740:1741  i */\n      dup2\n        /* \"contracts/CourseManager.sol\":1725:1742  golfCourseKeys[i] */\n      dup2\n      sload\n      dup2\n      lt\n      tag_54\n      jumpi\n      tag_55\n      tag_56\n      jump\t// in\n    tag_55:\n    tag_54:\n      swap1\n      0x00\n      mstore\n      keccak256(0x00, 0x20)\n      add\n        /* \"contracts/CourseManager.sol\":1714:1742  _keys[i] = golfCourseKeys[i] */\n      dup1\n      sload\n      tag_58\n      swap1\n      tag_59\n      jump\t// in\n    tag_58:\n      dup1\n      0x1f\n      add\n      0x20\n      dup1\n      swap2\n      div\n      mul\n      0x20\n      add\n      mload(0x40)\n      swap1\n      dup2\n      add\n      0x40\n      mstore\n      dup1\n      swap3\n      swap2\n      swap1\n      dup2\n      dup2\n      mstore\n      0x20\n      add\n      dup3\n      dup1\n      sload\n      tag_60\n      swap1\n      tag_59\n      jump\t// in\n    tag_60:\n      dup1\n      iszero\n      tag_61\n      jumpi\n      dup1\n      0x1f\n      lt\n      tag_62\n      jumpi\n      0x0100\n      dup1\n      dup4\n      sload\n      div\n      mul\n      dup4\n      mstore\n      swap2\n      0x20\n      add\n      swap2\n      jump(tag_61)\n    tag_62:\n      dup3\n      add\n      swap2\n      swap1\n      0x00\n      mstore\n      keccak256(0x00, 0x20)\n      swap1\n    tag_63:\n      dup2\n      sload\n      dup2\n      mstore\n      swap1\n      0x01\n      add\n      swap1\n      0x20\n      add\n      dup1\n      dup4\n      gt\n      tag_63\n      jumpi\n      dup3\n      swap1\n      sub\n      0x1f\n      and\n      dup3\n      add\n      swap2\n    tag_61:\n      pop\n      pop\n      pop\n      pop\n      pop\n        /* \"contracts/CourseManager.sol\":1714:1719  _keys */\n      dup5\n        /* \"contracts/CourseManager.sol\":1720:1721  i */\n      dup3\n        /* \"contracts/CourseManager.sol\":1714:1722  _keys[i] */\n      dup2\n      mload\n      dup2\n      lt\n      tag_64\n      jumpi\n      tag_65\n      tag_56\n      jump\t// in\n    tag_65:\n    tag_64:\n      0x20\n      mul\n      0x20\n      add\n      add\n        /* \"contracts/CourseManager.sol\":1714:1742  _keys[i] = golfCourseKeys[i] */\n      dup2\n      swap1\n      mstore\n      pop\n        /* \"contracts/CourseManager.sol\":1756:1775  GolfCourse memory x */\n      0x00\n        /* \"contracts/CourseManager.sol\":1778:1789  golfCourses */\n      0x01\n        /* \"contracts/CourseManager.sol\":1790:1804  golfCourseKeys */\n      0x02\n        /* \"contracts/CourseManager.sol\":1805:1806  i */\n      dup4\n        /* \"contracts/CourseManager.sol\":1790:1807  golfCourseKeys[i] */\n      dup2\n      sload\n      dup2\n      lt\n      tag_66\n      jumpi\n      tag_67\n      tag_56\n      jump\t// in\n    tag_67:\n    tag_66:\n      swap1\n      0x00\n      mstore\n      keccak256(0x00, 0x20)\n      add\n        /* \"contracts/CourseManager.sol\":1778:1808  golfCourses[golfCourseKeys[i]] */\n      mload(0x40)\n      tag_69\n      swap2\n      swap1\n      tag_70\n      jump\t// in\n    tag_69:\n      swap1\n      dup2\n      mstore\n      0x20\n      add\n      mload(0x40)\n      dup1\n      swap2\n      sub\n      swap1\n      keccak256\n        /* \"contracts/CourseManager.sol\":1756:1808  GolfCourse memory x = golfCourses[golfCourseKeys[i]] */\n      mload(0x40)\n      dup1\n      0x80\n      add\n      0x40\n      mstore\n      swap1\n      dup2\n      0x00\n      dup3\n      add\n      dup1\n      sload\n      tag_71\n      swap1\n      tag_59\n      jump\t// in\n    tag_71:\n      dup1\n      0x1f\n      add\n      0x20\n      dup1\n      swap2\n      div\n      mul\n      0x20\n      add\n      mload(0x40)\n      swap1\n      dup2\n      add\n      0x40\n      mstore\n      dup1\n      swap3\n      swap2\n      swap1\n      dup2\n      dup2\n      mstore\n      0x20\n      add\n      dup3\n      dup1\n      sload\n      tag_72\n      swap1\n      tag_59\n      jump\t// in\n    tag_72:\n      dup1\n      iszero\n      tag_73\n      jumpi\n      dup1\n      0x1f\n      lt\n      tag_74\n      jumpi\n      0x0100\n      dup1\n      dup4\n      sload\n      div\n      mul\n      dup4\n      mstore\n      swap2\n      0x20\n      add\n      swap2\n      jump(tag_73)\n    tag_74:\n      dup3\n      add\n      swap2\n      swap1\n      0x00\n      mstore\n      keccak256(0x00, 0x20)\n      swap1\n    tag_75:\n      dup2\n      sload\n      dup2\n      mstore\n      swap1\n      0x01\n      add\n      swap1\n      0x20\n      add\n      dup1\n      dup4\n      gt\n      tag_75\n      jumpi\n      dup3\n      swap1\n      sub\n      0x1f\n      and\n      dup3\n      add\n      swap2\n    tag_73:\n      pop\n      pop\n      pop\n      pop\n      pop\n      dup2\n      mstore\n      0x20\n      add\n      0x01\n      dup3\n      add\n      dup1\n      sload\n      tag_76\n      swap1\n      tag_59\n      jump\t// in\n    tag_76:\n      dup1\n      0x1f\n      add\n      0x20\n      dup1\n      swap2\n      div\n      mul\n      0x20\n      add\n      mload(0x40)\n      swap1\n      dup2\n      add\n      0x40\n      mstore\n      dup1\n      swap3\n      swap2\n      swap1\n      dup2\n      dup2\n      mstore\n      0x20\n      add\n      dup3\n      dup1\n      sload\n      tag_77\n      swap1\n      tag_59\n      jump\t// in\n    tag_77:\n      dup1\n      iszero\n      tag_78\n      jumpi\n      dup1\n      0x1f\n      lt\n      tag_79\n      jumpi\n      0x0100\n      dup1\n      dup4\n      sload\n      div\n      mul\n      dup4\n      mstore\n      swap2\n      0x20\n      add\n      swap2\n      jump(tag_78)\n    tag_79:\n      dup3\n      add\n      swap2\n      swap1\n      0x00\n      mstore\n      keccak256(0x00, 0x20)\n      swap1\n    tag_80:\n      dup2\n      sload\n      dup2\n      mstore\n      swap1\n      0x01\n      add\n      swap1\n      0x20\n      add\n      dup1\n      dup4\n      gt\n      tag_80\n      jumpi\n      dup3\n      swap1\n      sub\n      0x1f\n      and\n      dup3\n      add\n      swap2\n    tag_78:\n      pop\n      pop\n      pop\n      pop\n      pop\n      dup2\n      mstore\n      0x20\n      add\n      0x02\n      dup3\n      add\n      sload\n      dup2\n      mstore\n      0x20\n      add\n      0x03\n      dup3\n      add\n      dup1\n      sload\n      dup1\n      0x20\n      mul\n      0x20\n      add\n      mload(0x40)\n      swap1\n      dup2\n      add\n      0x40\n      mstore\n      dup1\n      swap3\n      swap2\n      swap1\n      dup2\n      dup2\n      mstore\n      0x20\n      add\n      dup3\n      dup1\n      sload\n      dup1\n      iszero\n      tag_81\n      jumpi\n      0x20\n      mul\n      dup3\n      add\n      swap2\n      swap1\n      0x00\n      mstore\n      keccak256(0x00, 0x20)\n      swap1\n    tag_82:\n      dup2\n      sload\n      dup2\n      mstore\n      0x20\n      add\n      swap1\n      0x01\n      add\n      swap1\n      dup1\n      dup4\n      gt\n      tag_82\n      jumpi\n    tag_81:\n      pop\n      pop\n      pop\n      pop\n      pop\n      dup2\n      mstore\n      pop\n      pop\n      swap1\n      pop\n        /* \"contracts/CourseManager.sol\":1834:1835  x */\n      dup1\n        /* \"contracts/CourseManager.sol\":1834:1847  x.description */\n      0x20\n      add\n      mload\n        /* \"contracts/CourseManager.sol\":1822:1828  _names */\n      dup5\n        /* \"contracts/CourseManager.sol\":1829:1830  i */\n      dup4\n        /* \"contracts/CourseManager.sol\":1822:1831  _names[i] */\n      dup2\n      mload\n      dup2\n      lt\n      tag_83\n      jumpi\n      tag_84\n      tag_56\n      jump\t// in\n    tag_84:\n    tag_83:\n      0x20\n      mul\n      0x20\n      add\n      add\n        /* \"contracts/CourseManager.sol\":1822:1847  _names[i] = x.description */\n      dup2\n      swap1\n      mstore\n      pop\n        /* \"contracts/CourseManager.sol\":1874:1875  x */\n      dup1\n        /* \"contracts/CourseManager.sol\":1874:1889  x.numberOfHoles */\n      0x40\n      add\n      mload\n        /* \"contracts/CourseManager.sol\":1862:1868  _holes */\n      dup4\n        /* \"contracts/CourseManager.sol\":1869:1870  i */\n      dup4\n        /* \"contracts/CourseManager.sol\":1862:1871  _holes[i] */\n      dup2\n      mload\n      dup2\n      lt\n      tag_85\n      jumpi\n      tag_86\n      tag_56\n      jump\t// in\n    tag_86:\n    tag_85:\n      0x20\n      mul\n      0x20\n      add\n      add\n        /* \"contracts/CourseManager.sol\":1862:1889  _holes[i] = x.numberOfHoles */\n      dup2\n      dup2\n      mstore\n      pop\n      pop\n        /* \"contracts/CourseManager.sol\":1700:1900  {... */\n      pop\n        /* \"contracts/CourseManager.sol\":1695:1698  i++ */\n      dup1\n      dup1\n      0x01\n      add\n      swap2\n      pop\n      pop\n        /* \"contracts/CourseManager.sol\":1651:1900  for (uint256 i=0; i< golfCourseKeys.length; i++) {... */\n      jump(tag_51)\n    tag_52:\n      pop\n        /* \"contracts/CourseManager.sol\":1917:1922  _keys */\n      dup3\n        /* \"contracts/CourseManager.sol\":1923:1929  _names */\n      dup3\n        /* \"contracts/CourseManager.sol\":1930:1936  _holes */\n      dup3\n        /* \"contracts/CourseManager.sol\":1909:1937  return (_keys,_names,_holes) */\n      swap6\n      pop\n      swap6\n      pop\n      swap6\n      pop\n      pop\n      pop\n      pop\n        /* \"contracts/CourseManager.sol\":1340:1944  function getGolfCourses() public view returns(string[] memory, string[] memory, uint[] memory) {... */\n      swap1\n      swap2\n      swap3\n      jump\t// out\n        /* \"contracts/CourseManager.sol\":1952:2643  function deleteCourse(string calldata _courseName) public  {... */\n    tag_16:\n        /* \"contracts/CourseManager.sol\":2020:2052  golfCourses[_courseName].name=\"\" */\n      mload(0x40)\n      dup1\n      0x20\n      add\n      0x40\n      mstore\n      dup1\n      0x00\n      dup2\n      mstore\n      pop\n        /* \"contracts/CourseManager.sol\":2020:2031  golfCourses */\n      0x01\n        /* \"contracts/CourseManager.sol\":2032:2043  _courseName */\n      dup4\n      dup4\n        /* \"contracts/CourseManager.sol\":2020:2044  golfCourses[_courseName] */\n      mload(0x40)\n      tag_88\n      swap3\n      swap2\n      swap1\n      tag_89\n      jump\t// in\n    tag_88:\n      swap1\n      dup2\n      mstore\n      0x20\n      add\n      mload(0x40)\n      dup1\n      swap2\n      sub\n      swap1\n      keccak256\n        /* \"contracts/CourseManager.sol\":2020:2049  golfCourses[_courseName].name */\n      0x00\n      add\n        /* \"contracts/CourseManager.sol\":2020:2052  golfCourses[_courseName].name=\"\" */\n      swap1\n      dup2\n      tag_90\n      swap2\n      swap1\n      tag_91\n      jump\t// in\n    tag_90:\n      pop\n        /* \"contracts/CourseManager.sol\":2097:2103  uint i */\n      0x00\n        /* \"contracts/CourseManager.sol\":2092:2637  for (uint i = 0; i < golfCourseKeys.length; i++) {... */\n    tag_92:\n        /* \"contracts/CourseManager.sol\":2113:2127  golfCourseKeys */\n      0x02\n        /* \"contracts/CourseManager.sol\":2113:2134  golfCourseKeys.length */\n      dup1\n      sload\n      swap1\n      pop\n        /* \"contracts/CourseManager.sol\":2109:2110  i */\n      dup2\n        /* \"contracts/CourseManager.sol\":2109:2134  i < golfCourseKeys.length */\n      lt\n        /* \"contracts/CourseManager.sol\":2092:2637  for (uint i = 0; i < golfCourseKeys.length; i++) {... */\n      iszero\n      tag_93\n      jumpi\n        /* \"contracts/CourseManager.sol\":2236:2247  _courseName */\n      dup3\n      dup3\n        /* \"contracts/CourseManager.sol\":2219:2248  abi.encodePacked(_courseName) */\n      add(0x20, mload(0x40))\n      tag_95\n      swap3\n      swap2\n      swap1\n      tag_89\n      jump\t// in\n    tag_95:\n      mload(0x40)\n      0x20\n      dup2\n      dup4\n      sub\n      sub\n      dup2\n      mstore\n      swap1\n      0x40\n      mstore\n        /* \"contracts/CourseManager.sol\":2209:2249  keccak256(abi.encodePacked(_courseName)) */\n      dup1\n      mload\n      swap1\n      0x20\n      add\n      keccak256\n        /* \"contracts/CourseManager.sol\":2186:2200  golfCourseKeys */\n      0x02\n        /* \"contracts/CourseManager.sol\":2201:2202  i */\n      dup3\n        /* \"contracts/CourseManager.sol\":2186:2203  golfCourseKeys[i] */\n      dup2\n      sload\n      dup2\n      lt\n      tag_96\n      jumpi\n      tag_97\n      tag_56\n      jump\t// in\n    tag_97:\n    tag_96:\n      swap1\n      0x00\n      mstore\n      keccak256(0x00, 0x20)\n      add\n        /* \"contracts/CourseManager.sol\":2169:2204  abi.encodePacked(golfCourseKeys[i]) */\n      add(0x20, mload(0x40))\n      tag_99\n      swap2\n      swap1\n      tag_70\n      jump\t// in\n    tag_99:\n      mload(0x40)\n      0x20\n      dup2\n      dup4\n      sub\n      sub\n      dup2\n      mstore\n      swap1\n      0x40\n      mstore\n        /* \"contracts/CourseManager.sol\":2159:2205  keccak256(abi.encodePacked(golfCourseKeys[i])) */\n      dup1\n      mload\n      swap1\n      0x20\n      add\n      keccak256\n        /* \"contracts/CourseManager.sol\":2159:2249  keccak256(abi.encodePacked(golfCourseKeys[i])) == keccak256(abi.encodePacked(_courseName)) */\n      sub\n        /* \"contracts/CourseManager.sol\":2155:2627  if (keccak256(abi.encodePacked(golfCourseKeys[i])) == keccak256(abi.encodePacked(_courseName))) {... */\n      tag_100\n      jumpi\n        /* \"contracts/CourseManager.sol\":2360:2366  uint j */\n      0x00\n        /* \"contracts/CourseManager.sol\":2369:2370  i */\n      dup2\n        /* \"contracts/CourseManager.sol\":2360:2370  uint j = i */\n      swap1\n      pop\n        /* \"contracts/CourseManager.sol\":2355:2488  for (uint j = i; j < golfCourseKeys.length - 1; j++) {... */\n    tag_101:\n        /* \"contracts/CourseManager.sol\":2400:2401  1 */\n      0x01\n        /* \"contracts/CourseManager.sol\":2376:2390  golfCourseKeys */\n      0x02\n        /* \"contracts/CourseManager.sol\":2376:2397  golfCourseKeys.length */\n      dup1\n      sload\n      swap1\n      pop\n        /* \"contracts/CourseManager.sol\":2376:2401  golfCourseKeys.length - 1 */\n      tag_104\n      swap2\n      swap1\n      tag_105\n      jump\t// in\n    tag_104:\n        /* \"contracts/CourseManager.sol\":2372:2373  j */\n      dup2\n        /* \"contracts/CourseManager.sol\":2372:2401  j < golfCourseKeys.length - 1 */\n      lt\n        /* \"contracts/CourseManager.sol\":2355:2488  for (uint j = i; j < golfCourseKeys.length - 1; j++) {... */\n      iszero\n      tag_102\n      jumpi\n        /* \"contracts/CourseManager.sol\":2450:2464  golfCourseKeys */\n      0x02\n        /* \"contracts/CourseManager.sol\":2467:2468  1 */\n      0x01\n        /* \"contracts/CourseManager.sol\":2465:2466  j */\n      dup3\n        /* \"contracts/CourseManager.sol\":2465:2468  j+1 */\n      tag_106\n      swap2\n      swap1\n      tag_107\n      jump\t// in\n    tag_106:\n        /* \"contracts/CourseManager.sol\":2450:2469  golfCourseKeys[j+1] */\n      dup2\n      sload\n      dup2\n      lt\n      tag_108\n      jumpi\n      tag_109\n      tag_56\n      jump\t// in\n    tag_109:\n    tag_108:\n      swap1\n      0x00\n      mstore\n      keccak256(0x00, 0x20)\n      add\n        /* \"contracts/CourseManager.sol\":2430:2444  golfCourseKeys */\n      0x02\n        /* \"contracts/CourseManager.sol\":2445:2446  j */\n      dup3\n        /* \"contracts/CourseManager.sol\":2430:2447  golfCourseKeys[j] */\n      dup2\n      sload\n      dup2\n      lt\n      tag_111\n      jumpi\n      tag_112\n      tag_56\n      jump\t// in\n    tag_112:\n    tag_111:\n      swap1\n      0x00\n      mstore\n      keccak256(0x00, 0x20)\n      add\n        /* \"contracts/CourseManager.sol\":2430:2469  golfCourseKeys[j] = golfCourseKeys[j+1] */\n      swap1\n      dup2\n      tag_114\n      swap2\n      swap1\n      tag_115\n      jump\t// in\n    tag_114:\n      pop\n        /* \"contracts/CourseManager.sol\":2403:2406  j++ */\n      dup1\n      dup1\n      0x01\n      add\n      swap2\n      pop\n      pop\n        /* \"contracts/CourseManager.sol\":2355:2488  for (uint j = i; j < golfCourseKeys.length - 1; j++) {... */\n      jump(tag_101)\n    tag_102:\n      pop\n        /* \"contracts/CourseManager.sol\":2505:2519  golfCourseKeys */\n      0x02\n        /* \"contracts/CourseManager.sol\":2505:2525  golfCourseKeys.pop() */\n      dup1\n      sload\n      dup1\n      tag_116\n      jumpi\n      tag_117\n      tag_118\n      jump\t// in\n    tag_117:\n    tag_116:\n      0x01\n      swap1\n      sub\n      dup2\n      dup2\n      swap1\n      0x00\n      mstore\n      keccak256(0x00, 0x20)\n      add\n      0x00\n      tag_120\n      swap2\n      swap1\n      tag_121\n      jump\t// in\n    tag_120:\n      swap1\n      sstore\n        /* \"contracts/CourseManager.sol\":2607:2612  break */\n      jump(tag_93)\n        /* \"contracts/CourseManager.sol\":2155:2627  if (keccak256(abi.encodePacked(golfCourseKeys[i])) == keccak256(abi.encodePacked(_courseName))) {... */\n    tag_100:\n        /* \"contracts/CourseManager.sol\":2136:2139  i++ */\n      dup1\n      dup1\n      0x01\n      add\n      swap2\n      pop\n      pop\n        /* \"contracts/CourseManager.sol\":2092:2637  for (uint i = 0; i < golfCourseKeys.length; i++) {... */\n      jump(tag_92)\n    tag_93:\n      pop\n        /* \"contracts/CourseManager.sol\":1952:2643  function deleteCourse(string calldata _courseName) public  {... */\n      pop\n      pop\n      jump\t// out\n        /* \"contracts/CamelFramework.sol\":876:1339  function concatenateStrings(string memory _a, string memory _b) public pure returns (string memory) {... */\n    tag_20:\n        /* \"contracts/CamelFramework.sol\":961:974  string memory */\n      0x60\n        /* \"contracts/CamelFramework.sol\":986:1002  bytes memory _ba */\n      0x00\n        /* \"contracts/CamelFramework.sol\":1011:1013  _a */\n      dup4\n        /* \"contracts/CamelFramework.sol\":986:1014  bytes memory _ba = bytes(_a) */\n      swap1\n      pop\n        /* \"contracts/CamelFramework.sol\":1024:1040  bytes memory _bb */\n      0x00\n        /* \"contracts/CamelFramework.sol\":1049:1051  _b */\n      dup4\n        /* \"contracts/CamelFramework.sol\":1024:1052  bytes memory _bb = bytes(_b) */\n      swap1\n      pop\n        /* \"contracts/CamelFramework.sol\":1062:1078  string memory ab */\n      0x00\n        /* \"contracts/CamelFramework.sol\":1105:1108  _bb */\n      dup2\n        /* \"contracts/CamelFramework.sol\":1105:1115  _bb.length */\n      mload\n        /* \"contracts/CamelFramework.sol\":1092:1095  _ba */\n      dup4\n        /* \"contracts/CamelFramework.sol\":1092:1102  _ba.length */\n      mload\n        /* \"contracts/CamelFramework.sol\":1092:1115  _ba.length + _bb.length */\n      tag_123\n      swap2\n      swap1\n      tag_107\n      jump\t// in\n    tag_123:\n        /* \"contracts/CamelFramework.sol\":1081:1116  new string(_ba.length + _bb.length) */\n      0xffffffffffffffff\n      dup2\n      gt\n      iszero\n      tag_124\n      jumpi\n      tag_125\n      tag_41\n      jump\t// in\n    tag_125:\n    tag_124:\n      mload(0x40)\n      swap1\n      dup1\n      dup3\n      mstore\n      dup1\n      0x1f\n      add\n      not(0x1f)\n      and\n      0x20\n      add\n      dup3\n      add\n      0x40\n      mstore\n      dup1\n      iszero\n      tag_126\n      jumpi\n      dup2\n      0x20\n      add\n      0x01\n      dup3\n      mul\n      dup1\n      calldatasize\n      dup4\n      calldatacopy\n      dup1\n      dup3\n      add\n      swap2\n      pop\n      pop\n      swap1\n      pop\n    tag_126:\n      pop\n        /* \"contracts/CamelFramework.sol\":1062:1116  string memory ab = new string(_ba.length + _bb.length) */\n      swap1\n      pop\n        /* \"contracts/CamelFramework.sol\":1126:1142  bytes memory bab */\n      0x00\n        /* \"contracts/CamelFramework.sol\":1151:1153  ab */\n      dup2\n        /* \"contracts/CamelFramework.sol\":1126:1154  bytes memory bab = bytes(ab) */\n      swap1\n      pop\n        /* \"contracts/CamelFramework.sol\":1164:1170  uint k */\n      0x00\n        /* \"contracts/CamelFramework.sol\":1189:1195  uint i */\n      dup1\n        /* \"contracts/CamelFramework.sol\":1184:1239  for (uint i = 0; i < _ba.length; i++) bab[k++] = _ba[i] */\n    tag_127:\n        /* \"contracts/CamelFramework.sol\":1205:1208  _ba */\n      dup6\n        /* \"contracts/CamelFramework.sol\":1205:1215  _ba.length */\n      mload\n        /* \"contracts/CamelFramework.sol\":1201:1202  i */\n      dup2\n        /* \"contracts/CamelFramework.sol\":1201:1215  i < _ba.length */\n      lt\n        /* \"contracts/CamelFramework.sol\":1184:1239  for (uint i = 0; i < _ba.length; i++) bab[k++] = _ba[i] */\n      iszero\n      tag_128\n      jumpi\n        /* \"contracts/CamelFramework.sol\":1233:1236  _ba */\n      dup6\n        /* \"contracts/CamelFramework.sol\":1237:1238  i */\n      dup2\n        /* \"contracts/CamelFramework.sol\":1233:1239  _ba[i] */\n      dup2\n      mload\n      dup2\n      lt\n      tag_130\n      jumpi\n      tag_131\n      tag_56\n      jump\t// in\n    tag_131:\n    tag_130:\n      0x20\n      add\n      add\n      mload\n      0xf8\n      shr\n      0xf8\n      shl\n        /* \"contracts/CamelFramework.sol\":1222:1225  bab */\n      dup4\n        /* \"contracts/CamelFramework.sol\":1226:1229  k++ */\n      dup4\n      dup1\n      tag_132\n      swap1\n      tag_133\n      jump\t// in\n    tag_132:\n      swap5\n      pop\n        /* \"contracts/CamelFramework.sol\":1222:1230  bab[k++] */\n      dup2\n      mload\n      dup2\n      lt\n      tag_134\n      jumpi\n      tag_135\n      tag_56\n      jump\t// in\n    tag_135:\n    tag_134:\n      0x20\n      add\n      add\n        /* \"contracts/CamelFramework.sol\":1222:1239  bab[k++] = _ba[i] */\n      swap1\n      not(0xffffffffffffffffffffffffffffffffffffffffffffffffffffffffffffff)\n      and\n      swap1\n      dup2\n      0x00\n      byte\n      swap1\n      mstore8\n      pop\n        /* \"contracts/CamelFramework.sol\":1217:1220  i++ */\n      dup1\n      dup1\n      0x01\n      add\n      swap2\n      pop\n      pop\n        /* \"contracts/CamelFramework.sol\":1184:1239  for (uint i = 0; i < _ba.length; i++) bab[k++] = _ba[i] */\n      jump(tag_127)\n    tag_128:\n      pop\n        /* \"contracts/CamelFramework.sol\":1254:1260  uint i */\n      0x00\n        /* \"contracts/CamelFramework.sol\":1249:1304  for (uint i = 0; i < _bb.length; i++) bab[k++] = _bb[i] */\n    tag_136:\n        /* \"contracts/CamelFramework.sol\":1270:1273  _bb */\n      dup5\n        /* \"contracts/CamelFramework.sol\":1270:1280  _bb.length */\n      mload\n        /* \"contracts/CamelFramework.sol\":1266:1267  i */\n      dup2\n        /* \"contracts/CamelFramework.sol\":1266:1280  i < _bb.length */\n      lt\n        /* \"contracts/CamelFramework.sol\":1249:1304  for (uint i = 0; i < _bb.length; i++) bab[k++] = _bb[i] */\n      iszero\n      tag_137\n      jumpi\n        /* \"contracts/CamelFramework.sol\":1298:1301  _bb */\n      dup5\n        /* \"contracts/CamelFramework.sol\":1302:1303  i */\n      dup2\n        /* \"contracts/CamelFramework.sol\":1298:1304  _bb[i] */\n      dup2\n      mload\n      dup2\n      lt\n      tag_139\n      jumpi\n      tag_140\n      tag_56\n      jump\t// in\n    tag_140:\n    tag_139:\n      0x20\n      add\n      add\n      mload\n      0xf8\n      shr\n      0xf8\n      shl\n        /* \"contracts/CamelFramework.sol\":1287:1290  bab */\n      dup4\n        /* \"contracts/CamelFramework.sol\":1291:1294  k++ */\n      dup4\n      dup1\n      tag_141\n      swap1\n      tag_133\n      jump\t// in\n    tag_141:\n      swap5\n      pop\n        /* \"contracts/CamelFramework.sol\":1287:1295  bab[k++] */\n      dup2\n      mload\n      dup2\n      lt\n      tag_142\n      jumpi\n      tag_143\n      tag_56\n      jump\t// in\n    tag_143:\n    tag_142:\n      0x20\n      add\n      add\n        /* \"contracts/CamelFramework.sol\":1287:1304  bab[k++] = _bb[i] */\n      swap1\n      not(0xffffffffffffffffffffffffffffffffffffffffffffffffffffffffffffff)\n      and\n      swap1\n      dup2\n      0x00\n      byte\n      swap1\n      mstore8\n      pop\n        /* \"contracts/CamelFramework.sol\":1282:1285  i++ */\n      dup1\n      dup1\n      0x01\n      add\n      swap2\n      pop\n      pop\n        /* \"contracts/CamelFramework.sol\":1249:1304  for (uint i = 0; i < _bb.length; i++) bab[k++] = _bb[i] */\n      jump(tag_136)\n    tag_137:\n      pop\n        /* \"contracts/CamelFramework.sol\":1328:1331  bab */\n      dup2\n        /* \"contracts/CamelFramework.sol\":1314:1332  return string(bab) */\n      swap6\n      pop\n      pop\n      pop\n      pop\n      pop\n      pop\n        /* \"contracts/CamelFramework.sol\":876:1339  function concatenateStrings(string memory _a, string memory _b) public pure returns (string memory) {... */\n      swap3\n      swap2\n      pop\n      pop\n      jump\t// out\n        /* \"contracts/CourseManager.sol\":2653:3186  function isCourseExtant(string memory _courseName) public view returns(bool) {... */\n    tag_26:\n        /* \"contracts/CourseManager.sol\":2724:2728  bool */\n      0x00\n        /* \"contracts/CourseManager.sol\":2738:2758  GolfCourse storage x */\n      dup1\n        /* \"contracts/CourseManager.sol\":2761:2772  golfCourses */\n      0x01\n        /* \"contracts/CourseManager.sol\":2773:2784  _courseName */\n      dup4\n        /* \"contracts/CourseManager.sol\":2761:2785  golfCourses[_courseName] */\n      mload(0x40)\n      tag_145\n      swap2\n      swap1\n      tag_146\n      jump\t// in\n    tag_145:\n      swap1\n      dup2\n      mstore\n      0x20\n      add\n      mload(0x40)\n      dup1\n      swap2\n      sub\n      swap1\n      keccak256\n        /* \"contracts/CourseManager.sol\":2738:2785  GolfCourse storage x = golfCourses[_courseName] */\n      swap1\n      pop\n        /* \"contracts/CourseManager.sol\":3171:3172  x */\n      dup1\n        /* \"contracts/CourseManager.sol\":3171:3177  x.name */\n      0x00\n      add\n        /* \"contracts/CourseManager.sol\":3154:3178  abi.encodePacked(x.name) */\n      add(0x20, mload(0x40))\n      tag_147\n      swap2\n      swap1\n      tag_70\n      jump\t// in\n    tag_147:\n      mload(0x40)\n      0x20\n      dup2\n      dup4\n      sub\n      sub\n      dup2\n      mstore\n      swap1\n      0x40\n      mstore\n        /* \"contracts/CourseManager.sol\":3144:3179  keccak256(abi.encodePacked(x.name)) */\n      dup1\n      mload\n      swap1\n      0x20\n      add\n      keccak256\n        /* \"contracts/CourseManager.sol\":3119:3139  abi.encodePacked(\"\") */\n      add(0x20, mload(0x40))\n      tag_148\n      swap1\n      tag_149\n      jump\t// in\n    tag_148:\n      mload(0x40)\n      0x20\n      dup2\n      dup4\n      sub\n      sub\n      dup2\n      mstore\n      swap1\n      0x40\n      mstore\n        /* \"contracts/CourseManager.sol\":3109:3140  keccak256(abi.encodePacked(\"\")) */\n      dup1\n      mload\n      swap1\n      0x20\n      add\n      keccak256\n        /* \"contracts/CourseManager.sol\":3109:3179  keccak256(abi.encodePacked(\"\")) == keccak256(abi.encodePacked(x.name)) */\n      eq\n        /* \"contracts/CourseManager.sol\":3102:3179  return keccak256(abi.encodePacked(\"\")) == keccak256(abi.encodePacked(x.name)) */\n      swap2\n      pop\n      pop\n        /* \"contracts/CourseManager.sol\":2653:3186  function isCourseExtant(string memory _courseName) public view returns(bool) {... */\n      swap2\n      swap1\n      pop\n      jump\t// out\n        /* \"contracts/CourseManager.sol\":728:1153  function addGolfCourse(string calldata _name, string calldata _description, uint _numberOfHoles, uint[] calldata pars) public {... */\n    tag_32:\n        /* \"contracts/CourseManager.sol\":888:893  _name */\n      dup7\n      dup7\n        /* \"contracts/CourseManager.sol\":864:875  golfCourses */\n      0x01\n        /* \"contracts/CourseManager.sol\":876:881  _name */\n      dup10\n      dup10\n        /* \"contracts/CourseManager.sol\":864:882  golfCourses[_name] */\n      mload(0x40)\n      tag_151\n      swap3\n      swap2\n      swap1\n      tag_89\n      jump\t// in\n    tag_151:\n      swap1\n      dup2\n      mstore\n      0x20\n      add\n      mload(0x40)\n      dup1\n      swap2\n      sub\n      swap1\n      keccak256\n        /* \"contracts/CourseManager.sol\":864:887  golfCourses[_name].name */\n      0x00\n      add\n        /* \"contracts/CourseManager.sol\":864:893  golfCourses[_name].name=_name */\n      swap2\n      dup3\n      tag_152\n      swap3\n      swap2\n      swap1\n      tag_153\n      jump\t// in\n    tag_152:\n      pop\n        /* \"contracts/CourseManager.sol\":934:946  _description */\n      dup5\n      dup5\n        /* \"contracts/CourseManager.sol\":903:914  golfCourses */\n      0x01\n        /* \"contracts/CourseManager.sol\":915:920  _name */\n      dup10\n      dup10\n        /* \"contracts/CourseManager.sol\":903:921  golfCourses[_name] */\n      mload(0x40)\n      tag_154\n      swap3\n      swap2\n      swap1\n      tag_89\n      jump\t// in\n    tag_154:\n      swap1\n      dup2\n      mstore\n      0x20\n      add\n      mload(0x40)\n      dup1\n      swap2\n      sub\n      swap1\n      keccak256\n        /* \"contracts/CourseManager.sol\":903:933  golfCourses[_name].description */\n      0x01\n      add\n        /* \"contracts/CourseManager.sol\":903:946  golfCourses[_name].description=_description */\n      swap2\n      dup3\n      tag_155\n      swap3\n      swap2\n      swap1\n      tag_153\n      jump\t// in\n    tag_155:\n      pop\n        /* \"contracts/CourseManager.sol\":989:1003  _numberOfHoles */\n      dup3\n        /* \"contracts/CourseManager.sol\":956:967  golfCourses */\n      0x01\n        /* \"contracts/CourseManager.sol\":968:973  _name */\n      dup9\n      dup9\n        /* \"contracts/CourseManager.sol\":956:974  golfCourses[_name] */\n      mload(0x40)\n      tag_156\n      swap3\n      swap2\n      swap1\n      tag_89\n      jump\t// in\n    tag_156:\n      swap1\n      dup2\n      mstore\n      0x20\n      add\n      mload(0x40)\n      dup1\n      swap2\n      sub\n      swap1\n      keccak256\n        /* \"contracts/CourseManager.sol\":956:988  golfCourses[_name].numberOfHoles */\n      0x02\n      add\n        /* \"contracts/CourseManager.sol\":956:1003  golfCourses[_name].numberOfHoles=_numberOfHoles */\n      dup2\n      swap1\n      sstore\n      pop\n        /* \"contracts/CourseManager.sol\":1018:1027  uint256 i */\n      0x00\n        /* \"contracts/CourseManager.sol\":1013:1111  for (uint256 i=0;i<pars.length;i++) {... */\n    tag_157:\n        /* \"contracts/CourseManager.sol\":1032:1036  pars */\n      dup3\n      dup3\n        /* \"contracts/CourseManager.sol\":1032:1043  pars.length */\n      swap1\n      pop\n        /* \"contracts/CourseManager.sol\":1030:1031  i */\n      dup2\n        /* \"contracts/CourseManager.sol\":1030:1043  i<pars.length */\n      lt\n        /* \"contracts/CourseManager.sol\":1013:1111  for (uint256 i=0;i<pars.length;i++) {... */\n      iszero\n      tag_158\n      jumpi\n        /* \"contracts/CourseManager.sol\":1063:1074  golfCourses */\n      0x01\n        /* \"contracts/CourseManager.sol\":1075:1080  _name */\n      dup9\n      dup9\n        /* \"contracts/CourseManager.sol\":1063:1081  golfCourses[_name] */\n      mload(0x40)\n      tag_160\n      swap3\n      swap2\n      swap1\n      tag_89\n      jump\t// in\n    tag_160:\n      swap1\n      dup2\n      mstore\n      0x20\n      add\n      mload(0x40)\n      dup1\n      swap2\n      sub\n      swap1\n      keccak256\n        /* \"contracts/CourseManager.sol\":1063:1086  golfCourses[_name].pars */\n      0x03\n      add\n        /* \"contracts/CourseManager.sol\":1092:1096  pars */\n      dup4\n      dup4\n        /* \"contracts/CourseManager.sol\":1097:1098  i */\n      dup4\n        /* \"contracts/CourseManager.sol\":1092:1099  pars[i] */\n      dup2\n      dup2\n      lt\n      tag_161\n      jumpi\n      tag_162\n      tag_56\n      jump\t// in\n    tag_162:\n    tag_161:\n      swap1\n      pop\n      0x20\n      mul\n      add\n      calldataload\n        /* \"contracts/CourseManager.sol\":1063:1100  golfCourses[_name].pars.push(pars[i]) */\n      swap1\n      dup1\n      0x01\n      dup2\n      sload\n      add\n      dup1\n      dup3\n      sstore\n      dup1\n      swap2\n      pop\n      pop\n      0x01\n      swap1\n      sub\n      swap1\n      0x00\n      mstore\n      keccak256(0x00, 0x20)\n      add\n      0x00\n      swap1\n      swap2\n      swap1\n      swap2\n      swap1\n      swap2\n      pop\n      sstore\n        /* \"contracts/CourseManager.sol\":1044:1047  i++ */\n      dup1\n      dup1\n      0x01\n      add\n      swap2\n      pop\n      pop\n        /* \"contracts/CourseManager.sol\":1013:1111  for (uint256 i=0;i<pars.length;i++) {... */\n      jump(tag_157)\n    tag_158:\n      pop\n        /* \"contracts/CourseManager.sol\":1120:1134  golfCourseKeys */\n      0x02\n        /* \"contracts/CourseManager.sol\":1140:1145  _name */\n      dup8\n      dup8\n        /* \"contracts/CourseManager.sol\":1120:1146  golfCourseKeys.push(_name) */\n      swap1\n      swap2\n      dup1\n      0x01\n      dup2\n      sload\n      add\n      dup1\n      dup3\n      sstore\n      dup1\n      swap2\n      pop\n      pop\n      0x01\n      swap1\n      sub\n      swap1\n      0x00\n      mstore\n      keccak256(0x00, 0x20)\n      add\n      0x00\n      swap1\n      swap2\n      swap3\n      swap1\n      swap2\n      swap3\n      swap1\n      swap2\n      swap3\n      swap1\n      swap2\n      swap3\n      pop\n      swap2\n      dup3\n      tag_165\n      swap3\n      swap2\n      swap1\n      tag_153\n      jump\t// in\n    tag_165:\n      pop\n        /* \"contracts/CourseManager.sol\":728:1153  function addGolfCourse(string calldata _name, string calldata _description, uint _numberOfHoles, uint[] calldata pars) public {... */\n      pop\n      pop\n      pop\n      pop\n      pop\n      pop\n      pop\n      jump\t// out\n        /* \"contracts/CamelFramework.sol\":294:870  function uintToString(uint _uint) public pure returns (string memory) {... */\n    tag_36:\n        /* \"contracts/CamelFramework.sol\":349:362  string memory */\n      0x60\n        /* \"contracts/CamelFramework.sol\":387:388  0 */\n      0x00\n        /* \"contracts/CamelFramework.sol\":378:383  _uint */\n      dup3\n        /* \"contracts/CamelFramework.sol\":378:388  _uint == 0 */\n      sub\n        /* \"contracts/CamelFramework.sol\":374:425  if (_uint == 0) {... */\n      tag_167\n      jumpi\n        /* \"contracts/CamelFramework.sol\":404:414  return \"0\" */\n      mload(0x40)\n      dup1\n      0x40\n      add\n      0x40\n      mstore\n      dup1\n      0x01\n      dup2\n      mstore\n      0x20\n      add\n      0x3000000000000000000000000000000000000000000000000000000000000000\n      dup2\n      mstore\n      pop\n      swap1\n      pop\n      jump(tag_166)\n        /* \"contracts/CamelFramework.sol\":374:425  if (_uint == 0) {... */\n    tag_167:\n        /* \"contracts/CamelFramework.sol\":434:440  uint j */\n      0x00\n        /* \"contracts/CamelFramework.sol\":443:448  _uint */\n      dup3\n        /* \"contracts/CamelFramework.sol\":434:448  uint j = _uint */\n      swap1\n      pop\n        /* \"contracts/CamelFramework.sol\":458:469  uint length */\n      0x00\n        /* \"contracts/CamelFramework.sol\":479:548  while (j != 0) {... */\n    tag_168:\n        /* \"contracts/CamelFramework.sol\":491:492  0 */\n      0x00\n        /* \"contracts/CamelFramework.sol\":486:487  j */\n      dup3\n        /* \"contracts/CamelFramework.sol\":486:492  j != 0 */\n      eq\n        /* \"contracts/CamelFramework.sol\":479:548  while (j != 0) {... */\n      tag_169\n      jumpi\n        /* \"contracts/CamelFramework.sol\":508:516  length++ */\n      dup1\n      dup1\n      tag_170\n      swap1\n      tag_133\n      jump\t// in\n    tag_170:\n      swap2\n      pop\n      pop\n        /* \"contracts/CamelFramework.sol\":535:537  10 */\n      0x0a\n        /* \"contracts/CamelFramework.sol\":530:537  j /= 10 */\n      dup3\n      tag_171\n      swap2\n      swap1\n      tag_172\n      jump\t// in\n    tag_171:\n      swap2\n      pop\n        /* \"contracts/CamelFramework.sol\":479:548  while (j != 0) {... */\n      jump(tag_168)\n    tag_169:\n        /* \"contracts/CamelFramework.sol\":557:574  bytes memory bstr */\n      0x00\n        /* \"contracts/CamelFramework.sol\":587:593  length */\n      dup2\n        /* \"contracts/CamelFramework.sol\":577:594  new bytes(length) */\n      0xffffffffffffffff\n      dup2\n      gt\n      iszero\n      tag_173\n      jumpi\n      tag_174\n      tag_41\n      jump\t// in\n    tag_174:\n    tag_173:\n      mload(0x40)\n      swap1\n      dup1\n      dup3\n      mstore\n      dup1\n      0x1f\n      add\n      not(0x1f)\n      and\n      0x20\n      add\n      dup3\n      add\n      0x40\n      mstore\n      dup1\n      iszero\n      tag_175\n      jumpi\n      dup2\n      0x20\n      add\n      0x01\n      dup3\n      mul\n      dup1\n      calldatasize\n      dup4\n      calldatacopy\n      dup1\n      dup3\n      add\n      swap2\n      pop\n      pop\n      swap1\n      pop\n    tag_175:\n      pop\n        /* \"contracts/CamelFramework.sol\":557:594  bytes memory bstr = new bytes(length) */\n      swap1\n      pop\n        /* \"contracts/CamelFramework.sol\":604:610  uint k */\n      0x00\n        /* \"contracts/CamelFramework.sol\":613:619  length */\n      dup3\n        /* \"contracts/CamelFramework.sol\":604:619  uint k = length */\n      swap1\n      pop\n        /* \"contracts/CamelFramework.sol\":629:835  while (_uint != 0) {... */\n    tag_176:\n        /* \"contracts/CamelFramework.sol\":645:646  0 */\n      0x00\n        /* \"contracts/CamelFramework.sol\":636:641  _uint */\n      dup7\n        /* \"contracts/CamelFramework.sol\":636:646  _uint != 0 */\n      eq\n        /* \"contracts/CamelFramework.sol\":629:835  while (_uint != 0) {... */\n      tag_177\n      jumpi\n        /* \"contracts/CamelFramework.sol\":670:671  1 */\n      0x01\n        /* \"contracts/CamelFramework.sol\":666:667  k */\n      dup2\n        /* \"contracts/CamelFramework.sol\":666:671  k - 1 */\n      tag_178\n      swap2\n      swap1\n      tag_105\n      jump\t// in\n    tag_178:\n        /* \"contracts/CamelFramework.sol\":662:671  k = k - 1 */\n      swap1\n      pop\n        /* \"contracts/CamelFramework.sol\":685:695  uint8 temp */\n      0x00\n        /* \"contracts/CamelFramework.sol\":731:733  10 */\n      0x0a\n        /* \"contracts/CamelFramework.sol\":726:728  10 */\n      dup1\n        /* \"contracts/CamelFramework.sol\":718:723  _uint */\n      dup9\n        /* \"contracts/CamelFramework.sol\":718:728  _uint / 10 */\n      tag_179\n      swap2\n      swap1\n      tag_172\n      jump\t// in\n    tag_179:\n        /* \"contracts/CamelFramework.sol\":718:733  _uint / 10 * 10 */\n      tag_180\n      swap2\n      swap1\n      tag_181\n      jump\t// in\n    tag_180:\n        /* \"contracts/CamelFramework.sol\":710:715  _uint */\n      dup8\n        /* \"contracts/CamelFramework.sol\":710:733  _uint - _uint / 10 * 10 */\n      tag_182\n      swap2\n      swap1\n      tag_105\n      jump\t// in\n    tag_182:\n        /* \"contracts/CamelFramework.sol\":699:701  48 */\n      0x30\n        /* \"contracts/CamelFramework.sol\":699:734  48 + uint8(_uint - _uint / 10 * 10) */\n      tag_183\n      swap2\n      swap1\n      tag_184\n      jump\t// in\n    tag_183:\n        /* \"contracts/CamelFramework.sol\":685:735  uint8 temp = (48 + uint8(_uint - _uint / 10 * 10)) */\n      swap1\n      pop\n        /* \"contracts/CamelFramework.sol\":749:758  bytes1 b1 */\n      0x00\n        /* \"contracts/CamelFramework.sol\":768:772  temp */\n      dup2\n        /* \"contracts/CamelFramework.sol\":761:773  bytes1(temp) */\n      0xf8\n      shl\n        /* \"contracts/CamelFramework.sol\":749:773  bytes1 b1 = bytes1(temp) */\n      swap1\n      pop\n        /* \"contracts/CamelFramework.sol\":797:799  b1 */\n      dup1\n        /* \"contracts/CamelFramework.sol\":787:791  bstr */\n      dup5\n        /* \"contracts/CamelFramework.sol\":792:793  k */\n      dup5\n        /* \"contracts/CamelFramework.sol\":787:794  bstr[k] */\n      dup2\n      mload\n      dup2\n      lt\n      tag_185\n      jumpi\n      tag_186\n      tag_56\n      jump\t// in\n    tag_186:\n    tag_185:\n      0x20\n      add\n      add\n        /* \"contracts/CamelFramework.sol\":787:799  bstr[k] = b1 */\n      swap1\n      not(0xffffffffffffffffffffffffffffffffffffffffffffffffffffffffffffff)\n      and\n      swap1\n      dup2\n      0x00\n      byte\n      swap1\n      mstore8\n      pop\n        /* \"contracts/CamelFramework.sol\":822:824  10 */\n      0x0a\n        /* \"contracts/CamelFramework.sol\":813:824  _uint /= 10 */\n      dup9\n      tag_187\n      swap2\n      swap1\n      tag_172\n      jump\t// in\n    tag_187:\n      swap8\n      pop\n        /* \"contracts/CamelFramework.sol\":648:835  {... */\n      pop\n      pop\n        /* \"contracts/CamelFramework.sol\":629:835  while (_uint != 0) {... */\n      jump(tag_176)\n    tag_177:\n        /* \"contracts/CamelFramework.sol\":858:862  bstr */\n      dup2\n        /* \"contracts/CamelFramework.sol\":844:863  return string(bstr) */\n      swap5\n      pop\n      pop\n      pop\n      pop\n      pop\n        /* \"contracts/CamelFramework.sol\":294:870  function uintToString(uint _uint) public pure returns (string memory) {... */\n    tag_166:\n      swap2\n      swap1\n      pop\n      jump\t// out\n    tag_121:\n      pop\n      dup1\n      sload\n      tag_188\n      swap1\n      tag_59\n      jump\t// in\n    tag_188:\n      0x00\n      dup3\n      sstore\n      dup1\n      0x1f\n      lt\n      tag_190\n      jumpi\n      pop\n      jump(tag_189)\n    tag_190:\n      0x1f\n      add\n      0x20\n      swap1\n      div\n      swap1\n      0x00\n      mstore\n      keccak256(0x00, 0x20)\n      swap1\n      dup2\n      add\n      swap1\n      tag_191\n      swap2\n      swap1\n      tag_192\n      jump\t// in\n    tag_191:\n    tag_189:\n      pop\n      jump\t// out\n    tag_192:\n    tag_193:\n      dup1\n      dup3\n      gt\n      iszero\n      tag_194\n      jumpi\n      0x00\n      dup2\n      0x00\n      swap1\n      sstore\n      pop\n      0x01\n      add\n      jump(tag_193)\n    tag_194:\n      pop\n      swap1\n      jump\t// out\n        /* \"#utility.yul\":7:131   */\n    tag_195:\n        /* \"#utility.yul\":84:90   */\n      0x00\n        /* \"#utility.yul\":118:123   */\n      dup2\n        /* \"#utility.yul\":112:124   */\n      mload\n        /* \"#utility.yul\":102:124   */\n      swap1\n      pop\n        /* \"#utility.yul\":7:131   */\n      swap2\n      swap1\n      pop\n      jump\t// out\n        /* \"#utility.yul\":137:331   */\n    tag_196:\n        /* \"#utility.yul\":246:257   */\n      0x00\n        /* \"#utility.yul\":280:286   */\n      dup3\n        /* \"#utility.yul\":275:278   */\n      dup3\n        /* \"#utility.yul\":268:287   */\n      mstore\n        /* \"#utility.yul\":320:324   */\n      0x20\n        /* \"#utility.yul\":315:318   */\n      dup3\n        /* \"#utility.yul\":311:325   */\n      add\n        /* \"#utility.yul\":296:325   */\n      swap1\n      pop\n        /* \"#utility.yul\":137:331   */\n      swap3\n      swap2\n      pop\n      pop\n      jump\t// out\n        /* \"#utility.yul\":337:479   */\n    tag_197:\n        /* \"#utility.yul\":414:418   */\n      0x00\n        /* \"#utility.yul\":437:440   */\n      dup2\n        /* \"#utility.yul\":429:440   */\n      swap1\n      pop\n        /* \"#utility.yul\":467:471   */\n      0x20\n        /* \"#utility.yul\":462:465   */\n      dup3\n        /* \"#utility.yul\":458:472   */\n      add\n        /* \"#utility.yul\":450:472   */\n      swap1\n      pop\n        /* \"#utility.yul\":337:479   */\n      swap2\n      swap1\n      pop\n      jump\t// out\n        /* \"#utility.yul\":485:584   */\n    tag_198:\n        /* \"#utility.yul\":537:543   */\n      0x00\n        /* \"#utility.yul\":571:576   */\n      dup2\n        /* \"#utility.yul\":565:577   */\n      mload\n        /* \"#utility.yul\":555:577   */\n      swap1\n      pop\n        /* \"#utility.yul\":485:584   */\n      swap2\n      swap1\n      pop\n      jump\t// out\n        /* \"#utility.yul\":590:749   */\n    tag_199:\n        /* \"#utility.yul\":664:675   */\n      0x00\n        /* \"#utility.yul\":698:704   */\n      dup3\n        /* \"#utility.yul\":693:696   */\n      dup3\n        /* \"#utility.yul\":686:705   */\n      mstore\n        /* \"#utility.yul\":738:742   */\n      0x20\n        /* \"#utility.yul\":733:736   */\n      dup3\n        /* \"#utility.yul\":729:743   */\n      add\n        /* \"#utility.yul\":714:743   */\n      swap1\n      pop\n        /* \"#utility.yul\":590:749   */\n      swap3\n      swap2\n      pop\n      pop\n      jump\t// out\n        /* \"#utility.yul\":755:894   */\n    tag_200:\n        /* \"#utility.yul\":844:850   */\n      dup3\n        /* \"#utility.yul\":839:842   */\n      dup2\n        /* \"#utility.yul\":834:837   */\n      dup4\n        /* \"#utility.yul\":828:851   */\n      mcopy\n        /* \"#utility.yul\":885:886   */\n      0x00\n        /* \"#utility.yul\":876:882   */\n      dup4\n        /* \"#utility.yul\":871:874   */\n      dup4\n        /* \"#utility.yul\":867:883   */\n      add\n        /* \"#utility.yul\":860:887   */\n      mstore\n        /* \"#utility.yul\":755:894   */\n      pop\n      pop\n      pop\n      jump\t// out\n        /* \"#utility.yul\":900:1002   */\n    tag_201:\n        /* \"#utility.yul\":941:947   */\n      0x00\n        /* \"#utility.yul\":992:994   */\n      0x1f\n        /* \"#utility.yul\":988:995   */\n      not\n        /* \"#utility.yul\":983:985   */\n      0x1f\n        /* \"#utility.yul\":976:981   */\n      dup4\n        /* \"#utility.yul\":972:986   */\n      add\n        /* \"#utility.yul\":968:996   */\n      and\n        /* \"#utility.yul\":958:996   */\n      swap1\n      pop\n        /* \"#utility.yul\":900:1002   */\n      swap2\n      swap1\n      pop\n      jump\t// out\n        /* \"#utility.yul\":1008:1365   */\n    tag_202:\n        /* \"#utility.yul\":1086:1089   */\n      0x00\n        /* \"#utility.yul\":1114:1153   */\n      tag_272\n        /* \"#utility.yul\":1147:1152   */\n      dup3\n        /* \"#utility.yul\":1114:1153   */\n      tag_198\n      jump\t// in\n    tag_272:\n        /* \"#utility.yul\":1169:1230   */\n      tag_273\n        /* \"#utility.yul\":1223:1229   */\n      dup2\n        /* \"#utility.yul\":1218:1221   */\n      dup6\n        /* \"#utility.yul\":1169:1230   */\n      tag_199\n      jump\t// in\n    tag_273:\n        /* \"#utility.yul\":1162:1230   */\n      swap4\n      pop\n        /* \"#utility.yul\":1239:1304   */\n      tag_274\n        /* \"#utility.yul\":1297:1303   */\n      dup2\n        /* \"#utility.yul\":1292:1295   */\n      dup6\n        /* \"#utility.yul\":1285:1289   */\n      0x20\n        /* \"#utility.yul\":1278:1283   */\n      dup7\n        /* \"#utility.yul\":1274:1290   */\n      add\n        /* \"#utility.yul\":1239:1304   */\n      tag_200\n      jump\t// in\n    tag_274:\n        /* \"#utility.yul\":1329:1358   */\n      tag_275\n        /* \"#utility.yul\":1351:1357   */\n      dup2\n        /* \"#utility.yul\":1329:1358   */\n      tag_201\n      jump\t// in\n    tag_275:\n        /* \"#utility.yul\":1324:1327   */\n      dup5\n        /* \"#utility.yul\":1320:1359   */\n      add\n        /* \"#utility.yul\":1313:1359   */\n      swap2\n      pop\n        /* \"#utility.yul\":1090:1365   */\n      pop\n        /* \"#utility.yul\":1008:1365   */\n      swap3\n      swap2\n      pop\n      pop\n      jump\t// out\n        /* \"#utility.yul\":1371:1567   */\n    tag_203:\n        /* \"#utility.yul\":1460:1470   */\n      0x00\n        /* \"#utility.yul\":1495:1561   */\n      tag_277\n        /* \"#utility.yul\":1557:1560   */\n      dup4\n        /* \"#utility.yul\":1549:1555   */\n      dup4\n        /* \"#utility.yul\":1495:1561   */\n      tag_202\n      jump\t// in\n    tag_277:\n        /* \"#utility.yul\":1481:1561   */\n      swap1\n      pop\n        /* \"#utility.yul\":1371:1567   */\n      swap3\n      swap2\n      pop\n      pop\n      jump\t// out\n        /* \"#utility.yul\":1573:1696   */\n    tag_204:\n        /* \"#utility.yul\":1653:1657   */\n      0x00\n        /* \"#utility.yul\":1685:1689   */\n      0x20\n        /* \"#utility.yul\":1680:1683   */\n      dup3\n        /* \"#utility.yul\":1676:1690   */\n      add\n        /* \"#utility.yul\":1668:1690   */\n      swap1\n      pop\n        /* \"#utility.yul\":1573:1696   */\n      swap2\n      swap1\n      pop\n      jump\t// out\n        /* \"#utility.yul\":1730:2721   */\n    tag_205:\n        /* \"#utility.yul\":1869:1872   */\n      0x00\n        /* \"#utility.yul\":1898:1962   */\n      tag_280\n        /* \"#utility.yul\":1956:1961   */\n      dup3\n        /* \"#utility.yul\":1898:1962   */\n      tag_195\n      jump\t// in\n    tag_280:\n        /* \"#utility.yul\":1978:2074   */\n      tag_281\n        /* \"#utility.yul\":2067:2073   */\n      dup2\n        /* \"#utility.yul\":2062:2065   */\n      dup6\n        /* \"#utility.yul\":1978:2074   */\n      tag_196\n      jump\t// in\n    tag_281:\n        /* \"#utility.yul\":1971:2074   */\n      swap4\n      pop\n        /* \"#utility.yul\":2100:2103   */\n      dup4\n        /* \"#utility.yul\":2145:2149   */\n      0x20\n        /* \"#utility.yul\":2137:2143   */\n      dup3\n        /* \"#utility.yul\":2133:2150   */\n      mul\n        /* \"#utility.yul\":2128:2131   */\n      dup6\n        /* \"#utility.yul\":2124:2151   */\n      add\n        /* \"#utility.yul\":2175:2241   */\n      tag_282\n        /* \"#utility.yul\":2235:2240   */\n      dup6\n        /* \"#utility.yul\":2175:2241   */\n      tag_197\n      jump\t// in\n    tag_282:\n        /* \"#utility.yul\":2264:2271   */\n      dup1\n        /* \"#utility.yul\":2295:2296   */\n      0x00\n        /* \"#utility.yul\":2280:2676   */\n    tag_283:\n        /* \"#utility.yul\":2305:2311   */\n      dup6\n        /* \"#utility.yul\":2302:2303   */\n      dup2\n        /* \"#utility.yul\":2299:2312   */\n      lt\n        /* \"#utility.yul\":2280:2676   */\n      iszero\n      tag_285\n      jumpi\n        /* \"#utility.yul\":2376:2385   */\n      dup5\n        /* \"#utility.yul\":2370:2374   */\n      dup5\n        /* \"#utility.yul\":2366:2386   */\n      sub\n        /* \"#utility.yul\":2361:2364   */\n      dup10\n        /* \"#utility.yul\":2354:2387   */\n      mstore\n        /* \"#utility.yul\":2427:2433   */\n      dup2\n        /* \"#utility.yul\":2421:2434   */\n      mload\n        /* \"#utility.yul\":2455:2539   */\n      tag_286\n        /* \"#utility.yul\":2534:2538   */\n      dup6\n        /* \"#utility.yul\":2519:2532   */\n      dup3\n        /* \"#utility.yul\":2455:2539   */\n      tag_203\n      jump\t// in\n    tag_286:\n        /* \"#utility.yul\":2447:2539   */\n      swap5\n      pop\n        /* \"#utility.yul\":2562:2632   */\n      tag_287\n        /* \"#utility.yul\":2625:2631   */\n      dup4\n        /* \"#utility.yul\":2562:2632   */\n      tag_204\n      jump\t// in\n    tag_287:\n        /* \"#utility.yul\":2552:2632   */\n      swap3\n      pop\n        /* \"#utility.yul\":2661:2665   */\n      0x20\n        /* \"#utility.yul\":2656:2659   */\n      dup11\n        /* \"#utility.yul\":2652:2666   */\n      add\n        /* \"#utility.yul\":2645:2666   */\n      swap10\n      pop\n        /* \"#utility.yul\":2340:2676   */\n      pop\n        /* \"#utility.yul\":2327:2328   */\n      0x01\n        /* \"#utility.yul\":2324:2325   */\n      dup2\n        /* \"#utility.yul\":2320:2329   */\n      add\n        /* \"#utility.yul\":2315:2329   */\n      swap1\n      pop\n        /* \"#utility.yul\":2280:2676   */\n      jump(tag_283)\n    tag_285:\n        /* \"#utility.yul\":2284:2298   */\n      pop\n        /* \"#utility.yul\":2692:2696   */\n      dup3\n        /* \"#utility.yul\":2685:2696   */\n      swap8\n      pop\n        /* \"#utility.yul\":2712:2715   */\n      dup8\n        /* \"#utility.yul\":2705:2715   */\n      swap6\n      pop\n        /* \"#utility.yul\":1874:2721   */\n      pop\n      pop\n      pop\n      pop\n      pop\n        /* \"#utility.yul\":1730:2721   */\n      swap3\n      swap2\n      pop\n      pop\n      jump\t// out\n        /* \"#utility.yul\":2727:2841   */\n    tag_206:\n        /* \"#utility.yul\":2794:2800   */\n      0x00\n        /* \"#utility.yul\":2828:2833   */\n      dup2\n        /* \"#utility.yul\":2822:2834   */\n      mload\n        /* \"#utility.yul\":2812:2834   */\n      swap1\n      pop\n        /* \"#utility.yul\":2727:2841   */\n      swap2\n      swap1\n      pop\n      jump\t// out\n        /* \"#utility.yul\":2847:3031   */\n    tag_207:\n        /* \"#utility.yul\":2946:2957   */\n      0x00\n        /* \"#utility.yul\":2980:2986   */\n      dup3\n        /* \"#utility.yul\":2975:2978   */\n      dup3\n        /* \"#utility.yul\":2968:2987   */\n      mstore\n        /* \"#utility.yul\":3020:3024   */\n      0x20\n        /* \"#utility.yul\":3015:3018   */\n      dup3\n        /* \"#utility.yul\":3011:3025   */\n      add\n        /* \"#utility.yul\":2996:3025   */\n      swap1\n      pop\n        /* \"#utility.yul\":2847:3031   */\n      swap3\n      swap2\n      pop\n      pop\n      jump\t// out\n        /* \"#utility.yul\":3037:3169   */\n    tag_208:\n        /* \"#utility.yul\":3104:3108   */\n      0x00\n        /* \"#utility.yul\":3127:3130   */\n      dup2\n        /* \"#utility.yul\":3119:3130   */\n      swap1\n      pop\n        /* \"#utility.yul\":3157:3161   */\n      0x20\n        /* \"#utility.yul\":3152:3155   */\n      dup3\n        /* \"#utility.yul\":3148:3162   */\n      add\n        /* \"#utility.yul\":3140:3162   */\n      swap1\n      pop\n        /* \"#utility.yul\":3037:3169   */\n      swap2\n      swap1\n      pop\n      jump\t// out\n        /* \"#utility.yul\":3175:3252   */\n    tag_209:\n        /* \"#utility.yul\":3212:3219   */\n      0x00\n        /* \"#utility.yul\":3241:3246   */\n      dup2\n        /* \"#utility.yul\":3230:3246   */\n      swap1\n      pop\n        /* \"#utility.yul\":3175:3252   */\n      swap2\n      swap1\n      pop\n      jump\t// out\n        /* \"#utility.yul\":3258:3366   */\n    tag_210:\n        /* \"#utility.yul\":3335:3359   */\n      tag_293\n        /* \"#utility.yul\":3353:3358   */\n      dup2\n        /* \"#utility.yul\":3335:3359   */\n      tag_209\n      jump\t// in\n    tag_293:\n        /* \"#utility.yul\":3330:3333   */\n      dup3\n        /* \"#utility.yul\":3323:3360   */\n      mstore\n        /* \"#utility.yul\":3258:3366   */\n      pop\n      pop\n      jump\t// out\n        /* \"#utility.yul\":3372:3551   */\n    tag_211:\n        /* \"#utility.yul\":3441:3451   */\n      0x00\n        /* \"#utility.yul\":3462:3508   */\n      tag_295\n        /* \"#utility.yul\":3504:3507   */\n      dup4\n        /* \"#utility.yul\":3496:3502   */\n      dup4\n        /* \"#utility.yul\":3462:3508   */\n      tag_210\n      jump\t// in\n    tag_295:\n        /* \"#utility.yul\":3540:3544   */\n      0x20\n        /* \"#utility.yul\":3535:3538   */\n      dup4\n        /* \"#utility.yul\":3531:3545   */\n      add\n        /* \"#utility.yul\":3517:3545   */\n      swap1\n      pop\n        /* \"#utility.yul\":3372:3551   */\n      swap3\n      swap2\n      pop\n      pop\n      jump\t// out\n        /* \"#utility.yul\":3557:3670   */\n    tag_212:\n        /* \"#utility.yul\":3627:3631   */\n      0x00\n        /* \"#utility.yul\":3659:3663   */\n      0x20\n        /* \"#utility.yul\":3654:3657   */\n      dup3\n        /* \"#utility.yul\":3650:3664   */\n      add\n        /* \"#utility.yul\":3642:3664   */\n      swap1\n      pop\n        /* \"#utility.yul\":3557:3670   */\n      swap2\n      swap1\n      pop\n      jump\t// out\n        /* \"#utility.yul\":3706:4438   */\n    tag_213:\n        /* \"#utility.yul\":3825:3828   */\n      0x00\n        /* \"#utility.yul\":3854:3908   */\n      tag_298\n        /* \"#utility.yul\":3902:3907   */\n      dup3\n        /* \"#utility.yul\":3854:3908   */\n      tag_206\n      jump\t// in\n    tag_298:\n        /* \"#utility.yul\":3924:4010   */\n      tag_299\n        /* \"#utility.yul\":4003:4009   */\n      dup2\n        /* \"#utility.yul\":3998:4001   */\n      dup6\n        /* \"#utility.yul\":3924:4010   */\n      tag_207\n      jump\t// in\n    tag_299:\n        /* \"#utility.yul\":3917:4010   */\n      swap4\n      pop\n        /* \"#utility.yul\":4034:4090   */\n      tag_300\n        /* \"#utility.yul\":4084:4089   */\n      dup4\n        /* \"#utility.yul\":4034:4090   */\n      tag_208\n      jump\t// in\n    tag_300:\n        /* \"#utility.yul\":4113:4120   */\n      dup1\n        /* \"#utility.yul\":4144:4145   */\n      0x00\n        /* \"#utility.yul\":4129:4413   */\n    tag_301:\n        /* \"#utility.yul\":4154:4160   */\n      dup4\n        /* \"#utility.yul\":4151:4152   */\n      dup2\n        /* \"#utility.yul\":4148:4161   */\n      lt\n        /* \"#utility.yul\":4129:4413   */\n      iszero\n      tag_303\n      jumpi\n        /* \"#utility.yul\":4230:4236   */\n      dup2\n        /* \"#utility.yul\":4224:4237   */\n      mload\n        /* \"#utility.yul\":4257:4320   */\n      tag_304\n        /* \"#utility.yul\":4316:4319   */\n      dup9\n        /* \"#utility.yul\":4301:4314   */\n      dup3\n        /* \"#utility.yul\":4257:4320   */\n      tag_211\n      jump\t// in\n    tag_304:\n        /* \"#utility.yul\":4250:4320   */\n      swap8\n      pop\n        /* \"#utility.yul\":4343:4403   */\n      tag_305\n        /* \"#utility.yul\":4396:4402   */\n      dup4\n        /* \"#utility.yul\":4343:4403   */\n      tag_212\n      jump\t// in\n    tag_305:\n        /* \"#utility.yul\":4333:4403   */\n      swap3\n      pop\n        /* \"#utility.yul\":4189:4413   */\n      pop\n        /* \"#utility.yul\":4176:4177   */\n      0x01\n        /* \"#utility.yul\":4173:4174   */\n      dup2\n        /* \"#utility.yul\":4169:4178   */\n      add\n        /* \"#utility.yul\":4164:4178   */\n      swap1\n      pop\n        /* \"#utility.yul\":4129:4413   */\n      jump(tag_301)\n    tag_303:\n        /* \"#utility.yul\":4133:4147   */\n      pop\n        /* \"#utility.yul\":4429:4432   */\n      dup6\n        /* \"#utility.yul\":4422:4432   */\n      swap4\n      pop\n        /* \"#utility.yul\":3830:4438   */\n      pop\n      pop\n      pop\n        /* \"#utility.yul\":3706:4438   */\n      swap3\n      swap2\n      pop\n      pop\n      jump\t// out\n        /* \"#utility.yul\":4444:5419   */\n    tag_12:\n        /* \"#utility.yul\":4783:4787   */\n      0x00\n        /* \"#utility.yul\":4821:4823   */\n      0x60\n        /* \"#utility.yul\":4810:4819   */\n      dup3\n        /* \"#utility.yul\":4806:4824   */\n      add\n        /* \"#utility.yul\":4798:4824   */\n      swap1\n      pop\n        /* \"#utility.yul\":4870:4879   */\n      dup2\n        /* \"#utility.yul\":4864:4868   */\n      dup2\n        /* \"#utility.yul\":4860:4880   */\n      sub\n        /* \"#utility.yul\":4856:4857   */\n      0x00\n        /* \"#utility.yul\":4845:4854   */\n      dup4\n        /* \"#utility.yul\":4841:4858   */\n      add\n        /* \"#utility.yul\":4834:4881   */\n      mstore\n        /* \"#utility.yul\":4898:5026   */\n      tag_307\n        /* \"#utility.yul\":5021:5025   */\n      dup2\n        /* \"#utility.yul\":5012:5018   */\n      dup7\n        /* \"#utility.yul\":4898:5026   */\n      tag_205\n      jump\t// in\n    tag_307:\n        /* \"#utility.yul\":4890:5026   */\n      swap1\n      pop\n        /* \"#utility.yul\":5073:5082   */\n      dup2\n        /* \"#utility.yul\":5067:5071   */\n      dup2\n        /* \"#utility.yul\":5063:5083   */\n      sub\n        /* \"#utility.yul\":5058:5060   */\n      0x20\n        /* \"#utility.yul\":5047:5056   */\n      dup4\n        /* \"#utility.yul\":5043:5061   */\n      add\n        /* \"#utility.yul\":5036:5084   */\n      mstore\n        /* \"#utility.yul\":5101:5229   */\n      tag_308\n        /* \"#utility.yul\":5224:5228   */\n      dup2\n        /* \"#utility.yul\":5215:5221   */\n      dup6\n        /* \"#utility.yul\":5101:5229   */\n      tag_205\n      jump\t// in\n    tag_308:\n        /* \"#utility.yul\":5093:5229   */\n      swap1\n      pop\n        /* \"#utility.yul\":5276:5285   */\n      dup2\n        /* \"#utility.yul\":5270:5274   */\n      dup2\n        /* \"#utility.yul\":5266:5286   */\n      sub\n        /* \"#utility.yul\":5261:5263   */\n      0x40\n        /* \"#utility.yul\":5250:5259   */\n      dup4\n        /* \"#utility.yul\":5246:5264   */\n      add\n        /* \"#utility.yul\":5239:5287   */\n      mstore\n        /* \"#utility.yul\":5304:5412   */\n      tag_309\n        /* \"#utility.yul\":5407:5411   */\n      dup2\n        /* \"#utility.yul\":5398:5404   */\n      dup5\n        /* \"#utility.yul\":5304:5412   */\n      tag_213\n      jump\t// in\n    tag_309:\n        /* \"#utility.yul\":5296:5412   */\n      swap1\n      pop\n        /* \"#utility.yul\":4444:5419   */\n      swap5\n      swap4\n      pop\n      pop\n      pop\n      pop\n      jump\t// out\n        /* \"#utility.yul\":5425:5500   */\n    tag_214:\n        /* \"#utility.yul\":5458:5464   */\n      0x00\n        /* \"#utility.yul\":5491:5493   */\n      0x40\n        /* \"#utility.yul\":5485:5494   */\n      mload\n        /* \"#utility.yul\":5475:5494   */\n      swap1\n      pop\n        /* \"#utility.yul\":5425:5500   */\n      swap1\n      jump\t// out\n        /* \"#utility.yul\":5506:5623   */\n    tag_215:\n        /* \"#utility.yul\":5615:5616   */\n      0x00\n        /* \"#utility.yul\":5612:5613   */\n      dup1\n        /* \"#utility.yul\":5605:5617   */\n      revert\n        /* \"#utility.yul\":5629:5746   */\n    tag_216:\n        /* \"#utility.yul\":5738:5739   */\n      0x00\n        /* \"#utility.yul\":5735:5736   */\n      dup1\n        /* \"#utility.yul\":5728:5740   */\n      revert\n        /* \"#utility.yul\":5752:5869   */\n    tag_217:\n        /* \"#utility.yul\":5861:5862   */\n      0x00\n        /* \"#utility.yul\":5858:5859   */\n      dup1\n        /* \"#utility.yul\":5851:5863   */\n      revert\n        /* \"#utility.yul\":5875:5992   */\n    tag_218:\n        /* \"#utility.yul\":5984:5985   */\n      0x00\n        /* \"#utility.yul\":5981:5982   */\n      dup1\n        /* \"#utility.yul\":5974:5986   */\n      revert\n        /* \"#utility.yul\":5998:6115   */\n    tag_219:\n        /* \"#utility.yul\":6107:6108   */\n      0x00\n        /* \"#utility.yul\":6104:6105   */\n      dup1\n        /* \"#utility.yul\":6097:6109   */\n      revert\n        /* \"#utility.yul\":6135:6688   */\n    tag_220:\n        /* \"#utility.yul\":6193:6201   */\n      0x00\n        /* \"#utility.yul\":6203:6209   */\n      dup1\n        /* \"#utility.yul\":6253:6256   */\n      dup4\n        /* \"#utility.yul\":6246:6250   */\n      0x1f\n        /* \"#utility.yul\":6238:6244   */\n      dup5\n        /* \"#utility.yul\":6234:6251   */\n      add\n        /* \"#utility.yul\":6230:6257   */\n      slt\n        /* \"#utility.yul\":6220:6342   */\n      tag_317\n      jumpi\n        /* \"#utility.yul\":6261:6340   */\n      tag_318\n      tag_217\n      jump\t// in\n    tag_318:\n        /* \"#utility.yul\":6220:6342   */\n    tag_317:\n        /* \"#utility.yul\":6374:6380   */\n      dup3\n        /* \"#utility.yul\":6361:6381   */\n      calldataload\n        /* \"#utility.yul\":6351:6381   */\n      swap1\n      pop\n        /* \"#utility.yul\":6404:6422   */\n      0xffffffffffffffff\n        /* \"#utility.yul\":6396:6402   */\n      dup2\n        /* \"#utility.yul\":6393:6423   */\n      gt\n        /* \"#utility.yul\":6390:6507   */\n      iszero\n      tag_319\n      jumpi\n        /* \"#utility.yul\":6426:6505   */\n      tag_320\n      tag_218\n      jump\t// in\n    tag_320:\n        /* \"#utility.yul\":6390:6507   */\n    tag_319:\n        /* \"#utility.yul\":6540:6544   */\n      0x20\n        /* \"#utility.yul\":6532:6538   */\n      dup4\n        /* \"#utility.yul\":6528:6545   */\n      add\n        /* \"#utility.yul\":6516:6545   */\n      swap2\n      pop\n        /* \"#utility.yul\":6594:6597   */\n      dup4\n        /* \"#utility.yul\":6586:6590   */\n      0x01\n        /* \"#utility.yul\":6578:6584   */\n      dup3\n        /* \"#utility.yul\":6574:6591   */\n      mul\n        /* \"#utility.yul\":6564:6572   */\n      dup4\n        /* \"#utility.yul\":6560:6592   */\n      add\n        /* \"#utility.yul\":6557:6598   */\n      gt\n        /* \"#utility.yul\":6554:6682   */\n      iszero\n      tag_321\n      jumpi\n        /* \"#utility.yul\":6601:6680   */\n      tag_322\n      tag_219\n      jump\t// in\n    tag_322:\n        /* \"#utility.yul\":6554:6682   */\n    tag_321:\n        /* \"#utility.yul\":6135:6688   */\n      swap3\n      pop\n      swap3\n      swap1\n      pop\n      jump\t// out\n        /* \"#utility.yul\":6694:7223   */\n    tag_15:\n        /* \"#utility.yul\":6765:6771   */\n      0x00\n        /* \"#utility.yul\":6773:6779   */\n      dup1\n        /* \"#utility.yul\":6822:6824   */\n      0x20\n        /* \"#utility.yul\":6810:6819   */\n      dup4\n        /* \"#utility.yul\":6801:6808   */\n      dup6\n        /* \"#utility.yul\":6797:6820   */\n      sub\n        /* \"#utility.yul\":6793:6825   */\n      slt\n        /* \"#utility.yul\":6790:6909   */\n      iszero\n      tag_324\n      jumpi\n        /* \"#utility.yul\":6828:6907   */\n      tag_325\n      tag_215\n      jump\t// in\n    tag_325:\n        /* \"#utility.yul\":6790:6909   */\n    tag_324:\n        /* \"#utility.yul\":6976:6977   */\n      0x00\n        /* \"#utility.yul\":6965:6974   */\n      dup4\n        /* \"#utility.yul\":6961:6978   */\n      add\n        /* \"#utility.yul\":6948:6979   */\n      calldataload\n        /* \"#utility.yul\":7006:7024   */\n      0xffffffffffffffff\n        /* \"#utility.yul\":6998:7004   */\n      dup2\n        /* \"#utility.yul\":6995:7025   */\n      gt\n        /* \"#utility.yul\":6992:7109   */\n      iszero\n      tag_326\n      jumpi\n        /* \"#utility.yul\":7028:7107   */\n      tag_327\n      tag_216\n      jump\t// in\n    tag_327:\n        /* \"#utility.yul\":6992:7109   */\n    tag_326:\n        /* \"#utility.yul\":7141:7206   */\n      tag_328\n        /* \"#utility.yul\":7198:7205   */\n      dup6\n        /* \"#utility.yul\":7189:7195   */\n      dup3\n        /* \"#utility.yul\":7178:7187   */\n      dup7\n        /* \"#utility.yul\":7174:7196   */\n      add\n        /* \"#utility.yul\":7141:7206   */\n      tag_220\n      jump\t// in\n    tag_328:\n        /* \"#utility.yul\":7123:7206   */\n      swap3\n      pop\n      swap3\n      pop\n        /* \"#utility.yul\":6919:7216   */\n      pop\n        /* \"#utility.yul\":6694:7223   */\n      swap3\n      pop\n      swap3\n      swap1\n      pop\n      jump\t// out\n        /* \"#utility.yul\":7229:7346   */\n    tag_221:\n        /* \"#utility.yul\":7338:7339   */\n      0x00\n        /* \"#utility.yul\":7335:7336   */\n      dup1\n        /* \"#utility.yul\":7328:7340   */\n      revert\n        /* \"#utility.yul\":7352:7532   */\n    tag_41:\n        /* \"#utility.yul\":7400:7477   */\n      0x4e487b7100000000000000000000000000000000000000000000000000000000\n        /* \"#utility.yul\":7397:7398   */\n      0x00\n        /* \"#utility.yul\":7390:7478   */\n      mstore\n        /* \"#utility.yul\":7497:7501   */\n      0x41\n        /* \"#utility.yul\":7494:7495   */\n      0x04\n        /* \"#utility.yul\":7487:7502   */\n      mstore\n        /* \"#utility.yul\":7521:7525   */\n      0x24\n        /* \"#utility.yul\":7518:7519   */\n      0x00\n        /* \"#utility.yul\":7511:7526   */\n      revert\n        /* \"#utility.yul\":7538:7819   */\n    tag_222:\n        /* \"#utility.yul\":7621:7648   */\n      tag_332\n        /* \"#utility.yul\":7643:7647   */\n      dup3\n        /* \"#utility.yul\":7621:7648   */\n      tag_201\n      jump\t// in\n    tag_332:\n        /* \"#utility.yul\":7613:7619   */\n      dup2\n        /* \"#utility.yul\":7609:7649   */\n      add\n        /* \"#utility.yul\":7751:7757   */\n      dup2\n        /* \"#utility.yul\":7739:7749   */\n      dup2\n        /* \"#utility.yul\":7736:7758   */\n      lt\n        /* \"#utility.yul\":7715:7733   */\n      0xffffffffffffffff\n        /* \"#utility.yul\":7703:7713   */\n      dup3\n        /* \"#utility.yul\":7700:7734   */\n      gt\n        /* \"#utility.yul\":7697:7759   */\n      or\n        /* \"#utility.yul\":7694:7782   */\n      iszero\n      tag_333\n      jumpi\n        /* \"#utility.yul\":7762:7780   */\n      tag_334\n      tag_41\n      jump\t// in\n    tag_334:\n        /* \"#utility.yul\":7694:7782   */\n    tag_333:\n        /* \"#utility.yul\":7802:7812   */\n      dup1\n        /* \"#utility.yul\":7798:7800   */\n      0x40\n        /* \"#utility.yul\":7791:7813   */\n      mstore\n        /* \"#utility.yul\":7581:7819   */\n      pop\n        /* \"#utility.yul\":7538:7819   */\n      pop\n      pop\n      jump\t// out\n        /* \"#utility.yul\":7825:7954   */\n    tag_223:\n        /* \"#utility.yul\":7859:7865   */\n      0x00\n        /* \"#utility.yul\":7886:7906   */\n      tag_336\n      tag_214\n      jump\t// in\n    tag_336:\n        /* \"#utility.yul\":7876:7906   */\n      swap1\n      pop\n        /* \"#utility.yul\":7915:7948   */\n      tag_337\n        /* \"#utility.yul\":7943:7947   */\n      dup3\n        /* \"#utility.yul\":7935:7941   */\n      dup3\n        /* \"#utility.yul\":7915:7948   */\n      tag_222\n      jump\t// in\n    tag_337:\n        /* \"#utility.yul\":7825:7954   */\n      swap2\n      swap1\n      pop\n      jump\t// out\n        /* \"#utility.yul\":7960:8268   */\n    tag_224:\n        /* \"#utility.yul\":8022:8026   */\n      0x00\n        /* \"#utility.yul\":8112:8130   */\n      0xffffffffffffffff\n        /* \"#utility.yul\":8104:8110   */\n      dup3\n        /* \"#utility.yul\":8101:8131   */\n      gt\n        /* \"#utility.yul\":8098:8154   */\n      iszero\n      tag_339\n      jumpi\n        /* \"#utility.yul\":8134:8152   */\n      tag_340\n      tag_41\n      jump\t// in\n    tag_340:\n        /* \"#utility.yul\":8098:8154   */\n    tag_339:\n        /* \"#utility.yul\":8172:8201   */\n      tag_341\n        /* \"#utility.yul\":8194:8200   */\n      dup3\n        /* \"#utility.yul\":8172:8201   */\n      tag_201\n      jump\t// in\n    tag_341:\n        /* \"#utility.yul\":8164:8201   */\n      swap1\n      pop\n        /* \"#utility.yul\":8256:8260   */\n      0x20\n        /* \"#utility.yul\":8250:8254   */\n      dup2\n        /* \"#utility.yul\":8246:8261   */\n      add\n        /* \"#utility.yul\":8238:8261   */\n      swap1\n      pop\n        /* \"#utility.yul\":7960:8268   */\n      swap2\n      swap1\n      pop\n      jump\t// out\n        /* \"#utility.yul\":8274:8422   */\n    tag_225:\n        /* \"#utility.yul\":8372:8378   */\n      dup3\n        /* \"#utility.yul\":8367:8370   */\n      dup2\n        /* \"#utility.yul\":8362:8365   */\n      dup4\n        /* \"#utility.yul\":8349:8379   */\n      calldatacopy\n        /* \"#utility.yul\":8413:8414   */\n      0x00\n        /* \"#utility.yul\":8404:8410   */\n      dup4\n        /* \"#utility.yul\":8399:8402   */\n      dup4\n        /* \"#utility.yul\":8395:8411   */\n      add\n        /* \"#utility.yul\":8388:8415   */\n      mstore\n        /* \"#utility.yul\":8274:8422   */\n      pop\n      pop\n      pop\n      jump\t// out\n        /* \"#utility.yul\":8428:8853   */\n    tag_226:\n        /* \"#utility.yul\":8506:8511   */\n      0x00\n        /* \"#utility.yul\":8531:8597   */\n      tag_344\n        /* \"#utility.yul\":8547:8596   */\n      tag_345\n        /* \"#utility.yul\":8589:8595   */\n      dup5\n        /* \"#utility.yul\":8547:8596   */\n      tag_224\n      jump\t// in\n    tag_345:\n        /* \"#utility.yul\":8531:8597   */\n      tag_223\n      jump\t// in\n    tag_344:\n        /* \"#utility.yul\":8522:8597   */\n      swap1\n      pop\n        /* \"#utility.yul\":8620:8626   */\n      dup3\n        /* \"#utility.yul\":8613:8618   */\n      dup2\n        /* \"#utility.yul\":8606:8627   */\n      mstore\n        /* \"#utility.yul\":8658:8662   */\n      0x20\n        /* \"#utility.yul\":8651:8656   */\n      dup2\n        /* \"#utility.yul\":8647:8663   */\n      add\n        /* \"#utility.yul\":8696:8699   */\n      dup5\n        /* \"#utility.yul\":8687:8693   */\n      dup5\n        /* \"#utility.yul\":8682:8685   */\n      dup5\n        /* \"#utility.yul\":8678:8694   */\n      add\n        /* \"#utility.yul\":8675:8700   */\n      gt\n        /* \"#utility.yul\":8672:8784   */\n      iszero\n      tag_346\n      jumpi\n        /* \"#utility.yul\":8703:8782   */\n      tag_347\n      tag_221\n      jump\t// in\n    tag_347:\n        /* \"#utility.yul\":8672:8784   */\n    tag_346:\n        /* \"#utility.yul\":8793:8847   */\n      tag_348\n        /* \"#utility.yul\":8840:8846   */\n      dup5\n        /* \"#utility.yul\":8835:8838   */\n      dup3\n        /* \"#utility.yul\":8830:8833   */\n      dup6\n        /* \"#utility.yul\":8793:8847   */\n      tag_225\n      jump\t// in\n    tag_348:\n        /* \"#utility.yul\":8512:8853   */\n      pop\n        /* \"#utility.yul\":8428:8853   */\n      swap4\n      swap3\n      pop\n      pop\n      pop\n      jump\t// out\n        /* \"#utility.yul\":8873:9213   */\n    tag_227:\n        /* \"#utility.yul\":8929:8934   */\n      0x00\n        /* \"#utility.yul\":8978:8981   */\n      dup3\n        /* \"#utility.yul\":8971:8975   */\n      0x1f\n        /* \"#utility.yul\":8963:8969   */\n      dup4\n        /* \"#utility.yul\":8959:8976   */\n      add\n        /* \"#utility.yul\":8955:8982   */\n      slt\n        /* \"#utility.yul\":8945:9067   */\n      tag_350\n      jumpi\n        /* \"#utility.yul\":8986:9065   */\n      tag_351\n      tag_217\n      jump\t// in\n    tag_351:\n        /* \"#utility.yul\":8945:9067   */\n    tag_350:\n        /* \"#utility.yul\":9103:9109   */\n      dup2\n        /* \"#utility.yul\":9090:9110   */\n      calldataload\n        /* \"#utility.yul\":9128:9207   */\n      tag_352\n        /* \"#utility.yul\":9203:9206   */\n      dup5\n        /* \"#utility.yul\":9195:9201   */\n      dup3\n        /* \"#utility.yul\":9188:9192   */\n      0x20\n        /* \"#utility.yul\":9180:9186   */\n      dup7\n        /* \"#utility.yul\":9176:9193   */\n      add\n        /* \"#utility.yul\":9128:9207   */\n      tag_226\n      jump\t// in\n    tag_352:\n        /* \"#utility.yul\":9119:9207   */\n      swap2\n      pop\n        /* \"#utility.yul\":8935:9213   */\n      pop\n        /* \"#utility.yul\":8873:9213   */\n      swap3\n      swap2\n      pop\n      pop\n      jump\t// out\n        /* \"#utility.yul\":9219:10053   */\n    tag_19:\n        /* \"#utility.yul\":9307:9313   */\n      0x00\n        /* \"#utility.yul\":9315:9321   */\n      dup1\n        /* \"#utility.yul\":9364:9366   */\n      0x40\n        /* \"#utility.yul\":9352:9361   */\n      dup4\n        /* \"#utility.yul\":9343:9350   */\n      dup6\n        /* \"#utility.yul\":9339:9362   */\n      sub\n        /* \"#utility.yul\":9335:9367   */\n      slt\n        /* \"#utility.yul\":9332:9451   */\n      iszero\n      tag_354\n      jumpi\n        /* \"#utility.yul\":9370:9449   */\n      tag_355\n      tag_215\n      jump\t// in\n    tag_355:\n        /* \"#utility.yul\":9332:9451   */\n    tag_354:\n        /* \"#utility.yul\":9518:9519   */\n      0x00\n        /* \"#utility.yul\":9507:9516   */\n      dup4\n        /* \"#utility.yul\":9503:9520   */\n      add\n        /* \"#utility.yul\":9490:9521   */\n      calldataload\n        /* \"#utility.yul\":9548:9566   */\n      0xffffffffffffffff\n        /* \"#utility.yul\":9540:9546   */\n      dup2\n        /* \"#utility.yul\":9537:9567   */\n      gt\n        /* \"#utility.yul\":9534:9651   */\n      iszero\n      tag_356\n      jumpi\n        /* \"#utility.yul\":9570:9649   */\n      tag_357\n      tag_216\n      jump\t// in\n    tag_357:\n        /* \"#utility.yul\":9534:9651   */\n    tag_356:\n        /* \"#utility.yul\":9675:9738   */\n      tag_358\n        /* \"#utility.yul\":9730:9737   */\n      dup6\n        /* \"#utility.yul\":9721:9727   */\n      dup3\n        /* \"#utility.yul\":9710:9719   */\n      dup7\n        /* \"#utility.yul\":9706:9728   */\n      add\n        /* \"#utility.yul\":9675:9738   */\n      tag_227\n      jump\t// in\n    tag_358:\n        /* \"#utility.yul\":9665:9738   */\n      swap3\n      pop\n        /* \"#utility.yul\":9461:9748   */\n      pop\n        /* \"#utility.yul\":9815:9817   */\n      0x20\n        /* \"#utility.yul\":9804:9813   */\n      dup4\n        /* \"#utility.yul\":9800:9818   */\n      add\n        /* \"#utility.yul\":9787:9819   */\n      calldataload\n        /* \"#utility.yul\":9846:9864   */\n      0xffffffffffffffff\n        /* \"#utility.yul\":9838:9844   */\n      dup2\n        /* \"#utility.yul\":9835:9865   */\n      gt\n        /* \"#utility.yul\":9832:9949   */\n      iszero\n      tag_359\n      jumpi\n        /* \"#utility.yul\":9868:9947   */\n      tag_360\n      tag_216\n      jump\t// in\n    tag_360:\n        /* \"#utility.yul\":9832:9949   */\n    tag_359:\n        /* \"#utility.yul\":9973:10036   */\n      tag_361\n        /* \"#utility.yul\":10028:10035   */\n      dup6\n        /* \"#utility.yul\":10019:10025   */\n      dup3\n        /* \"#utility.yul\":10008:10017   */\n      dup7\n        /* \"#utility.yul\":10004:10026   */\n      add\n        /* \"#utility.yul\":9973:10036   */\n      tag_227\n      jump\t// in\n    tag_361:\n        /* \"#utility.yul\":9963:10036   */\n      swap2\n      pop\n        /* \"#utility.yul\":9758:10046   */\n      pop\n        /* \"#utility.yul\":9219:10053   */\n      swap3\n      pop\n      swap3\n      swap1\n      pop\n      jump\t// out\n        /* \"#utility.yul\":10059:10228   */\n    tag_228:\n        /* \"#utility.yul\":10143:10154   */\n      0x00\n        /* \"#utility.yul\":10177:10183   */\n      dup3\n        /* \"#utility.yul\":10172:10175   */\n      dup3\n        /* \"#utility.yul\":10165:10184   */\n      mstore\n        /* \"#utility.yul\":10217:10221   */\n      0x20\n        /* \"#utility.yul\":10212:10215   */\n      dup3\n        /* \"#utility.yul\":10208:10222   */\n      add\n        /* \"#utility.yul\":10193:10222   */\n      swap1\n      pop\n        /* \"#utility.yul\":10059:10228   */\n      swap3\n      swap2\n      pop\n      pop\n      jump\t// out\n        /* \"#utility.yul\":10234:10611   */\n    tag_229:\n        /* \"#utility.yul\":10322:10325   */\n      0x00\n        /* \"#utility.yul\":10350:10389   */\n      tag_364\n        /* \"#utility.yul\":10383:10388   */\n      dup3\n        /* \"#utility.yul\":10350:10389   */\n      tag_198\n      jump\t// in\n    tag_364:\n        /* \"#utility.yul\":10405:10476   */\n      tag_365\n        /* \"#utility.yul\":10469:10475   */\n      dup2\n        /* \"#utility.yul\":10464:10467   */\n      dup6\n        /* \"#utility.yul\":10405:10476   */\n      tag_228\n      jump\t// in\n    tag_365:\n        /* \"#utility.yul\":10398:10476   */\n      swap4\n      pop\n        /* \"#utility.yul\":10485:10550   */\n      tag_366\n        /* \"#utility.yul\":10543:10549   */\n      dup2\n        /* \"#utility.yul\":10538:10541   */\n      dup6\n        /* \"#utility.yul\":10531:10535   */\n      0x20\n        /* \"#utility.yul\":10524:10529   */\n      dup7\n        /* \"#utility.yul\":10520:10536   */\n      add\n        /* \"#utility.yul\":10485:10550   */\n      tag_200\n      jump\t// in\n    tag_366:\n        /* \"#utility.yul\":10575:10604   */\n      tag_367\n        /* \"#utility.yul\":10597:10603   */\n      dup2\n        /* \"#utility.yul\":10575:10604   */\n      tag_201\n      jump\t// in\n    tag_367:\n        /* \"#utility.yul\":10570:10573   */\n      dup5\n        /* \"#utility.yul\":10566:10605   */\n      add\n        /* \"#utility.yul\":10559:10605   */\n      swap2\n      pop\n        /* \"#utility.yul\":10326:10611   */\n      pop\n        /* \"#utility.yul\":10234:10611   */\n      swap3\n      swap2\n      pop\n      pop\n      jump\t// out\n        /* \"#utility.yul\":10617:10930   */\n    tag_22:\n        /* \"#utility.yul\":10730:10734   */\n      0x00\n        /* \"#utility.yul\":10768:10770   */\n      0x20\n        /* \"#utility.yul\":10757:10766   */\n      dup3\n        /* \"#utility.yul\":10753:10771   */\n      add\n        /* \"#utility.yul\":10745:10771   */\n      swap1\n      pop\n        /* \"#utility.yul\":10817:10826   */\n      dup2\n        /* \"#utility.yul\":10811:10815   */\n      dup2\n        /* \"#utility.yul\":10807:10827   */\n      sub\n        /* \"#utility.yul\":10803:10804   */\n      0x00\n        /* \"#utility.yul\":10792:10801   */\n      dup4\n        /* \"#utility.yul\":10788:10805   */\n      add\n        /* \"#utility.yul\":10781:10828   */\n      mstore\n        /* \"#utility.yul\":10845:10923   */\n      tag_369\n        /* \"#utility.yul\":10918:10922   */\n      dup2\n        /* \"#utility.yul\":10909:10915   */\n      dup5\n        /* \"#utility.yul\":10845:10923   */\n      tag_229\n      jump\t// in\n    tag_369:\n        /* \"#utility.yul\":10837:10923   */\n      swap1\n      pop\n        /* \"#utility.yul\":10617:10930   */\n      swap3\n      swap2\n      pop\n      pop\n      jump\t// out\n        /* \"#utility.yul\":10936:11445   */\n    tag_25:\n        /* \"#utility.yul\":11005:11011   */\n      0x00\n        /* \"#utility.yul\":11054:11056   */\n      0x20\n        /* \"#utility.yul\":11042:11051   */\n      dup3\n        /* \"#utility.yul\":11033:11040   */\n      dup5\n        /* \"#utility.yul\":11029:11052   */\n      sub\n        /* \"#utility.yul\":11025:11057   */\n      slt\n        /* \"#utility.yul\":11022:11141   */\n      iszero\n      tag_371\n      jumpi\n        /* \"#utility.yul\":11060:11139   */\n      tag_372\n      tag_215\n      jump\t// in\n    tag_372:\n        /* \"#utility.yul\":11022:11141   */\n    tag_371:\n        /* \"#utility.yul\":11208:11209   */\n      0x00\n        /* \"#utility.yul\":11197:11206   */\n      dup3\n        /* \"#utility.yul\":11193:11210   */\n      add\n        /* \"#utility.yul\":11180:11211   */\n      calldataload\n        /* \"#utility.yul\":11238:11256   */\n      0xffffffffffffffff\n        /* \"#utility.yul\":11230:11236   */\n      dup2\n        /* \"#utility.yul\":11227:11257   */\n      gt\n        /* \"#utility.yul\":11224:11341   */\n      iszero\n      tag_373\n      jumpi\n        /* \"#utility.yul\":11260:11339   */\n      tag_374\n      tag_216\n      jump\t// in\n    tag_374:\n        /* \"#utility.yul\":11224:11341   */\n    tag_373:\n        /* \"#utility.yul\":11365:11428   */\n      tag_375\n        /* \"#utility.yul\":11420:11427   */\n      dup5\n        /* \"#utility.yul\":11411:11417   */\n      dup3\n        /* \"#utility.yul\":11400:11409   */\n      dup6\n        /* \"#utility.yul\":11396:11418   */\n      add\n        /* \"#utility.yul\":11365:11428   */\n      tag_227\n      jump\t// in\n    tag_375:\n        /* \"#utility.yul\":11355:11428   */\n      swap2\n      pop\n        /* \"#utility.yul\":11151:11438   */\n      pop\n        /* \"#utility.yul\":10936:11445   */\n      swap3\n      swap2\n      pop\n      pop\n      jump\t// out\n        /* \"#utility.yul\":11451:11541   */\n    tag_230:\n        /* \"#utility.yul\":11485:11492   */\n      0x00\n        /* \"#utility.yul\":11528:11533   */\n      dup2\n        /* \"#utility.yul\":11521:11534   */\n      iszero\n        /* \"#utility.yul\":11514:11535   */\n      iszero\n        /* \"#utility.yul\":11503:11535   */\n      swap1\n      pop\n        /* \"#utility.yul\":11451:11541   */\n      swap2\n      swap1\n      pop\n      jump\t// out\n        /* \"#utility.yul\":11547:11656   */\n    tag_231:\n        /* \"#utility.yul\":11628:11649   */\n      tag_378\n        /* \"#utility.yul\":11643:11648   */\n      dup2\n        /* \"#utility.yul\":11628:11649   */\n      tag_230\n      jump\t// in\n    tag_378:\n        /* \"#utility.yul\":11623:11626   */\n      dup3\n        /* \"#utility.yul\":11616:11650   */\n      mstore\n        /* \"#utility.yul\":11547:11656   */\n      pop\n      pop\n      jump\t// out\n        /* \"#utility.yul\":11662:11872   */\n    tag_28:\n        /* \"#utility.yul\":11749:11753   */\n      0x00\n        /* \"#utility.yul\":11787:11789   */\n      0x20\n        /* \"#utility.yul\":11776:11785   */\n      dup3\n        /* \"#utility.yul\":11772:11790   */\n      add\n        /* \"#utility.yul\":11764:11790   */\n      swap1\n      pop\n        /* \"#utility.yul\":11800:11865   */\n      tag_380\n        /* \"#utility.yul\":11862:11863   */\n      0x00\n        /* \"#utility.yul\":11851:11860   */\n      dup4\n        /* \"#utility.yul\":11847:11864   */\n      add\n        /* \"#utility.yul\":11838:11844   */\n      dup5\n        /* \"#utility.yul\":11800:11865   */\n      tag_231\n      jump\t// in\n    tag_380:\n        /* \"#utility.yul\":11662:11872   */\n      swap3\n      swap2\n      pop\n      pop\n      jump\t// out\n        /* \"#utility.yul\":11878:12000   */\n    tag_232:\n        /* \"#utility.yul\":11951:11975   */\n      tag_382\n        /* \"#utility.yul\":11969:11974   */\n      dup2\n        /* \"#utility.yul\":11951:11975   */\n      tag_209\n      jump\t// in\n    tag_382:\n        /* \"#utility.yul\":11944:11949   */\n      dup2\n        /* \"#utility.yul\":11941:11976   */\n      eq\n        /* \"#utility.yul\":11931:11994   */\n      tag_383\n      jumpi\n        /* \"#utility.yul\":11990:11991   */\n      0x00\n        /* \"#utility.yul\":11987:11988   */\n      dup1\n        /* \"#utility.yul\":11980:11992   */\n      revert\n        /* \"#utility.yul\":11931:11994   */\n    tag_383:\n        /* \"#utility.yul\":11878:12000   */\n      pop\n      jump\t// out\n        /* \"#utility.yul\":12006:12145   */\n    tag_233:\n        /* \"#utility.yul\":12052:12057   */\n      0x00\n        /* \"#utility.yul\":12090:12096   */\n      dup2\n        /* \"#utility.yul\":12077:12097   */\n      calldataload\n        /* \"#utility.yul\":12068:12097   */\n      swap1\n      pop\n        /* \"#utility.yul\":12106:12139   */\n      tag_385\n        /* \"#utility.yul\":12133:12138   */\n      dup2\n        /* \"#utility.yul\":12106:12139   */\n      tag_232\n      jump\t// in\n    tag_385:\n        /* \"#utility.yul\":12006:12145   */\n      swap3\n      swap2\n      pop\n      pop\n      jump\t// out\n        /* \"#utility.yul\":12168:12736   */\n    tag_234:\n        /* \"#utility.yul\":12241:12249   */\n      0x00\n        /* \"#utility.yul\":12251:12257   */\n      dup1\n        /* \"#utility.yul\":12301:12304   */\n      dup4\n        /* \"#utility.yul\":12294:12298   */\n      0x1f\n        /* \"#utility.yul\":12286:12292   */\n      dup5\n        /* \"#utility.yul\":12282:12299   */\n      add\n        /* \"#utility.yul\":12278:12305   */\n      slt\n        /* \"#utility.yul\":12268:12390   */\n      tag_387\n      jumpi\n        /* \"#utility.yul\":12309:12388   */\n      tag_388\n      tag_217\n      jump\t// in\n    tag_388:\n        /* \"#utility.yul\":12268:12390   */\n    tag_387:\n        /* \"#utility.yul\":12422:12428   */\n      dup3\n        /* \"#utility.yul\":12409:12429   */\n      calldataload\n        /* \"#utility.yul\":12399:12429   */\n      swap1\n      pop\n        /* \"#utility.yul\":12452:12470   */\n      0xffffffffffffffff\n        /* \"#utility.yul\":12444:12450   */\n      dup2\n        /* \"#utility.yul\":12441:12471   */\n      gt\n        /* \"#utility.yul\":12438:12555   */\n      iszero\n      tag_389\n      jumpi\n        /* \"#utility.yul\":12474:12553   */\n      tag_390\n      tag_218\n      jump\t// in\n    tag_390:\n        /* \"#utility.yul\":12438:12555   */\n    tag_389:\n        /* \"#utility.yul\":12588:12592   */\n      0x20\n        /* \"#utility.yul\":12580:12586   */\n      dup4\n        /* \"#utility.yul\":12576:12593   */\n      add\n        /* \"#utility.yul\":12564:12593   */\n      swap2\n      pop\n        /* \"#utility.yul\":12642:12645   */\n      dup4\n        /* \"#utility.yul\":12634:12638   */\n      0x20\n        /* \"#utility.yul\":12626:12632   */\n      dup3\n        /* \"#utility.yul\":12622:12639   */\n      mul\n        /* \"#utility.yul\":12612:12620   */\n      dup4\n        /* \"#utility.yul\":12608:12640   */\n      add\n        /* \"#utility.yul\":12605:12646   */\n      gt\n        /* \"#utility.yul\":12602:12730   */\n      iszero\n      tag_391\n      jumpi\n        /* \"#utility.yul\":12649:12728   */\n      tag_392\n      tag_219\n      jump\t// in\n    tag_392:\n        /* \"#utility.yul\":12602:12730   */\n    tag_391:\n        /* \"#utility.yul\":12168:12736   */\n      swap3\n      pop\n      swap3\n      swap1\n      pop\n      jump\t// out\n        /* \"#utility.yul\":12742:14137   */\n    tag_31:\n        /* \"#utility.yul\":12879:12885   */\n      0x00\n        /* \"#utility.yul\":12887:12893   */\n      dup1\n        /* \"#utility.yul\":12895:12901   */\n      0x00\n        /* \"#utility.yul\":12903:12909   */\n      dup1\n        /* \"#utility.yul\":12911:12917   */\n      0x00\n        /* \"#utility.yul\":12919:12925   */\n      dup1\n        /* \"#utility.yul\":12927:12933   */\n      0x00\n        /* \"#utility.yul\":12976:12979   */\n      0x80\n        /* \"#utility.yul\":12964:12973   */\n      dup9\n        /* \"#utility.yul\":12955:12962   */\n      dup11\n        /* \"#utility.yul\":12951:12974   */\n      sub\n        /* \"#utility.yul\":12947:12980   */\n      slt\n        /* \"#utility.yul\":12944:13064   */\n      iszero\n      tag_394\n      jumpi\n        /* \"#utility.yul\":12983:13062   */\n      tag_395\n      tag_215\n      jump\t// in\n    tag_395:\n        /* \"#utility.yul\":12944:13064   */\n    tag_394:\n        /* \"#utility.yul\":13131:13132   */\n      0x00\n        /* \"#utility.yul\":13120:13129   */\n      dup9\n        /* \"#utility.yul\":13116:13133   */\n      add\n        /* \"#utility.yul\":13103:13134   */\n      calldataload\n        /* \"#utility.yul\":13161:13179   */\n      0xffffffffffffffff\n        /* \"#utility.yul\":13153:13159   */\n      dup2\n        /* \"#utility.yul\":13150:13180   */\n      gt\n        /* \"#utility.yul\":13147:13264   */\n      iszero\n      tag_396\n      jumpi\n        /* \"#utility.yul\":13183:13262   */\n      tag_397\n      tag_216\n      jump\t// in\n    tag_397:\n        /* \"#utility.yul\":13147:13264   */\n    tag_396:\n        /* \"#utility.yul\":13296:13361   */\n      tag_398\n        /* \"#utility.yul\":13353:13360   */\n      dup11\n        /* \"#utility.yul\":13344:13350   */\n      dup3\n        /* \"#utility.yul\":13333:13342   */\n      dup12\n        /* \"#utility.yul\":13329:13351   */\n      add\n        /* \"#utility.yul\":13296:13361   */\n      tag_220\n      jump\t// in\n    tag_398:\n        /* \"#utility.yul\":13278:13361   */\n      swap8\n      pop\n      swap8\n      pop\n        /* \"#utility.yul\":13074:13371   */\n      pop\n        /* \"#utility.yul\":13438:13440   */\n      0x20\n        /* \"#utility.yul\":13427:13436   */\n      dup9\n        /* \"#utility.yul\":13423:13441   */\n      add\n        /* \"#utility.yul\":13410:13442   */\n      calldataload\n        /* \"#utility.yul\":13469:13487   */\n      0xffffffffffffffff\n        /* \"#utility.yul\":13461:13467   */\n      dup2\n        /* \"#utility.yul\":13458:13488   */\n      gt\n        /* \"#utility.yul\":13455:13572   */\n      iszero\n      tag_399\n      jumpi\n        /* \"#utility.yul\":13491:13570   */\n      tag_400\n      tag_216\n      jump\t// in\n    tag_400:\n        /* \"#utility.yul\":13455:13572   */\n    tag_399:\n        /* \"#utility.yul\":13604:13669   */\n      tag_401\n        /* \"#utility.yul\":13661:13668   */\n      dup11\n        /* \"#utility.yul\":13652:13658   */\n      dup3\n        /* \"#utility.yul\":13641:13650   */\n      dup12\n        /* \"#utility.yul\":13637:13659   */\n      add\n        /* \"#utility.yul\":13604:13669   */\n      tag_220\n      jump\t// in\n    tag_401:\n        /* \"#utility.yul\":13586:13669   */\n      swap6\n      pop\n      swap6\n      pop\n        /* \"#utility.yul\":13381:13679   */\n      pop\n        /* \"#utility.yul\":13718:13720   */\n      0x40\n        /* \"#utility.yul\":13744:13797   */\n      tag_402\n        /* \"#utility.yul\":13789:13796   */\n      dup11\n        /* \"#utility.yul\":13780:13786   */\n      dup3\n        /* \"#utility.yul\":13769:13778   */\n      dup12\n        /* \"#utility.yul\":13765:13787   */\n      add\n        /* \"#utility.yul\":13744:13797   */\n      tag_233\n      jump\t// in\n    tag_402:\n        /* \"#utility.yul\":13734:13797   */\n      swap4\n      pop\n        /* \"#utility.yul\":13689:13807   */\n      pop\n        /* \"#utility.yul\":13874:13876   */\n      0x60\n        /* \"#utility.yul\":13863:13872   */\n      dup9\n        /* \"#utility.yul\":13859:13877   */\n      add\n        /* \"#utility.yul\":13846:13878   */\n      calldataload\n        /* \"#utility.yul\":13905:13923   */\n      0xffffffffffffffff\n        /* \"#utility.yul\":13897:13903   */\n      dup2\n        /* \"#utility.yul\":13894:13924   */\n      gt\n        /* \"#utility.yul\":13891:14008   */\n      iszero\n      tag_403\n      jumpi\n        /* \"#utility.yul\":13927:14006   */\n      tag_404\n      tag_216\n      jump\t// in\n    tag_404:\n        /* \"#utility.yul\":13891:14008   */\n    tag_403:\n        /* \"#utility.yul\":14040:14120   */\n      tag_405\n        /* \"#utility.yul\":14112:14119   */\n      dup11\n        /* \"#utility.yul\":14103:14109   */\n      dup3\n        /* \"#utility.yul\":14092:14101   */\n      dup12\n        /* \"#utility.yul\":14088:14110   */\n      add\n        /* \"#utility.yul\":14040:14120   */\n      tag_234\n      jump\t// in\n    tag_405:\n        /* \"#utility.yul\":14022:14120   */\n      swap3\n      pop\n      swap3\n      pop\n        /* \"#utility.yul\":13817:14130   */\n      pop\n        /* \"#utility.yul\":12742:14137   */\n      swap3\n      swap6\n      swap9\n      swap2\n      swap5\n      swap8\n      pop\n      swap3\n      swap6\n      pop\n      jump\t// out\n        /* \"#utility.yul\":14143:14472   */\n    tag_35:\n        /* \"#utility.yul\":14202:14208   */\n      0x00\n        /* \"#utility.yul\":14251:14253   */\n      0x20\n        /* \"#utility.yul\":14239:14248   */\n      dup3\n        /* \"#utility.yul\":14230:14237   */\n      dup5\n        /* \"#utility.yul\":14226:14249   */\n      sub\n        /* \"#utility.yul\":14222:14254   */\n      slt\n        /* \"#utility.yul\":14219:14338   */\n      iszero\n      tag_407\n      jumpi\n        /* \"#utility.yul\":14257:14336   */\n      tag_408\n      tag_215\n      jump\t// in\n    tag_408:\n        /* \"#utility.yul\":14219:14338   */\n    tag_407:\n        /* \"#utility.yul\":14377:14378   */\n      0x00\n        /* \"#utility.yul\":14402:14455   */\n      tag_409\n        /* \"#utility.yul\":14447:14454   */\n      dup5\n        /* \"#utility.yul\":14438:14444   */\n      dup3\n        /* \"#utility.yul\":14427:14436   */\n      dup6\n        /* \"#utility.yul\":14423:14445   */\n      add\n        /* \"#utility.yul\":14402:14455   */\n      tag_233\n      jump\t// in\n    tag_409:\n        /* \"#utility.yul\":14392:14455   */\n      swap2\n      pop\n        /* \"#utility.yul\":14348:14465   */\n      pop\n        /* \"#utility.yul\":14143:14472   */\n      swap3\n      swap2\n      pop\n      pop\n      jump\t// out\n        /* \"#utility.yul\":14478:14658   */\n    tag_56:\n        /* \"#utility.yul\":14526:14603   */\n      0x4e487b7100000000000000000000000000000000000000000000000000000000\n        /* \"#utility.yul\":14523:14524   */\n      0x00\n        /* \"#utility.yul\":14516:14604   */\n      mstore\n        /* \"#utility.yul\":14623:14627   */\n      0x32\n        /* \"#utility.yul\":14620:14621   */\n      0x04\n        /* \"#utility.yul\":14613:14628   */\n      mstore\n        /* \"#utility.yul\":14647:14651   */\n      0x24\n        /* \"#utility.yul\":14644:14645   */\n      0x00\n        /* \"#utility.yul\":14637:14652   */\n      revert\n        /* \"#utility.yul\":14664:14844   */\n    tag_235:\n        /* \"#utility.yul\":14712:14789   */\n      0x4e487b7100000000000000000000000000000000000000000000000000000000\n        /* \"#utility.yul\":14709:14710   */\n      0x00\n        /* \"#utility.yul\":14702:14790   */\n      mstore\n        /* \"#utility.yul\":14809:14813   */\n      0x22\n        /* \"#utility.yul\":14806:14807   */\n      0x04\n        /* \"#utility.yul\":14799:14814   */\n      mstore\n        /* \"#utility.yul\":14833:14837   */\n      0x24\n        /* \"#utility.yul\":14830:14831   */\n      0x00\n        /* \"#utility.yul\":14823:14838   */\n      revert\n        /* \"#utility.yul\":14850:15170   */\n    tag_59:\n        /* \"#utility.yul\":14894:14900   */\n      0x00\n        /* \"#utility.yul\":14931:14932   */\n      0x02\n        /* \"#utility.yul\":14925:14929   */\n      dup3\n        /* \"#utility.yul\":14921:14933   */\n      div\n        /* \"#utility.yul\":14911:14933   */\n      swap1\n      pop\n        /* \"#utility.yul\":14978:14979   */\n      0x01\n        /* \"#utility.yul\":14972:14976   */\n      dup3\n        /* \"#utility.yul\":14968:14980   */\n      and\n        /* \"#utility.yul\":14999:15017   */\n      dup1\n        /* \"#utility.yul\":14989:15070   */\n      tag_413\n      jumpi\n        /* \"#utility.yul\":15055:15059   */\n      0x7f\n        /* \"#utility.yul\":15047:15053   */\n      dup3\n        /* \"#utility.yul\":15043:15060   */\n      and\n        /* \"#utility.yul\":15033:15060   */\n      swap2\n      pop\n        /* \"#utility.yul\":14989:15070   */\n    tag_413:\n        /* \"#utility.yul\":15117:15119   */\n      0x20\n        /* \"#utility.yul\":15109:15115   */\n      dup3\n        /* \"#utility.yul\":15106:15120   */\n      lt\n        /* \"#utility.yul\":15086:15104   */\n      dup2\n        /* \"#utility.yul\":15083:15121   */\n      sub\n        /* \"#utility.yul\":15080:15164   */\n      tag_414\n      jumpi\n        /* \"#utility.yul\":15136:15154   */\n      tag_415\n      tag_235\n      jump\t// in\n    tag_415:\n        /* \"#utility.yul\":15080:15164   */\n    tag_414:\n        /* \"#utility.yul\":14901:15170   */\n      pop\n        /* \"#utility.yul\":14850:15170   */\n      swap2\n      swap1\n      pop\n      jump\t// out\n        /* \"#utility.yul\":15176:15324   */\n    tag_236:\n        /* \"#utility.yul\":15278:15289   */\n      0x00\n        /* \"#utility.yul\":15315:15318   */\n      dup2\n        /* \"#utility.yul\":15300:15318   */\n      swap1\n      pop\n        /* \"#utility.yul\":15176:15324   */\n      swap3\n      swap2\n      pop\n      pop\n      jump\t// out\n        /* \"#utility.yul\":15330:15471   */\n    tag_237:\n        /* \"#utility.yul\":15379:15383   */\n      0x00\n        /* \"#utility.yul\":15402:15405   */\n      dup2\n        /* \"#utility.yul\":15394:15405   */\n      swap1\n      pop\n        /* \"#utility.yul\":15425:15428   */\n      dup2\n        /* \"#utility.yul\":15422:15423   */\n      0x00\n        /* \"#utility.yul\":15415:15429   */\n      mstore\n        /* \"#utility.yul\":15459:15463   */\n      0x20\n        /* \"#utility.yul\":15456:15457   */\n      0x00\n        /* \"#utility.yul\":15446:15464   */\n      keccak256\n        /* \"#utility.yul\":15438:15464   */\n      swap1\n      pop\n        /* \"#utility.yul\":15330:15471   */\n      swap2\n      swap1\n      pop\n      jump\t// out\n        /* \"#utility.yul\":15501:16375   */\n    tag_238:\n        /* \"#utility.yul\":15604:15607   */\n      0x00\n        /* \"#utility.yul\":15641:15646   */\n      dup2\n        /* \"#utility.yul\":15635:15647   */\n      sload\n        /* \"#utility.yul\":15670:15706   */\n      tag_419\n        /* \"#utility.yul\":15696:15705   */\n      dup2\n        /* \"#utility.yul\":15670:15706   */\n      tag_59\n      jump\t// in\n    tag_419:\n        /* \"#utility.yul\":15722:15811   */\n      tag_420\n        /* \"#utility.yul\":15804:15810   */\n      dup2\n        /* \"#utility.yul\":15799:15802   */\n      dup7\n        /* \"#utility.yul\":15722:15811   */\n      tag_236\n      jump\t// in\n    tag_420:\n        /* \"#utility.yul\":15715:15811   */\n      swap5\n      pop\n        /* \"#utility.yul\":15842:15843   */\n      0x01\n        /* \"#utility.yul\":15831:15840   */\n      dup3\n        /* \"#utility.yul\":15827:15844   */\n      and\n        /* \"#utility.yul\":15858:15859   */\n      0x00\n        /* \"#utility.yul\":15853:16019   */\n      dup2\n      eq\n      tag_422\n      jumpi\n        /* \"#utility.yul\":16033:16034   */\n      0x01\n        /* \"#utility.yul\":16028:16369   */\n      dup2\n      eq\n      tag_423\n      jumpi\n        /* \"#utility.yul\":15820:16369   */\n      jump(tag_421)\n        /* \"#utility.yul\":15853:16019   */\n    tag_422:\n        /* \"#utility.yul\":15937:15941   */\n      0xff\n        /* \"#utility.yul\":15933:15942   */\n      not\n        /* \"#utility.yul\":15922:15931   */\n      dup4\n        /* \"#utility.yul\":15918:15943   */\n      and\n        /* \"#utility.yul\":15913:15916   */\n      dup7\n        /* \"#utility.yul\":15906:15944   */\n      mstore\n        /* \"#utility.yul\":15999:16005   */\n      dup2\n        /* \"#utility.yul\":15992:16006   */\n      iszero\n        /* \"#utility.yul\":15985:16007   */\n      iszero\n        /* \"#utility.yul\":15977:15983   */\n      dup3\n        /* \"#utility.yul\":15973:16008   */\n      mul\n        /* \"#utility.yul\":15968:15971   */\n      dup7\n        /* \"#utility.yul\":15964:16009   */\n      add\n        /* \"#utility.yul\":15957:16009   */\n      swap4\n      pop\n        /* \"#utility.yul\":15853:16019   */\n      jump(tag_421)\n        /* \"#utility.yul\":16028:16369   */\n    tag_423:\n        /* \"#utility.yul\":16095:16133   */\n      tag_424\n        /* \"#utility.yul\":16127:16132   */\n      dup6\n        /* \"#utility.yul\":16095:16133   */\n      tag_237\n      jump\t// in\n    tag_424:\n        /* \"#utility.yul\":16155:16156   */\n      0x00\n        /* \"#utility.yul\":16169:16323   */\n    tag_425:\n        /* \"#utility.yul\":16183:16189   */\n      dup4\n        /* \"#utility.yul\":16180:16181   */\n      dup2\n        /* \"#utility.yul\":16177:16190   */\n      lt\n        /* \"#utility.yul\":16169:16323   */\n      iszero\n      tag_427\n      jumpi\n        /* \"#utility.yul\":16257:16264   */\n      dup2\n        /* \"#utility.yul\":16251:16265   */\n      sload\n        /* \"#utility.yul\":16247:16248   */\n      dup2\n        /* \"#utility.yul\":16242:16245   */\n      dup10\n        /* \"#utility.yul\":16238:16249   */\n      add\n        /* \"#utility.yul\":16231:16266   */\n      mstore\n        /* \"#utility.yul\":16307:16308   */\n      0x01\n        /* \"#utility.yul\":16298:16305   */\n      dup3\n        /* \"#utility.yul\":16294:16309   */\n      add\n        /* \"#utility.yul\":16283:16309   */\n      swap2\n      pop\n        /* \"#utility.yul\":16205:16209   */\n      0x20\n        /* \"#utility.yul\":16202:16203   */\n      dup2\n        /* \"#utility.yul\":16198:16210   */\n      add\n        /* \"#utility.yul\":16193:16210   */\n      swap1\n      pop\n        /* \"#utility.yul\":16169:16323   */\n      jump(tag_425)\n    tag_427:\n        /* \"#utility.yul\":16352:16358   */\n      dup4\n        /* \"#utility.yul\":16347:16350   */\n      dup9\n        /* \"#utility.yul\":16343:16359   */\n      add\n        /* \"#utility.yul\":16336:16359   */\n      swap6\n      pop\n        /* \"#utility.yul\":16035:16369   */\n      pop\n      pop\n        /* \"#utility.yul\":15820:16369   */\n    tag_421:\n      pop\n        /* \"#utility.yul\":15608:16375   */\n      pop\n      pop\n        /* \"#utility.yul\":15501:16375   */\n      swap3\n      swap2\n      pop\n      pop\n      jump\t// out\n        /* \"#utility.yul\":16381:16650   */\n    tag_70:\n        /* \"#utility.yul\":16510:16513   */\n      0x00\n        /* \"#utility.yul\":16532:16624   */\n      tag_429\n        /* \"#utility.yul\":16620:16623   */\n      dup3\n        /* \"#utility.yul\":16611:16617   */\n      dup5\n        /* \"#utility.yul\":16532:16624   */\n      tag_238\n      jump\t// in\n    tag_429:\n        /* \"#utility.yul\":16525:16624   */\n      swap2\n      pop\n        /* \"#utility.yul\":16641:16644   */\n      dup2\n        /* \"#utility.yul\":16634:16644   */\n      swap1\n      pop\n        /* \"#utility.yul\":16381:16650   */\n      swap3\n      swap2\n      pop\n      pop\n      jump\t// out\n        /* \"#utility.yul\":16680:17010   */\n    tag_239:\n        /* \"#utility.yul\":16796:16799   */\n      0x00\n        /* \"#utility.yul\":16817:16906   */\n      tag_431\n        /* \"#utility.yul\":16899:16905   */\n      dup4\n        /* \"#utility.yul\":16894:16897   */\n      dup6\n        /* \"#utility.yul\":16817:16906   */\n      tag_236\n      jump\t// in\n    tag_431:\n        /* \"#utility.yul\":16810:16906   */\n      swap4\n      pop\n        /* \"#utility.yul\":16916:16972   */\n      tag_432\n        /* \"#utility.yul\":16965:16971   */\n      dup4\n        /* \"#utility.yul\":16960:16963   */\n      dup6\n        /* \"#utility.yul\":16953:16958   */\n      dup5\n        /* \"#utility.yul\":16916:16972   */\n      tag_225\n      jump\t// in\n    tag_432:\n        /* \"#utility.yul\":16997:17003   */\n      dup3\n        /* \"#utility.yul\":16992:16995   */\n      dup5\n        /* \"#utility.yul\":16988:17004   */\n      add\n        /* \"#utility.yul\":16981:17004   */\n      swap1\n      pop\n        /* \"#utility.yul\":16680:17010   */\n      swap4\n      swap3\n      pop\n      pop\n      pop\n      jump\t// out\n        /* \"#utility.yul\":17016:17311   */\n    tag_89:\n        /* \"#utility.yul\":17158:17161   */\n      0x00\n        /* \"#utility.yul\":17180:17285   */\n      tag_434\n        /* \"#utility.yul\":17281:17284   */\n      dup3\n        /* \"#utility.yul\":17272:17278   */\n      dup5\n        /* \"#utility.yul\":17264:17270   */\n      dup7\n        /* \"#utility.yul\":17180:17285   */\n      tag_239\n      jump\t// in\n    tag_434:\n        /* \"#utility.yul\":17173:17285   */\n      swap2\n      pop\n        /* \"#utility.yul\":17302:17305   */\n      dup2\n        /* \"#utility.yul\":17295:17305   */\n      swap1\n      pop\n        /* \"#utility.yul\":17016:17311   */\n      swap4\n      swap3\n      pop\n      pop\n      pop\n      jump\t// out\n        /* \"#utility.yul\":17317:17410   */\n    tag_240:\n        /* \"#utility.yul\":17354:17360   */\n      0x00\n        /* \"#utility.yul\":17401:17403   */\n      0x20\n        /* \"#utility.yul\":17396:17398   */\n      0x1f\n        /* \"#utility.yul\":17389:17394   */\n      dup4\n        /* \"#utility.yul\":17385:17399   */\n      add\n        /* \"#utility.yul\":17381:17404   */\n      div\n        /* \"#utility.yul\":17371:17404   */\n      swap1\n      pop\n        /* \"#utility.yul\":17317:17410   */\n      swap2\n      swap1\n      pop\n      jump\t// out\n        /* \"#utility.yul\":17416:17523   */\n    tag_241:\n        /* \"#utility.yul\":17460:17468   */\n      0x00\n        /* \"#utility.yul\":17510:17515   */\n      dup3\n        /* \"#utility.yul\":17504:17508   */\n      dup3\n        /* \"#utility.yul\":17500:17516   */\n      shl\n        /* \"#utility.yul\":17479:17516   */\n      swap1\n      pop\n        /* \"#utility.yul\":17416:17523   */\n      swap3\n      swap2\n      pop\n      pop\n      jump\t// out\n        /* \"#utility.yul\":17529:17922   */\n    tag_242:\n        /* \"#utility.yul\":17598:17604   */\n      0x00\n        /* \"#utility.yul\":17648:17649   */\n      0x08\n        /* \"#utility.yul\":17636:17646   */\n      dup4\n        /* \"#utility.yul\":17632:17650   */\n      mul\n        /* \"#utility.yul\":17671:17768   */\n      tag_438\n        /* \"#utility.yul\":17701:17767   */\n      0xffffffffffffffffffffffffffffffffffffffffffffffffffffffffffffffff\n        /* \"#utility.yul\":17690:17699   */\n      dup3\n        /* \"#utility.yul\":17671:17768   */\n      tag_241\n      jump\t// in\n    tag_438:\n        /* \"#utility.yul\":17789:17828   */\n      tag_439\n        /* \"#utility.yul\":17819:17827   */\n      dup7\n        /* \"#utility.yul\":17808:17817   */\n      dup4\n        /* \"#utility.yul\":17789:17828   */\n      tag_241\n      jump\t// in\n    tag_439:\n        /* \"#utility.yul\":17777:17828   */\n      swap6\n      pop\n        /* \"#utility.yul\":17861:17865   */\n      dup1\n        /* \"#utility.yul\":17857:17866   */\n      not\n        /* \"#utility.yul\":17850:17855   */\n      dup5\n        /* \"#utility.yul\":17846:17867   */\n      and\n        /* \"#utility.yul\":17837:17867   */\n      swap4\n      pop\n        /* \"#utility.yul\":17910:17914   */\n      dup1\n        /* \"#utility.yul\":17900:17908   */\n      dup7\n        /* \"#utility.yul\":17896:17915   */\n      and\n        /* \"#utility.yul\":17889:17894   */\n      dup5\n        /* \"#utility.yul\":17886:17916   */\n      or\n        /* \"#utility.yul\":17876:17916   */\n      swap3\n      pop\n        /* \"#utility.yul\":17605:17922   */\n      pop\n      pop\n        /* \"#utility.yul\":17529:17922   */\n      swap4\n      swap3\n      pop\n      pop\n      pop\n      jump\t// out\n        /* \"#utility.yul\":17928:17988   */\n    tag_243:\n        /* \"#utility.yul\":17956:17959   */\n      0x00\n        /* \"#utility.yul\":17977:17982   */\n      dup2\n        /* \"#utility.yul\":17970:17982   */\n      swap1\n      pop\n        /* \"#utility.yul\":17928:17988   */\n      swap2\n      swap1\n      pop\n      jump\t// out\n        /* \"#utility.yul\":17994:18136   */\n    tag_244:\n        /* \"#utility.yul\":18044:18053   */\n      0x00\n        /* \"#utility.yul\":18077:18130   */\n      tag_442\n        /* \"#utility.yul\":18095:18129   */\n      tag_443\n        /* \"#utility.yul\":18104:18128   */\n      tag_444\n        /* \"#utility.yul\":18122:18127   */\n      dup5\n        /* \"#utility.yul\":18104:18128   */\n      tag_209\n      jump\t// in\n    tag_444:\n        /* \"#utility.yul\":18095:18129   */\n      tag_243\n      jump\t// in\n    tag_443:\n        /* \"#utility.yul\":18077:18130   */\n      tag_209\n      jump\t// in\n    tag_442:\n        /* \"#utility.yul\":18064:18130   */\n      swap1\n      pop\n        /* \"#utility.yul\":17994:18136   */\n      swap2\n      swap1\n      pop\n      jump\t// out\n        /* \"#utility.yul\":18142:18217   */\n    tag_245:\n        /* \"#utility.yul\":18185:18188   */\n      0x00\n        /* \"#utility.yul\":18206:18211   */\n      dup2\n        /* \"#utility.yul\":18199:18211   */\n      swap1\n      pop\n        /* \"#utility.yul\":18142:18217   */\n      swap2\n      swap1\n      pop\n      jump\t// out\n        /* \"#utility.yul\":18223:18492   */\n    tag_246:\n        /* \"#utility.yul\":18333:18372   */\n      tag_447\n        /* \"#utility.yul\":18364:18371   */\n      dup4\n        /* \"#utility.yul\":18333:18372   */\n      tag_244\n      jump\t// in\n    tag_447:\n        /* \"#utility.yul\":18394:18485   */\n      tag_448\n        /* \"#utility.yul\":18443:18484   */\n      tag_449\n        /* \"#utility.yul\":18467:18483   */\n      dup3\n        /* \"#utility.yul\":18443:18484   */\n      tag_245\n      jump\t// in\n    tag_449:\n        /* \"#utility.yul\":18435:18441   */\n      dup5\n        /* \"#utility.yul\":18428:18432   */\n      dup5\n        /* \"#utility.yul\":18422:18433   */\n      sload\n        /* \"#utility.yul\":18394:18485   */\n      tag_242\n      jump\t// in\n    tag_448:\n        /* \"#utility.yul\":18388:18392   */\n      dup3\n        /* \"#utility.yul\":18381:18486   */\n      sstore\n        /* \"#utility.yul\":18299:18492   */\n      pop\n        /* \"#utility.yul\":18223:18492   */\n      pop\n      pop\n      pop\n      jump\t// out\n        /* \"#utility.yul\":18498:18571   */\n    tag_247:\n        /* \"#utility.yul\":18543:18546   */\n      0x00\n        /* \"#utility.yul\":18498:18571   */\n      swap1\n      jump\t// out\n        /* \"#utility.yul\":18577:18766   */\n    tag_248:\n        /* \"#utility.yul\":18654:18686   */\n      tag_452\n      tag_247\n      jump\t// in\n    tag_452:\n        /* \"#utility.yul\":18695:18760   */\n      tag_453\n        /* \"#utility.yul\":18753:18759   */\n      dup2\n        /* \"#utility.yul\":18745:18751   */\n      dup5\n        /* \"#utility.yul\":18739:18743   */\n      dup5\n        /* \"#utility.yul\":18695:18760   */\n      tag_246\n      jump\t// in\n    tag_453:\n        /* \"#utility.yul\":18630:18766   */\n      pop\n        /* \"#utility.yul\":18577:18766   */\n      pop\n      pop\n      jump\t// out\n        /* \"#utility.yul\":18772:18958   */\n    tag_249:\n        /* \"#utility.yul\":18832:18952   */\n    tag_455:\n        /* \"#utility.yul\":18849:18852   */\n      dup2\n        /* \"#utility.yul\":18842:18847   */\n      dup2\n        /* \"#utility.yul\":18839:18853   */\n      lt\n        /* \"#utility.yul\":18832:18952   */\n      iszero\n      tag_457\n      jumpi\n        /* \"#utility.yul\":18903:18942   */\n      tag_458\n        /* \"#utility.yul\":18940:18941   */\n      0x00\n        /* \"#utility.yul\":18933:18938   */\n      dup3\n        /* \"#utility.yul\":18903:18942   */\n      tag_248\n      jump\t// in\n    tag_458:\n        /* \"#utility.yul\":18876:18877   */\n      0x01\n        /* \"#utility.yul\":18869:18874   */\n      dup2\n        /* \"#utility.yul\":18865:18878   */\n      add\n        /* \"#utility.yul\":18856:18878   */\n      swap1\n      pop\n        /* \"#utility.yul\":18832:18952   */\n      jump(tag_455)\n    tag_457:\n        /* \"#utility.yul\":18772:18958   */\n      pop\n      pop\n      jump\t// out\n        /* \"#utility.yul\":18964:19507   */\n    tag_250:\n        /* \"#utility.yul\":19065:19067   */\n      0x1f\n        /* \"#utility.yul\":19060:19063   */\n      dup3\n        /* \"#utility.yul\":19057:19068   */\n      gt\n        /* \"#utility.yul\":19054:19500   */\n      iszero\n      tag_460\n      jumpi\n        /* \"#utility.yul\":19099:19137   */\n      tag_461\n        /* \"#utility.yul\":19131:19136   */\n      dup2\n        /* \"#utility.yul\":19099:19137   */\n      tag_237\n      jump\t// in\n    tag_461:\n        /* \"#utility.yul\":19183:19212   */\n      tag_462\n        /* \"#utility.yul\":19201:19211   */\n      dup5\n        /* \"#utility.yul\":19183:19212   */\n      tag_240\n      jump\t// in\n    tag_462:\n        /* \"#utility.yul\":19173:19181   */\n      dup2\n        /* \"#utility.yul\":19169:19213   */\n      add\n        /* \"#utility.yul\":19366:19368   */\n      0x20\n        /* \"#utility.yul\":19354:19364   */\n      dup6\n        /* \"#utility.yul\":19351:19369   */\n      lt\n        /* \"#utility.yul\":19348:19397   */\n      iszero\n      tag_463\n      jumpi\n        /* \"#utility.yul\":19387:19395   */\n      dup2\n        /* \"#utility.yul\":19372:19395   */\n      swap1\n      pop\n        /* \"#utility.yul\":19348:19397   */\n    tag_463:\n        /* \"#utility.yul\":19410:19490   */\n      tag_464\n        /* \"#utility.yul\":19466:19488   */\n      tag_465\n        /* \"#utility.yul\":19484:19487   */\n      dup6\n        /* \"#utility.yul\":19466:19488   */\n      tag_240\n      jump\t// in\n    tag_465:\n        /* \"#utility.yul\":19456:19464   */\n      dup4\n        /* \"#utility.yul\":19452:19489   */\n      add\n        /* \"#utility.yul\":19439:19450   */\n      dup3\n        /* \"#utility.yul\":19410:19490   */\n      tag_249\n      jump\t// in\n    tag_464:\n        /* \"#utility.yul\":19069:19500   */\n      pop\n      pop\n        /* \"#utility.yul\":19054:19500   */\n    tag_460:\n        /* \"#utility.yul\":18964:19507   */\n      pop\n      pop\n      pop\n      jump\t// out\n        /* \"#utility.yul\":19513:19630   */\n    tag_251:\n        /* \"#utility.yul\":19567:19575   */\n      0x00\n        /* \"#utility.yul\":19617:19622   */\n      dup3\n        /* \"#utility.yul\":19611:19615   */\n      dup3\n        /* \"#utility.yul\":19607:19623   */\n      shr\n        /* \"#utility.yul\":19586:19623   */\n      swap1\n      pop\n        /* \"#utility.yul\":19513:19630   */\n      swap3\n      swap2\n      pop\n      pop\n      jump\t// out\n        /* \"#utility.yul\":19636:19805   */\n    tag_252:\n        /* \"#utility.yul\":19680:19686   */\n      0x00\n        /* \"#utility.yul\":19713:19764   */\n      tag_468\n        /* \"#utility.yul\":19761:19762   */\n      0x00\n        /* \"#utility.yul\":19757:19763   */\n      not\n        /* \"#utility.yul\":19749:19754   */\n      dup5\n        /* \"#utility.yul\":19746:19747   */\n      0x08\n        /* \"#utility.yul\":19742:19755   */\n      mul\n        /* \"#utility.yul\":19713:19764   */\n      tag_251\n      jump\t// in\n    tag_468:\n        /* \"#utility.yul\":19709:19765   */\n      not\n        /* \"#utility.yul\":19794:19798   */\n      dup1\n        /* \"#utility.yul\":19788:19792   */\n      dup4\n        /* \"#utility.yul\":19784:19799   */\n      and\n        /* \"#utility.yul\":19774:19799   */\n      swap2\n      pop\n        /* \"#utility.yul\":19687:19805   */\n      pop\n        /* \"#utility.yul\":19636:19805   */\n      swap3\n      swap2\n      pop\n      pop\n      jump\t// out\n        /* \"#utility.yul\":19810:20105   */\n    tag_253:\n        /* \"#utility.yul\":19886:19890   */\n      0x00\n        /* \"#utility.yul\":20032:20061   */\n      tag_470\n        /* \"#utility.yul\":20057:20060   */\n      dup4\n        /* \"#utility.yul\":20051:20055   */\n      dup4\n        /* \"#utility.yul\":20032:20061   */\n      tag_252\n      jump\t// in\n    tag_470:\n        /* \"#utility.yul\":20024:20061   */\n      swap2\n      pop\n        /* \"#utility.yul\":20094:20097   */\n      dup3\n        /* \"#utility.yul\":20091:20092   */\n      0x02\n        /* \"#utility.yul\":20087:20098   */\n      mul\n        /* \"#utility.yul\":20081:20085   */\n      dup3\n        /* \"#utility.yul\":20078:20099   */\n      or\n        /* \"#utility.yul\":20070:20099   */\n      swap1\n      pop\n        /* \"#utility.yul\":19810:20105   */\n      swap3\n      swap2\n      pop\n      pop\n      jump\t// out\n        /* \"#utility.yul\":20110:21505   */\n    tag_91:\n        /* \"#utility.yul\":20227:20264   */\n      tag_472\n        /* \"#utility.yul\":20260:20263   */\n      dup3\n        /* \"#utility.yul\":20227:20264   */\n      tag_198\n      jump\t// in\n    tag_472:\n        /* \"#utility.yul\":20329:20347   */\n      0xffffffffffffffff\n        /* \"#utility.yul\":20321:20327   */\n      dup2\n        /* \"#utility.yul\":20318:20348   */\n      gt\n        /* \"#utility.yul\":20315:20371   */\n      iszero\n      tag_473\n      jumpi\n        /* \"#utility.yul\":20351:20369   */\n      tag_474\n      tag_41\n      jump\t// in\n    tag_474:\n        /* \"#utility.yul\":20315:20371   */\n    tag_473:\n        /* \"#utility.yul\":20395:20433   */\n      tag_475\n        /* \"#utility.yul\":20427:20431   */\n      dup3\n        /* \"#utility.yul\":20421:20432   */\n      sload\n        /* \"#utility.yul\":20395:20433   */\n      tag_59\n      jump\t// in\n    tag_475:\n        /* \"#utility.yul\":20480:20547   */\n      tag_476\n        /* \"#utility.yul\":20540:20546   */\n      dup3\n        /* \"#utility.yul\":20532:20538   */\n      dup3\n        /* \"#utility.yul\":20526:20530   */\n      dup6\n        /* \"#utility.yul\":20480:20547   */\n      tag_250\n      jump\t// in\n    tag_476:\n        /* \"#utility.yul\":20574:20575   */\n      0x00\n        /* \"#utility.yul\":20598:20602   */\n      0x20\n        /* \"#utility.yul\":20585:20602   */\n      swap1\n      pop\n        /* \"#utility.yul\":20630:20632   */\n      0x1f\n        /* \"#utility.yul\":20622:20628   */\n      dup4\n        /* \"#utility.yul\":20619:20633   */\n      gt\n        /* \"#utility.yul\":20647:20648   */\n      0x01\n        /* \"#utility.yul\":20642:21260   */\n      dup2\n      eq\n      tag_478\n      jumpi\n        /* \"#utility.yul\":21304:21305   */\n      0x00\n        /* \"#utility.yul\":21321:21327   */\n      dup5\n        /* \"#utility.yul\":21318:21395   */\n      iszero\n      tag_479\n      jumpi\n        /* \"#utility.yul\":21370:21379   */\n      dup3\n        /* \"#utility.yul\":21365:21368   */\n      dup8\n        /* \"#utility.yul\":21361:21380   */\n      add\n        /* \"#utility.yul\":21355:21381   */\n      mload\n        /* \"#utility.yul\":21346:21381   */\n      swap1\n      pop\n        /* \"#utility.yul\":21318:21395   */\n    tag_479:\n        /* \"#utility.yul\":21421:21488   */\n      tag_480\n        /* \"#utility.yul\":21481:21487   */\n      dup6\n        /* \"#utility.yul\":21474:21479   */\n      dup3\n        /* \"#utility.yul\":21421:21488   */\n      tag_253\n      jump\t// in\n    tag_480:\n        /* \"#utility.yul\":21415:21419   */\n      dup7\n        /* \"#utility.yul\":21408:21489   */\n      sstore\n        /* \"#utility.yul\":21277:21499   */\n      pop\n        /* \"#utility.yul\":20612:21499   */\n      jump(tag_477)\n        /* \"#utility.yul\":20642:21260   */\n    tag_478:\n        /* \"#utility.yul\":20694:20698   */\n      0x1f\n        /* \"#utility.yul\":20690:20699   */\n      not\n        /* \"#utility.yul\":20682:20688   */\n      dup5\n        /* \"#utility.yul\":20678:20700   */\n      and\n        /* \"#utility.yul\":20728:20765   */\n      tag_481\n        /* \"#utility.yul\":20760:20764   */\n      dup7\n        /* \"#utility.yul\":20728:20765   */\n      tag_237\n      jump\t// in\n    tag_481:\n        /* \"#utility.yul\":20787:20788   */\n      0x00\n        /* \"#utility.yul\":20801:21009   */\n    tag_482:\n        /* \"#utility.yul\":20815:20822   */\n      dup3\n        /* \"#utility.yul\":20812:20813   */\n      dup2\n        /* \"#utility.yul\":20809:20823   */\n      lt\n        /* \"#utility.yul\":20801:21009   */\n      iszero\n      tag_484\n      jumpi\n        /* \"#utility.yul\":20894:20903   */\n      dup5\n        /* \"#utility.yul\":20889:20892   */\n      dup10\n        /* \"#utility.yul\":20885:20904   */\n      add\n        /* \"#utility.yul\":20879:20905   */\n      mload\n        /* \"#utility.yul\":20871:20877   */\n      dup3\n        /* \"#utility.yul\":20864:20906   */\n      sstore\n        /* \"#utility.yul\":20945:20946   */\n      0x01\n        /* \"#utility.yul\":20937:20943   */\n      dup3\n        /* \"#utility.yul\":20933:20947   */\n      add\n        /* \"#utility.yul\":20923:20947   */\n      swap2\n      pop\n        /* \"#utility.yul\":20992:20994   */\n      0x20\n        /* \"#utility.yul\":20981:20990   */\n      dup6\n        /* \"#utility.yul\":20977:20995   */\n      add\n        /* \"#utility.yul\":20964:20995   */\n      swap5\n      pop\n        /* \"#utility.yul\":20838:20842   */\n      0x20\n        /* \"#utility.yul\":20835:20836   */\n      dup2\n        /* \"#utility.yul\":20831:20843   */\n      add\n        /* \"#utility.yul\":20826:20843   */\n      swap1\n      pop\n        /* \"#utility.yul\":20801:21009   */\n      jump(tag_482)\n    tag_484:\n        /* \"#utility.yul\":21037:21043   */\n      dup7\n        /* \"#utility.yul\":21028:21035   */\n      dup4\n        /* \"#utility.yul\":21025:21044   */\n      lt\n        /* \"#utility.yul\":21022:21201   */\n      iszero\n      tag_485\n      jumpi\n        /* \"#utility.yul\":21095:21104   */\n      dup5\n        /* \"#utility.yul\":21090:21093   */\n      dup10\n        /* \"#utility.yul\":21086:21105   */\n      add\n        /* \"#utility.yul\":21080:21106   */\n      mload\n        /* \"#utility.yul\":21138:21186   */\n      tag_486\n        /* \"#utility.yul\":21180:21184   */\n      0x1f\n        /* \"#utility.yul\":21172:21178   */\n      dup10\n        /* \"#utility.yul\":21168:21185   */\n      and\n        /* \"#utility.yul\":21157:21166   */\n      dup3\n        /* \"#utility.yul\":21138:21186   */\n      tag_252\n      jump\t// in\n    tag_486:\n        /* \"#utility.yul\":21130:21136   */\n      dup4\n        /* \"#utility.yul\":21123:21187   */\n      sstore\n        /* \"#utility.yul\":21045:21201   */\n      pop\n        /* \"#utility.yul\":21022:21201   */\n    tag_485:\n        /* \"#utility.yul\":21247:21248   */\n      0x01\n        /* \"#utility.yul\":21243:21244   */\n      0x02\n        /* \"#utility.yul\":21235:21241   */\n      dup9\n        /* \"#utility.yul\":21231:21245   */\n      mul\n        /* \"#utility.yul\":21227:21249   */\n      add\n        /* \"#utility.yul\":21221:21225   */\n      dup9\n        /* \"#utility.yul\":21214:21250   */\n      sstore\n        /* \"#utility.yul\":20649:21260   */\n      pop\n      pop\n      pop\n        /* \"#utility.yul\":20612:21499   */\n    tag_477:\n      pop\n        /* \"#utility.yul\":20202:21505   */\n      pop\n      pop\n      pop\n        /* \"#utility.yul\":20110:21505   */\n      pop\n      pop\n      jump\t// out\n        /* \"#utility.yul\":21511:21691   */\n    tag_254:\n        /* \"#utility.yul\":21559:21636   */\n      0x4e487b7100000000000000000000000000000000000000000000000000000000\n        /* \"#utility.yul\":21556:21557   */\n      0x00\n        /* \"#utility.yul\":21549:21637   */\n      mstore\n        /* \"#utility.yul\":21656:21660   */\n      0x11\n        /* \"#utility.yul\":21653:21654   */\n      0x04\n        /* \"#utility.yul\":21646:21661   */\n      mstore\n        /* \"#utility.yul\":21680:21684   */\n      0x24\n        /* \"#utility.yul\":21677:21678   */\n      0x00\n        /* \"#utility.yul\":21670:21685   */\n      revert\n        /* \"#utility.yul\":21697:21891   */\n    tag_105:\n        /* \"#utility.yul\":21737:21741   */\n      0x00\n        /* \"#utility.yul\":21757:21777   */\n      tag_489\n        /* \"#utility.yul\":21775:21776   */\n      dup3\n        /* \"#utility.yul\":21757:21777   */\n      tag_209\n      jump\t// in\n    tag_489:\n        /* \"#utility.yul\":21752:21777   */\n      swap2\n      pop\n        /* \"#utility.yul\":21791:21811   */\n      tag_490\n        /* \"#utility.yul\":21809:21810   */\n      dup4\n        /* \"#utility.yul\":21791:21811   */\n      tag_209\n      jump\t// in\n    tag_490:\n        /* \"#utility.yul\":21786:21811   */\n      swap3\n      pop\n        /* \"#utility.yul\":21835:21836   */\n      dup3\n        /* \"#utility.yul\":21832:21833   */\n      dup3\n        /* \"#utility.yul\":21828:21837   */\n      sub\n        /* \"#utility.yul\":21820:21837   */\n      swap1\n      pop\n        /* \"#utility.yul\":21859:21860   */\n      dup2\n        /* \"#utility.yul\":21853:21857   */\n      dup2\n        /* \"#utility.yul\":21850:21861   */\n      gt\n        /* \"#utility.yul\":21847:21884   */\n      iszero\n      tag_491\n      jumpi\n        /* \"#utility.yul\":21864:21882   */\n      tag_492\n      tag_254\n      jump\t// in\n    tag_492:\n        /* \"#utility.yul\":21847:21884   */\n    tag_491:\n        /* \"#utility.yul\":21697:21891   */\n      swap3\n      swap2\n      pop\n      pop\n      jump\t// out\n        /* \"#utility.yul\":21897:22088   */\n    tag_107:\n        /* \"#utility.yul\":21937:21940   */\n      0x00\n        /* \"#utility.yul\":21956:21976   */\n      tag_494\n        /* \"#utility.yul\":21974:21975   */\n      dup3\n        /* \"#utility.yul\":21956:21976   */\n      tag_209\n      jump\t// in\n    tag_494:\n        /* \"#utility.yul\":21951:21976   */\n      swap2\n      pop\n        /* \"#utility.yul\":21990:22010   */\n      tag_495\n        /* \"#utility.yul\":22008:22009   */\n      dup4\n        /* \"#utility.yul\":21990:22010   */\n      tag_209\n      jump\t// in\n    tag_495:\n        /* \"#utility.yul\":21985:22010   */\n      swap3\n      pop\n        /* \"#utility.yul\":22033:22034   */\n      dup3\n        /* \"#utility.yul\":22030:22031   */\n      dup3\n        /* \"#utility.yul\":22026:22035   */\n      add\n        /* \"#utility.yul\":22019:22035   */\n      swap1\n      pop\n        /* \"#utility.yul\":22054:22057   */\n      dup1\n        /* \"#utility.yul\":22051:22052   */\n      dup3\n        /* \"#utility.yul\":22048:22058   */\n      gt\n        /* \"#utility.yul\":22045:22081   */\n      iszero\n      tag_496\n      jumpi\n        /* \"#utility.yul\":22061:22079   */\n      tag_497\n      tag_254\n      jump\t// in\n    tag_497:\n        /* \"#utility.yul\":22045:22081   */\n    tag_496:\n        /* \"#utility.yul\":21897:22088   */\n      swap3\n      swap2\n      pop\n      pop\n      jump\t// out\n        /* \"#utility.yul\":22094:22247   */\n    tag_255:\n        /* \"#utility.yul\":22147:22153   */\n      0x00\n        /* \"#utility.yul\":22181:22186   */\n      dup2\n        /* \"#utility.yul\":22175:22187   */\n      sload\n        /* \"#utility.yul\":22165:22187   */\n      swap1\n      pop\n        /* \"#utility.yul\":22207:22240   */\n      tag_499\n        /* \"#utility.yul\":22233:22239   */\n      dup2\n        /* \"#utility.yul\":22207:22240   */\n      tag_59\n      jump\t// in\n    tag_499:\n        /* \"#utility.yul\":22197:22240   */\n      swap1\n      pop\n        /* \"#utility.yul\":22094:22247   */\n      swap2\n      swap1\n      pop\n      jump\t// out\n        /* \"#utility.yul\":22253:22398   */\n    tag_256:\n        /* \"#utility.yul\":22306:22310   */\n      0x00\n        /* \"#utility.yul\":22329:22332   */\n      dup2\n        /* \"#utility.yul\":22321:22332   */\n      swap1\n      pop\n        /* \"#utility.yul\":22352:22355   */\n      dup2\n        /* \"#utility.yul\":22349:22350   */\n      0x00\n        /* \"#utility.yul\":22342:22356   */\n      mstore\n        /* \"#utility.yul\":22386:22390   */\n      0x20\n        /* \"#utility.yul\":22383:22384   */\n      0x00\n        /* \"#utility.yul\":22373:22391   */\n      keccak256\n        /* \"#utility.yul\":22365:22391   */\n      swap1\n      pop\n        /* \"#utility.yul\":22253:22398   */\n      swap2\n      swap1\n      pop\n      jump\t// out\n        /* \"#utility.yul\":22404:23867   */\n    tag_115:\n        /* \"#utility.yul\":22519:22522   */\n      dup2\n        /* \"#utility.yul\":22513:22517   */\n      dup2\n        /* \"#utility.yul\":22510:22523   */\n      sub\n        /* \"#utility.yul\":22507:22533   */\n      tag_502\n      jumpi\n        /* \"#utility.yul\":22526:22531   */\n      pop\n      pop\n      jump(tag_501)\n        /* \"#utility.yul\":22507:22533   */\n    tag_502:\n        /* \"#utility.yul\":22557:22595   */\n      tag_503\n        /* \"#utility.yul\":22591:22594   */\n      dup3\n        /* \"#utility.yul\":22557:22595   */\n      tag_255\n      jump\t// in\n    tag_503:\n        /* \"#utility.yul\":22660:22678   */\n      0xffffffffffffffff\n        /* \"#utility.yul\":22652:22658   */\n      dup2\n        /* \"#utility.yul\":22649:22679   */\n      gt\n        /* \"#utility.yul\":22646:22702   */\n      iszero\n      tag_504\n      jumpi\n        /* \"#utility.yul\":22682:22700   */\n      tag_505\n      tag_41\n      jump\t// in\n    tag_505:\n        /* \"#utility.yul\":22646:22702   */\n    tag_504:\n        /* \"#utility.yul\":22726:22764   */\n      tag_506\n        /* \"#utility.yul\":22758:22762   */\n      dup3\n        /* \"#utility.yul\":22752:22763   */\n      sload\n        /* \"#utility.yul\":22726:22764   */\n      tag_59\n      jump\t// in\n    tag_506:\n        /* \"#utility.yul\":22811:22878   */\n      tag_507\n        /* \"#utility.yul\":22871:22877   */\n      dup3\n        /* \"#utility.yul\":22863:22869   */\n      dup3\n        /* \"#utility.yul\":22857:22861   */\n      dup6\n        /* \"#utility.yul\":22811:22878   */\n      tag_250\n      jump\t// in\n    tag_507:\n        /* \"#utility.yul\":22905:22906   */\n      0x00\n        /* \"#utility.yul\":22934:22936   */\n      0x1f\n        /* \"#utility.yul\":22926:22932   */\n      dup4\n        /* \"#utility.yul\":22923:22937   */\n      gt\n        /* \"#utility.yul\":22951:22952   */\n      0x01\n        /* \"#utility.yul\":22946:23622   */\n      dup2\n      eq\n      tag_509\n      jumpi\n        /* \"#utility.yul\":23666:23667   */\n      0x00\n        /* \"#utility.yul\":23683:23689   */\n      dup5\n        /* \"#utility.yul\":23680:23757   */\n      iszero\n      tag_510\n      jumpi\n        /* \"#utility.yul\":23732:23741   */\n      dup3\n        /* \"#utility.yul\":23727:23730   */\n      dup8\n        /* \"#utility.yul\":23723:23742   */\n      add\n        /* \"#utility.yul\":23717:23743   */\n      sload\n        /* \"#utility.yul\":23708:23743   */\n      swap1\n      pop\n        /* \"#utility.yul\":23680:23757   */\n    tag_510:\n        /* \"#utility.yul\":23783:23850   */\n      tag_511\n        /* \"#utility.yul\":23843:23849   */\n      dup6\n        /* \"#utility.yul\":23836:23841   */\n      dup3\n        /* \"#utility.yul\":23783:23850   */\n      tag_253\n      jump\t// in\n    tag_511:\n        /* \"#utility.yul\":23777:23781   */\n      dup7\n        /* \"#utility.yul\":23770:23851   */\n      sstore\n        /* \"#utility.yul\":23639:23861   */\n      pop\n        /* \"#utility.yul\":22916:23861   */\n      jump(tag_508)\n        /* \"#utility.yul\":22946:23622   */\n    tag_509:\n        /* \"#utility.yul\":22998:23002   */\n      0x1f\n        /* \"#utility.yul\":22994:23003   */\n      not\n        /* \"#utility.yul\":22986:22992   */\n      dup5\n        /* \"#utility.yul\":22982:23004   */\n      and\n        /* \"#utility.yul\":23024:23064   */\n      tag_512\n        /* \"#utility.yul\":23060:23063   */\n      dup8\n        /* \"#utility.yul\":23024:23064   */\n      tag_256\n      jump\t// in\n    tag_512:\n        /* \"#utility.yul\":23017:23064   */\n      swap7\n      pop\n        /* \"#utility.yul\":23091:23128   */\n      tag_513\n        /* \"#utility.yul\":23123:23127   */\n      dup7\n        /* \"#utility.yul\":23091:23128   */\n      tag_237\n      jump\t// in\n    tag_513:\n        /* \"#utility.yul\":23150:23151   */\n      0x00\n        /* \"#utility.yul\":23164:23371   */\n    tag_514:\n        /* \"#utility.yul\":23178:23185   */\n      dup3\n        /* \"#utility.yul\":23175:23176   */\n      dup2\n        /* \"#utility.yul\":23172:23186   */\n      lt\n        /* \"#utility.yul\":23164:23371   */\n      iszero\n      tag_516\n      jumpi\n        /* \"#utility.yul\":23257:23266   */\n      dup5\n        /* \"#utility.yul\":23252:23255   */\n      dup10\n        /* \"#utility.yul\":23248:23267   */\n      add\n        /* \"#utility.yul\":23242:23268   */\n      sload\n        /* \"#utility.yul\":23234:23240   */\n      dup3\n        /* \"#utility.yul\":23227:23269   */\n      sstore\n        /* \"#utility.yul\":23308:23309   */\n      0x01\n        /* \"#utility.yul\":23300:23306   */\n      dup3\n        /* \"#utility.yul\":23296:23310   */\n      add\n        /* \"#utility.yul\":23286:23310   */\n      swap2\n      pop\n        /* \"#utility.yul\":23355:23356   */\n      0x01\n        /* \"#utility.yul\":23344:23353   */\n      dup6\n        /* \"#utility.yul\":23340:23357   */\n      add\n        /* \"#utility.yul\":23327:23357   */\n      swap5\n      pop\n        /* \"#utility.yul\":23201:23205   */\n      0x20\n        /* \"#utility.yul\":23198:23199   */\n      dup2\n        /* \"#utility.yul\":23194:23206   */\n      add\n        /* \"#utility.yul\":23189:23206   */\n      swap1\n      pop\n        /* \"#utility.yul\":23164:23371   */\n      jump(tag_514)\n    tag_516:\n        /* \"#utility.yul\":23399:23405   */\n      dup7\n        /* \"#utility.yul\":23390:23397   */\n      dup4\n        /* \"#utility.yul\":23387:23406   */\n      lt\n        /* \"#utility.yul\":23384:23563   */\n      iszero\n      tag_517\n      jumpi\n        /* \"#utility.yul\":23457:23466   */\n      dup5\n        /* \"#utility.yul\":23452:23455   */\n      dup10\n        /* \"#utility.yul\":23448:23467   */\n      add\n        /* \"#utility.yul\":23442:23468   */\n      sload\n        /* \"#utility.yul\":23500:23548   */\n      tag_518\n        /* \"#utility.yul\":23542:23546   */\n      0x1f\n        /* \"#utility.yul\":23534:23540   */\n      dup10\n        /* \"#utility.yul\":23530:23547   */\n      and\n        /* \"#utility.yul\":23519:23528   */\n      dup3\n        /* \"#utility.yul\":23500:23548   */\n      tag_252\n      jump\t// in\n    tag_518:\n        /* \"#utility.yul\":23492:23498   */\n      dup4\n        /* \"#utility.yul\":23485:23549   */\n      sstore\n        /* \"#utility.yul\":23407:23563   */\n      pop\n        /* \"#utility.yul\":23384:23563   */\n    tag_517:\n        /* \"#utility.yul\":23609:23610   */\n      0x01\n        /* \"#utility.yul\":23605:23606   */\n      0x02\n        /* \"#utility.yul\":23597:23603   */\n      dup9\n        /* \"#utility.yul\":23593:23607   */\n      mul\n        /* \"#utility.yul\":23589:23611   */\n      add\n        /* \"#utility.yul\":23583:23587   */\n      dup9\n        /* \"#utility.yul\":23576:23612   */\n      sstore\n        /* \"#utility.yul\":22953:23622   */\n      pop\n      pop\n      pop\n        /* \"#utility.yul\":22916:23861   */\n    tag_508:\n      pop\n        /* \"#utility.yul\":22497:23867   */\n      pop\n      pop\n      pop\n        /* \"#utility.yul\":22404:23867   */\n      pop\n      pop\n    tag_501:\n      jump\t// out\n        /* \"#utility.yul\":23873:24053   */\n    tag_118:\n        /* \"#utility.yul\":23921:23998   */\n      0x4e487b7100000000000000000000000000000000000000000000000000000000\n        /* \"#utility.yul\":23918:23919   */\n      0x00\n        /* \"#utility.yul\":23911:23999   */\n      mstore\n        /* \"#utility.yul\":24018:24022   */\n      0x31\n        /* \"#utility.yul\":24015:24016   */\n      0x04\n        /* \"#utility.yul\":24008:24023   */\n      mstore\n        /* \"#utility.yul\":24042:24046   */\n      0x24\n        /* \"#utility.yul\":24039:24040   */\n      0x00\n        /* \"#utility.yul\":24032:24047   */\n      revert\n        /* \"#utility.yul\":24059:24292   */\n    tag_133:\n        /* \"#utility.yul\":24098:24101   */\n      0x00\n        /* \"#utility.yul\":24121:24145   */\n      tag_521\n        /* \"#utility.yul\":24139:24144   */\n      dup3\n        /* \"#utility.yul\":24121:24145   */\n      tag_209\n      jump\t// in\n    tag_521:\n        /* \"#utility.yul\":24112:24145   */\n      swap2\n      pop\n        /* \"#utility.yul\":24167:24233   */\n      0xffffffffffffffffffffffffffffffffffffffffffffffffffffffffffffffff\n        /* \"#utility.yul\":24160:24165   */\n      dup3\n        /* \"#utility.yul\":24157:24234   */\n      sub\n        /* \"#utility.yul\":24154:24257   */\n      tag_522\n      jumpi\n        /* \"#utility.yul\":24237:24255   */\n      tag_523\n      tag_254\n      jump\t// in\n    tag_523:\n        /* \"#utility.yul\":24154:24257   */\n    tag_522:\n        /* \"#utility.yul\":24284:24285   */\n      0x01\n        /* \"#utility.yul\":24277:24282   */\n      dup3\n        /* \"#utility.yul\":24273:24286   */\n      add\n        /* \"#utility.yul\":24266:24286   */\n      swap1\n      pop\n        /* \"#utility.yul\":24059:24292   */\n      swap2\n      swap1\n      pop\n      jump\t// out\n        /* \"#utility.yul\":24298:24688   */\n    tag_257:\n        /* \"#utility.yul\":24404:24407   */\n      0x00\n        /* \"#utility.yul\":24432:24471   */\n      tag_525\n        /* \"#utility.yul\":24465:24470   */\n      dup3\n        /* \"#utility.yul\":24432:24471   */\n      tag_198\n      jump\t// in\n    tag_525:\n        /* \"#utility.yul\":24487:24576   */\n      tag_526\n        /* \"#utility.yul\":24569:24575   */\n      dup2\n        /* \"#utility.yul\":24564:24567   */\n      dup6\n        /* \"#utility.yul\":24487:24576   */\n      tag_236\n      jump\t// in\n    tag_526:\n        /* \"#utility.yul\":24480:24576   */\n      swap4\n      pop\n        /* \"#utility.yul\":24585:24650   */\n      tag_527\n        /* \"#utility.yul\":24643:24649   */\n      dup2\n        /* \"#utility.yul\":24638:24641   */\n      dup6\n        /* \"#utility.yul\":24631:24635   */\n      0x20\n        /* \"#utility.yul\":24624:24629   */\n      dup7\n        /* \"#utility.yul\":24620:24636   */\n      add\n        /* \"#utility.yul\":24585:24650   */\n      tag_200\n      jump\t// in\n    tag_527:\n        /* \"#utility.yul\":24675:24681   */\n      dup1\n        /* \"#utility.yul\":24670:24673   */\n      dup5\n        /* \"#utility.yul\":24666:24682   */\n      add\n        /* \"#utility.yul\":24659:24682   */\n      swap2\n      pop\n        /* \"#utility.yul\":24408:24688   */\n      pop\n        /* \"#utility.yul\":24298:24688   */\n      swap3\n      swap2\n      pop\n      pop\n      jump\t// out\n        /* \"#utility.yul\":24694:24969   */\n    tag_146:\n        /* \"#utility.yul\":24826:24829   */\n      0x00\n        /* \"#utility.yul\":24848:24943   */\n      tag_529\n        /* \"#utility.yul\":24939:24942   */\n      dup3\n        /* \"#utility.yul\":24930:24936   */\n      dup5\n        /* \"#utility.yul\":24848:24943   */\n      tag_257\n      jump\t// in\n    tag_529:\n        /* \"#utility.yul\":24841:24943   */\n      swap2\n      pop\n        /* \"#utility.yul\":24960:24963   */\n      dup2\n        /* \"#utility.yul\":24953:24963   */\n      swap1\n      pop\n        /* \"#utility.yul\":24694:24969   */\n      swap3\n      swap2\n      pop\n      pop\n      jump\t// out\n        /* \"#utility.yul\":24975:25089   */\n    tag_258:\n      pop\n      jump\t// out\n        /* \"#utility.yul\":25095:25495   */\n    tag_259:\n        /* \"#utility.yul\":25255:25258   */\n      0x00\n        /* \"#utility.yul\":25276:25360   */\n      tag_532\n        /* \"#utility.yul\":25358:25359   */\n      0x00\n        /* \"#utility.yul\":25353:25356   */\n      dup4\n        /* \"#utility.yul\":25276:25360   */\n      tag_236\n      jump\t// in\n    tag_532:\n        /* \"#utility.yul\":25269:25360   */\n      swap2\n      pop\n        /* \"#utility.yul\":25369:25462   */\n      tag_533\n        /* \"#utility.yul\":25458:25461   */\n      dup3\n        /* \"#utility.yul\":25369:25462   */\n      tag_258\n      jump\t// in\n    tag_533:\n        /* \"#utility.yul\":25487:25488   */\n      0x00\n        /* \"#utility.yul\":25482:25485   */\n      dup3\n        /* \"#utility.yul\":25478:25489   */\n      add\n        /* \"#utility.yul\":25471:25489   */\n      swap1\n      pop\n        /* \"#utility.yul\":25095:25495   */\n      swap2\n      swap1\n      pop\n      jump\t// out\n        /* \"#utility.yul\":25501:25882   */\n    tag_149:\n        /* \"#utility.yul\":25686:25689   */\n      0x00\n        /* \"#utility.yul\":25708:25856   */\n      tag_535\n        /* \"#utility.yul\":25852:25855   */\n      dup3\n        /* \"#utility.yul\":25708:25856   */\n      tag_259\n      jump\t// in\n    tag_535:\n        /* \"#utility.yul\":25701:25856   */\n      swap2\n      pop\n        /* \"#utility.yul\":25873:25876   */\n      dup2\n        /* \"#utility.yul\":25866:25876   */\n      swap1\n      pop\n        /* \"#utility.yul\":25501:25882   */\n      swap2\n      swap1\n      pop\n      jump\t// out\n        /* \"#utility.yul\":25888:25985   */\n    tag_260:\n        /* \"#utility.yul\":25947:25953   */\n      0x00\n        /* \"#utility.yul\":25975:25978   */\n      dup3\n        /* \"#utility.yul\":25965:25978   */\n      swap1\n      pop\n        /* \"#utility.yul\":25888:25985   */\n      swap3\n      swap2\n      pop\n      pop\n      jump\t// out\n        /* \"#utility.yul\":25991:27394   */\n    tag_153:\n        /* \"#utility.yul\":26115:26159   */\n      tag_538\n        /* \"#utility.yul\":26155:26158   */\n      dup4\n        /* \"#utility.yul\":26150:26153   */\n      dup4\n        /* \"#utility.yul\":26115:26159   */\n      tag_260\n      jump\t// in\n    tag_538:\n        /* \"#utility.yul\":26224:26242   */\n      0xffffffffffffffff\n        /* \"#utility.yul\":26216:26222   */\n      dup2\n        /* \"#utility.yul\":26213:26243   */\n      gt\n        /* \"#utility.yul\":26210:26266   */\n      iszero\n      tag_539\n      jumpi\n        /* \"#utility.yul\":26246:26264   */\n      tag_540\n      tag_41\n      jump\t// in\n    tag_540:\n        /* \"#utility.yul\":26210:26266   */\n    tag_539:\n        /* \"#utility.yul\":26290:26328   */\n      tag_541\n        /* \"#utility.yul\":26322:26326   */\n      dup3\n        /* \"#utility.yul\":26316:26327   */\n      sload\n        /* \"#utility.yul\":26290:26328   */\n      tag_59\n      jump\t// in\n    tag_541:\n        /* \"#utility.yul\":26375:26442   */\n      tag_542\n        /* \"#utility.yul\":26435:26441   */\n      dup3\n        /* \"#utility.yul\":26427:26433   */\n      dup3\n        /* \"#utility.yul\":26421:26425   */\n      dup6\n        /* \"#utility.yul\":26375:26442   */\n      tag_250\n      jump\t// in\n    tag_542:\n        /* \"#utility.yul\":26469:26470   */\n      0x00\n        /* \"#utility.yul\":26498:26500   */\n      0x1f\n        /* \"#utility.yul\":26490:26496   */\n      dup4\n        /* \"#utility.yul\":26487:26501   */\n      gt\n        /* \"#utility.yul\":26515:26516   */\n      0x01\n        /* \"#utility.yul\":26510:27142   */\n      dup2\n      eq\n      tag_544\n      jumpi\n        /* \"#utility.yul\":27186:27187   */\n      0x00\n        /* \"#utility.yul\":27203:27209   */\n      dup5\n        /* \"#utility.yul\":27200:27284   */\n      iszero\n      tag_545\n      jumpi\n        /* \"#utility.yul\":27259:27268   */\n      dup3\n        /* \"#utility.yul\":27254:27257   */\n      dup8\n        /* \"#utility.yul\":27250:27269   */\n      add\n        /* \"#utility.yul\":27237:27270   */\n      calldataload\n        /* \"#utility.yul\":27228:27270   */\n      swap1\n      pop\n        /* \"#utility.yul\":27200:27284   */\n    tag_545:\n        /* \"#utility.yul\":27310:27377   */\n      tag_546\n        /* \"#utility.yul\":27370:27376   */\n      dup6\n        /* \"#utility.yul\":27363:27368   */\n      dup3\n        /* \"#utility.yul\":27310:27377   */\n      tag_253\n      jump\t// in\n    tag_546:\n        /* \"#utility.yul\":27304:27308   */\n      dup7\n        /* \"#utility.yul\":27297:27378   */\n      sstore\n        /* \"#utility.yul\":27159:27388   */\n      pop\n        /* \"#utility.yul\":26480:27388   */\n      jump(tag_543)\n        /* \"#utility.yul\":26510:27142   */\n    tag_544:\n        /* \"#utility.yul\":26562:26566   */\n      0x1f\n        /* \"#utility.yul\":26558:26567   */\n      not\n        /* \"#utility.yul\":26550:26556   */\n      dup5\n        /* \"#utility.yul\":26546:26568   */\n      and\n        /* \"#utility.yul\":26596:26633   */\n      tag_547\n        /* \"#utility.yul\":26628:26632   */\n      dup7\n        /* \"#utility.yul\":26596:26633   */\n      tag_237\n      jump\t// in\n    tag_547:\n        /* \"#utility.yul\":26655:26656   */\n      0x00\n        /* \"#utility.yul\":26669:26884   */\n    tag_548:\n        /* \"#utility.yul\":26683:26690   */\n      dup3\n        /* \"#utility.yul\":26680:26681   */\n      dup2\n        /* \"#utility.yul\":26677:26691   */\n      lt\n        /* \"#utility.yul\":26669:26884   */\n      iszero\n      tag_550\n      jumpi\n        /* \"#utility.yul\":26769:26778   */\n      dup5\n        /* \"#utility.yul\":26764:26767   */\n      dup10\n        /* \"#utility.yul\":26760:26779   */\n      add\n        /* \"#utility.yul\":26747:26780   */\n      calldataload\n        /* \"#utility.yul\":26739:26745   */\n      dup3\n        /* \"#utility.yul\":26732:26781   */\n      sstore\n        /* \"#utility.yul\":26820:26821   */\n      0x01\n        /* \"#utility.yul\":26812:26818   */\n      dup3\n        /* \"#utility.yul\":26808:26822   */\n      add\n        /* \"#utility.yul\":26798:26822   */\n      swap2\n      pop\n        /* \"#utility.yul\":26867:26869   */\n      0x20\n        /* \"#utility.yul\":26856:26865   */\n      dup6\n        /* \"#utility.yul\":26852:26870   */\n      add\n        /* \"#utility.yul\":26839:26870   */\n      swap5\n      pop\n        /* \"#utility.yul\":26706:26710   */\n      0x20\n        /* \"#utility.yul\":26703:26704   */\n      dup2\n        /* \"#utility.yul\":26699:26711   */\n      add\n        /* \"#utility.yul\":26694:26711   */\n      swap1\n      pop\n        /* \"#utility.yul\":26669:26884   */\n      jump(tag_548)\n    tag_550:\n        /* \"#utility.yul\":26912:26918   */\n      dup7\n        /* \"#utility.yul\":26903:26910   */\n      dup4\n        /* \"#utility.yul\":26900:26919   */\n      lt\n        /* \"#utility.yul\":26897:27083   */\n      iszero\n      tag_551\n      jumpi\n        /* \"#utility.yul\":26977:26986   */\n      dup5\n        /* \"#utility.yul\":26972:26975   */\n      dup10\n        /* \"#utility.yul\":26968:26987   */\n      add\n        /* \"#utility.yul\":26955:26988   */\n      calldataload\n        /* \"#utility.yul\":27020:27068   */\n      tag_552\n        /* \"#utility.yul\":27062:27066   */\n      0x1f\n        /* \"#utility.yul\":27054:27060   */\n      dup10\n        /* \"#utility.yul\":27050:27067   */\n      and\n        /* \"#utility.yul\":27039:27048   */\n      dup3\n        /* \"#utility.yul\":27020:27068   */\n      tag_252\n      jump\t// in\n    tag_552:\n        /* \"#utility.yul\":27012:27018   */\n      dup4\n        /* \"#utility.yul\":27005:27069   */\n      sstore\n        /* \"#utility.yul\":26920:27083   */\n      pop\n        /* \"#utility.yul\":26897:27083   */\n    tag_551:\n        /* \"#utility.yul\":27129:27130   */\n      0x01\n        /* \"#utility.yul\":27125:27126   */\n      0x02\n        /* \"#utility.yul\":27117:27123   */\n      dup9\n        /* \"#utility.yul\":27113:27127   */\n      mul\n        /* \"#utility.yul\":27109:27131   */\n      add\n        /* \"#utility.yul\":27103:27107   */\n      dup9\n        /* \"#utility.yul\":27096:27132   */\n      sstore\n        /* \"#utility.yul\":26517:27142   */\n      pop\n      pop\n      pop\n        /* \"#utility.yul\":26480:27388   */\n    tag_543:\n      pop\n        /* \"#utility.yul\":26090:27394   */\n      pop\n      pop\n      pop\n        /* \"#utility.yul\":25991:27394   */\n      pop\n      pop\n      pop\n      jump\t// out\n        /* \"#utility.yul\":27400:27580   */\n    tag_261:\n        /* \"#utility.yul\":27448:27525   */\n      0x4e487b7100000000000000000000000000000000000000000000000000000000\n        /* \"#utility.yul\":27445:27446   */\n      0x00\n        /* \"#utility.yul\":27438:27526   */\n      mstore\n        /* \"#utility.yul\":27545:27549   */\n      0x12\n        /* \"#utility.yul\":27542:27543   */\n      0x04\n        /* \"#utility.yul\":27535:27550   */\n      mstore\n        /* \"#utility.yul\":27569:27573   */\n      0x24\n        /* \"#utility.yul\":27566:27567   */\n      0x00\n        /* \"#utility.yul\":27559:27574   */\n      revert\n        /* \"#utility.yul\":27586:27771   */\n    tag_172:\n        /* \"#utility.yul\":27626:27627   */\n      0x00\n        /* \"#utility.yul\":27643:27663   */\n      tag_555\n        /* \"#utility.yul\":27661:27662   */\n      dup3\n        /* \"#utility.yul\":27643:27663   */\n      tag_209\n      jump\t// in\n    tag_555:\n        /* \"#utility.yul\":27638:27663   */\n      swap2\n      pop\n        /* \"#utility.yul\":27677:27697   */\n      tag_556\n        /* \"#utility.yul\":27695:27696   */\n      dup4\n        /* \"#utility.yul\":27677:27697   */\n      tag_209\n      jump\t// in\n    tag_556:\n        /* \"#utility.yul\":27672:27697   */\n      swap3\n      pop\n        /* \"#utility.yul\":27716:27717   */\n      dup3\n        /* \"#utility.yul\":27706:27741   */\n      tag_557\n      jumpi\n        /* \"#utility.yul\":27721:27739   */\n      tag_558\n      tag_261\n      jump\t// in\n    tag_558:\n        /* \"#utility.yul\":27706:27741   */\n    tag_557:\n        /* \"#utility.yul\":27763:27764   */\n      dup3\n        /* \"#utility.yul\":27760:27761   */\n      dup3\n        /* \"#utility.yul\":27756:27765   */\n      div\n        /* \"#utility.yul\":27751:27765   */\n      swap1\n      pop\n        /* \"#utility.yul\":27586:27771   */\n      swap3\n      swap2\n      pop\n      pop\n      jump\t// out\n        /* \"#utility.yul\":27777:28187   */\n    tag_181:\n        /* \"#utility.yul\":27817:27824   */\n      0x00\n        /* \"#utility.yul\":27840:27860   */\n      tag_560\n        /* \"#utility.yul\":27858:27859   */\n      dup3\n        /* \"#utility.yul\":27840:27860   */\n      tag_209\n      jump\t// in\n    tag_560:\n        /* \"#utility.yul\":27835:27860   */\n      swap2\n      pop\n        /* \"#utility.yul\":27874:27894   */\n      tag_561\n        /* \"#utility.yul\":27892:27893   */\n      dup4\n        /* \"#utility.yul\":27874:27894   */\n      tag_209\n      jump\t// in\n    tag_561:\n        /* \"#utility.yul\":27869:27894   */\n      swap3\n      pop\n        /* \"#utility.yul\":27929:27930   */\n      dup3\n        /* \"#utility.yul\":27926:27927   */\n      dup3\n        /* \"#utility.yul\":27922:27931   */\n      mul\n        /* \"#utility.yul\":27951:27981   */\n      tag_562\n        /* \"#utility.yul\":27969:27980   */\n      dup2\n        /* \"#utility.yul\":27951:27981   */\n      tag_209\n      jump\t// in\n    tag_562:\n        /* \"#utility.yul\":27940:27981   */\n      swap2\n      pop\n        /* \"#utility.yul\":28130:28131   */\n      dup3\n        /* \"#utility.yul\":28121:28128   */\n      dup3\n        /* \"#utility.yul\":28117:28132   */\n      div\n        /* \"#utility.yul\":28114:28115   */\n      dup5\n        /* \"#utility.yul\":28111:28133   */\n      eq\n        /* \"#utility.yul\":28091:28092   */\n      dup4\n        /* \"#utility.yul\":28084:28093   */\n      iszero\n        /* \"#utility.yul\":28064:28147   */\n      or\n        /* \"#utility.yul\":28041:28180   */\n      tag_563\n      jumpi\n        /* \"#utility.yul\":28160:28178   */\n      tag_564\n      tag_254\n      jump\t// in\n    tag_564:\n        /* \"#utility.yul\":28041:28180   */\n    tag_563:\n        /* \"#utility.yul\":27825:28187   */\n      pop\n        /* \"#utility.yul\":27777:28187   */\n      swap3\n      swap2\n      pop\n      pop\n      jump\t// out\n        /* \"#utility.yul\":28193:28279   */\n    tag_262:\n        /* \"#utility.yul\":28228:28235   */\n      0x00\n        /* \"#utility.yul\":28268:28272   */\n      0xff\n        /* \"#utility.yul\":28261:28266   */\n      dup3\n        /* \"#utility.yul\":28257:28273   */\n      and\n        /* \"#utility.yul\":28246:28273   */\n      swap1\n      pop\n        /* \"#utility.yul\":28193:28279   */\n      swap2\n      swap1\n      pop\n      jump\t// out\n        /* \"#utility.yul\":28285:28473   */\n    tag_184:\n        /* \"#utility.yul\":28323:28326   */\n      0x00\n        /* \"#utility.yul\":28342:28360   */\n      tag_567\n        /* \"#utility.yul\":28358:28359   */\n      dup3\n        /* \"#utility.yul\":28342:28360   */\n      tag_262\n      jump\t// in\n    tag_567:\n        /* \"#utility.yul\":28337:28360   */\n      swap2\n      pop\n        /* \"#utility.yul\":28374:28392   */\n      tag_568\n        /* \"#utility.yul\":28390:28391   */\n      dup4\n        /* \"#utility.yul\":28374:28392   */\n      tag_262\n      jump\t// in\n    tag_568:\n        /* \"#utility.yul\":28369:28392   */\n      swap3\n      pop\n        /* \"#utility.yul\":28415:28416   */\n      dup3\n        /* \"#utility.yul\":28412:28413   */\n      dup3\n        /* \"#utility.yul\":28408:28417   */\n      add\n        /* \"#utility.yul\":28401:28417   */\n      swap1\n      pop\n        /* \"#utility.yul\":28438:28442   */\n      0xff\n        /* \"#utility.yul\":28433:28436   */\n      dup2\n        /* \"#utility.yul\":28430:28443   */\n      gt\n        /* \"#utility.yul\":28427:28466   */\n      iszero\n      tag_569\n      jumpi\n        /* \"#utility.yul\":28446:28464   */\n      tag_570\n      tag_254\n      jump\t// in\n    tag_570:\n        /* \"#utility.yul\":28427:28466   */\n    tag_569:\n        /* \"#utility.yul\":28285:28473   */\n      swap3\n      swap2\n      pop\n      pop\n      jump\t// out\n\n    auxdata: 0xa2646970667358221220c0af32f1a98ead51b81a59c33c306d87102e71eacb27373ed9230eaec74356ee64736f6c63430008190033\n}\n",
				"bytecode": {
					"linkReferences": {},
					"object": "6080604052348015600e575f80fd5b50335f806101000a81548173ffffffffffffffffffffffffffffffffffffffff021916908373ffffffffffffffffffffffffffffffffffffffff160217905550611b138061005b5f395ff3fe608060405234801561000f575f80fd5b5060043610610060575f3560e01c806318bc8216146100645780633e6b6de2146100845780637a36b3ee146100a05780639e5b4fe4146100d0578063adb5097f14610100578063e93956791461011c575b5f80fd5b61006c61014c565b60405161007b93929190610dd1565b60405180910390f35b61009e60048036038101906100999190610e8d565b61054b565b005b6100ba60048036038101906100b59190611000565b6106c9565b6040516100c791906110be565b60405180910390f35b6100ea60048036038101906100e591906110de565b61084b565b6040516100f7919061113f565b60405180910390f35b61011a600480360381019061011591906111d7565b6108c4565b005b6101366004803603810190610131919061129b565b610a10565b60405161014391906110be565b60405180910390f35b60608060605f60028054905067ffffffffffffffff81111561017157610170610edc565b5b6040519080825280602002602001820160405280156101a457816020015b606081526020019060019003908161018f5790505b5090505f60028054905067ffffffffffffffff8111156101c7576101c6610edc565b5b6040519080825280602002602001820160405280156101fa57816020015b60608152602001906001900390816101e55790505b5090505f60028054905067ffffffffffffffff81111561021d5761021c610edc565b5b60405190808252806020026020018201604052801561024b5781602001602082028036833780820191505090505b5090505f5b6002805490508110156105395760028181548110610271576102706112c6565b5b905f5260205f2001805461028490611320565b80601f01602080910402602001604051908101604052809291908181526020018280546102b090611320565b80156102fb5780601f106102d2576101008083540402835291602001916102fb565b820191905f5260205f20905b8154815290600101906020018083116102de57829003601f168201915b5050505050848281518110610313576103126112c6565b5b60200260200101819052505f600160028381548110610335576103346112c6565b5b905f5260205f200160405161034a91906113ec565b90815260200160405180910390206040518060800160405290815f8201805461037290611320565b80601f016020809104026020016040519081016040528092919081815260200182805461039e90611320565b80156103e95780601f106103c0576101008083540402835291602001916103e9565b820191905f5260205f20905b8154815290600101906020018083116103cc57829003601f168201915b5050505050815260200160018201805461040290611320565b80601f016020809104026020016040519081016040528092919081815260200182805461042e90611320565b80156104795780601f1061045057610100808354040283529160200191610479565b820191905f5260205f20905b81548152906001019060200180831161045c57829003601f168201915b5050505050815260200160028201548152602001600382018054806020026020016040519081016040528092919081815260200182805480156104d957602002820191905f5260205f20905b8154815260200190600101908083116104c5575b505050505081525050905080602001518483815181106104fc576104fb6112c6565b5b6020026020010181905250806040015183838151811061051f5761051e6112c6565b5b602002602001018181525050508080600101915050610250565b50828282955095509550505050909192565b60405180602001604052805f8152506001838360405161056c929190611426565b90815260200160405180910390205f01908161058891906115c9565b505f5b6002805490508110156106c45782826040516020016105ab929190611426565b60405160208183030381529060405280519060200120600282815481106105d5576105d46112c6565b5b905f5260205f20016040516020016105ed91906113ec565b60405160208183030381529060405280519060200120036106b7575f8190505b600160028054905061061f91906116c5565b81101561068457600260018261063591906116f8565b81548110610646576106456112c6565b5b905f5260205f200160028281548110610662576106616112c6565b5b905f5260205f200190816106769190611752565b50808060010191505061060d565b50600280548061069757610696611837565b5b600190038181905f5260205f20015f6106b09190610b8e565b90556106c4565b808060010191505061058b565b505050565b60605f8390505f8390505f815183516106e291906116f8565b67ffffffffffffffff8111156106fb576106fa610edc565b5b6040519080825280601f01601f19166020018201604052801561072d5781602001600182028036833780820191505090505b5090505f8190505f805b85518110156107b857858181518110610753576107526112c6565b5b602001015160f81c60f81b83838061076a90611864565b94508151811061077d5761077c6112c6565b5b60200101907effffffffffffffffffffffffffffffffffffffffffffffffffffffffffffff191690815f1a9053508080600101915050610737565b505f5b845181101561083c578481815181106107d7576107d66112c6565b5b602001015160f81c60f81b8383806107ee90611864565b945081518110610801576108006112c6565b5b60200101907effffffffffffffffffffffffffffffffffffffffffffffffffffffffffffff191690815f1a90535080806001019150506107bb565b50819550505050505092915050565b5f8060018360405161085d91906118db565b90815260200160405180910390209050805f0160405160200161088091906113ec565b604051602081830303815290604052805190602001206040516020016108a590611914565b6040516020818303038152906040528051906020012014915050919050565b8686600189896040516108d8929190611426565b90815260200160405180910390205f0191826108f5929190611932565b5084846001898960405161090a929190611426565b90815260200160405180910390206001019182610928929190611932565b50826001888860405161093c929190611426565b9081526020016040518091039020600201819055505f5b828290508110156109cb5760018888604051610970929190611426565b9081526020016040518091039020600301838383818110610994576109936112c6565b5b90506020020135908060018154018082558091505060019003905f5260205f20015f90919091909150558080600101915050610953565b506002878790918060018154018082558091505060019003905f5260205f20015f909192909192909192909192509182610a06929190611932565b5050505050505050565b60605f8203610a56576040518060400160405280600181526020017f30000000000000000000000000000000000000000000000000000000000000008152509050610b89565b5f8290505f5b5f8214610a85578080610a6e90611864565b915050600a82610a7e9190611a2c565b9150610a5c565b5f8167ffffffffffffffff811115610aa057610a9f610edc565b5b6040519080825280601f01601f191660200182016040528015610ad25781602001600182028036833780820191505090505b5090505f8290505b5f8614610b8157600181610aee91906116c5565b90505f600a8088610aff9190611a2c565b610b099190611a5c565b87610b1491906116c5565b6030610b209190611aa9565b90505f8160f81b905080848481518110610b3d57610b3c6112c6565b5b60200101907effffffffffffffffffffffffffffffffffffffffffffffffffffffffffffff191690815f1a905350600a88610b789190611a2c565b97505050610ada565b819450505050505b919050565b508054610b9a90611320565b5f825580601f10610bab5750610bc8565b601f0160209004905f5260205f2090810190610bc79190610bcb565b5b50565b5b80821115610be2575f815f905550600101610bcc565b5090565b5f81519050919050565b5f82825260208201905092915050565b5f819050602082019050919050565b5f81519050919050565b5f82825260208201905092915050565b8281835e5f83830152505050565b5f601f19601f8301169050919050565b5f610c5182610c0f565b610c5b8185610c19565b9350610c6b818560208601610c29565b610c7481610c37565b840191505092915050565b5f610c8a8383610c47565b905092915050565b5f602082019050919050565b5f610ca882610be6565b610cb28185610bf0565b935083602082028501610cc485610c00565b805f5b85811015610cff5784840389528151610ce08582610c7f565b9450610ceb83610c92565b925060208a01995050600181019050610cc7565b50829750879550505050505092915050565b5f81519050919050565b5f82825260208201905092915050565b5f819050602082019050919050565b5f819050919050565b610d4c81610d3a565b82525050565b5f610d5d8383610d43565b60208301905092915050565b5f602082019050919050565b5f610d7f82610d11565b610d898185610d1b565b9350610d9483610d2b565b805f5b83811015610dc4578151610dab8882610d52565b9750610db683610d69565b925050600181019050610d97565b5085935050505092915050565b5f6060820190508181035f830152610de98186610c9e565b90508181036020830152610dfd8185610c9e565b90508181036040830152610e118184610d75565b9050949350505050565b5f604051905090565b5f80fd5b5f80fd5b5f80fd5b5f80fd5b5f80fd5b5f8083601f840112610e4d57610e4c610e2c565b5b8235905067ffffffffffffffff811115610e6a57610e69610e30565b5b602083019150836001820283011115610e8657610e85610e34565b5b9250929050565b5f8060208385031215610ea357610ea2610e24565b5b5f83013567ffffffffffffffff811115610ec057610ebf610e28565b5b610ecc85828601610e38565b92509250509250929050565b5f80fd5b7f4e487b71000000000000000000000000000000000000000000000000000000005f52604160045260245ffd5b610f1282610c37565b810181811067ffffffffffffffff82111715610f3157610f30610edc565b5b80604052505050565b5f610f43610e1b565b9050610f4f8282610f09565b919050565b5f67ffffffffffffffff821115610f6e57610f6d610edc565b5b610f7782610c37565b9050602081019050919050565b828183375f83830152505050565b5f610fa4610f9f84610f54565b610f3a565b905082815260208101848484011115610fc057610fbf610ed8565b5b610fcb848285610f84565b509392505050565b5f82601f830112610fe757610fe6610e2c565b5b8135610ff7848260208601610f92565b91505092915050565b5f806040838503121561101657611015610e24565b5b5f83013567ffffffffffffffff81111561103357611032610e28565b5b61103f85828601610fd3565b925050602083013567ffffffffffffffff8111156110605761105f610e28565b5b61106c85828601610fd3565b9150509250929050565b5f82825260208201905092915050565b5f61109082610c0f565b61109a8185611076565b93506110aa818560208601610c29565b6110b381610c37565b840191505092915050565b5f6020820190508181035f8301526110d68184611086565b905092915050565b5f602082840312156110f3576110f2610e24565b5b5f82013567ffffffffffffffff8111156111105761110f610e28565b5b61111c84828501610fd3565b91505092915050565b5f8115159050919050565b61113981611125565b82525050565b5f6020820190506111525f830184611130565b92915050565b61116181610d3a565b811461116b575f80fd5b50565b5f8135905061117c81611158565b92915050565b5f8083601f84011261119757611196610e2c565b5b8235905067ffffffffffffffff8111156111b4576111b3610e30565b5b6020830191508360208202830111156111d0576111cf610e34565b5b9250929050565b5f805f805f805f6080888a0312156111f2576111f1610e24565b5b5f88013567ffffffffffffffff81111561120f5761120e610e28565b5b61121b8a828b01610e38565b9750975050602088013567ffffffffffffffff81111561123e5761123d610e28565b5b61124a8a828b01610e38565b9550955050604061125d8a828b0161116e565b935050606088013567ffffffffffffffff81111561127e5761127d610e28565b5b61128a8a828b01611182565b925092505092959891949750929550565b5f602082840312156112b0576112af610e24565b5b5f6112bd8482850161116e565b91505092915050565b7f4e487b71000000000000000000000000000000000000000000000000000000005f52603260045260245ffd5b7f4e487b71000000000000000000000000000000000000000000000000000000005f52602260045260245ffd5b5f600282049050600182168061133757607f821691505b60208210810361134a576113496112f3565b5b50919050565b5f81905092915050565b5f819050815f5260205f209050919050565b5f815461137881611320565b6113828186611350565b9450600182165f811461139c57600181146113b1576113e3565b60ff19831686528115158202860193506113e3565b6113ba8561135a565b5f5b838110156113db578154818901526001820191506020810190506113bc565b838801955050505b50505092915050565b5f6113f7828461136c565b915081905092915050565b5f61140d8385611350565b935061141a838584610f84565b82840190509392505050565b5f611432828486611402565b91508190509392505050565b5f6020601f8301049050919050565b5f82821b905092915050565b5f600883026114887fffffffffffffffffffffffffffffffffffffffffffffffffffffffffffffffff8261144d565b611492868361144d565b95508019841693508086168417925050509392505050565b5f819050919050565b5f6114cd6114c86114c384610d3a565b6114aa565b610d3a565b9050919050565b5f819050919050565b6114e6836114b3565b6114fa6114f2826114d4565b848454611459565b825550505050565b5f90565b61150e611502565b6115198184846114dd565b505050565b5b8181101561153c576115315f82611506565b60018101905061151f565b5050565b601f821115611581576115528161135a565b61155b8461143e565b8101602085101561156a578190505b61157e6115768561143e565b83018261151e565b50505b505050565b5f82821c905092915050565b5f6115a15f1984600802611586565b1980831691505092915050565b5f6115b98383611592565b9150826002028217905092915050565b6115d282610c0f565b67ffffffffffffffff8111156115eb576115ea610edc565b5b6115f58254611320565b611600828285611540565b5f60209050601f831160018114611631575f841561161f578287015190505b61162985826115ae565b865550611690565b601f19841661163f8661135a565b5f5b8281101561166657848901518255600182019150602085019450602081019050611641565b86831015611683578489015161167f601f891682611592565b8355505b6001600288020188555050505b505050505050565b7f4e487b71000000000000000000000000000000000000000000000000000000005f52601160045260245ffd5b5f6116cf82610d3a565b91506116da83610d3a565b92508282039050818111156116f2576116f1611698565b5b92915050565b5f61170282610d3a565b915061170d83610d3a565b925082820190508082111561172557611724611698565b5b92915050565b5f8154905061173981611320565b9050919050565b5f819050815f5260205f209050919050565b818103611760575050611835565b6117698261172b565b67ffffffffffffffff81111561178257611781610edc565b5b61178c8254611320565b611797828285611540565b5f601f8311600181146117c4575f84156117b2578287015490505b6117bc85826115ae565b86555061182e565b601f1984166117d287611740565b96506117dd8661135a565b5f5b82811015611804578489015482556001820191506001850194506020810190506117df565b86831015611821578489015461181d601f891682611592565b8355505b6001600288020188555050505b5050505050505b565b7f4e487b71000000000000000000000000000000000000000000000000000000005f52603160045260245ffd5b5f61186e82610d3a565b91507fffffffffffffffffffffffffffffffffffffffffffffffffffffffffffffffff82036118a05761189f611698565b5b600182019050919050565b5f6118b582610c0f565b6118bf8185611350565b93506118cf818560208601610c29565b80840191505092915050565b5f6118e682846118ab565b915081905092915050565b50565b5f6118ff5f83611350565b915061190a826118f1565b5f82019050919050565b5f61191e826118f4565b9150819050919050565b5f82905092915050565b61193c8383611928565b67ffffffffffffffff81111561195557611954610edc565b5b61195f8254611320565b61196a828285611540565b5f601f831160018114611997575f8415611985578287013590505b61198f85826115ae565b8655506119f6565b601f1984166119a58661135a565b5f5b828110156119cc578489013582556001820191506020850194506020810190506119a7565b868310156119e957848901356119e5601f891682611592565b8355505b6001600288020188555050505b50505050505050565b7f4e487b71000000000000000000000000000000000000000000000000000000005f52601260045260245ffd5b5f611a3682610d3a565b9150611a4183610d3a565b925082611a5157611a506119ff565b5b828204905092915050565b5f611a6682610d3a565b9150611a7183610d3a565b9250828202611a7f81610d3a565b91508282048414831517611a9657611a95611698565b5b5092915050565b5f60ff82169050919050565b5f611ab382611a9d565b9150611abe83611a9d565b9250828201905060ff811115611ad757611ad6611698565b5b9291505056fea2646970667358221220c0af32f1a98ead51b81a59c33c306d87102e71eacb27373ed9230eaec74356ee64736f6c63430008190033",
					"opcodes": "PUSH1 0x80 PUSH1 0x40 MSTORE CALLVALUE DUP1 ISZERO PUSH1 0xE JUMPI PUSH0 DUP1 REVERT JUMPDEST POP CALLER PUSH0 DUP1 PUSH2 0x100 EXP DUP2 SLOAD DUP2 PUSH20 0xFFFFFFFFFFFFFFFFFFFFFFFFFFFFFFFFFFFFFFFF MUL NOT AND SWAP1 DUP4 PUSH20 0xFFFFFFFFFFFFFFFFFFFFFFFFFFFFFFFFFFFFFFFF AND MUL OR SWAP1 SSTORE POP PUSH2 0x1B13 DUP1 PUSH2 0x5B PUSH0 CODECOPY PUSH0 RETURN INVALID PUSH1 0x80 PUSH1 0x40 MSTORE CALLVALUE DUP1 ISZERO PUSH2 0xF JUMPI PUSH0 DUP1 REVERT JUMPDEST POP PUSH1 0x4 CALLDATASIZE LT PUSH2 0x60 JUMPI PUSH0 CALLDATALOAD PUSH1 0xE0 SHR DUP1 PUSH4 0x18BC8216 EQ PUSH2 0x64 JUMPI DUP1 PUSH4 0x3E6B6DE2 EQ PUSH2 0x84 JUMPI DUP1 PUSH4 0x7A36B3EE EQ PUSH2 0xA0 JUMPI DUP1 PUSH4 0x9E5B4FE4 EQ PUSH2 0xD0 JUMPI DUP1 PUSH4 0xADB5097F EQ PUSH2 0x100 JUMPI DUP1 PUSH4 0xE9395679 EQ PUSH2 0x11C JUMPI JUMPDEST PUSH0 DUP1 REVERT JUMPDEST PUSH2 0x6C PUSH2 0x14C JUMP JUMPDEST PUSH1 0x40 MLOAD PUSH2 0x7B SWAP4 SWAP3 SWAP2 SWAP1 PUSH2 0xDD1 JUMP JUMPDEST PUSH1 0x40 MLOAD DUP1 SWAP2 SUB SWAP1 RETURN JUMPDEST PUSH2 0x9E PUSH1 0x4 DUP1 CALLDATASIZE SUB DUP2 ADD SWAP1 PUSH2 0x99 SWAP2 SWAP1 PUSH2 0xE8D JUMP JUMPDEST PUSH2 0x54B JUMP JUMPDEST STOP JUMPDEST PUSH2 0xBA PUSH1 0x4 DUP1 CALLDATASIZE SUB DUP2 ADD SWAP1 PUSH2 0xB5 SWAP2 SWAP1 PUSH2 0x1000 JUMP JUMPDEST PUSH2 0x6C9 JUMP JUMPDEST PUSH1 0x40 MLOAD PUSH2 0xC7 SWAP2 SWAP1 PUSH2 0x10BE JUMP JUMPDEST PUSH1 0x40 MLOAD DUP1 SWAP2 SUB SWAP1 RETURN JUMPDEST PUSH2 0xEA PUSH1 0x4 DUP1 CALLDATASIZE SUB DUP2 ADD SWAP1 PUSH2 0xE5 SWAP2 SWAP1 PUSH2 0x10DE JUMP JUMPDEST PUSH2 0x84B JUMP JUMPDEST PUSH1 0x40 MLOAD PUSH2 0xF7 SWAP2 SWAP1 PUSH2 0x113F JUMP JUMPDEST PUSH1 0x40 MLOAD DUP1 SWAP2 SUB SWAP1 RETURN JUMPDEST PUSH2 0x11A PUSH1 0x4 DUP1 CALLDATASIZE SUB DUP2 ADD SWAP1 PUSH2 0x115 SWAP2 SWAP1 PUSH2 0x11D7 JUMP JUMPDEST PUSH2 0x8C4 JUMP JUMPDEST STOP JUMPDEST PUSH2 0x136 PUSH1 0x4 DUP1 CALLDATASIZE SUB DUP2 ADD SWAP1 PUSH2 0x131 SWAP2 SWAP1 PUSH2 0x129B JUMP JUMPDEST PUSH2 0xA10 JUMP JUMPDEST PUSH1 0x40 MLOAD PUSH2 0x143 SWAP2 SWAP1 PUSH2 0x10BE JUMP JUMPDEST PUSH1 0x40 MLOAD DUP1 SWAP2 SUB SWAP1 RETURN JUMPDEST PUSH1 0x60 DUP1 PUSH1 0x60 PUSH0 PUSH1 0x2 DUP1 SLOAD SWAP1 POP PUSH8 0xFFFFFFFFFFFFFFFF DUP2 GT ISZERO PUSH2 0x171 JUMPI PUSH2 0x170 PUSH2 0xEDC JUMP JUMPDEST JUMPDEST PUSH1 0x40 MLOAD SWAP1 DUP1 DUP3 MSTORE DUP1 PUSH1 0x20 MUL PUSH1 0x20 ADD DUP3 ADD PUSH1 0x40 MSTORE DUP1 ISZERO PUSH2 0x1A4 JUMPI DUP2 PUSH1 0x20 ADD JUMPDEST PUSH1 0x60 DUP2 MSTORE PUSH1 0x20 ADD SWAP1 PUSH1 0x1 SWAP1 SUB SWAP1 DUP2 PUSH2 0x18F JUMPI SWAP1 POP JUMPDEST POP SWAP1 POP PUSH0 PUSH1 0x2 DUP1 SLOAD SWAP1 POP PUSH8 0xFFFFFFFFFFFFFFFF DUP2 GT ISZERO PUSH2 0x1C7 JUMPI PUSH2 0x1C6 PUSH2 0xEDC JUMP JUMPDEST JUMPDEST PUSH1 0x40 MLOAD SWAP1 DUP1 DUP3 MSTORE DUP1 PUSH1 0x20 MUL PUSH1 0x20 ADD DUP3 ADD PUSH1 0x40 MSTORE DUP1 ISZERO PUSH2 0x1FA JUMPI DUP2 PUSH1 0x20 ADD JUMPDEST PUSH1 0x60 DUP2 MSTORE PUSH1 0x20 ADD SWAP1 PUSH1 0x1 SWAP1 SUB SWAP1 DUP2 PUSH2 0x1E5 JUMPI SWAP1 POP JUMPDEST POP SWAP1 POP PUSH0 PUSH1 0x2 DUP1 SLOAD SWAP1 POP PUSH8 0xFFFFFFFFFFFFFFFF DUP2 GT ISZERO PUSH2 0x21D JUMPI PUSH2 0x21C PUSH2 0xEDC JUMP JUMPDEST JUMPDEST PUSH1 0x40 MLOAD SWAP1 DUP1 DUP3 MSTORE DUP1 PUSH1 0x20 MUL PUSH1 0x20 ADD DUP3 ADD PUSH1 0x40 MSTORE DUP1 ISZERO PUSH2 0x24B JUMPI DUP2 PUSH1 0x20 ADD PUSH1 0x20 DUP3 MUL DUP1 CALLDATASIZE DUP4 CALLDATACOPY DUP1 DUP3 ADD SWAP2 POP POP SWAP1 POP JUMPDEST POP SWAP1 POP PUSH0 JUMPDEST PUSH1 0x2 DUP1 SLOAD SWAP1 POP DUP2 LT ISZERO PUSH2 0x539 JUMPI PUSH1 0x2 DUP2 DUP2 SLOAD DUP2 LT PUSH2 0x271 JUMPI PUSH2 0x270 PUSH2 0x12C6 JUMP JUMPDEST JUMPDEST SWAP1 PUSH0 MSTORE PUSH1 0x20 PUSH0 KECCAK256 ADD DUP1 SLOAD PUSH2 0x284 SWAP1 PUSH2 0x1320 JUMP JUMPDEST DUP1 PUSH1 0x1F ADD PUSH1 0x20 DUP1 SWAP2 DIV MUL PUSH1 0x20 ADD PUSH1 0x40 MLOAD SWAP1 DUP2 ADD PUSH1 0x40 MSTORE DUP1 SWAP3 SWAP2 SWAP1 DUP2 DUP2 MSTORE PUSH1 0x20 ADD DUP3 DUP1 SLOAD PUSH2 0x2B0 SWAP1 PUSH2 0x1320 JUMP JUMPDEST DUP1 ISZERO PUSH2 0x2FB JUMPI DUP1 PUSH1 0x1F LT PUSH2 0x2D2 JUMPI PUSH2 0x100 DUP1 DUP4 SLOAD DIV MUL DUP4 MSTORE SWAP2 PUSH1 0x20 ADD SWAP2 PUSH2 0x2FB JUMP JUMPDEST DUP3 ADD SWAP2 SWAP1 PUSH0 MSTORE PUSH1 0x20 PUSH0 KECCAK256 SWAP1 JUMPDEST DUP2 SLOAD DUP2 MSTORE SWAP1 PUSH1 0x1 ADD SWAP1 PUSH1 0x20 ADD DUP1 DUP4 GT PUSH2 0x2DE JUMPI DUP3 SWAP1 SUB PUSH1 0x1F AND DUP3 ADD SWAP2 JUMPDEST POP POP POP POP POP DUP5 DUP3 DUP2 MLOAD DUP2 LT PUSH2 0x313 JUMPI PUSH2 0x312 PUSH2 0x12C6 JUMP JUMPDEST JUMPDEST PUSH1 0x20 MUL PUSH1 0x20 ADD ADD DUP2 SWAP1 MSTORE POP PUSH0 PUSH1 0x1 PUSH1 0x2 DUP4 DUP2 SLOAD DUP2 LT PUSH2 0x335 JUMPI PUSH2 0x334 PUSH2 0x12C6 JUMP JUMPDEST JUMPDEST SWAP1 PUSH0 MSTORE PUSH1 0x20 PUSH0 KECCAK256 ADD PUSH1 0x40 MLOAD PUSH2 0x34A SWAP2 SWAP1 PUSH2 0x13EC JUMP JUMPDEST SWAP1 DUP2 MSTORE PUSH1 0x20 ADD PUSH1 0x40 MLOAD DUP1 SWAP2 SUB SWAP1 KECCAK256 PUSH1 0x40 MLOAD DUP1 PUSH1 0x80 ADD PUSH1 0x40 MSTORE SWAP1 DUP2 PUSH0 DUP3 ADD DUP1 SLOAD PUSH2 0x372 SWAP1 PUSH2 0x1320 JUMP JUMPDEST DUP1 PUSH1 0x1F ADD PUSH1 0x20 DUP1 SWAP2 DIV MUL PUSH1 0x20 ADD PUSH1 0x40 MLOAD SWAP1 DUP2 ADD PUSH1 0x40 MSTORE DUP1 SWAP3 SWAP2 SWAP1 DUP2 DUP2 MSTORE PUSH1 0x20 ADD DUP3 DUP1 SLOAD PUSH2 0x39E SWAP1 PUSH2 0x1320 JUMP JUMPDEST DUP1 ISZERO PUSH2 0x3E9 JUMPI DUP1 PUSH1 0x1F LT PUSH2 0x3C0 JUMPI PUSH2 0x100 DUP1 DUP4 SLOAD DIV MUL DUP4 MSTORE SWAP2 PUSH1 0x20 ADD SWAP2 PUSH2 0x3E9 JUMP JUMPDEST DUP3 ADD SWAP2 SWAP1 PUSH0 MSTORE PUSH1 0x20 PUSH0 KECCAK256 SWAP1 JUMPDEST DUP2 SLOAD DUP2 MSTORE SWAP1 PUSH1 0x1 ADD SWAP1 PUSH1 0x20 ADD DUP1 DUP4 GT PUSH2 0x3CC JUMPI DUP3 SWAP1 SUB PUSH1 0x1F AND DUP3 ADD SWAP2 JUMPDEST POP POP POP POP POP DUP2 MSTORE PUSH1 0x20 ADD PUSH1 0x1 DUP3 ADD DUP1 SLOAD PUSH2 0x402 SWAP1 PUSH2 0x1320 JUMP JUMPDEST DUP1 PUSH1 0x1F ADD PUSH1 0x20 DUP1 SWAP2 DIV MUL PUSH1 0x20 ADD PUSH1 0x40 MLOAD SWAP1 DUP2 ADD PUSH1 0x40 MSTORE DUP1 SWAP3 SWAP2 SWAP1 DUP2 DUP2 MSTORE PUSH1 0x20 ADD DUP3 DUP1 SLOAD PUSH2 0x42E SWAP1 PUSH2 0x1320 JUMP JUMPDEST DUP1 ISZERO PUSH2 0x479 JUMPI DUP1 PUSH1 0x1F LT PUSH2 0x450 JUMPI PUSH2 0x100 DUP1 DUP4 SLOAD DIV MUL DUP4 MSTORE SWAP2 PUSH1 0x20 ADD SWAP2 PUSH2 0x479 JUMP JUMPDEST DUP3 ADD SWAP2 SWAP1 PUSH0 MSTORE PUSH1 0x20 PUSH0 KECCAK256 SWAP1 JUMPDEST DUP2 SLOAD DUP2 MSTORE SWAP1 PUSH1 0x1 ADD SWAP1 PUSH1 0x20 ADD DUP1 DUP4 GT PUSH2 0x45C JUMPI DUP3 SWAP1 SUB PUSH1 0x1F AND DUP3 ADD SWAP2 JUMPDEST POP POP POP POP POP DUP2 MSTORE PUSH1 0x20 ADD PUSH1 0x2 DUP3 ADD SLOAD DUP2 MSTORE PUSH1 0x20 ADD PUSH1 0x3 DUP3 ADD DUP1 SLOAD DUP1 PUSH1 0x20 MUL PUSH1 0x20 ADD PUSH1 0x40 MLOAD SWAP1 DUP2 ADD PUSH1 0x40 MSTORE DUP1 SWAP3 SWAP2 SWAP1 DUP2 DUP2 MSTORE PUSH1 0x20 ADD DUP3 DUP1 SLOAD DUP1 ISZERO PUSH2 0x4D9 JUMPI PUSH1 0x20 MUL DUP3 ADD SWAP2 SWAP1 PUSH0 MSTORE PUSH1 0x20 PUSH0 KECCAK256 SWAP1 JUMPDEST DUP2 SLOAD DUP2 MSTORE PUSH1 0x20 ADD SWAP1 PUSH1 0x1 ADD SWAP1 DUP1 DUP4 GT PUSH2 0x4C5 JUMPI JUMPDEST POP POP POP POP POP DUP2 MSTORE POP POP SWAP1 POP DUP1 PUSH1 0x20 ADD MLOAD DUP5 DUP4 DUP2 MLOAD DUP2 LT PUSH2 0x4FC JUMPI PUSH2 0x4FB PUSH2 0x12C6 JUMP JUMPDEST JUMPDEST PUSH1 0x20 MUL PUSH1 0x20 ADD ADD DUP2 SWAP1 MSTORE POP DUP1 PUSH1 0x40 ADD MLOAD DUP4 DUP4 DUP2 MLOAD DUP2 LT PUSH2 0x51F JUMPI PUSH2 0x51E PUSH2 0x12C6 JUMP JUMPDEST JUMPDEST PUSH1 0x20 MUL PUSH1 0x20 ADD ADD DUP2 DUP2 MSTORE POP POP POP DUP1 DUP1 PUSH1 0x1 ADD SWAP2 POP POP PUSH2 0x250 JUMP JUMPDEST POP DUP3 DUP3 DUP3 SWAP6 POP SWAP6 POP SWAP6 POP POP POP POP SWAP1 SWAP2 SWAP3 JUMP JUMPDEST PUSH1 0x40 MLOAD DUP1 PUSH1 0x20 ADD PUSH1 0x40 MSTORE DUP1 PUSH0 DUP2 MSTORE POP PUSH1 0x1 DUP4 DUP4 PUSH1 0x40 MLOAD PUSH2 0x56C SWAP3 SWAP2 SWAP1 PUSH2 0x1426 JUMP JUMPDEST SWAP1 DUP2 MSTORE PUSH1 0x20 ADD PUSH1 0x40 MLOAD DUP1 SWAP2 SUB SWAP1 KECCAK256 PUSH0 ADD SWAP1 DUP2 PUSH2 0x588 SWAP2 SWAP1 PUSH2 0x15C9 JUMP JUMPDEST POP PUSH0 JUMPDEST PUSH1 0x2 DUP1 SLOAD SWAP1 POP DUP2 LT ISZERO PUSH2 0x6C4 JUMPI DUP3 DUP3 PUSH1 0x40 MLOAD PUSH1 0x20 ADD PUSH2 0x5AB SWAP3 SWAP2 SWAP1 PUSH2 0x1426 JUMP JUMPDEST PUSH1 0x40 MLOAD PUSH1 0x20 DUP2 DUP4 SUB SUB DUP2 MSTORE SWAP1 PUSH1 0x40 MSTORE DUP1 MLOAD SWAP1 PUSH1 0x20 ADD KECCAK256 PUSH1 0x2 DUP3 DUP2 SLOAD DUP2 LT PUSH2 0x5D5 JUMPI PUSH2 0x5D4 PUSH2 0x12C6 JUMP JUMPDEST JUMPDEST SWAP1 PUSH0 MSTORE PUSH1 0x20 PUSH0 KECCAK256 ADD PUSH1 0x40 MLOAD PUSH1 0x20 ADD PUSH2 0x5ED SWAP2 SWAP1 PUSH2 0x13EC JUMP JUMPDEST PUSH1 0x40 MLOAD PUSH1 0x20 DUP2 DUP4 SUB SUB DUP2 MSTORE SWAP1 PUSH1 0x40 MSTORE DUP1 MLOAD SWAP1 PUSH1 0x20 ADD KECCAK256 SUB PUSH2 0x6B7 JUMPI PUSH0 DUP2 SWAP1 POP JUMPDEST PUSH1 0x1 PUSH1 0x2 DUP1 SLOAD SWAP1 POP PUSH2 0x61F SWAP2 SWAP1 PUSH2 0x16C5 JUMP JUMPDEST DUP2 LT ISZERO PUSH2 0x684 JUMPI PUSH1 0x2 PUSH1 0x1 DUP3 PUSH2 0x635 SWAP2 SWAP1 PUSH2 0x16F8 JUMP JUMPDEST DUP2 SLOAD DUP2 LT PUSH2 0x646 JUMPI PUSH2 0x645 PUSH2 0x12C6 JUMP JUMPDEST JUMPDEST SWAP1 PUSH0 MSTORE PUSH1 0x20 PUSH0 KECCAK256 ADD PUSH1 0x2 DUP3 DUP2 SLOAD DUP2 LT PUSH2 0x662 JUMPI PUSH2 0x661 PUSH2 0x12C6 JUMP JUMPDEST JUMPDEST SWAP1 PUSH0 MSTORE PUSH1 0x20 PUSH0 KECCAK256 ADD SWAP1 DUP2 PUSH2 0x676 SWAP2 SWAP1 PUSH2 0x1752 JUMP JUMPDEST POP DUP1 DUP1 PUSH1 0x1 ADD SWAP2 POP POP PUSH2 0x60D JUMP JUMPDEST POP PUSH1 0x2 DUP1 SLOAD DUP1 PUSH2 0x697 JUMPI PUSH2 0x696 PUSH2 0x1837 JUMP JUMPDEST JUMPDEST PUSH1 0x1 SWAP1 SUB DUP2 DUP2 SWAP1 PUSH0 MSTORE PUSH1 0x20 PUSH0 KECCAK256 ADD PUSH0 PUSH2 0x6B0 SWAP2 SWAP1 PUSH2 0xB8E JUMP JUMPDEST SWAP1 SSTORE PUSH2 0x6C4 JUMP JUMPDEST DUP1 DUP1 PUSH1 0x1 ADD SWAP2 POP POP PUSH2 0x58B JUMP JUMPDEST POP POP POP JUMP JUMPDEST PUSH1 0x60 PUSH0 DUP4 SWAP1 POP PUSH0 DUP4 SWAP1 POP PUSH0 DUP2 MLOAD DUP4 MLOAD PUSH2 0x6E2 SWAP2 SWAP1 PUSH2 0x16F8 JUMP JUMPDEST PUSH8 0xFFFFFFFFFFFFFFFF DUP2 GT ISZERO PUSH2 0x6FB JUMPI PUSH2 0x6FA PUSH2 0xEDC JUMP JUMPDEST JUMPDEST PUSH1 0x40 MLOAD SWAP1 DUP1 DUP3 MSTORE DUP1 PUSH1 0x1F ADD PUSH1 0x1F NOT AND PUSH1 0x20 ADD DUP3 ADD PUSH1 0x40 MSTORE DUP1 ISZERO PUSH2 0x72D JUMPI DUP2 PUSH1 0x20 ADD PUSH1 0x1 DUP3 MUL DUP1 CALLDATASIZE DUP4 CALLDATACOPY DUP1 DUP3 ADD SWAP2 POP POP SWAP1 POP JUMPDEST POP SWAP1 POP PUSH0 DUP2 SWAP1 POP PUSH0 DUP1 JUMPDEST DUP6 MLOAD DUP2 LT ISZERO PUSH2 0x7B8 JUMPI DUP6 DUP2 DUP2 MLOAD DUP2 LT PUSH2 0x753 JUMPI PUSH2 0x752 PUSH2 0x12C6 JUMP JUMPDEST JUMPDEST PUSH1 0x20 ADD ADD MLOAD PUSH1 0xF8 SHR PUSH1 0xF8 SHL DUP4 DUP4 DUP1 PUSH2 0x76A SWAP1 PUSH2 0x1864 JUMP JUMPDEST SWAP5 POP DUP2 MLOAD DUP2 LT PUSH2 0x77D JUMPI PUSH2 0x77C PUSH2 0x12C6 JUMP JUMPDEST JUMPDEST PUSH1 0x20 ADD ADD SWAP1 PUSH31 0xFFFFFFFFFFFFFFFFFFFFFFFFFFFFFFFFFFFFFFFFFFFFFFFFFFFFFFFFFFFFFF NOT AND SWAP1 DUP2 PUSH0 BYTE SWAP1 MSTORE8 POP DUP1 DUP1 PUSH1 0x1 ADD SWAP2 POP POP PUSH2 0x737 JUMP JUMPDEST POP PUSH0 JUMPDEST DUP5 MLOAD DUP2 LT ISZERO PUSH2 0x83C JUMPI DUP5 DUP2 DUP2 MLOAD DUP2 LT PUSH2 0x7D7 JUMPI PUSH2 0x7D6 PUSH2 0x12C6 JUMP JUMPDEST JUMPDEST PUSH1 0x20 ADD ADD MLOAD PUSH1 0xF8 SHR PUSH1 0xF8 SHL DUP4 DUP4 DUP1 PUSH2 0x7EE SWAP1 PUSH2 0x1864 JUMP JUMPDEST SWAP5 POP DUP2 MLOAD DUP2 LT PUSH2 0x801 JUMPI PUSH2 0x800 PUSH2 0x12C6 JUMP JUMPDEST JUMPDEST PUSH1 0x20 ADD ADD SWAP1 PUSH31 0xFFFFFFFFFFFFFFFFFFFFFFFFFFFFFFFFFFFFFFFFFFFFFFFFFFFFFFFFFFFFFF NOT AND SWAP1 DUP2 PUSH0 BYTE SWAP1 MSTORE8 POP DUP1 DUP1 PUSH1 0x1 ADD SWAP2 POP POP PUSH2 0x7BB JUMP JUMPDEST POP DUP2 SWAP6 POP POP POP POP POP POP SWAP3 SWAP2 POP POP JUMP JUMPDEST PUSH0 DUP1 PUSH1 0x1 DUP4 PUSH1 0x40 MLOAD PUSH2 0x85D SWAP2 SWAP1 PUSH2 0x18DB JUMP JUMPDEST SWAP1 DUP2 MSTORE PUSH1 0x20 ADD PUSH1 0x40 MLOAD DUP1 SWAP2 SUB SWAP1 KECCAK256 SWAP1 POP DUP1 PUSH0 ADD PUSH1 0x40 MLOAD PUSH1 0x20 ADD PUSH2 0x880 SWAP2 SWAP1 PUSH2 0x13EC JUMP JUMPDEST PUSH1 0x40 MLOAD PUSH1 0x20 DUP2 DUP4 SUB SUB DUP2 MSTORE SWAP1 PUSH1 0x40 MSTORE DUP1 MLOAD SWAP1 PUSH1 0x20 ADD KECCAK256 PUSH1 0x40 MLOAD PUSH1 0x20 ADD PUSH2 0x8A5 SWAP1 PUSH2 0x1914 JUMP JUMPDEST PUSH1 0x40 MLOAD PUSH1 0x20 DUP2 DUP4 SUB SUB DUP2 MSTORE SWAP1 PUSH1 0x40 MSTORE DUP1 MLOAD SWAP1 PUSH1 0x20 ADD KECCAK256 EQ SWAP2 POP POP SWAP2 SWAP1 POP JUMP JUMPDEST DUP7 DUP7 PUSH1 0x1 DUP10 DUP10 PUSH1 0x40 MLOAD PUSH2 0x8D8 SWAP3 SWAP2 SWAP1 PUSH2 0x1426 JUMP JUMPDEST SWAP1 DUP2 MSTORE PUSH1 0x20 ADD PUSH1 0x40 MLOAD DUP1 SWAP2 SUB SWAP1 KECCAK256 PUSH0 ADD SWAP2 DUP3 PUSH2 0x8F5 SWAP3 SWAP2 SWAP1 PUSH2 0x1932 JUMP JUMPDEST POP DUP5 DUP5 PUSH1 0x1 DUP10 DUP10 PUSH1 0x40 MLOAD PUSH2 0x90A SWAP3 SWAP2 SWAP1 PUSH2 0x1426 JUMP JUMPDEST SWAP1 DUP2 MSTORE PUSH1 0x20 ADD PUSH1 0x40 MLOAD DUP1 SWAP2 SUB SWAP1 KECCAK256 PUSH1 0x1 ADD SWAP2 DUP3 PUSH2 0x928 SWAP3 SWAP2 SWAP1 PUSH2 0x1932 JUMP JUMPDEST POP DUP3 PUSH1 0x1 DUP9 DUP9 PUSH1 0x40 MLOAD PUSH2 0x93C SWAP3 SWAP2 SWAP1 PUSH2 0x1426 JUMP JUMPDEST SWAP1 DUP2 MSTORE PUSH1 0x20 ADD PUSH1 0x40 MLOAD DUP1 SWAP2 SUB SWAP1 KECCAK256 PUSH1 0x2 ADD DUP2 SWAP1 SSTORE POP PUSH0 JUMPDEST DUP3 DUP3 SWAP1 POP DUP2 LT ISZERO PUSH2 0x9CB JUMPI PUSH1 0x1 DUP9 DUP9 PUSH1 0x40 MLOAD PUSH2 0x970 SWAP3 SWAP2 SWAP1 PUSH2 0x1426 JUMP JUMPDEST SWAP1 DUP2 MSTORE PUSH1 0x20 ADD PUSH1 0x40 MLOAD DUP1 SWAP2 SUB SWAP1 KECCAK256 PUSH1 0x3 ADD DUP4 DUP4 DUP4 DUP2 DUP2 LT PUSH2 0x994 JUMPI PUSH2 0x993 PUSH2 0x12C6 JUMP JUMPDEST JUMPDEST SWAP1 POP PUSH1 0x20 MUL ADD CALLDATALOAD SWAP1 DUP1 PUSH1 0x1 DUP2 SLOAD ADD DUP1 DUP3 SSTORE DUP1 SWAP2 POP POP PUSH1 0x1 SWAP1 SUB SWAP1 PUSH0 MSTORE PUSH1 0x20 PUSH0 KECCAK256 ADD PUSH0 SWAP1 SWAP2 SWAP1 SWAP2 SWAP1 SWAP2 POP SSTORE DUP1 DUP1 PUSH1 0x1 ADD SWAP2 POP POP PUSH2 0x953 JUMP JUMPDEST POP PUSH1 0x2 DUP8 DUP8 SWAP1 SWAP2 DUP1 PUSH1 0x1 DUP2 SLOAD ADD DUP1 DUP3 SSTORE DUP1 SWAP2 POP POP PUSH1 0x1 SWAP1 SUB SWAP1 PUSH0 MSTORE PUSH1 0x20 PUSH0 KECCAK256 ADD PUSH0 SWAP1 SWAP2 SWAP3 SWAP1 SWAP2 SWAP3 SWAP1 SWAP2 SWAP3 SWAP1 SWAP2 SWAP3 POP SWAP2 DUP3 PUSH2 0xA06 SWAP3 SWAP2 SWAP1 PUSH2 0x1932 JUMP JUMPDEST POP POP POP POP POP POP POP POP JUMP JUMPDEST PUSH1 0x60 PUSH0 DUP3 SUB PUSH2 0xA56 JUMPI PUSH1 0x40 MLOAD DUP1 PUSH1 0x40 ADD PUSH1 0x40 MSTORE DUP1 PUSH1 0x1 DUP2 MSTORE PUSH1 0x20 ADD PUSH32 0x3000000000000000000000000000000000000000000000000000000000000000 DUP2 MSTORE POP SWAP1 POP PUSH2 0xB89 JUMP JUMPDEST PUSH0 DUP3 SWAP1 POP PUSH0 JUMPDEST PUSH0 DUP3 EQ PUSH2 0xA85 JUMPI DUP1 DUP1 PUSH2 0xA6E SWAP1 PUSH2 0x1864 JUMP JUMPDEST SWAP2 POP POP PUSH1 0xA DUP3 PUSH2 0xA7E SWAP2 SWAP1 PUSH2 0x1A2C JUMP JUMPDEST SWAP2 POP PUSH2 0xA5C JUMP JUMPDEST PUSH0 DUP2 PUSH8 0xFFFFFFFFFFFFFFFF DUP2 GT ISZERO PUSH2 0xAA0 JUMPI PUSH2 0xA9F PUSH2 0xEDC JUMP JUMPDEST JUMPDEST PUSH1 0x40 MLOAD SWAP1 DUP1 DUP3 MSTORE DUP1 PUSH1 0x1F ADD PUSH1 0x1F NOT AND PUSH1 0x20 ADD DUP3 ADD PUSH1 0x40 MSTORE DUP1 ISZERO PUSH2 0xAD2 JUMPI DUP2 PUSH1 0x20 ADD PUSH1 0x1 DUP3 MUL DUP1 CALLDATASIZE DUP4 CALLDATACOPY DUP1 DUP3 ADD SWAP2 POP POP SWAP1 POP JUMPDEST POP SWAP1 POP PUSH0 DUP3 SWAP1 POP JUMPDEST PUSH0 DUP7 EQ PUSH2 0xB81 JUMPI PUSH1 0x1 DUP2 PUSH2 0xAEE SWAP2 SWAP1 PUSH2 0x16C5 JUMP JUMPDEST SWAP1 POP PUSH0 PUSH1 0xA DUP1 DUP9 PUSH2 0xAFF SWAP2 SWAP1 PUSH2 0x1A2C JUMP JUMPDEST PUSH2 0xB09 SWAP2 SWAP1 PUSH2 0x1A5C JUMP JUMPDEST DUP8 PUSH2 0xB14 SWAP2 SWAP1 PUSH2 0x16C5 JUMP JUMPDEST PUSH1 0x30 PUSH2 0xB20 SWAP2 SWAP1 PUSH2 0x1AA9 JUMP JUMPDEST SWAP1 POP PUSH0 DUP2 PUSH1 0xF8 SHL SWAP1 POP DUP1 DUP5 DUP5 DUP2 MLOAD DUP2 LT PUSH2 0xB3D JUMPI PUSH2 0xB3C PUSH2 0x12C6 JUMP JUMPDEST JUMPDEST PUSH1 0x20 ADD ADD SWAP1 PUSH31 0xFFFFFFFFFFFFFFFFFFFFFFFFFFFFFFFFFFFFFFFFFFFFFFFFFFFFFFFFFFFFFF NOT AND SWAP1 DUP2 PUSH0 BYTE SWAP1 MSTORE8 POP PUSH1 0xA DUP9 PUSH2 0xB78 SWAP2 SWAP1 PUSH2 0x1A2C JUMP JUMPDEST SWAP8 POP POP POP PUSH2 0xADA JUMP JUMPDEST DUP2 SWAP5 POP POP POP POP POP JUMPDEST SWAP2 SWAP1 POP JUMP JUMPDEST POP DUP1 SLOAD PUSH2 0xB9A SWAP1 PUSH2 0x1320 JUMP JUMPDEST PUSH0 DUP3 SSTORE DUP1 PUSH1 0x1F LT PUSH2 0xBAB JUMPI POP PUSH2 0xBC8 JUMP JUMPDEST PUSH1 0x1F ADD PUSH1 0x20 SWAP1 DIV SWAP1 PUSH0 MSTORE PUSH1 0x20 PUSH0 KECCAK256 SWAP1 DUP2 ADD SWAP1 PUSH2 0xBC7 SWAP2 SWAP1 PUSH2 0xBCB JUMP JUMPDEST JUMPDEST POP JUMP JUMPDEST JUMPDEST DUP1 DUP3 GT ISZERO PUSH2 0xBE2 JUMPI PUSH0 DUP2 PUSH0 SWAP1 SSTORE POP PUSH1 0x1 ADD PUSH2 0xBCC JUMP JUMPDEST POP SWAP1 JUMP JUMPDEST PUSH0 DUP2 MLOAD SWAP1 POP SWAP2 SWAP1 POP JUMP JUMPDEST PUSH0 DUP3 DUP3 MSTORE PUSH1 0x20 DUP3 ADD SWAP1 POP SWAP3 SWAP2 POP POP JUMP JUMPDEST PUSH0 DUP2 SWAP1 POP PUSH1 0x20 DUP3 ADD SWAP1 POP SWAP2 SWAP1 POP JUMP JUMPDEST PUSH0 DUP2 MLOAD SWAP1 POP SWAP2 SWAP1 POP JUMP JUMPDEST PUSH0 DUP3 DUP3 MSTORE PUSH1 0x20 DUP3 ADD SWAP1 POP SWAP3 SWAP2 POP POP JUMP JUMPDEST DUP3 DUP2 DUP4 MCOPY PUSH0 DUP4 DUP4 ADD MSTORE POP POP POP JUMP JUMPDEST PUSH0 PUSH1 0x1F NOT PUSH1 0x1F DUP4 ADD AND SWAP1 POP SWAP2 SWAP1 POP JUMP JUMPDEST PUSH0 PUSH2 0xC51 DUP3 PUSH2 0xC0F JUMP JUMPDEST PUSH2 0xC5B DUP2 DUP6 PUSH2 0xC19 JUMP JUMPDEST SWAP4 POP PUSH2 0xC6B DUP2 DUP6 PUSH1 0x20 DUP7 ADD PUSH2 0xC29 JUMP JUMPDEST PUSH2 0xC74 DUP2 PUSH2 0xC37 JUMP JUMPDEST DUP5 ADD SWAP2 POP POP SWAP3 SWAP2 POP POP JUMP JUMPDEST PUSH0 PUSH2 0xC8A DUP4 DUP4 PUSH2 0xC47 JUMP JUMPDEST SWAP1 POP SWAP3 SWAP2 POP POP JUMP JUMPDEST PUSH0 PUSH1 0x20 DUP3 ADD SWAP1 POP SWAP2 SWAP1 POP JUMP JUMPDEST PUSH0 PUSH2 0xCA8 DUP3 PUSH2 0xBE6 JUMP JUMPDEST PUSH2 0xCB2 DUP2 DUP6 PUSH2 0xBF0 JUMP JUMPDEST SWAP4 POP DUP4 PUSH1 0x20 DUP3 MUL DUP6 ADD PUSH2 0xCC4 DUP6 PUSH2 0xC00 JUMP JUMPDEST DUP1 PUSH0 JUMPDEST DUP6 DUP2 LT ISZERO PUSH2 0xCFF JUMPI DUP5 DUP5 SUB DUP10 MSTORE DUP2 MLOAD PUSH2 0xCE0 DUP6 DUP3 PUSH2 0xC7F JUMP JUMPDEST SWAP5 POP PUSH2 0xCEB DUP4 PUSH2 0xC92 JUMP JUMPDEST SWAP3 POP PUSH1 0x20 DUP11 ADD SWAP10 POP POP PUSH1 0x1 DUP2 ADD SWAP1 POP PUSH2 0xCC7 JUMP JUMPDEST POP DUP3 SWAP8 POP DUP8 SWAP6 POP POP POP POP POP POP SWAP3 SWAP2 POP POP JUMP JUMPDEST PUSH0 DUP2 MLOAD SWAP1 POP SWAP2 SWAP1 POP JUMP JUMPDEST PUSH0 DUP3 DUP3 MSTORE PUSH1 0x20 DUP3 ADD SWAP1 POP SWAP3 SWAP2 POP POP JUMP JUMPDEST PUSH0 DUP2 SWAP1 POP PUSH1 0x20 DUP3 ADD SWAP1 POP SWAP2 SWAP1 POP JUMP JUMPDEST PUSH0 DUP2 SWAP1 POP SWAP2 SWAP1 POP JUMP JUMPDEST PUSH2 0xD4C DUP2 PUSH2 0xD3A JUMP JUMPDEST DUP3 MSTORE POP POP JUMP JUMPDEST PUSH0 PUSH2 0xD5D DUP4 DUP4 PUSH2 0xD43 JUMP JUMPDEST PUSH1 0x20 DUP4 ADD SWAP1 POP SWAP3 SWAP2 POP POP JUMP JUMPDEST PUSH0 PUSH1 0x20 DUP3 ADD SWAP1 POP SWAP2 SWAP1 POP JUMP JUMPDEST PUSH0 PUSH2 0xD7F DUP3 PUSH2 0xD11 JUMP JUMPDEST PUSH2 0xD89 DUP2 DUP6 PUSH2 0xD1B JUMP JUMPDEST SWAP4 POP PUSH2 0xD94 DUP4 PUSH2 0xD2B JUMP JUMPDEST DUP1 PUSH0 JUMPDEST DUP4 DUP2 LT ISZERO PUSH2 0xDC4 JUMPI DUP2 MLOAD PUSH2 0xDAB DUP9 DUP3 PUSH2 0xD52 JUMP JUMPDEST SWAP8 POP PUSH2 0xDB6 DUP4 PUSH2 0xD69 JUMP JUMPDEST SWAP3 POP POP PUSH1 0x1 DUP2 ADD SWAP1 POP PUSH2 0xD97 JUMP JUMPDEST POP DUP6 SWAP4 POP POP POP POP SWAP3 SWAP2 POP POP JUMP JUMPDEST PUSH0 PUSH1 0x60 DUP3 ADD SWAP1 POP DUP2 DUP2 SUB PUSH0 DUP4 ADD MSTORE PUSH2 0xDE9 DUP2 DUP7 PUSH2 0xC9E JUMP JUMPDEST SWAP1 POP DUP2 DUP2 SUB PUSH1 0x20 DUP4 ADD MSTORE PUSH2 0xDFD DUP2 DUP6 PUSH2 0xC9E JUMP JUMPDEST SWAP1 POP DUP2 DUP2 SUB PUSH1 0x40 DUP4 ADD MSTORE PUSH2 0xE11 DUP2 DUP5 PUSH2 0xD75 JUMP JUMPDEST SWAP1 POP SWAP5 SWAP4 POP POP POP POP JUMP JUMPDEST PUSH0 PUSH1 0x40 MLOAD SWAP1 POP SWAP1 JUMP JUMPDEST PUSH0 DUP1 REVERT JUMPDEST PUSH0 DUP1 REVERT JUMPDEST PUSH0 DUP1 REVERT JUMPDEST PUSH0 DUP1 REVERT JUMPDEST PUSH0 DUP1 REVERT JUMPDEST PUSH0 DUP1 DUP4 PUSH1 0x1F DUP5 ADD SLT PUSH2 0xE4D JUMPI PUSH2 0xE4C PUSH2 0xE2C JUMP JUMPDEST JUMPDEST DUP3 CALLDATALOAD SWAP1 POP PUSH8 0xFFFFFFFFFFFFFFFF DUP2 GT ISZERO PUSH2 0xE6A JUMPI PUSH2 0xE69 PUSH2 0xE30 JUMP JUMPDEST JUMPDEST PUSH1 0x20 DUP4 ADD SWAP2 POP DUP4 PUSH1 0x1 DUP3 MUL DUP4 ADD GT ISZERO PUSH2 0xE86 JUMPI PUSH2 0xE85 PUSH2 0xE34 JUMP JUMPDEST JUMPDEST SWAP3 POP SWAP3 SWAP1 POP JUMP JUMPDEST PUSH0 DUP1 PUSH1 0x20 DUP4 DUP6 SUB SLT ISZERO PUSH2 0xEA3 JUMPI PUSH2 0xEA2 PUSH2 0xE24 JUMP JUMPDEST JUMPDEST PUSH0 DUP4 ADD CALLDATALOAD PUSH8 0xFFFFFFFFFFFFFFFF DUP2 GT ISZERO PUSH2 0xEC0 JUMPI PUSH2 0xEBF PUSH2 0xE28 JUMP JUMPDEST JUMPDEST PUSH2 0xECC DUP6 DUP3 DUP7 ADD PUSH2 0xE38 JUMP JUMPDEST SWAP3 POP SWAP3 POP POP SWAP3 POP SWAP3 SWAP1 POP JUMP JUMPDEST PUSH0 DUP1 REVERT JUMPDEST PUSH32 0x4E487B7100000000000000000000000000000000000000000000000000000000 PUSH0 MSTORE PUSH1 0x41 PUSH1 0x4 MSTORE PUSH1 0x24 PUSH0 REVERT JUMPDEST PUSH2 0xF12 DUP3 PUSH2 0xC37 JUMP JUMPDEST DUP2 ADD DUP2 DUP2 LT PUSH8 0xFFFFFFFFFFFFFFFF DUP3 GT OR ISZERO PUSH2 0xF31 JUMPI PUSH2 0xF30 PUSH2 0xEDC JUMP JUMPDEST JUMPDEST DUP1 PUSH1 0x40 MSTORE POP POP POP JUMP JUMPDEST PUSH0 PUSH2 0xF43 PUSH2 0xE1B JUMP JUMPDEST SWAP1 POP PUSH2 0xF4F DUP3 DUP3 PUSH2 0xF09 JUMP JUMPDEST SWAP2 SWAP1 POP JUMP JUMPDEST PUSH0 PUSH8 0xFFFFFFFFFFFFFFFF DUP3 GT ISZERO PUSH2 0xF6E JUMPI PUSH2 0xF6D PUSH2 0xEDC JUMP JUMPDEST JUMPDEST PUSH2 0xF77 DUP3 PUSH2 0xC37 JUMP JUMPDEST SWAP1 POP PUSH1 0x20 DUP2 ADD SWAP1 POP SWAP2 SWAP1 POP JUMP JUMPDEST DUP3 DUP2 DUP4 CALLDATACOPY PUSH0 DUP4 DUP4 ADD MSTORE POP POP POP JUMP JUMPDEST PUSH0 PUSH2 0xFA4 PUSH2 0xF9F DUP5 PUSH2 0xF54 JUMP JUMPDEST PUSH2 0xF3A JUMP JUMPDEST SWAP1 POP DUP3 DUP2 MSTORE PUSH1 0x20 DUP2 ADD DUP5 DUP5 DUP5 ADD GT ISZERO PUSH2 0xFC0 JUMPI PUSH2 0xFBF PUSH2 0xED8 JUMP JUMPDEST JUMPDEST PUSH2 0xFCB DUP5 DUP3 DUP6 PUSH2 0xF84 JUMP JUMPDEST POP SWAP4 SWAP3 POP POP POP JUMP JUMPDEST PUSH0 DUP3 PUSH1 0x1F DUP4 ADD SLT PUSH2 0xFE7 JUMPI PUSH2 0xFE6 PUSH2 0xE2C JUMP JUMPDEST JUMPDEST DUP2 CALLDATALOAD PUSH2 0xFF7 DUP5 DUP3 PUSH1 0x20 DUP7 ADD PUSH2 0xF92 JUMP JUMPDEST SWAP2 POP POP SWAP3 SWAP2 POP POP JUMP JUMPDEST PUSH0 DUP1 PUSH1 0x40 DUP4 DUP6 SUB SLT ISZERO PUSH2 0x1016 JUMPI PUSH2 0x1015 PUSH2 0xE24 JUMP JUMPDEST JUMPDEST PUSH0 DUP4 ADD CALLDATALOAD PUSH8 0xFFFFFFFFFFFFFFFF DUP2 GT ISZERO PUSH2 0x1033 JUMPI PUSH2 0x1032 PUSH2 0xE28 JUMP JUMPDEST JUMPDEST PUSH2 0x103F DUP6 DUP3 DUP7 ADD PUSH2 0xFD3 JUMP JUMPDEST SWAP3 POP POP PUSH1 0x20 DUP4 ADD CALLDATALOAD PUSH8 0xFFFFFFFFFFFFFFFF DUP2 GT ISZERO PUSH2 0x1060 JUMPI PUSH2 0x105F PUSH2 0xE28 JUMP JUMPDEST JUMPDEST PUSH2 0x106C DUP6 DUP3 DUP7 ADD PUSH2 0xFD3 JUMP JUMPDEST SWAP2 POP POP SWAP3 POP SWAP3 SWAP1 POP JUMP JUMPDEST PUSH0 DUP3 DUP3 MSTORE PUSH1 0x20 DUP3 ADD SWAP1 POP SWAP3 SWAP2 POP POP JUMP JUMPDEST PUSH0 PUSH2 0x1090 DUP3 PUSH2 0xC0F JUMP JUMPDEST PUSH2 0x109A DUP2 DUP6 PUSH2 0x1076 JUMP JUMPDEST SWAP4 POP PUSH2 0x10AA DUP2 DUP6 PUSH1 0x20 DUP7 ADD PUSH2 0xC29 JUMP JUMPDEST PUSH2 0x10B3 DUP2 PUSH2 0xC37 JUMP JUMPDEST DUP5 ADD SWAP2 POP POP SWAP3 SWAP2 POP POP JUMP JUMPDEST PUSH0 PUSH1 0x20 DUP3 ADD SWAP1 POP DUP2 DUP2 SUB PUSH0 DUP4 ADD MSTORE PUSH2 0x10D6 DUP2 DUP5 PUSH2 0x1086 JUMP JUMPDEST SWAP1 POP SWAP3 SWAP2 POP POP JUMP JUMPDEST PUSH0 PUSH1 0x20 DUP3 DUP5 SUB SLT ISZERO PUSH2 0x10F3 JUMPI PUSH2 0x10F2 PUSH2 0xE24 JUMP JUMPDEST JUMPDEST PUSH0 DUP3 ADD CALLDATALOAD PUSH8 0xFFFFFFFFFFFFFFFF DUP2 GT ISZERO PUSH2 0x1110 JUMPI PUSH2 0x110F PUSH2 0xE28 JUMP JUMPDEST JUMPDEST PUSH2 0x111C DUP5 DUP3 DUP6 ADD PUSH2 0xFD3 JUMP JUMPDEST SWAP2 POP POP SWAP3 SWAP2 POP POP JUMP JUMPDEST PUSH0 DUP2 ISZERO ISZERO SWAP1 POP SWAP2 SWAP1 POP JUMP JUMPDEST PUSH2 0x1139 DUP2 PUSH2 0x1125 JUMP JUMPDEST DUP3 MSTORE POP POP JUMP JUMPDEST PUSH0 PUSH1 0x20 DUP3 ADD SWAP1 POP PUSH2 0x1152 PUSH0 DUP4 ADD DUP5 PUSH2 0x1130 JUMP JUMPDEST SWAP3 SWAP2 POP POP JUMP JUMPDEST PUSH2 0x1161 DUP2 PUSH2 0xD3A JUMP JUMPDEST DUP2 EQ PUSH2 0x116B JUMPI PUSH0 DUP1 REVERT JUMPDEST POP JUMP JUMPDEST PUSH0 DUP2 CALLDATALOAD SWAP1 POP PUSH2 0x117C DUP2 PUSH2 0x1158 JUMP JUMPDEST SWAP3 SWAP2 POP POP JUMP JUMPDEST PUSH0 DUP1 DUP4 PUSH1 0x1F DUP5 ADD SLT PUSH2 0x1197 JUMPI PUSH2 0x1196 PUSH2 0xE2C JUMP JUMPDEST JUMPDEST DUP3 CALLDATALOAD SWAP1 POP PUSH8 0xFFFFFFFFFFFFFFFF DUP2 GT ISZERO PUSH2 0x11B4 JUMPI PUSH2 0x11B3 PUSH2 0xE30 JUMP JUMPDEST JUMPDEST PUSH1 0x20 DUP4 ADD SWAP2 POP DUP4 PUSH1 0x20 DUP3 MUL DUP4 ADD GT ISZERO PUSH2 0x11D0 JUMPI PUSH2 0x11CF PUSH2 0xE34 JUMP JUMPDEST JUMPDEST SWAP3 POP SWAP3 SWAP1 POP JUMP JUMPDEST PUSH0 DUP1 PUSH0 DUP1 PUSH0 DUP1 PUSH0 PUSH1 0x80 DUP9 DUP11 SUB SLT ISZERO PUSH2 0x11F2 JUMPI PUSH2 0x11F1 PUSH2 0xE24 JUMP JUMPDEST JUMPDEST PUSH0 DUP9 ADD CALLDATALOAD PUSH8 0xFFFFFFFFFFFFFFFF DUP2 GT ISZERO PUSH2 0x120F JUMPI PUSH2 0x120E PUSH2 0xE28 JUMP JUMPDEST JUMPDEST PUSH2 0x121B DUP11 DUP3 DUP12 ADD PUSH2 0xE38 JUMP JUMPDEST SWAP8 POP SWAP8 POP POP PUSH1 0x20 DUP9 ADD CALLDATALOAD PUSH8 0xFFFFFFFFFFFFFFFF DUP2 GT ISZERO PUSH2 0x123E JUMPI PUSH2 0x123D PUSH2 0xE28 JUMP JUMPDEST JUMPDEST PUSH2 0x124A DUP11 DUP3 DUP12 ADD PUSH2 0xE38 JUMP JUMPDEST SWAP6 POP SWAP6 POP POP PUSH1 0x40 PUSH2 0x125D DUP11 DUP3 DUP12 ADD PUSH2 0x116E JUMP JUMPDEST SWAP4 POP POP PUSH1 0x60 DUP9 ADD CALLDATALOAD PUSH8 0xFFFFFFFFFFFFFFFF DUP2 GT ISZERO PUSH2 0x127E JUMPI PUSH2 0x127D PUSH2 0xE28 JUMP JUMPDEST JUMPDEST PUSH2 0x128A DUP11 DUP3 DUP12 ADD PUSH2 0x1182 JUMP JUMPDEST SWAP3 POP SWAP3 POP POP SWAP3 SWAP6 SWAP9 SWAP2 SWAP5 SWAP8 POP SWAP3 SWAP6 POP JUMP JUMPDEST PUSH0 PUSH1 0x20 DUP3 DUP5 SUB SLT ISZERO PUSH2 0x12B0 JUMPI PUSH2 0x12AF PUSH2 0xE24 JUMP JUMPDEST JUMPDEST PUSH0 PUSH2 0x12BD DUP5 DUP3 DUP6 ADD PUSH2 0x116E JUMP JUMPDEST SWAP2 POP POP SWAP3 SWAP2 POP POP JUMP JUMPDEST PUSH32 0x4E487B7100000000000000000000000000000000000000000000000000000000 PUSH0 MSTORE PUSH1 0x32 PUSH1 0x4 MSTORE PUSH1 0x24 PUSH0 REVERT JUMPDEST PUSH32 0x4E487B7100000000000000000000000000000000000000000000000000000000 PUSH0 MSTORE PUSH1 0x22 PUSH1 0x4 MSTORE PUSH1 0x24 PUSH0 REVERT JUMPDEST PUSH0 PUSH1 0x2 DUP3 DIV SWAP1 POP PUSH1 0x1 DUP3 AND DUP1 PUSH2 0x1337 JUMPI PUSH1 0x7F DUP3 AND SWAP2 POP JUMPDEST PUSH1 0x20 DUP3 LT DUP2 SUB PUSH2 0x134A JUMPI PUSH2 0x1349 PUSH2 0x12F3 JUMP JUMPDEST JUMPDEST POP SWAP2 SWAP1 POP JUMP JUMPDEST PUSH0 DUP2 SWAP1 POP SWAP3 SWAP2 POP POP JUMP JUMPDEST PUSH0 DUP2 SWAP1 POP DUP2 PUSH0 MSTORE PUSH1 0x20 PUSH0 KECCAK256 SWAP1 POP SWAP2 SWAP1 POP JUMP JUMPDEST PUSH0 DUP2 SLOAD PUSH2 0x1378 DUP2 PUSH2 0x1320 JUMP JUMPDEST PUSH2 0x1382 DUP2 DUP7 PUSH2 0x1350 JUMP JUMPDEST SWAP5 POP PUSH1 0x1 DUP3 AND PUSH0 DUP2 EQ PUSH2 0x139C JUMPI PUSH1 0x1 DUP2 EQ PUSH2 0x13B1 JUMPI PUSH2 0x13E3 JUMP JUMPDEST PUSH1 0xFF NOT DUP4 AND DUP7 MSTORE DUP2 ISZERO ISZERO DUP3 MUL DUP7 ADD SWAP4 POP PUSH2 0x13E3 JUMP JUMPDEST PUSH2 0x13BA DUP6 PUSH2 0x135A JUMP JUMPDEST PUSH0 JUMPDEST DUP4 DUP2 LT ISZERO PUSH2 0x13DB JUMPI DUP2 SLOAD DUP2 DUP10 ADD MSTORE PUSH1 0x1 DUP3 ADD SWAP2 POP PUSH1 0x20 DUP2 ADD SWAP1 POP PUSH2 0x13BC JUMP JUMPDEST DUP4 DUP9 ADD SWAP6 POP POP POP JUMPDEST POP POP POP SWAP3 SWAP2 POP POP JUMP JUMPDEST PUSH0 PUSH2 0x13F7 DUP3 DUP5 PUSH2 0x136C JUMP JUMPDEST SWAP2 POP DUP2 SWAP1 POP SWAP3 SWAP2 POP POP JUMP JUMPDEST PUSH0 PUSH2 0x140D DUP4 DUP6 PUSH2 0x1350 JUMP JUMPDEST SWAP4 POP PUSH2 0x141A DUP4 DUP6 DUP5 PUSH2 0xF84 JUMP JUMPDEST DUP3 DUP5 ADD SWAP1 POP SWAP4 SWAP3 POP POP POP JUMP JUMPDEST PUSH0 PUSH2 0x1432 DUP3 DUP5 DUP7 PUSH2 0x1402 JUMP JUMPDEST SWAP2 POP DUP2 SWAP1 POP SWAP4 SWAP3 POP POP POP JUMP JUMPDEST PUSH0 PUSH1 0x20 PUSH1 0x1F DUP4 ADD DIV SWAP1 POP SWAP2 SWAP1 POP JUMP JUMPDEST PUSH0 DUP3 DUP3 SHL SWAP1 POP SWAP3 SWAP2 POP POP JUMP JUMPDEST PUSH0 PUSH1 0x8 DUP4 MUL PUSH2 0x1488 PUSH32 0xFFFFFFFFFFFFFFFFFFFFFFFFFFFFFFFFFFFFFFFFFFFFFFFFFFFFFFFFFFFFFFFF DUP3 PUSH2 0x144D JUMP JUMPDEST PUSH2 0x1492 DUP7 DUP4 PUSH2 0x144D JUMP JUMPDEST SWAP6 POP DUP1 NOT DUP5 AND SWAP4 POP DUP1 DUP7 AND DUP5 OR SWAP3 POP POP POP SWAP4 SWAP3 POP POP POP JUMP JUMPDEST PUSH0 DUP2 SWAP1 POP SWAP2 SWAP1 POP JUMP JUMPDEST PUSH0 PUSH2 0x14CD PUSH2 0x14C8 PUSH2 0x14C3 DUP5 PUSH2 0xD3A JUMP JUMPDEST PUSH2 0x14AA JUMP JUMPDEST PUSH2 0xD3A JUMP JUMPDEST SWAP1 POP SWAP2 SWAP1 POP JUMP JUMPDEST PUSH0 DUP2 SWAP1 POP SWAP2 SWAP1 POP JUMP JUMPDEST PUSH2 0x14E6 DUP4 PUSH2 0x14B3 JUMP JUMPDEST PUSH2 0x14FA PUSH2 0x14F2 DUP3 PUSH2 0x14D4 JUMP JUMPDEST DUP5 DUP5 SLOAD PUSH2 0x1459 JUMP JUMPDEST DUP3 SSTORE POP POP POP POP JUMP JUMPDEST PUSH0 SWAP1 JUMP JUMPDEST PUSH2 0x150E PUSH2 0x1502 JUMP JUMPDEST PUSH2 0x1519 DUP2 DUP5 DUP5 PUSH2 0x14DD JUMP JUMPDEST POP POP POP JUMP JUMPDEST JUMPDEST DUP2 DUP2 LT ISZERO PUSH2 0x153C JUMPI PUSH2 0x1531 PUSH0 DUP3 PUSH2 0x1506 JUMP JUMPDEST PUSH1 0x1 DUP2 ADD SWAP1 POP PUSH2 0x151F JUMP JUMPDEST POP POP JUMP JUMPDEST PUSH1 0x1F DUP3 GT ISZERO PUSH2 0x1581 JUMPI PUSH2 0x1552 DUP2 PUSH2 0x135A JUMP JUMPDEST PUSH2 0x155B DUP5 PUSH2 0x143E JUMP JUMPDEST DUP2 ADD PUSH1 0x20 DUP6 LT ISZERO PUSH2 0x156A JUMPI DUP2 SWAP1 POP JUMPDEST PUSH2 0x157E PUSH2 0x1576 DUP6 PUSH2 0x143E JUMP JUMPDEST DUP4 ADD DUP3 PUSH2 0x151E JUMP JUMPDEST POP POP JUMPDEST POP POP POP JUMP JUMPDEST PUSH0 DUP3 DUP3 SHR SWAP1 POP SWAP3 SWAP2 POP POP JUMP JUMPDEST PUSH0 PUSH2 0x15A1 PUSH0 NOT DUP5 PUSH1 0x8 MUL PUSH2 0x1586 JUMP JUMPDEST NOT DUP1 DUP4 AND SWAP2 POP POP SWAP3 SWAP2 POP POP JUMP JUMPDEST PUSH0 PUSH2 0x15B9 DUP4 DUP4 PUSH2 0x1592 JUMP JUMPDEST SWAP2 POP DUP3 PUSH1 0x2 MUL DUP3 OR SWAP1 POP SWAP3 SWAP2 POP POP JUMP JUMPDEST PUSH2 0x15D2 DUP3 PUSH2 0xC0F JUMP JUMPDEST PUSH8 0xFFFFFFFFFFFFFFFF DUP2 GT ISZERO PUSH2 0x15EB JUMPI PUSH2 0x15EA PUSH2 0xEDC JUMP JUMPDEST JUMPDEST PUSH2 0x15F5 DUP3 SLOAD PUSH2 0x1320 JUMP JUMPDEST PUSH2 0x1600 DUP3 DUP3 DUP6 PUSH2 0x1540 JUMP JUMPDEST PUSH0 PUSH1 0x20 SWAP1 POP PUSH1 0x1F DUP4 GT PUSH1 0x1 DUP2 EQ PUSH2 0x1631 JUMPI PUSH0 DUP5 ISZERO PUSH2 0x161F JUMPI DUP3 DUP8 ADD MLOAD SWAP1 POP JUMPDEST PUSH2 0x1629 DUP6 DUP3 PUSH2 0x15AE JUMP JUMPDEST DUP7 SSTORE POP PUSH2 0x1690 JUMP JUMPDEST PUSH1 0x1F NOT DUP5 AND PUSH2 0x163F DUP7 PUSH2 0x135A JUMP JUMPDEST PUSH0 JUMPDEST DUP3 DUP2 LT ISZERO PUSH2 0x1666 JUMPI DUP5 DUP10 ADD MLOAD DUP3 SSTORE PUSH1 0x1 DUP3 ADD SWAP2 POP PUSH1 0x20 DUP6 ADD SWAP5 POP PUSH1 0x20 DUP2 ADD SWAP1 POP PUSH2 0x1641 JUMP JUMPDEST DUP7 DUP4 LT ISZERO PUSH2 0x1683 JUMPI DUP5 DUP10 ADD MLOAD PUSH2 0x167F PUSH1 0x1F DUP10 AND DUP3 PUSH2 0x1592 JUMP JUMPDEST DUP4 SSTORE POP JUMPDEST PUSH1 0x1 PUSH1 0x2 DUP9 MUL ADD DUP9 SSTORE POP POP POP JUMPDEST POP POP POP POP POP POP JUMP JUMPDEST PUSH32 0x4E487B7100000000000000000000000000000000000000000000000000000000 PUSH0 MSTORE PUSH1 0x11 PUSH1 0x4 MSTORE PUSH1 0x24 PUSH0 REVERT JUMPDEST PUSH0 PUSH2 0x16CF DUP3 PUSH2 0xD3A JUMP JUMPDEST SWAP2 POP PUSH2 0x16DA DUP4 PUSH2 0xD3A JUMP JUMPDEST SWAP3 POP DUP3 DUP3 SUB SWAP1 POP DUP2 DUP2 GT ISZERO PUSH2 0x16F2 JUMPI PUSH2 0x16F1 PUSH2 0x1698 JUMP JUMPDEST JUMPDEST SWAP3 SWAP2 POP POP JUMP JUMPDEST PUSH0 PUSH2 0x1702 DUP3 PUSH2 0xD3A JUMP JUMPDEST SWAP2 POP PUSH2 0x170D DUP4 PUSH2 0xD3A JUMP JUMPDEST SWAP3 POP DUP3 DUP3 ADD SWAP1 POP DUP1 DUP3 GT ISZERO PUSH2 0x1725 JUMPI PUSH2 0x1724 PUSH2 0x1698 JUMP JUMPDEST JUMPDEST SWAP3 SWAP2 POP POP JUMP JUMPDEST PUSH0 DUP2 SLOAD SWAP1 POP PUSH2 0x1739 DUP2 PUSH2 0x1320 JUMP JUMPDEST SWAP1 POP SWAP2 SWAP1 POP JUMP JUMPDEST PUSH0 DUP2 SWAP1 POP DUP2 PUSH0 MSTORE PUSH1 0x20 PUSH0 KECCAK256 SWAP1 POP SWAP2 SWAP1 POP JUMP JUMPDEST DUP2 DUP2 SUB PUSH2 0x1760 JUMPI POP POP PUSH2 0x1835 JUMP JUMPDEST PUSH2 0x1769 DUP3 PUSH2 0x172B JUMP JUMPDEST PUSH8 0xFFFFFFFFFFFFFFFF DUP2 GT ISZERO PUSH2 0x1782 JUMPI PUSH2 0x1781 PUSH2 0xEDC JUMP JUMPDEST JUMPDEST PUSH2 0x178C DUP3 SLOAD PUSH2 0x1320 JUMP JUMPDEST PUSH2 0x1797 DUP3 DUP3 DUP6 PUSH2 0x1540 JUMP JUMPDEST PUSH0 PUSH1 0x1F DUP4 GT PUSH1 0x1 DUP2 EQ PUSH2 0x17C4 JUMPI PUSH0 DUP5 ISZERO PUSH2 0x17B2 JUMPI DUP3 DUP8 ADD SLOAD SWAP1 POP JUMPDEST PUSH2 0x17BC DUP6 DUP3 PUSH2 0x15AE JUMP JUMPDEST DUP7 SSTORE POP PUSH2 0x182E JUMP JUMPDEST PUSH1 0x1F NOT DUP5 AND PUSH2 0x17D2 DUP8 PUSH2 0x1740 JUMP JUMPDEST SWAP7 POP PUSH2 0x17DD DUP7 PUSH2 0x135A JUMP JUMPDEST PUSH0 JUMPDEST DUP3 DUP2 LT ISZERO PUSH2 0x1804 JUMPI DUP5 DUP10 ADD SLOAD DUP3 SSTORE PUSH1 0x1 DUP3 ADD SWAP2 POP PUSH1 0x1 DUP6 ADD SWAP5 POP PUSH1 0x20 DUP2 ADD SWAP1 POP PUSH2 0x17DF JUMP JUMPDEST DUP7 DUP4 LT ISZERO PUSH2 0x1821 JUMPI DUP5 DUP10 ADD SLOAD PUSH2 0x181D PUSH1 0x1F DUP10 AND DUP3 PUSH2 0x1592 JUMP JUMPDEST DUP4 SSTORE POP JUMPDEST PUSH1 0x1 PUSH1 0x2 DUP9 MUL ADD DUP9 SSTORE POP POP POP JUMPDEST POP POP POP POP POP POP JUMPDEST JUMP JUMPDEST PUSH32 0x4E487B7100000000000000000000000000000000000000000000000000000000 PUSH0 MSTORE PUSH1 0x31 PUSH1 0x4 MSTORE PUSH1 0x24 PUSH0 REVERT JUMPDEST PUSH0 PUSH2 0x186E DUP3 PUSH2 0xD3A JUMP JUMPDEST SWAP2 POP PUSH32 0xFFFFFFFFFFFFFFFFFFFFFFFFFFFFFFFFFFFFFFFFFFFFFFFFFFFFFFFFFFFFFFFF DUP3 SUB PUSH2 0x18A0 JUMPI PUSH2 0x189F PUSH2 0x1698 JUMP JUMPDEST JUMPDEST PUSH1 0x1 DUP3 ADD SWAP1 POP SWAP2 SWAP1 POP JUMP JUMPDEST PUSH0 PUSH2 0x18B5 DUP3 PUSH2 0xC0F JUMP JUMPDEST PUSH2 0x18BF DUP2 DUP6 PUSH2 0x1350 JUMP JUMPDEST SWAP4 POP PUSH2 0x18CF DUP2 DUP6 PUSH1 0x20 DUP7 ADD PUSH2 0xC29 JUMP JUMPDEST DUP1 DUP5 ADD SWAP2 POP POP SWAP3 SWAP2 POP POP JUMP JUMPDEST PUSH0 PUSH2 0x18E6 DUP3 DUP5 PUSH2 0x18AB JUMP JUMPDEST SWAP2 POP DUP2 SWAP1 POP SWAP3 SWAP2 POP POP JUMP JUMPDEST POP JUMP JUMPDEST PUSH0 PUSH2 0x18FF PUSH0 DUP4 PUSH2 0x1350 JUMP JUMPDEST SWAP2 POP PUSH2 0x190A DUP3 PUSH2 0x18F1 JUMP JUMPDEST PUSH0 DUP3 ADD SWAP1 POP SWAP2 SWAP1 POP JUMP JUMPDEST PUSH0 PUSH2 0x191E DUP3 PUSH2 0x18F4 JUMP JUMPDEST SWAP2 POP DUP2 SWAP1 POP SWAP2 SWAP1 POP JUMP JUMPDEST PUSH0 DUP3 SWAP1 POP SWAP3 SWAP2 POP POP JUMP JUMPDEST PUSH2 0x193C DUP4 DUP4 PUSH2 0x1928 JUMP JUMPDEST PUSH8 0xFFFFFFFFFFFFFFFF DUP2 GT ISZERO PUSH2 0x1955 JUMPI PUSH2 0x1954 PUSH2 0xEDC JUMP JUMPDEST JUMPDEST PUSH2 0x195F DUP3 SLOAD PUSH2 0x1320 JUMP JUMPDEST PUSH2 0x196A DUP3 DUP3 DUP6 PUSH2 0x1540 JUMP JUMPDEST PUSH0 PUSH1 0x1F DUP4 GT PUSH1 0x1 DUP2 EQ PUSH2 0x1997 JUMPI PUSH0 DUP5 ISZERO PUSH2 0x1985 JUMPI DUP3 DUP8 ADD CALLDATALOAD SWAP1 POP JUMPDEST PUSH2 0x198F DUP6 DUP3 PUSH2 0x15AE JUMP JUMPDEST DUP7 SSTORE POP PUSH2 0x19F6 JUMP JUMPDEST PUSH1 0x1F NOT DUP5 AND PUSH2 0x19A5 DUP7 PUSH2 0x135A JUMP JUMPDEST PUSH0 JUMPDEST DUP3 DUP2 LT ISZERO PUSH2 0x19CC JUMPI DUP5 DUP10 ADD CALLDATALOAD DUP3 SSTORE PUSH1 0x1 DUP3 ADD SWAP2 POP PUSH1 0x20 DUP6 ADD SWAP5 POP PUSH1 0x20 DUP2 ADD SWAP1 POP PUSH2 0x19A7 JUMP JUMPDEST DUP7 DUP4 LT ISZERO PUSH2 0x19E9 JUMPI DUP5 DUP10 ADD CALLDATALOAD PUSH2 0x19E5 PUSH1 0x1F DUP10 AND DUP3 PUSH2 0x1592 JUMP JUMPDEST DUP4 SSTORE POP JUMPDEST PUSH1 0x1 PUSH1 0x2 DUP9 MUL ADD DUP9 SSTORE POP POP POP JUMPDEST POP POP POP POP POP POP POP JUMP JUMPDEST PUSH32 0x4E487B7100000000000000000000000000000000000000000000000000000000 PUSH0 MSTORE PUSH1 0x12 PUSH1 0x4 MSTORE PUSH1 0x24 PUSH0 REVERT JUMPDEST PUSH0 PUSH2 0x1A36 DUP3 PUSH2 0xD3A JUMP JUMPDEST SWAP2 POP PUSH2 0x1A41 DUP4 PUSH2 0xD3A JUMP JUMPDEST SWAP3 POP DUP3 PUSH2 0x1A51 JUMPI PUSH2 0x1A50 PUSH2 0x19FF JUMP JUMPDEST JUMPDEST DUP3 DUP3 DIV SWAP1 POP SWAP3 SWAP2 POP POP JUMP JUMPDEST PUSH0 PUSH2 0x1A66 DUP3 PUSH2 0xD3A JUMP JUMPDEST SWAP2 POP PUSH2 0x1A71 DUP4 PUSH2 0xD3A JUMP JUMPDEST SWAP3 POP DUP3 DUP3 MUL PUSH2 0x1A7F DUP2 PUSH2 0xD3A JUMP JUMPDEST SWAP2 POP DUP3 DUP3 DIV DUP5 EQ DUP4 ISZERO OR PUSH2 0x1A96 JUMPI PUSH2 0x1A95 PUSH2 0x1698 JUMP JUMPDEST JUMPDEST POP SWAP3 SWAP2 POP POP JUMP JUMPDEST PUSH0 PUSH1 0xFF DUP3 AND SWAP1 POP SWAP2 SWAP1 POP JUMP JUMPDEST PUSH0 PUSH2 0x1AB3 DUP3 PUSH2 0x1A9D JUMP JUMPDEST SWAP2 POP PUSH2 0x1ABE DUP4 PUSH2 0x1A9D JUMP JUMPDEST SWAP3 POP DUP3 DUP3 ADD SWAP1 POP PUSH1 0xFF DUP2 GT ISZERO PUSH2 0x1AD7 JUMPI PUSH2 0x1AD6 PUSH2 0x1698 JUMP JUMPDEST JUMPDEST SWAP3 SWAP2 POP POP JUMP INVALID LOG2 PUSH5 0x6970667358 0x22 SLT KECCAK256 0xC0 0xAF ORIGIN CALL 0xA9 DUP15 0xAD MLOAD 0xB8 BYTE MSIZE 0xC3 EXTCODECOPY ADDRESS PUSH14 0x87102E71EACB27373ED9230EAEC7 NUMBER JUMP 0xEE PUSH5 0x736F6C6343 STOP ADDMOD NOT STOP CALLER "
				},
				"gasEstimates": {
					"creation": {
						"codeDepositCost": "1386200",
						"executionCost": "25707",
						"totalCost": "1411907"
					},
					"external": {
						"addGolfCourse(string,string,uint256,uint256[])": "infinite",
						"concatenateStrings(string,string)": "infinite",
						"deleteCourse(string)": "infinite",
						"getGolfCourses()": "infinite",
						"isCourseExtant(string)": "infinite",
						"uintToString(uint256)": "infinite"
					}
				},
				"methodIdentifiers": {
					"addGolfCourse(string,string,uint256,uint256[])": "adb5097f",
					"concatenateStrings(string,string)": "7a36b3ee",
					"deleteCourse(string)": "3e6b6de2",
					"getGolfCourses()": "18bc8216",
					"isCourseExtant(string)": "9e5b4fe4",
					"uintToString(uint256)": "e9395679"
				}
			},
			"storageLayout": {
				"storage": [
					{
						"astId": 3,
						"contract": "contracts/CourseManager.sol:CourseManager",
						"label": "owner",
						"offset": 0,
						"slot": "0",
						"type": "t_address"
					},
					{
						"astId": 220,
						"contract": "contracts/CourseManager.sol:CourseManager",
						"label": "golfCourses",
						"offset": 0,
						"slot": "1",
						"type": "t_mapping(t_string_memory_ptr,t_struct(GolfCourse)215_storage)"
					},
					{
						"astId": 223,
						"contract": "contracts/CourseManager.sol:CourseManager",
						"label": "golfCourseKeys",
						"offset": 0,
						"slot": "2",
						"type": "t_array(t_string_storage)dyn_storage"
					}
				],
				"types": {
					"t_address": {
						"encoding": "inplace",
						"label": "address",
						"numberOfBytes": "20"
					},
					"t_array(t_string_storage)dyn_storage": {
						"base": "t_string_storage",
						"encoding": "dynamic_array",
						"label": "string[]",
						"numberOfBytes": "32"
					},
					"t_array(t_uint256)dyn_storage": {
						"base": "t_uint256",
						"encoding": "dynamic_array",
						"label": "uint256[]",
						"numberOfBytes": "32"
					},
					"t_mapping(t_string_memory_ptr,t_struct(GolfCourse)215_storage)": {
						"encoding": "mapping",
						"key": "t_string_memory_ptr",
						"label": "mapping(string => struct CourseManager.GolfCourse)",
						"numberOfBytes": "32",
						"value": "t_struct(GolfCourse)215_storage"
					},
					"t_string_memory_ptr": {
						"encoding": "bytes",
						"label": "string",
						"numberOfBytes": "32"
					},
					"t_string_storage": {
						"encoding": "bytes",
						"label": "string",
						"numberOfBytes": "32"
					},
					"t_struct(GolfCourse)215_storage": {
						"encoding": "inplace",
						"label": "struct CourseManager.GolfCourse",
						"members": [
							{
								"astId": 207,
								"contract": "contracts/CourseManager.sol:CourseManager",
								"label": "name",
								"offset": 0,
								"slot": "0",
								"type": "t_string_storage"
							},
							{
								"astId": 209,
								"contract": "contracts/CourseManager.sol:CourseManager",
								"label": "description",
								"offset": 0,
								"slot": "1",
								"type": "t_string_storage"
							},
							{
								"astId": 211,
								"contract": "contracts/CourseManager.sol:CourseManager",
								"label": "numberOfHoles",
								"offset": 0,
								"slot": "2",
								"type": "t_uint256"
							},
							{
								"astId": 214,
								"contract": "contracts/CourseManager.sol:CourseManager",
								"label": "pars",
								"offset": 0,
								"slot": "3",
								"type": "t_array(t_uint256)dyn_storage"
							}
						],
						"numberOfBytes": "128"
					},
					"t_uint256": {
						"encoding": "inplace",
						"label": "uint256",
						"numberOfBytes": "32"
					}
				}
			},
			"userdoc": {
				"kind": "user",
				"methods": {},
				"version": 1
			}
		}
	}
}