{
	"data": {
		"bytecode": {
			"linkReferences": {},
			"object": "6080604052348015600e575f80fd5b50335f806101000a81548173ffffffffffffffffffffffffffffffffffffffff021916908373ffffffffffffffffffffffffffffffffffffffff160217905550612e768061005b5f395ff3fe608060405234801561000f575f80fd5b50600436106100a7575f3560e01c80639e5b4fe41161006f5780639e5b4fe414610151578063adb5097f14610181578063b8b0eadc1461019d578063d9c8a38b146101b9578063e9395679146101d7578063f3e6fe1614610207576100a7565b806318bc8216146100ab57806320a6548c146100cb57806334a53e3b146100e95780633e6b6de2146101055780637a36b3ee14610121575b5f80fd5b6100b3610223565b6040516100c293929190611dbc565b60405180910390f35b6100d3610622565b6040516100e09190611e15565b60405180910390f35b61010360048036038101906100fe9190611e69565b610669565b005b61011f600480360381019061011a9190611ef5565b6106fb565b005b61013b60048036038101906101369190612068565b610879565b6040516101489190612126565b60405180910390f35b61016b60048036038101906101669190612146565b6109fb565b60405161017891906121a7565b60405180910390f35b61019b60048036038101906101969190612215565b610a74565b005b6101b760048036038101906101b291906122d9565b610bc0565b005b6101c1610d72565b6040516101ce91906123be565b60405180910390f35b6101f160048036038101906101ec9190611e69565b610ef0565b6040516101fe9190612126565b60405180910390f35b610221600480360381019061021c91906123de565b61106e565b005b60608060605f60028054905067ffffffffffffffff81111561024857610247611f44565b5b60405190808252806020026020018201604052801561027b57816020015b60608152602001906001900390816102665790505b5090505f60028054905067ffffffffffffffff81111561029e5761029d611f44565b5b6040519080825280602002602001820160405280156102d157816020015b60608152602001906001900390816102bc5790505b5090505f60028054905067ffffffffffffffff8111156102f4576102f3611f44565b5b6040519080825280602002602001820160405280156103225781602001602082028036833780820191505090505b5090505f5b60028054905081101561061057600281815481106103485761034761245c565b5b905f5260205f2001805461035b906124b6565b80601f0160208091040260200160405190810160405280929190818152602001828054610387906124b6565b80156103d25780601f106103a9576101008083540402835291602001916103d2565b820191905f5260205f20905b8154815290600101906020018083116103b557829003601f168201915b50505050508482815181106103ea576103e961245c565b5b60200260200101819052505f60016002838154811061040c5761040b61245c565b5b905f5260205f20016040516104219190612582565b90815260200160405180910390206040518060800160405290815f82018054610449906124b6565b80601f0160208091040260200160405190810160405280929190818152602001828054610475906124b6565b80156104c05780601f10610497576101008083540402835291602001916104c0565b820191905f5260205f20905b8154815290600101906020018083116104a357829003601f168201915b505050505081526020016001820180546104d9906124b6565b80601f0160208091040260200160405190810160405280929190818152602001828054610505906124b6565b80156105505780601f1061052757610100808354040283529160200191610550565b820191905f5260205f20905b81548152906001019060200180831161053357829003601f168201915b5050505050815260200160028201548152602001600382018054806020026020016040519081016040528092919081815260200182805480156105b057602002820191905f5260205f20905b81548152602001906001019080831161059c575b505050505081525050905080602001518483815181106105d3576105d261245c565b5b602002602001018190525080604001518383815181106105f6576105f561245c565b5b602002602001018181525050508080600101915050610327565b50828282955095509550505050909192565b5f60035f3373ffffffffffffffffffffffffffffffffffffffff1673ffffffffffffffffffffffffffffffffffffffff1681526020019081526020015f2060020154905090565b8061067381611af2565b6106b2576040517f08c379a00000000000000000000000000000000000000000000000000000000081526004016106a990612608565b60405180910390fd5b8160035f3373ffffffffffffffffffffffffffffffffffffffff1673ffffffffffffffffffffffffffffffffffffffff1681526020019081526020015f20600201819055505050565b60405180602001604052805f8152506001838360405161071c92919061264a565b90815260200160405180910390205f01908161073891906127ed565b505f5b60028054905081101561087457828260405160200161075b92919061264a565b60405160208183030381529060405280519060200120600282815481106107855761078461245c565b5b905f5260205f200160405160200161079d9190612582565b6040516020818303038152906040528051906020012003610867575f8190505b60016002805490506107cf91906128e9565b8110156108345760026001826107e5919061291c565b815481106107f6576107f561245c565b5b905f5260205f2001600282815481106108125761081161245c565b5b905f5260205f200190816108269190612976565b5080806001019150506107bd565b50600280548061084757610846612a5b565b5b600190038181905f5260205f20015f6108609190611b0e565b9055610874565b808060010191505061073b565b505050565b60605f8390505f8390505f81518351610892919061291c565b67ffffffffffffffff8111156108ab576108aa611f44565b5b6040519080825280601f01601f1916602001820160405280156108dd5781602001600182028036833780820191505090505b5090505f8190505f805b8551811015610968578581815181106109035761090261245c565b5b602001015160f81c60f81b83838061091a90612a88565b94508151811061092d5761092c61245c565b5b60200101907effffffffffffffffffffffffffffffffffffffffffffffffffffffffffffff191690815f1a90535080806001019150506108e7565b505f5b84518110156109ec578481815181106109875761098661245c565b5b602001015160f81c60f81b83838061099e90612a88565b9450815181106109b1576109b061245c565b5b60200101907effffffffffffffffffffffffffffffffffffffffffffffffffffffffffffff191690815f1a905350808060010191505061096b565b50819550505050505092915050565b5f80600183604051610a0d9190612aff565b90815260200160405180910390209050805f01604051602001610a309190612582565b60405160208183030381529060405280519060200120604051602001610a5590612b38565b6040516020818303038152906040528051906020012014915050919050565b868660018989604051610a8892919061264a565b90815260200160405180910390205f019182610aa5929190612b56565b50848460018989604051610aba92919061264a565b90815260200160405180910390206001019182610ad8929190612b56565b508260018888604051610aec92919061264a565b9081526020016040518091039020600201819055505f5b82829050811015610b7b5760018888604051610b2092919061264a565b9081526020016040518091039020600301838383818110610b4457610b4361245c565b5b90506020020135908060018154018082558091505060019003905f5260205f20015f90919091909150558080600101915050610b03565b506002878790918060018154018082558091505060019003905f5260205f20015f909192909192909192909192509182610bb6929190612b56565b5050505050505050565b80610bca81611af2565b610c09576040517f08c379a0000000000000000000000000000000000000000000000000000000008152600401610c0090612608565b60405180910390fd5b604051806060016040528087878080601f0160208091040260200160405190810160405280939291908181526020018383808284375f81840152601f19601f82011690508083019250505050505050815260200185858080601f0160208091040260200160405190810160405280939291908181526020018383808284375f81840152601f19601f8201169050808301925050505050505081526020018381525060035f3373ffffffffffffffffffffffffffffffffffffffff1673ffffffffffffffffffffffffffffffffffffffff1681526020019081526020015f205f820151815f019081610cfa91906127ed565b506020820151816001019081610d1091906127ed565b50604082015181600201559050503373ffffffffffffffffffffffffffffffffffffffff167f667c663f7df50e4733806612f28e51b36231eb1fca15167713029e99b2cbcf57604051610d6290612c6d565b60405180910390a2505050505050565b610d7a611b4b565b60035f3373ffffffffffffffffffffffffffffffffffffffff1673ffffffffffffffffffffffffffffffffffffffff1681526020019081526020015f206040518060600160405290815f82018054610dd1906124b6565b80601f0160208091040260200160405190810160405280929190818152602001828054610dfd906124b6565b8015610e485780601f10610e1f57610100808354040283529160200191610e48565b820191905f5260205f20905b815481529060010190602001808311610e2b57829003601f168201915b50505050508152602001600182018054610e61906124b6565b80601f0160208091040260200160405190810160405280929190818152602001828054610e8d906124b6565b8015610ed85780601f10610eaf57610100808354040283529160200191610ed8565b820191905f5260205f20905b815481529060010190602001808311610ebb57829003601f168201915b50505050508152602001600282015481525050905090565b60605f8203610f36576040518060400160405280600181526020017f30000000000000000000000000000000000000000000000000000000000000008152509050611069565b5f8290505f5b5f8214610f65578080610f4e90612a88565b915050600a82610f5e9190612cb8565b9150610f3c565b5f8167ffffffffffffffff811115610f8057610f7f611f44565b5b6040519080825280601f01601f191660200182016040528015610fb25781602001600182028036833780820191505090505b5090505f8290505b5f861461106157600181610fce91906128e9565b90505f600a8088610fdf9190612cb8565b610fe99190612ce8565b87610ff491906128e9565b60306110009190612d35565b90505f8160f81b90508084848151811061101d5761101c61245c565b5b60200101907effffffffffffffffffffffffffffffffffffffffffffffffffffffffffffff191690815f1a905350600a886110589190612cb8565b97505050610fba565b819450505050505b919050565b83838080601f0160208091040260200160405190810160405280939291908181526020018383808284375f81840152601f19601f820116905080830192505050505050506110bb816109fb565b156110fb576040517f08c379a00000000000000000000000000000000000000000000000000000000081526004016110f290612dd9565b60405180910390fd5b5f80604051806080016040528088888080601f0160208091040260200160405190810160405280939291908181526020018383808284375f81840152601f19601f8201169050808301925050505050505081526020015f81526020018686808060200260200160405190810160405280939291908181526020018383602002808284375f81840152601f19601f8201169050808301925050505050505081526020018373ffffffffffffffffffffffffffffffffffffffff1681525090508060045f3373ffffffffffffffffffffffffffffffffffffffff1673ffffffffffffffffffffffffffffffffffffffff1681526020019081526020015f205f820151815f01908161120a91906127ed565b50602082015181600101556040820151816002019080519060200190611231929190611b6b565b506060820151816003015f6101000a81548173ffffffffffffffffffffffffffffffffffffffff021916908373ffffffffffffffffffffffffffffffffffffffff1602179055509050505f5b6001888860405161128f92919061264a565b908152602001604051809103902060030180549050811015611ae8575f600189896040516112be92919061264a565b908152602001604051809103902060030182815481106112e1576112e061245c565b5b905f5260205f2001548787848181106112fd576112fc61245c565b5b9050602002013561130e9190612e00565b90505f810361144d575f61139a6040518060400160405280601081526020017f73636f72656420612070617220617420000000000000000000000000000000008152508b8b8080601f0160208091040260200160405190810160405280939291908181526020018383808284375f81840152601f19601f82011690508083019250505050505050610879565b90506113db816040518060400160405280600981526020017f206f6e20686f6c65200000000000000000000000000000000000000000000000815250610879565b90506113fb816113f66001866113f1919061291c565b610ef0565b610879565b90503373ffffffffffffffffffffffffffffffffffffffff167f667c663f7df50e4733806612f28e51b36231eb1fca15167713029e99b2cbcf57826040516114439190612126565b60405180910390a2505b6001810361158b575f6114d86040518060400160405280601281526020017f73636f726564206120626f6765792061742000000000000000000000000000008152508b8b8080601f0160208091040260200160405190810160405280939291908181526020018383808284375f81840152601f19601f82011690508083019250505050505050610879565b9050611519816040518060400160405280600981526020017f206f6e20686f6c65200000000000000000000000000000000000000000000000815250610879565b90506115398161153460018661152f919061291c565b610ef0565b610879565b90503373ffffffffffffffffffffffffffffffffffffffff167f667c663f7df50e4733806612f28e51b36231eb1fca15167713029e99b2cbcf57826040516115819190612126565b60405180910390a2505b600281036116c9575f6116166040518060400160405280601981526020017f73636f726564206120646f75626c6520626f67657920617420000000000000008152508b8b8080601f0160208091040260200160405190810160405280939291908181526020018383808284375f81840152601f19601f82011690508083019250505050505050610879565b9050611657816040518060400160405280600981526020017f206f6e20686f6c65200000000000000000000000000000000000000000000000815250610879565b90506116778161167260018661166d919061291c565b610ef0565b610879565b90503373ffffffffffffffffffffffffffffffffffffffff167f667c663f7df50e4733806612f28e51b36231eb1fca15167713029e99b2cbcf57826040516116bf9190612126565b60405180910390a2505b7fffffffffffffffffffffffffffffffffffffffffffffffffffffffffffffffff8103611826575f6117736040518060400160405280601381526020017f73636f72656420612062697264696520617420000000000000000000000000008152508b8b8080601f0160208091040260200160405190810160405280939291908181526020018383808284375f81840152601f19601f82011690508083019250505050505050610879565b90506117b4816040518060400160405280600981526020017f206f6e20686f6c65200000000000000000000000000000000000000000000000815250610879565b90506117d4816117cf6001866117ca919061291c565b610ef0565b610879565b90503373ffffffffffffffffffffffffffffffffffffffff167f667c663f7df50e4733806612f28e51b36231eb1fca15167713029e99b2cbcf578260405161181c9190612126565b60405180910390a2505b7ffffffffffffffffffffffffffffffffffffffffffffffffffffffffffffffffe8103611983575f6118d06040518060400160405280601381526020017f73636f72656420616e206561676c6520617420000000000000000000000000008152508b8b8080601f0160208091040260200160405190810160405280939291908181526020018383808284375f81840152601f19601f82011690508083019250505050505050610879565b9050611911816040518060400160405280600981526020017f206f6e20686f6c65200000000000000000000000000000000000000000000000815250610879565b90506119318161192c600186611927919061291c565b610ef0565b610879565b90503373ffffffffffffffffffffffffffffffffffffffff167f667c663f7df50e4733806612f28e51b36231eb1fca15167713029e99b2cbcf57826040516119799190612126565b60405180910390a2505b60018787848181106119985761199761245c565b5b9050602002013503611ada575f611a276040518060400160405280601581526020017f574f57206120686f6c6520696e206f6e652061742000000000000000000000008152508b8b8080601f0160208091040260200160405190810160405280939291908181526020018383808284375f81840152601f19601f82011690508083019250505050505050610879565b9050611a68816040518060400160405280600981526020017f206f6e20686f6c65200000000000000000000000000000000000000000000000815250610879565b9050611a8881611a83600186611a7e919061291c565b610ef0565b610879565b90503373ffffffffffffffffffffffffffffffffffffffff167f667c663f7df50e4733806612f28e51b36231eb1fca15167713029e99b2cbcf5782604051611ad09190612126565b60405180910390a2505b50808060010191505061127d565b5050505050505050565b5f6036821115611b04575f9050611b09565b600190505b919050565b508054611b1a906124b6565b5f825580601f10611b2b5750611b48565b601f0160209004905f5260205f2090810190611b479190611bb6565b5b50565b604051806060016040528060608152602001606081526020015f81525090565b828054828255905f5260205f20908101928215611ba5579160200282015b82811115611ba4578251825591602001919060010190611b89565b5b509050611bb29190611bb6565b5090565b5b80821115611bcd575f815f905550600101611bb7565b5090565b5f81519050919050565b5f82825260208201905092915050565b5f819050602082019050919050565b5f81519050919050565b5f82825260208201905092915050565b8281835e5f83830152505050565b5f601f19601f8301169050919050565b5f611c3c82611bfa565b611c468185611c04565b9350611c56818560208601611c14565b611c5f81611c22565b840191505092915050565b5f611c758383611c32565b905092915050565b5f602082019050919050565b5f611c9382611bd1565b611c9d8185611bdb565b935083602082028501611caf85611beb565b805f5b85811015611cea5784840389528151611ccb8582611c6a565b9450611cd683611c7d565b925060208a01995050600181019050611cb2565b50829750879550505050505092915050565b5f81519050919050565b5f82825260208201905092915050565b5f819050602082019050919050565b5f819050919050565b611d3781611d25565b82525050565b5f611d488383611d2e565b60208301905092915050565b5f602082019050919050565b5f611d6a82611cfc565b611d748185611d06565b9350611d7f83611d16565b805f5b83811015611daf578151611d968882611d3d565b9750611da183611d54565b925050600181019050611d82565b5085935050505092915050565b5f6060820190508181035f830152611dd48186611c89565b90508181036020830152611de88185611c89565b90508181036040830152611dfc8184611d60565b9050949350505050565b611e0f81611d25565b82525050565b5f602082019050611e285f830184611e06565b92915050565b5f604051905090565b5f80fd5b5f80fd5b611e4881611d25565b8114611e52575f80fd5b50565b5f81359050611e6381611e3f565b92915050565b5f60208284031215611e7e57611e7d611e37565b5b5f611e8b84828501611e55565b91505092915050565b5f80fd5b5f80fd5b5f80fd5b5f8083601f840112611eb557611eb4611e94565b5b8235905067ffffffffffffffff811115611ed257611ed1611e98565b5b602083019150836001820283011115611eee57611eed611e9c565b5b9250929050565b5f8060208385031215611f0b57611f0a611e37565b5b5f83013567ffffffffffffffff811115611f2857611f27611e3b565b5b611f3485828601611ea0565b92509250509250929050565b5f80fd5b7f4e487b71000000000000000000000000000000000000000000000000000000005f52604160045260245ffd5b611f7a82611c22565b810181811067ffffffffffffffff82111715611f9957611f98611f44565b5b80604052505050565b5f611fab611e2e565b9050611fb78282611f71565b919050565b5f67ffffffffffffffff821115611fd657611fd5611f44565b5b611fdf82611c22565b9050602081019050919050565b828183375f83830152505050565b5f61200c61200784611fbc565b611fa2565b90508281526020810184848401111561202857612027611f40565b5b612033848285611fec565b509392505050565b5f82601f83011261204f5761204e611e94565b5b813561205f848260208601611ffa565b91505092915050565b5f806040838503121561207e5761207d611e37565b5b5f83013567ffffffffffffffff81111561209b5761209a611e3b565b5b6120a78582860161203b565b925050602083013567ffffffffffffffff8111156120c8576120c7611e3b565b5b6120d48582860161203b565b9150509250929050565b5f82825260208201905092915050565b5f6120f882611bfa565b61210281856120de565b9350612112818560208601611c14565b61211b81611c22565b840191505092915050565b5f6020820190508181035f83015261213e81846120ee565b905092915050565b5f6020828403121561215b5761215a611e37565b5b5f82013567ffffffffffffffff81111561217857612177611e3b565b5b6121848482850161203b565b91505092915050565b5f8115159050919050565b6121a18161218d565b82525050565b5f6020820190506121ba5f830184612198565b92915050565b5f8083601f8401126121d5576121d4611e94565b5b8235905067ffffffffffffffff8111156121f2576121f1611e98565b5b60208301915083602082028301111561220e5761220d611e9c565b5b9250929050565b5f805f805f805f6080888a0312156122305761222f611e37565b5b5f88013567ffffffffffffffff81111561224d5761224c611e3b565b5b6122598a828b01611ea0565b9750975050602088013567ffffffffffffffff81111561227c5761227b611e3b565b5b6122888a828b01611ea0565b9550955050604061229b8a828b01611e55565b935050606088013567ffffffffffffffff8111156122bc576122bb611e3b565b5b6122c88a828b016121c0565b925092505092959891949750929550565b5f805f805f606086880312156122f2576122f1611e37565b5b5f86013567ffffffffffffffff81111561230f5761230e611e3b565b5b61231b88828901611ea0565b9550955050602086013567ffffffffffffffff81111561233e5761233d611e3b565b5b61234a88828901611ea0565b9350935050604061235d88828901611e55565b9150509295509295909350565b5f606083015f8301518482035f8601526123848282611c32565b9150506020830151848203602086015261239e8282611c32565b91505060408301516123b36040860182611d2e565b508091505092915050565b5f6020820190508181035f8301526123d6818461236a565b905092915050565b5f805f80604085870312156123f6576123f5611e37565b5b5f85013567ffffffffffffffff81111561241357612412611e3b565b5b61241f87828801611ea0565b9450945050602085013567ffffffffffffffff81111561244257612441611e3b565b5b61244e878288016121c0565b925092505092959194509250565b7f4e487b71000000000000000000000000000000000000000000000000000000005f52603260045260245ffd5b7f4e487b71000000000000000000000000000000000000000000000000000000005f52602260045260245ffd5b5f60028204905060018216806124cd57607f821691505b6020821081036124e0576124df612489565b5b50919050565b5f81905092915050565b5f819050815f5260205f209050919050565b5f815461250e816124b6565b61251881866124e6565b9450600182165f8114612532576001811461254757612579565b60ff1983168652811515820286019350612579565b612550856124f0565b5f5b8381101561257157815481890152600182019150602081019050612552565b838801955050505b50505092915050565b5f61258d8284612502565b915081905092915050565b7f68616e6469636170206d757374206265203534206f72206c65737320696e20675f8201527f6f6c660000000000000000000000000000000000000000000000000000000000602082015250565b5f6125f26023836120de565b91506125fd82612598565b604082019050919050565b5f6020820190508181035f83015261261f816125e6565b9050919050565b5f61263183856124e6565b935061263e838584611fec565b82840190509392505050565b5f612656828486612626565b91508190509392505050565b5f6020601f8301049050919050565b5f82821b905092915050565b5f600883026126ac7fffffffffffffffffffffffffffffffffffffffffffffffffffffffffffffffff82612671565b6126b68683612671565b95508019841693508086168417925050509392505050565b5f819050919050565b5f6126f16126ec6126e784611d25565b6126ce565b611d25565b9050919050565b5f819050919050565b61270a836126d7565b61271e612716826126f8565b84845461267d565b825550505050565b5f90565b612732612726565b61273d818484612701565b505050565b5b81811015612760576127555f8261272a565b600181019050612743565b5050565b601f8211156127a557612776816124f0565b61277f84612662565b8101602085101561278e578190505b6127a261279a85612662565b830182612742565b50505b505050565b5f82821c905092915050565b5f6127c55f19846008026127aa565b1980831691505092915050565b5f6127dd83836127b6565b9150826002028217905092915050565b6127f682611bfa565b67ffffffffffffffff81111561280f5761280e611f44565b5b61281982546124b6565b612824828285612764565b5f60209050601f831160018114612855575f8415612843578287015190505b61284d85826127d2565b8655506128b4565b601f198416612863866124f0565b5f5b8281101561288a57848901518255600182019150602085019450602081019050612865565b868310156128a757848901516128a3601f8916826127b6565b8355505b6001600288020188555050505b505050505050565b7f4e487b71000000000000000000000000000000000000000000000000000000005f52601160045260245ffd5b5f6128f382611d25565b91506128fe83611d25565b9250828203905081811115612916576129156128bc565b5b92915050565b5f61292682611d25565b915061293183611d25565b9250828201905080821115612949576129486128bc565b5b92915050565b5f8154905061295d816124b6565b9050919050565b5f819050815f5260205f209050919050565b818103612984575050612a59565b61298d8261294f565b67ffffffffffffffff8111156129a6576129a5611f44565b5b6129b082546124b6565b6129bb828285612764565b5f601f8311600181146129e8575f84156129d6578287015490505b6129e085826127d2565b865550612a52565b601f1984166129f687612964565b9650612a01866124f0565b5f5b82811015612a2857848901548255600182019150600185019450602081019050612a03565b86831015612a455784890154612a41601f8916826127b6565b8355505b6001600288020188555050505b5050505050505b565b7f4e487b71000000000000000000000000000000000000000000000000000000005f52603160045260245ffd5b5f612a9282611d25565b91507fffffffffffffffffffffffffffffffffffffffffffffffffffffffffffffffff8203612ac457612ac36128bc565b5b600182019050919050565b5f612ad982611bfa565b612ae381856124e6565b9350612af3818560208601611c14565b80840191505092915050565b5f612b0a8284612acf565b915081905092915050565b50565b5f612b235f836124e6565b9150612b2e82612b15565b5f82019050919050565b5f612b4282612b18565b9150819050919050565b5f82905092915050565b612b608383612b4c565b67ffffffffffffffff811115612b7957612b78611f44565b5b612b8382546124b6565b612b8e828285612764565b5f601f831160018114612bbb575f8415612ba9578287013590505b612bb385826127d2565b865550612c1a565b601f198416612bc9866124f0565b5f5b82811015612bf057848901358255600182019150602085019450602081019050612bcb565b86831015612c0d5784890135612c09601f8916826127b6565b8355505b6001600288020188555050505b50505050505050565b7f6a6f696e65642074686520636c756200000000000000000000000000000000005f82015250565b5f612c57600f836120de565b9150612c6282612c23565b602082019050919050565b5f6020820190508181035f830152612c8481612c4b565b9050919050565b7f4e487b71000000000000000000000000000000000000000000000000000000005f52601260045260245ffd5b5f612cc282611d25565b9150612ccd83611d25565b925082612cdd57612cdc612c8b565b5b828204905092915050565b5f612cf282611d25565b9150612cfd83611d25565b9250828202612d0b81611d25565b91508282048414831517612d2257612d216128bc565b5b5092915050565b5f60ff82169050919050565b5f612d3f82612d29565b9150612d4a83612d29565b9250828201905060ff811115612d6357612d626128bc565b5b92915050565b7f796f75206861766520746f20706c6179206f6e206120726567697374657265645f8201527f20636f7572736500000000000000000000000000000000000000000000000000602082015250565b5f612dc36027836120de565b9150612dce82612d69565b604082019050919050565b5f6020820190508181035f830152612df081612db7565b9050919050565b5f819050919050565b5f612e0a82612df7565b9150612e1583612df7565b925082820390508181125f8412168282135f851215161715612e3a57612e396128bc565b5b9291505056fea2646970667358221220e42a985bfd762426f0b69cc86658127fcf9f053f0617a4bdf4029852dbcb3da464736f6c63430008190033",
			"opcodes": "PUSH1 0x80 PUSH1 0x40 MSTORE CALLVALUE DUP1 ISZERO PUSH1 0xE JUMPI PUSH0 DUP1 REVERT JUMPDEST POP CALLER PUSH0 DUP1 PUSH2 0x100 EXP DUP2 SLOAD DUP2 PUSH20 0xFFFFFFFFFFFFFFFFFFFFFFFFFFFFFFFFFFFFFFFF MUL NOT AND SWAP1 DUP4 PUSH20 0xFFFFFFFFFFFFFFFFFFFFFFFFFFFFFFFFFFFFFFFF AND MUL OR SWAP1 SSTORE POP PUSH2 0x2E76 DUP1 PUSH2 0x5B PUSH0 CODECOPY PUSH0 RETURN INVALID PUSH1 0x80 PUSH1 0x40 MSTORE CALLVALUE DUP1 ISZERO PUSH2 0xF JUMPI PUSH0 DUP1 REVERT JUMPDEST POP PUSH1 0x4 CALLDATASIZE LT PUSH2 0xA7 JUMPI PUSH0 CALLDATALOAD PUSH1 0xE0 SHR DUP1 PUSH4 0x9E5B4FE4 GT PUSH2 0x6F JUMPI DUP1 PUSH4 0x9E5B4FE4 EQ PUSH2 0x151 JUMPI DUP1 PUSH4 0xADB5097F EQ PUSH2 0x181 JUMPI DUP1 PUSH4 0xB8B0EADC EQ PUSH2 0x19D JUMPI DUP1 PUSH4 0xD9C8A38B EQ PUSH2 0x1B9 JUMPI DUP1 PUSH4 0xE9395679 EQ PUSH2 0x1D7 JUMPI DUP1 PUSH4 0xF3E6FE16 EQ PUSH2 0x207 JUMPI PUSH2 0xA7 JUMP JUMPDEST DUP1 PUSH4 0x18BC8216 EQ PUSH2 0xAB JUMPI DUP1 PUSH4 0x20A6548C EQ PUSH2 0xCB JUMPI DUP1 PUSH4 0x34A53E3B EQ PUSH2 0xE9 JUMPI DUP1 PUSH4 0x3E6B6DE2 EQ PUSH2 0x105 JUMPI DUP1 PUSH4 0x7A36B3EE EQ PUSH2 0x121 JUMPI JUMPDEST PUSH0 DUP1 REVERT JUMPDEST PUSH2 0xB3 PUSH2 0x223 JUMP JUMPDEST PUSH1 0x40 MLOAD PUSH2 0xC2 SWAP4 SWAP3 SWAP2 SWAP1 PUSH2 0x1DBC JUMP JUMPDEST PUSH1 0x40 MLOAD DUP1 SWAP2 SUB SWAP1 RETURN JUMPDEST PUSH2 0xD3 PUSH2 0x622 JUMP JUMPDEST PUSH1 0x40 MLOAD PUSH2 0xE0 SWAP2 SWAP1 PUSH2 0x1E15 JUMP JUMPDEST PUSH1 0x40 MLOAD DUP1 SWAP2 SUB SWAP1 RETURN JUMPDEST PUSH2 0x103 PUSH1 0x4 DUP1 CALLDATASIZE SUB DUP2 ADD SWAP1 PUSH2 0xFE SWAP2 SWAP1 PUSH2 0x1E69 JUMP JUMPDEST PUSH2 0x669 JUMP JUMPDEST STOP JUMPDEST PUSH2 0x11F PUSH1 0x4 DUP1 CALLDATASIZE SUB DUP2 ADD SWAP1 PUSH2 0x11A SWAP2 SWAP1 PUSH2 0x1EF5 JUMP JUMPDEST PUSH2 0x6FB JUMP JUMPDEST STOP JUMPDEST PUSH2 0x13B PUSH1 0x4 DUP1 CALLDATASIZE SUB DUP2 ADD SWAP1 PUSH2 0x136 SWAP2 SWAP1 PUSH2 0x2068 JUMP JUMPDEST PUSH2 0x879 JUMP JUMPDEST PUSH1 0x40 MLOAD PUSH2 0x148 SWAP2 SWAP1 PUSH2 0x2126 JUMP JUMPDEST PUSH1 0x40 MLOAD DUP1 SWAP2 SUB SWAP1 RETURN JUMPDEST PUSH2 0x16B PUSH1 0x4 DUP1 CALLDATASIZE SUB DUP2 ADD SWAP1 PUSH2 0x166 SWAP2 SWAP1 PUSH2 0x2146 JUMP JUMPDEST PUSH2 0x9FB JUMP JUMPDEST PUSH1 0x40 MLOAD PUSH2 0x178 SWAP2 SWAP1 PUSH2 0x21A7 JUMP JUMPDEST PUSH1 0x40 MLOAD DUP1 SWAP2 SUB SWAP1 RETURN JUMPDEST PUSH2 0x19B PUSH1 0x4 DUP1 CALLDATASIZE SUB DUP2 ADD SWAP1 PUSH2 0x196 SWAP2 SWAP1 PUSH2 0x2215 JUMP JUMPDEST PUSH2 0xA74 JUMP JUMPDEST STOP JUMPDEST PUSH2 0x1B7 PUSH1 0x4 DUP1 CALLDATASIZE SUB DUP2 ADD SWAP1 PUSH2 0x1B2 SWAP2 SWAP1 PUSH2 0x22D9 JUMP JUMPDEST PUSH2 0xBC0 JUMP JUMPDEST STOP JUMPDEST PUSH2 0x1C1 PUSH2 0xD72 JUMP JUMPDEST PUSH1 0x40 MLOAD PUSH2 0x1CE SWAP2 SWAP1 PUSH2 0x23BE JUMP JUMPDEST PUSH1 0x40 MLOAD DUP1 SWAP2 SUB SWAP1 RETURN JUMPDEST PUSH2 0x1F1 PUSH1 0x4 DUP1 CALLDATASIZE SUB DUP2 ADD SWAP1 PUSH2 0x1EC SWAP2 SWAP1 PUSH2 0x1E69 JUMP JUMPDEST PUSH2 0xEF0 JUMP JUMPDEST PUSH1 0x40 MLOAD PUSH2 0x1FE SWAP2 SWAP1 PUSH2 0x2126 JUMP JUMPDEST PUSH1 0x40 MLOAD DUP1 SWAP2 SUB SWAP1 RETURN JUMPDEST PUSH2 0x221 PUSH1 0x4 DUP1 CALLDATASIZE SUB DUP2 ADD SWAP1 PUSH2 0x21C SWAP2 SWAP1 PUSH2 0x23DE JUMP JUMPDEST PUSH2 0x106E JUMP JUMPDEST STOP JUMPDEST PUSH1 0x60 DUP1 PUSH1 0x60 PUSH0 PUSH1 0x2 DUP1 SLOAD SWAP1 POP PUSH8 0xFFFFFFFFFFFFFFFF DUP2 GT ISZERO PUSH2 0x248 JUMPI PUSH2 0x247 PUSH2 0x1F44 JUMP JUMPDEST JUMPDEST PUSH1 0x40 MLOAD SWAP1 DUP1 DUP3 MSTORE DUP1 PUSH1 0x20 MUL PUSH1 0x20 ADD DUP3 ADD PUSH1 0x40 MSTORE DUP1 ISZERO PUSH2 0x27B JUMPI DUP2 PUSH1 0x20 ADD JUMPDEST PUSH1 0x60 DUP2 MSTORE PUSH1 0x20 ADD SWAP1 PUSH1 0x1 SWAP1 SUB SWAP1 DUP2 PUSH2 0x266 JUMPI SWAP1 POP JUMPDEST POP SWAP1 POP PUSH0 PUSH1 0x2 DUP1 SLOAD SWAP1 POP PUSH8 0xFFFFFFFFFFFFFFFF DUP2 GT ISZERO PUSH2 0x29E JUMPI PUSH2 0x29D PUSH2 0x1F44 JUMP JUMPDEST JUMPDEST PUSH1 0x40 MLOAD SWAP1 DUP1 DUP3 MSTORE DUP1 PUSH1 0x20 MUL PUSH1 0x20 ADD DUP3 ADD PUSH1 0x40 MSTORE DUP1 ISZERO PUSH2 0x2D1 JUMPI DUP2 PUSH1 0x20 ADD JUMPDEST PUSH1 0x60 DUP2 MSTORE PUSH1 0x20 ADD SWAP1 PUSH1 0x1 SWAP1 SUB SWAP1 DUP2 PUSH2 0x2BC JUMPI SWAP1 POP JUMPDEST POP SWAP1 POP PUSH0 PUSH1 0x2 DUP1 SLOAD SWAP1 POP PUSH8 0xFFFFFFFFFFFFFFFF DUP2 GT ISZERO PUSH2 0x2F4 JUMPI PUSH2 0x2F3 PUSH2 0x1F44 JUMP JUMPDEST JUMPDEST PUSH1 0x40 MLOAD SWAP1 DUP1 DUP3 MSTORE DUP1 PUSH1 0x20 MUL PUSH1 0x20 ADD DUP3 ADD PUSH1 0x40 MSTORE DUP1 ISZERO PUSH2 0x322 JUMPI DUP2 PUSH1 0x20 ADD PUSH1 0x20 DUP3 MUL DUP1 CALLDATASIZE DUP4 CALLDATACOPY DUP1 DUP3 ADD SWAP2 POP POP SWAP1 POP JUMPDEST POP SWAP1 POP PUSH0 JUMPDEST PUSH1 0x2 DUP1 SLOAD SWAP1 POP DUP2 LT ISZERO PUSH2 0x610 JUMPI PUSH1 0x2 DUP2 DUP2 SLOAD DUP2 LT PUSH2 0x348 JUMPI PUSH2 0x347 PUSH2 0x245C JUMP JUMPDEST JUMPDEST SWAP1 PUSH0 MSTORE PUSH1 0x20 PUSH0 KECCAK256 ADD DUP1 SLOAD PUSH2 0x35B SWAP1 PUSH2 0x24B6 JUMP JUMPDEST DUP1 PUSH1 0x1F ADD PUSH1 0x20 DUP1 SWAP2 DIV MUL PUSH1 0x20 ADD PUSH1 0x40 MLOAD SWAP1 DUP2 ADD PUSH1 0x40 MSTORE DUP1 SWAP3 SWAP2 SWAP1 DUP2 DUP2 MSTORE PUSH1 0x20 ADD DUP3 DUP1 SLOAD PUSH2 0x387 SWAP1 PUSH2 0x24B6 JUMP JUMPDEST DUP1 ISZERO PUSH2 0x3D2 JUMPI DUP1 PUSH1 0x1F LT PUSH2 0x3A9 JUMPI PUSH2 0x100 DUP1 DUP4 SLOAD DIV MUL DUP4 MSTORE SWAP2 PUSH1 0x20 ADD SWAP2 PUSH2 0x3D2 JUMP JUMPDEST DUP3 ADD SWAP2 SWAP1 PUSH0 MSTORE PUSH1 0x20 PUSH0 KECCAK256 SWAP1 JUMPDEST DUP2 SLOAD DUP2 MSTORE SWAP1 PUSH1 0x1 ADD SWAP1 PUSH1 0x20 ADD DUP1 DUP4 GT PUSH2 0x3B5 JUMPI DUP3 SWAP1 SUB PUSH1 0x1F AND DUP3 ADD SWAP2 JUMPDEST POP POP POP POP POP DUP5 DUP3 DUP2 MLOAD DUP2 LT PUSH2 0x3EA JUMPI PUSH2 0x3E9 PUSH2 0x245C JUMP JUMPDEST JUMPDEST PUSH1 0x20 MUL PUSH1 0x20 ADD ADD DUP2 SWAP1 MSTORE POP PUSH0 PUSH1 0x1 PUSH1 0x2 DUP4 DUP2 SLOAD DUP2 LT PUSH2 0x40C JUMPI PUSH2 0x40B PUSH2 0x245C JUMP JUMPDEST JUMPDEST SWAP1 PUSH0 MSTORE PUSH1 0x20 PUSH0 KECCAK256 ADD PUSH1 0x40 MLOAD PUSH2 0x421 SWAP2 SWAP1 PUSH2 0x2582 JUMP JUMPDEST SWAP1 DUP2 MSTORE PUSH1 0x20 ADD PUSH1 0x40 MLOAD DUP1 SWAP2 SUB SWAP1 KECCAK256 PUSH1 0x40 MLOAD DUP1 PUSH1 0x80 ADD PUSH1 0x40 MSTORE SWAP1 DUP2 PUSH0 DUP3 ADD DUP1 SLOAD PUSH2 0x449 SWAP1 PUSH2 0x24B6 JUMP JUMPDEST DUP1 PUSH1 0x1F ADD PUSH1 0x20 DUP1 SWAP2 DIV MUL PUSH1 0x20 ADD PUSH1 0x40 MLOAD SWAP1 DUP2 ADD PUSH1 0x40 MSTORE DUP1 SWAP3 SWAP2 SWAP1 DUP2 DUP2 MSTORE PUSH1 0x20 ADD DUP3 DUP1 SLOAD PUSH2 0x475 SWAP1 PUSH2 0x24B6 JUMP JUMPDEST DUP1 ISZERO PUSH2 0x4C0 JUMPI DUP1 PUSH1 0x1F LT PUSH2 0x497 JUMPI PUSH2 0x100 DUP1 DUP4 SLOAD DIV MUL DUP4 MSTORE SWAP2 PUSH1 0x20 ADD SWAP2 PUSH2 0x4C0 JUMP JUMPDEST DUP3 ADD SWAP2 SWAP1 PUSH0 MSTORE PUSH1 0x20 PUSH0 KECCAK256 SWAP1 JUMPDEST DUP2 SLOAD DUP2 MSTORE SWAP1 PUSH1 0x1 ADD SWAP1 PUSH1 0x20 ADD DUP1 DUP4 GT PUSH2 0x4A3 JUMPI DUP3 SWAP1 SUB PUSH1 0x1F AND DUP3 ADD SWAP2 JUMPDEST POP POP POP POP POP DUP2 MSTORE PUSH1 0x20 ADD PUSH1 0x1 DUP3 ADD DUP1 SLOAD PUSH2 0x4D9 SWAP1 PUSH2 0x24B6 JUMP JUMPDEST DUP1 PUSH1 0x1F ADD PUSH1 0x20 DUP1 SWAP2 DIV MUL PUSH1 0x20 ADD PUSH1 0x40 MLOAD SWAP1 DUP2 ADD PUSH1 0x40 MSTORE DUP1 SWAP3 SWAP2 SWAP1 DUP2 DUP2 MSTORE PUSH1 0x20 ADD DUP3 DUP1 SLOAD PUSH2 0x505 SWAP1 PUSH2 0x24B6 JUMP JUMPDEST DUP1 ISZERO PUSH2 0x550 JUMPI DUP1 PUSH1 0x1F LT PUSH2 0x527 JUMPI PUSH2 0x100 DUP1 DUP4 SLOAD DIV MUL DUP4 MSTORE SWAP2 PUSH1 0x20 ADD SWAP2 PUSH2 0x550 JUMP JUMPDEST DUP3 ADD SWAP2 SWAP1 PUSH0 MSTORE PUSH1 0x20 PUSH0 KECCAK256 SWAP1 JUMPDEST DUP2 SLOAD DUP2 MSTORE SWAP1 PUSH1 0x1 ADD SWAP1 PUSH1 0x20 ADD DUP1 DUP4 GT PUSH2 0x533 JUMPI DUP3 SWAP1 SUB PUSH1 0x1F AND DUP3 ADD SWAP2 JUMPDEST POP POP POP POP POP DUP2 MSTORE PUSH1 0x20 ADD PUSH1 0x2 DUP3 ADD SLOAD DUP2 MSTORE PUSH1 0x20 ADD PUSH1 0x3 DUP3 ADD DUP1 SLOAD DUP1 PUSH1 0x20 MUL PUSH1 0x20 ADD PUSH1 0x40 MLOAD SWAP1 DUP2 ADD PUSH1 0x40 MSTORE DUP1 SWAP3 SWAP2 SWAP1 DUP2 DUP2 MSTORE PUSH1 0x20 ADD DUP3 DUP1 SLOAD DUP1 ISZERO PUSH2 0x5B0 JUMPI PUSH1 0x20 MUL DUP3 ADD SWAP2 SWAP1 PUSH0 MSTORE PUSH1 0x20 PUSH0 KECCAK256 SWAP1 JUMPDEST DUP2 SLOAD DUP2 MSTORE PUSH1 0x20 ADD SWAP1 PUSH1 0x1 ADD SWAP1 DUP1 DUP4 GT PUSH2 0x59C JUMPI JUMPDEST POP POP POP POP POP DUP2 MSTORE POP POP SWAP1 POP DUP1 PUSH1 0x20 ADD MLOAD DUP5 DUP4 DUP2 MLOAD DUP2 LT PUSH2 0x5D3 JUMPI PUSH2 0x5D2 PUSH2 0x245C JUMP JUMPDEST JUMPDEST PUSH1 0x20 MUL PUSH1 0x20 ADD ADD DUP2 SWAP1 MSTORE POP DUP1 PUSH1 0x40 ADD MLOAD DUP4 DUP4 DUP2 MLOAD DUP2 LT PUSH2 0x5F6 JUMPI PUSH2 0x5F5 PUSH2 0x245C JUMP JUMPDEST JUMPDEST PUSH1 0x20 MUL PUSH1 0x20 ADD ADD DUP2 DUP2 MSTORE POP POP POP DUP1 DUP1 PUSH1 0x1 ADD SWAP2 POP POP PUSH2 0x327 JUMP JUMPDEST POP DUP3 DUP3 DUP3 SWAP6 POP SWAP6 POP SWAP6 POP POP POP POP SWAP1 SWAP2 SWAP3 JUMP JUMPDEST PUSH0 PUSH1 0x3 PUSH0 CALLER PUSH20 0xFFFFFFFFFFFFFFFFFFFFFFFFFFFFFFFFFFFFFFFF AND PUSH20 0xFFFFFFFFFFFFFFFFFFFFFFFFFFFFFFFFFFFFFFFF AND DUP2 MSTORE PUSH1 0x20 ADD SWAP1 DUP2 MSTORE PUSH1 0x20 ADD PUSH0 KECCAK256 PUSH1 0x2 ADD SLOAD SWAP1 POP SWAP1 JUMP JUMPDEST DUP1 PUSH2 0x673 DUP2 PUSH2 0x1AF2 JUMP JUMPDEST PUSH2 0x6B2 JUMPI PUSH1 0x40 MLOAD PUSH32 0x8C379A000000000000000000000000000000000000000000000000000000000 DUP2 MSTORE PUSH1 0x4 ADD PUSH2 0x6A9 SWAP1 PUSH2 0x2608 JUMP JUMPDEST PUSH1 0x40 MLOAD DUP1 SWAP2 SUB SWAP1 REVERT JUMPDEST DUP2 PUSH1 0x3 PUSH0 CALLER PUSH20 0xFFFFFFFFFFFFFFFFFFFFFFFFFFFFFFFFFFFFFFFF AND PUSH20 0xFFFFFFFFFFFFFFFFFFFFFFFFFFFFFFFFFFFFFFFF AND DUP2 MSTORE PUSH1 0x20 ADD SWAP1 DUP2 MSTORE PUSH1 0x20 ADD PUSH0 KECCAK256 PUSH1 0x2 ADD DUP2 SWAP1 SSTORE POP POP POP JUMP JUMPDEST PUSH1 0x40 MLOAD DUP1 PUSH1 0x20 ADD PUSH1 0x40 MSTORE DUP1 PUSH0 DUP2 MSTORE POP PUSH1 0x1 DUP4 DUP4 PUSH1 0x40 MLOAD PUSH2 0x71C SWAP3 SWAP2 SWAP1 PUSH2 0x264A JUMP JUMPDEST SWAP1 DUP2 MSTORE PUSH1 0x20 ADD PUSH1 0x40 MLOAD DUP1 SWAP2 SUB SWAP1 KECCAK256 PUSH0 ADD SWAP1 DUP2 PUSH2 0x738 SWAP2 SWAP1 PUSH2 0x27ED JUMP JUMPDEST POP PUSH0 JUMPDEST PUSH1 0x2 DUP1 SLOAD SWAP1 POP DUP2 LT ISZERO PUSH2 0x874 JUMPI DUP3 DUP3 PUSH1 0x40 MLOAD PUSH1 0x20 ADD PUSH2 0x75B SWAP3 SWAP2 SWAP1 PUSH2 0x264A JUMP JUMPDEST PUSH1 0x40 MLOAD PUSH1 0x20 DUP2 DUP4 SUB SUB DUP2 MSTORE SWAP1 PUSH1 0x40 MSTORE DUP1 MLOAD SWAP1 PUSH1 0x20 ADD KECCAK256 PUSH1 0x2 DUP3 DUP2 SLOAD DUP2 LT PUSH2 0x785 JUMPI PUSH2 0x784 PUSH2 0x245C JUMP JUMPDEST JUMPDEST SWAP1 PUSH0 MSTORE PUSH1 0x20 PUSH0 KECCAK256 ADD PUSH1 0x40 MLOAD PUSH1 0x20 ADD PUSH2 0x79D SWAP2 SWAP1 PUSH2 0x2582 JUMP JUMPDEST PUSH1 0x40 MLOAD PUSH1 0x20 DUP2 DUP4 SUB SUB DUP2 MSTORE SWAP1 PUSH1 0x40 MSTORE DUP1 MLOAD SWAP1 PUSH1 0x20 ADD KECCAK256 SUB PUSH2 0x867 JUMPI PUSH0 DUP2 SWAP1 POP JUMPDEST PUSH1 0x1 PUSH1 0x2 DUP1 SLOAD SWAP1 POP PUSH2 0x7CF SWAP2 SWAP1 PUSH2 0x28E9 JUMP JUMPDEST DUP2 LT ISZERO PUSH2 0x834 JUMPI PUSH1 0x2 PUSH1 0x1 DUP3 PUSH2 0x7E5 SWAP2 SWAP1 PUSH2 0x291C JUMP JUMPDEST DUP2 SLOAD DUP2 LT PUSH2 0x7F6 JUMPI PUSH2 0x7F5 PUSH2 0x245C JUMP JUMPDEST JUMPDEST SWAP1 PUSH0 MSTORE PUSH1 0x20 PUSH0 KECCAK256 ADD PUSH1 0x2 DUP3 DUP2 SLOAD DUP2 LT PUSH2 0x812 JUMPI PUSH2 0x811 PUSH2 0x245C JUMP JUMPDEST JUMPDEST SWAP1 PUSH0 MSTORE PUSH1 0x20 PUSH0 KECCAK256 ADD SWAP1 DUP2 PUSH2 0x826 SWAP2 SWAP1 PUSH2 0x2976 JUMP JUMPDEST POP DUP1 DUP1 PUSH1 0x1 ADD SWAP2 POP POP PUSH2 0x7BD JUMP JUMPDEST POP PUSH1 0x2 DUP1 SLOAD DUP1 PUSH2 0x847 JUMPI PUSH2 0x846 PUSH2 0x2A5B JUMP JUMPDEST JUMPDEST PUSH1 0x1 SWAP1 SUB DUP2 DUP2 SWAP1 PUSH0 MSTORE PUSH1 0x20 PUSH0 KECCAK256 ADD PUSH0 PUSH2 0x860 SWAP2 SWAP1 PUSH2 0x1B0E JUMP JUMPDEST SWAP1 SSTORE PUSH2 0x874 JUMP JUMPDEST DUP1 DUP1 PUSH1 0x1 ADD SWAP2 POP POP PUSH2 0x73B JUMP JUMPDEST POP POP POP JUMP JUMPDEST PUSH1 0x60 PUSH0 DUP4 SWAP1 POP PUSH0 DUP4 SWAP1 POP PUSH0 DUP2 MLOAD DUP4 MLOAD PUSH2 0x892 SWAP2 SWAP1 PUSH2 0x291C JUMP JUMPDEST PUSH8 0xFFFFFFFFFFFFFFFF DUP2 GT ISZERO PUSH2 0x8AB JUMPI PUSH2 0x8AA PUSH2 0x1F44 JUMP JUMPDEST JUMPDEST PUSH1 0x40 MLOAD SWAP1 DUP1 DUP3 MSTORE DUP1 PUSH1 0x1F ADD PUSH1 0x1F NOT AND PUSH1 0x20 ADD DUP3 ADD PUSH1 0x40 MSTORE DUP1 ISZERO PUSH2 0x8DD JUMPI DUP2 PUSH1 0x20 ADD PUSH1 0x1 DUP3 MUL DUP1 CALLDATASIZE DUP4 CALLDATACOPY DUP1 DUP3 ADD SWAP2 POP POP SWAP1 POP JUMPDEST POP SWAP1 POP PUSH0 DUP2 SWAP1 POP PUSH0 DUP1 JUMPDEST DUP6 MLOAD DUP2 LT ISZERO PUSH2 0x968 JUMPI DUP6 DUP2 DUP2 MLOAD DUP2 LT PUSH2 0x903 JUMPI PUSH2 0x902 PUSH2 0x245C JUMP JUMPDEST JUMPDEST PUSH1 0x20 ADD ADD MLOAD PUSH1 0xF8 SHR PUSH1 0xF8 SHL DUP4 DUP4 DUP1 PUSH2 0x91A SWAP1 PUSH2 0x2A88 JUMP JUMPDEST SWAP5 POP DUP2 MLOAD DUP2 LT PUSH2 0x92D JUMPI PUSH2 0x92C PUSH2 0x245C JUMP JUMPDEST JUMPDEST PUSH1 0x20 ADD ADD SWAP1 PUSH31 0xFFFFFFFFFFFFFFFFFFFFFFFFFFFFFFFFFFFFFFFFFFFFFFFFFFFFFFFFFFFFFF NOT AND SWAP1 DUP2 PUSH0 BYTE SWAP1 MSTORE8 POP DUP1 DUP1 PUSH1 0x1 ADD SWAP2 POP POP PUSH2 0x8E7 JUMP JUMPDEST POP PUSH0 JUMPDEST DUP5 MLOAD DUP2 LT ISZERO PUSH2 0x9EC JUMPI DUP5 DUP2 DUP2 MLOAD DUP2 LT PUSH2 0x987 JUMPI PUSH2 0x986 PUSH2 0x245C JUMP JUMPDEST JUMPDEST PUSH1 0x20 ADD ADD MLOAD PUSH1 0xF8 SHR PUSH1 0xF8 SHL DUP4 DUP4 DUP1 PUSH2 0x99E SWAP1 PUSH2 0x2A88 JUMP JUMPDEST SWAP5 POP DUP2 MLOAD DUP2 LT PUSH2 0x9B1 JUMPI PUSH2 0x9B0 PUSH2 0x245C JUMP JUMPDEST JUMPDEST PUSH1 0x20 ADD ADD SWAP1 PUSH31 0xFFFFFFFFFFFFFFFFFFFFFFFFFFFFFFFFFFFFFFFFFFFFFFFFFFFFFFFFFFFFFF NOT AND SWAP1 DUP2 PUSH0 BYTE SWAP1 MSTORE8 POP DUP1 DUP1 PUSH1 0x1 ADD SWAP2 POP POP PUSH2 0x96B JUMP JUMPDEST POP DUP2 SWAP6 POP POP POP POP POP POP SWAP3 SWAP2 POP POP JUMP JUMPDEST PUSH0 DUP1 PUSH1 0x1 DUP4 PUSH1 0x40 MLOAD PUSH2 0xA0D SWAP2 SWAP1 PUSH2 0x2AFF JUMP JUMPDEST SWAP1 DUP2 MSTORE PUSH1 0x20 ADD PUSH1 0x40 MLOAD DUP1 SWAP2 SUB SWAP1 KECCAK256 SWAP1 POP DUP1 PUSH0 ADD PUSH1 0x40 MLOAD PUSH1 0x20 ADD PUSH2 0xA30 SWAP2 SWAP1 PUSH2 0x2582 JUMP JUMPDEST PUSH1 0x40 MLOAD PUSH1 0x20 DUP2 DUP4 SUB SUB DUP2 MSTORE SWAP1 PUSH1 0x40 MSTORE DUP1 MLOAD SWAP1 PUSH1 0x20 ADD KECCAK256 PUSH1 0x40 MLOAD PUSH1 0x20 ADD PUSH2 0xA55 SWAP1 PUSH2 0x2B38 JUMP JUMPDEST PUSH1 0x40 MLOAD PUSH1 0x20 DUP2 DUP4 SUB SUB DUP2 MSTORE SWAP1 PUSH1 0x40 MSTORE DUP1 MLOAD SWAP1 PUSH1 0x20 ADD KECCAK256 EQ SWAP2 POP POP SWAP2 SWAP1 POP JUMP JUMPDEST DUP7 DUP7 PUSH1 0x1 DUP10 DUP10 PUSH1 0x40 MLOAD PUSH2 0xA88 SWAP3 SWAP2 SWAP1 PUSH2 0x264A JUMP JUMPDEST SWAP1 DUP2 MSTORE PUSH1 0x20 ADD PUSH1 0x40 MLOAD DUP1 SWAP2 SUB SWAP1 KECCAK256 PUSH0 ADD SWAP2 DUP3 PUSH2 0xAA5 SWAP3 SWAP2 SWAP1 PUSH2 0x2B56 JUMP JUMPDEST POP DUP5 DUP5 PUSH1 0x1 DUP10 DUP10 PUSH1 0x40 MLOAD PUSH2 0xABA SWAP3 SWAP2 SWAP1 PUSH2 0x264A JUMP JUMPDEST SWAP1 DUP2 MSTORE PUSH1 0x20 ADD PUSH1 0x40 MLOAD DUP1 SWAP2 SUB SWAP1 KECCAK256 PUSH1 0x1 ADD SWAP2 DUP3 PUSH2 0xAD8 SWAP3 SWAP2 SWAP1 PUSH2 0x2B56 JUMP JUMPDEST POP DUP3 PUSH1 0x1 DUP9 DUP9 PUSH1 0x40 MLOAD PUSH2 0xAEC SWAP3 SWAP2 SWAP1 PUSH2 0x264A JUMP JUMPDEST SWAP1 DUP2 MSTORE PUSH1 0x20 ADD PUSH1 0x40 MLOAD DUP1 SWAP2 SUB SWAP1 KECCAK256 PUSH1 0x2 ADD DUP2 SWAP1 SSTORE POP PUSH0 JUMPDEST DUP3 DUP3 SWAP1 POP DUP2 LT ISZERO PUSH2 0xB7B JUMPI PUSH1 0x1 DUP9 DUP9 PUSH1 0x40 MLOAD PUSH2 0xB20 SWAP3 SWAP2 SWAP1 PUSH2 0x264A JUMP JUMPDEST SWAP1 DUP2 MSTORE PUSH1 0x20 ADD PUSH1 0x40 MLOAD DUP1 SWAP2 SUB SWAP1 KECCAK256 PUSH1 0x3 ADD DUP4 DUP4 DUP4 DUP2 DUP2 LT PUSH2 0xB44 JUMPI PUSH2 0xB43 PUSH2 0x245C JUMP JUMPDEST JUMPDEST SWAP1 POP PUSH1 0x20 MUL ADD CALLDATALOAD SWAP1 DUP1 PUSH1 0x1 DUP2 SLOAD ADD DUP1 DUP3 SSTORE DUP1 SWAP2 POP POP PUSH1 0x1 SWAP1 SUB SWAP1 PUSH0 MSTORE PUSH1 0x20 PUSH0 KECCAK256 ADD PUSH0 SWAP1 SWAP2 SWAP1 SWAP2 SWAP1 SWAP2 POP SSTORE DUP1 DUP1 PUSH1 0x1 ADD SWAP2 POP POP PUSH2 0xB03 JUMP JUMPDEST POP PUSH1 0x2 DUP8 DUP8 SWAP1 SWAP2 DUP1 PUSH1 0x1 DUP2 SLOAD ADD DUP1 DUP3 SSTORE DUP1 SWAP2 POP POP PUSH1 0x1 SWAP1 SUB SWAP1 PUSH0 MSTORE PUSH1 0x20 PUSH0 KECCAK256 ADD PUSH0 SWAP1 SWAP2 SWAP3 SWAP1 SWAP2 SWAP3 SWAP1 SWAP2 SWAP3 SWAP1 SWAP2 SWAP3 POP SWAP2 DUP3 PUSH2 0xBB6 SWAP3 SWAP2 SWAP1 PUSH2 0x2B56 JUMP JUMPDEST POP POP POP POP POP POP POP POP JUMP JUMPDEST DUP1 PUSH2 0xBCA DUP2 PUSH2 0x1AF2 JUMP JUMPDEST PUSH2 0xC09 JUMPI PUSH1 0x40 MLOAD PUSH32 0x8C379A000000000000000000000000000000000000000000000000000000000 DUP2 MSTORE PUSH1 0x4 ADD PUSH2 0xC00 SWAP1 PUSH2 0x2608 JUMP JUMPDEST PUSH1 0x40 MLOAD DUP1 SWAP2 SUB SWAP1 REVERT JUMPDEST PUSH1 0x40 MLOAD DUP1 PUSH1 0x60 ADD PUSH1 0x40 MSTORE DUP1 DUP8 DUP8 DUP1 DUP1 PUSH1 0x1F ADD PUSH1 0x20 DUP1 SWAP2 DIV MUL PUSH1 0x20 ADD PUSH1 0x40 MLOAD SWAP1 DUP2 ADD PUSH1 0x40 MSTORE DUP1 SWAP4 SWAP3 SWAP2 SWAP1 DUP2 DUP2 MSTORE PUSH1 0x20 ADD DUP4 DUP4 DUP1 DUP3 DUP5 CALLDATACOPY PUSH0 DUP2 DUP5 ADD MSTORE PUSH1 0x1F NOT PUSH1 0x1F DUP3 ADD AND SWAP1 POP DUP1 DUP4 ADD SWAP3 POP POP POP POP POP POP POP DUP2 MSTORE PUSH1 0x20 ADD DUP6 DUP6 DUP1 DUP1 PUSH1 0x1F ADD PUSH1 0x20 DUP1 SWAP2 DIV MUL PUSH1 0x20 ADD PUSH1 0x40 MLOAD SWAP1 DUP2 ADD PUSH1 0x40 MSTORE DUP1 SWAP4 SWAP3 SWAP2 SWAP1 DUP2 DUP2 MSTORE PUSH1 0x20 ADD DUP4 DUP4 DUP1 DUP3 DUP5 CALLDATACOPY PUSH0 DUP2 DUP5 ADD MSTORE PUSH1 0x1F NOT PUSH1 0x1F DUP3 ADD AND SWAP1 POP DUP1 DUP4 ADD SWAP3 POP POP POP POP POP POP POP DUP2 MSTORE PUSH1 0x20 ADD DUP4 DUP2 MSTORE POP PUSH1 0x3 PUSH0 CALLER PUSH20 0xFFFFFFFFFFFFFFFFFFFFFFFFFFFFFFFFFFFFFFFF AND PUSH20 0xFFFFFFFFFFFFFFFFFFFFFFFFFFFFFFFFFFFFFFFF AND DUP2 MSTORE PUSH1 0x20 ADD SWAP1 DUP2 MSTORE PUSH1 0x20 ADD PUSH0 KECCAK256 PUSH0 DUP3 ADD MLOAD DUP2 PUSH0 ADD SWAP1 DUP2 PUSH2 0xCFA SWAP2 SWAP1 PUSH2 0x27ED JUMP JUMPDEST POP PUSH1 0x20 DUP3 ADD MLOAD DUP2 PUSH1 0x1 ADD SWAP1 DUP2 PUSH2 0xD10 SWAP2 SWAP1 PUSH2 0x27ED JUMP JUMPDEST POP PUSH1 0x40 DUP3 ADD MLOAD DUP2 PUSH1 0x2 ADD SSTORE SWAP1 POP POP CALLER PUSH20 0xFFFFFFFFFFFFFFFFFFFFFFFFFFFFFFFFFFFFFFFF AND PUSH32 0x667C663F7DF50E4733806612F28E51B36231EB1FCA15167713029E99B2CBCF57 PUSH1 0x40 MLOAD PUSH2 0xD62 SWAP1 PUSH2 0x2C6D JUMP JUMPDEST PUSH1 0x40 MLOAD DUP1 SWAP2 SUB SWAP1 LOG2 POP POP POP POP POP POP JUMP JUMPDEST PUSH2 0xD7A PUSH2 0x1B4B JUMP JUMPDEST PUSH1 0x3 PUSH0 CALLER PUSH20 0xFFFFFFFFFFFFFFFFFFFFFFFFFFFFFFFFFFFFFFFF AND PUSH20 0xFFFFFFFFFFFFFFFFFFFFFFFFFFFFFFFFFFFFFFFF AND DUP2 MSTORE PUSH1 0x20 ADD SWAP1 DUP2 MSTORE PUSH1 0x20 ADD PUSH0 KECCAK256 PUSH1 0x40 MLOAD DUP1 PUSH1 0x60 ADD PUSH1 0x40 MSTORE SWAP1 DUP2 PUSH0 DUP3 ADD DUP1 SLOAD PUSH2 0xDD1 SWAP1 PUSH2 0x24B6 JUMP JUMPDEST DUP1 PUSH1 0x1F ADD PUSH1 0x20 DUP1 SWAP2 DIV MUL PUSH1 0x20 ADD PUSH1 0x40 MLOAD SWAP1 DUP2 ADD PUSH1 0x40 MSTORE DUP1 SWAP3 SWAP2 SWAP1 DUP2 DUP2 MSTORE PUSH1 0x20 ADD DUP3 DUP1 SLOAD PUSH2 0xDFD SWAP1 PUSH2 0x24B6 JUMP JUMPDEST DUP1 ISZERO PUSH2 0xE48 JUMPI DUP1 PUSH1 0x1F LT PUSH2 0xE1F JUMPI PUSH2 0x100 DUP1 DUP4 SLOAD DIV MUL DUP4 MSTORE SWAP2 PUSH1 0x20 ADD SWAP2 PUSH2 0xE48 JUMP JUMPDEST DUP3 ADD SWAP2 SWAP1 PUSH0 MSTORE PUSH1 0x20 PUSH0 KECCAK256 SWAP1 JUMPDEST DUP2 SLOAD DUP2 MSTORE SWAP1 PUSH1 0x1 ADD SWAP1 PUSH1 0x20 ADD DUP1 DUP4 GT PUSH2 0xE2B JUMPI DUP3 SWAP1 SUB PUSH1 0x1F AND DUP3 ADD SWAP2 JUMPDEST POP POP POP POP POP DUP2 MSTORE PUSH1 0x20 ADD PUSH1 0x1 DUP3 ADD DUP1 SLOAD PUSH2 0xE61 SWAP1 PUSH2 0x24B6 JUMP JUMPDEST DUP1 PUSH1 0x1F ADD PUSH1 0x20 DUP1 SWAP2 DIV MUL PUSH1 0x20 ADD PUSH1 0x40 MLOAD SWAP1 DUP2 ADD PUSH1 0x40 MSTORE DUP1 SWAP3 SWAP2 SWAP1 DUP2 DUP2 MSTORE PUSH1 0x20 ADD DUP3 DUP1 SLOAD PUSH2 0xE8D SWAP1 PUSH2 0x24B6 JUMP JUMPDEST DUP1 ISZERO PUSH2 0xED8 JUMPI DUP1 PUSH1 0x1F LT PUSH2 0xEAF JUMPI PUSH2 0x100 DUP1 DUP4 SLOAD DIV MUL DUP4 MSTORE SWAP2 PUSH1 0x20 ADD SWAP2 PUSH2 0xED8 JUMP JUMPDEST DUP3 ADD SWAP2 SWAP1 PUSH0 MSTORE PUSH1 0x20 PUSH0 KECCAK256 SWAP1 JUMPDEST DUP2 SLOAD DUP2 MSTORE SWAP1 PUSH1 0x1 ADD SWAP1 PUSH1 0x20 ADD DUP1 DUP4 GT PUSH2 0xEBB JUMPI DUP3 SWAP1 SUB PUSH1 0x1F AND DUP3 ADD SWAP2 JUMPDEST POP POP POP POP POP DUP2 MSTORE PUSH1 0x20 ADD PUSH1 0x2 DUP3 ADD SLOAD DUP2 MSTORE POP POP SWAP1 POP SWAP1 JUMP JUMPDEST PUSH1 0x60 PUSH0 DUP3 SUB PUSH2 0xF36 JUMPI PUSH1 0x40 MLOAD DUP1 PUSH1 0x40 ADD PUSH1 0x40 MSTORE DUP1 PUSH1 0x1 DUP2 MSTORE PUSH1 0x20 ADD PUSH32 0x3000000000000000000000000000000000000000000000000000000000000000 DUP2 MSTORE POP SWAP1 POP PUSH2 0x1069 JUMP JUMPDEST PUSH0 DUP3 SWAP1 POP PUSH0 JUMPDEST PUSH0 DUP3 EQ PUSH2 0xF65 JUMPI DUP1 DUP1 PUSH2 0xF4E SWAP1 PUSH2 0x2A88 JUMP JUMPDEST SWAP2 POP POP PUSH1 0xA DUP3 PUSH2 0xF5E SWAP2 SWAP1 PUSH2 0x2CB8 JUMP JUMPDEST SWAP2 POP PUSH2 0xF3C JUMP JUMPDEST PUSH0 DUP2 PUSH8 0xFFFFFFFFFFFFFFFF DUP2 GT ISZERO PUSH2 0xF80 JUMPI PUSH2 0xF7F PUSH2 0x1F44 JUMP JUMPDEST JUMPDEST PUSH1 0x40 MLOAD SWAP1 DUP1 DUP3 MSTORE DUP1 PUSH1 0x1F ADD PUSH1 0x1F NOT AND PUSH1 0x20 ADD DUP3 ADD PUSH1 0x40 MSTORE DUP1 ISZERO PUSH2 0xFB2 JUMPI DUP2 PUSH1 0x20 ADD PUSH1 0x1 DUP3 MUL DUP1 CALLDATASIZE DUP4 CALLDATACOPY DUP1 DUP3 ADD SWAP2 POP POP SWAP1 POP JUMPDEST POP SWAP1 POP PUSH0 DUP3 SWAP1 POP JUMPDEST PUSH0 DUP7 EQ PUSH2 0x1061 JUMPI PUSH1 0x1 DUP2 PUSH2 0xFCE SWAP2 SWAP1 PUSH2 0x28E9 JUMP JUMPDEST SWAP1 POP PUSH0 PUSH1 0xA DUP1 DUP9 PUSH2 0xFDF SWAP2 SWAP1 PUSH2 0x2CB8 JUMP JUMPDEST PUSH2 0xFE9 SWAP2 SWAP1 PUSH2 0x2CE8 JUMP JUMPDEST DUP8 PUSH2 0xFF4 SWAP2 SWAP1 PUSH2 0x28E9 JUMP JUMPDEST PUSH1 0x30 PUSH2 0x1000 SWAP2 SWAP1 PUSH2 0x2D35 JUMP JUMPDEST SWAP1 POP PUSH0 DUP2 PUSH1 0xF8 SHL SWAP1 POP DUP1 DUP5 DUP5 DUP2 MLOAD DUP2 LT PUSH2 0x101D JUMPI PUSH2 0x101C PUSH2 0x245C JUMP JUMPDEST JUMPDEST PUSH1 0x20 ADD ADD SWAP1 PUSH31 0xFFFFFFFFFFFFFFFFFFFFFFFFFFFFFFFFFFFFFFFFFFFFFFFFFFFFFFFFFFFFFF NOT AND SWAP1 DUP2 PUSH0 BYTE SWAP1 MSTORE8 POP PUSH1 0xA DUP9 PUSH2 0x1058 SWAP2 SWAP1 PUSH2 0x2CB8 JUMP JUMPDEST SWAP8 POP POP POP PUSH2 0xFBA JUMP JUMPDEST DUP2 SWAP5 POP POP POP POP POP JUMPDEST SWAP2 SWAP1 POP JUMP JUMPDEST DUP4 DUP4 DUP1 DUP1 PUSH1 0x1F ADD PUSH1 0x20 DUP1 SWAP2 DIV MUL PUSH1 0x20 ADD PUSH1 0x40 MLOAD SWAP1 DUP2 ADD PUSH1 0x40 MSTORE DUP1 SWAP4 SWAP3 SWAP2 SWAP1 DUP2 DUP2 MSTORE PUSH1 0x20 ADD DUP4 DUP4 DUP1 DUP3 DUP5 CALLDATACOPY PUSH0 DUP2 DUP5 ADD MSTORE PUSH1 0x1F NOT PUSH1 0x1F DUP3 ADD AND SWAP1 POP DUP1 DUP4 ADD SWAP3 POP POP POP POP POP POP POP PUSH2 0x10BB DUP2 PUSH2 0x9FB JUMP JUMPDEST ISZERO PUSH2 0x10FB JUMPI PUSH1 0x40 MLOAD PUSH32 0x8C379A000000000000000000000000000000000000000000000000000000000 DUP2 MSTORE PUSH1 0x4 ADD PUSH2 0x10F2 SWAP1 PUSH2 0x2DD9 JUMP JUMPDEST PUSH1 0x40 MLOAD DUP1 SWAP2 SUB SWAP1 REVERT JUMPDEST PUSH0 DUP1 PUSH1 0x40 MLOAD DUP1 PUSH1 0x80 ADD PUSH1 0x40 MSTORE DUP1 DUP9 DUP9 DUP1 DUP1 PUSH1 0x1F ADD PUSH1 0x20 DUP1 SWAP2 DIV MUL PUSH1 0x20 ADD PUSH1 0x40 MLOAD SWAP1 DUP2 ADD PUSH1 0x40 MSTORE DUP1 SWAP4 SWAP3 SWAP2 SWAP1 DUP2 DUP2 MSTORE PUSH1 0x20 ADD DUP4 DUP4 DUP1 DUP3 DUP5 CALLDATACOPY PUSH0 DUP2 DUP5 ADD MSTORE PUSH1 0x1F NOT PUSH1 0x1F DUP3 ADD AND SWAP1 POP DUP1 DUP4 ADD SWAP3 POP POP POP POP POP POP POP DUP2 MSTORE PUSH1 0x20 ADD PUSH0 DUP2 MSTORE PUSH1 0x20 ADD DUP7 DUP7 DUP1 DUP1 PUSH1 0x20 MUL PUSH1 0x20 ADD PUSH1 0x40 MLOAD SWAP1 DUP2 ADD PUSH1 0x40 MSTORE DUP1 SWAP4 SWAP3 SWAP2 SWAP1 DUP2 DUP2 MSTORE PUSH1 0x20 ADD DUP4 DUP4 PUSH1 0x20 MUL DUP1 DUP3 DUP5 CALLDATACOPY PUSH0 DUP2 DUP5 ADD MSTORE PUSH1 0x1F NOT PUSH1 0x1F DUP3 ADD AND SWAP1 POP DUP1 DUP4 ADD SWAP3 POP POP POP POP POP POP POP DUP2 MSTORE PUSH1 0x20 ADD DUP4 PUSH20 0xFFFFFFFFFFFFFFFFFFFFFFFFFFFFFFFFFFFFFFFF AND DUP2 MSTORE POP SWAP1 POP DUP1 PUSH1 0x4 PUSH0 CALLER PUSH20 0xFFFFFFFFFFFFFFFFFFFFFFFFFFFFFFFFFFFFFFFF AND PUSH20 0xFFFFFFFFFFFFFFFFFFFFFFFFFFFFFFFFFFFFFFFF AND DUP2 MSTORE PUSH1 0x20 ADD SWAP1 DUP2 MSTORE PUSH1 0x20 ADD PUSH0 KECCAK256 PUSH0 DUP3 ADD MLOAD DUP2 PUSH0 ADD SWAP1 DUP2 PUSH2 0x120A SWAP2 SWAP1 PUSH2 0x27ED JUMP JUMPDEST POP PUSH1 0x20 DUP3 ADD MLOAD DUP2 PUSH1 0x1 ADD SSTORE PUSH1 0x40 DUP3 ADD MLOAD DUP2 PUSH1 0x2 ADD SWAP1 DUP1 MLOAD SWAP1 PUSH1 0x20 ADD SWAP1 PUSH2 0x1231 SWAP3 SWAP2 SWAP1 PUSH2 0x1B6B JUMP JUMPDEST POP PUSH1 0x60 DUP3 ADD MLOAD DUP2 PUSH1 0x3 ADD PUSH0 PUSH2 0x100 EXP DUP2 SLOAD DUP2 PUSH20 0xFFFFFFFFFFFFFFFFFFFFFFFFFFFFFFFFFFFFFFFF MUL NOT AND SWAP1 DUP4 PUSH20 0xFFFFFFFFFFFFFFFFFFFFFFFFFFFFFFFFFFFFFFFF AND MUL OR SWAP1 SSTORE POP SWAP1 POP POP PUSH0 JUMPDEST PUSH1 0x1 DUP9 DUP9 PUSH1 0x40 MLOAD PUSH2 0x128F SWAP3 SWAP2 SWAP1 PUSH2 0x264A JUMP JUMPDEST SWAP1 DUP2 MSTORE PUSH1 0x20 ADD PUSH1 0x40 MLOAD DUP1 SWAP2 SUB SWAP1 KECCAK256 PUSH1 0x3 ADD DUP1 SLOAD SWAP1 POP DUP2 LT ISZERO PUSH2 0x1AE8 JUMPI PUSH0 PUSH1 0x1 DUP10 DUP10 PUSH1 0x40 MLOAD PUSH2 0x12BE SWAP3 SWAP2 SWAP1 PUSH2 0x264A JUMP JUMPDEST SWAP1 DUP2 MSTORE PUSH1 0x20 ADD PUSH1 0x40 MLOAD DUP1 SWAP2 SUB SWAP1 KECCAK256 PUSH1 0x3 ADD DUP3 DUP2 SLOAD DUP2 LT PUSH2 0x12E1 JUMPI PUSH2 0x12E0 PUSH2 0x245C JUMP JUMPDEST JUMPDEST SWAP1 PUSH0 MSTORE PUSH1 0x20 PUSH0 KECCAK256 ADD SLOAD DUP8 DUP8 DUP5 DUP2 DUP2 LT PUSH2 0x12FD JUMPI PUSH2 0x12FC PUSH2 0x245C JUMP JUMPDEST JUMPDEST SWAP1 POP PUSH1 0x20 MUL ADD CALLDATALOAD PUSH2 0x130E SWAP2 SWAP1 PUSH2 0x2E00 JUMP JUMPDEST SWAP1 POP PUSH0 DUP2 SUB PUSH2 0x144D JUMPI PUSH0 PUSH2 0x139A PUSH1 0x40 MLOAD DUP1 PUSH1 0x40 ADD PUSH1 0x40 MSTORE DUP1 PUSH1 0x10 DUP2 MSTORE PUSH1 0x20 ADD PUSH32 0x73636F7265642061207061722061742000000000000000000000000000000000 DUP2 MSTORE POP DUP12 DUP12 DUP1 DUP1 PUSH1 0x1F ADD PUSH1 0x20 DUP1 SWAP2 DIV MUL PUSH1 0x20 ADD PUSH1 0x40 MLOAD SWAP1 DUP2 ADD PUSH1 0x40 MSTORE DUP1 SWAP4 SWAP3 SWAP2 SWAP1 DUP2 DUP2 MSTORE PUSH1 0x20 ADD DUP4 DUP4 DUP1 DUP3 DUP5 CALLDATACOPY PUSH0 DUP2 DUP5 ADD MSTORE PUSH1 0x1F NOT PUSH1 0x1F DUP3 ADD AND SWAP1 POP DUP1 DUP4 ADD SWAP3 POP POP POP POP POP POP POP PUSH2 0x879 JUMP JUMPDEST SWAP1 POP PUSH2 0x13DB DUP2 PUSH1 0x40 MLOAD DUP1 PUSH1 0x40 ADD PUSH1 0x40 MSTORE DUP1 PUSH1 0x9 DUP2 MSTORE PUSH1 0x20 ADD PUSH32 0x206F6E20686F6C65200000000000000000000000000000000000000000000000 DUP2 MSTORE POP PUSH2 0x879 JUMP JUMPDEST SWAP1 POP PUSH2 0x13FB DUP2 PUSH2 0x13F6 PUSH1 0x1 DUP7 PUSH2 0x13F1 SWAP2 SWAP1 PUSH2 0x291C JUMP JUMPDEST PUSH2 0xEF0 JUMP JUMPDEST PUSH2 0x879 JUMP JUMPDEST SWAP1 POP CALLER PUSH20 0xFFFFFFFFFFFFFFFFFFFFFFFFFFFFFFFFFFFFFFFF AND PUSH32 0x667C663F7DF50E4733806612F28E51B36231EB1FCA15167713029E99B2CBCF57 DUP3 PUSH1 0x40 MLOAD PUSH2 0x1443 SWAP2 SWAP1 PUSH2 0x2126 JUMP JUMPDEST PUSH1 0x40 MLOAD DUP1 SWAP2 SUB SWAP1 LOG2 POP JUMPDEST PUSH1 0x1 DUP2 SUB PUSH2 0x158B JUMPI PUSH0 PUSH2 0x14D8 PUSH1 0x40 MLOAD DUP1 PUSH1 0x40 ADD PUSH1 0x40 MSTORE DUP1 PUSH1 0x12 DUP2 MSTORE PUSH1 0x20 ADD PUSH32 0x73636F726564206120626F676579206174200000000000000000000000000000 DUP2 MSTORE POP DUP12 DUP12 DUP1 DUP1 PUSH1 0x1F ADD PUSH1 0x20 DUP1 SWAP2 DIV MUL PUSH1 0x20 ADD PUSH1 0x40 MLOAD SWAP1 DUP2 ADD PUSH1 0x40 MSTORE DUP1 SWAP4 SWAP3 SWAP2 SWAP1 DUP2 DUP2 MSTORE PUSH1 0x20 ADD DUP4 DUP4 DUP1 DUP3 DUP5 CALLDATACOPY PUSH0 DUP2 DUP5 ADD MSTORE PUSH1 0x1F NOT PUSH1 0x1F DUP3 ADD AND SWAP1 POP DUP1 DUP4 ADD SWAP3 POP POP POP POP POP POP POP PUSH2 0x879 JUMP JUMPDEST SWAP1 POP PUSH2 0x1519 DUP2 PUSH1 0x40 MLOAD DUP1 PUSH1 0x40 ADD PUSH1 0x40 MSTORE DUP1 PUSH1 0x9 DUP2 MSTORE PUSH1 0x20 ADD PUSH32 0x206F6E20686F6C65200000000000000000000000000000000000000000000000 DUP2 MSTORE POP PUSH2 0x879 JUMP JUMPDEST SWAP1 POP PUSH2 0x1539 DUP2 PUSH2 0x1534 PUSH1 0x1 DUP7 PUSH2 0x152F SWAP2 SWAP1 PUSH2 0x291C JUMP JUMPDEST PUSH2 0xEF0 JUMP JUMPDEST PUSH2 0x879 JUMP JUMPDEST SWAP1 POP CALLER PUSH20 0xFFFFFFFFFFFFFFFFFFFFFFFFFFFFFFFFFFFFFFFF AND PUSH32 0x667C663F7DF50E4733806612F28E51B36231EB1FCA15167713029E99B2CBCF57 DUP3 PUSH1 0x40 MLOAD PUSH2 0x1581 SWAP2 SWAP1 PUSH2 0x2126 JUMP JUMPDEST PUSH1 0x40 MLOAD DUP1 SWAP2 SUB SWAP1 LOG2 POP JUMPDEST PUSH1 0x2 DUP2 SUB PUSH2 0x16C9 JUMPI PUSH0 PUSH2 0x1616 PUSH1 0x40 MLOAD DUP1 PUSH1 0x40 ADD PUSH1 0x40 MSTORE DUP1 PUSH1 0x19 DUP2 MSTORE PUSH1 0x20 ADD PUSH32 0x73636F726564206120646F75626C6520626F6765792061742000000000000000 DUP2 MSTORE POP DUP12 DUP12 DUP1 DUP1 PUSH1 0x1F ADD PUSH1 0x20 DUP1 SWAP2 DIV MUL PUSH1 0x20 ADD PUSH1 0x40 MLOAD SWAP1 DUP2 ADD PUSH1 0x40 MSTORE DUP1 SWAP4 SWAP3 SWAP2 SWAP1 DUP2 DUP2 MSTORE PUSH1 0x20 ADD DUP4 DUP4 DUP1 DUP3 DUP5 CALLDATACOPY PUSH0 DUP2 DUP5 ADD MSTORE PUSH1 0x1F NOT PUSH1 0x1F DUP3 ADD AND SWAP1 POP DUP1 DUP4 ADD SWAP3 POP POP POP POP POP POP POP PUSH2 0x879 JUMP JUMPDEST SWAP1 POP PUSH2 0x1657 DUP2 PUSH1 0x40 MLOAD DUP1 PUSH1 0x40 ADD PUSH1 0x40 MSTORE DUP1 PUSH1 0x9 DUP2 MSTORE PUSH1 0x20 ADD PUSH32 0x206F6E20686F6C65200000000000000000000000000000000000000000000000 DUP2 MSTORE POP PUSH2 0x879 JUMP JUMPDEST SWAP1 POP PUSH2 0x1677 DUP2 PUSH2 0x1672 PUSH1 0x1 DUP7 PUSH2 0x166D SWAP2 SWAP1 PUSH2 0x291C JUMP JUMPDEST PUSH2 0xEF0 JUMP JUMPDEST PUSH2 0x879 JUMP JUMPDEST SWAP1 POP CALLER PUSH20 0xFFFFFFFFFFFFFFFFFFFFFFFFFFFFFFFFFFFFFFFF AND PUSH32 0x667C663F7DF50E4733806612F28E51B36231EB1FCA15167713029E99B2CBCF57 DUP3 PUSH1 0x40 MLOAD PUSH2 0x16BF SWAP2 SWAP1 PUSH2 0x2126 JUMP JUMPDEST PUSH1 0x40 MLOAD DUP1 SWAP2 SUB SWAP1 LOG2 POP JUMPDEST PUSH32 0xFFFFFFFFFFFFFFFFFFFFFFFFFFFFFFFFFFFFFFFFFFFFFFFFFFFFFFFFFFFFFFFF DUP2 SUB PUSH2 0x1826 JUMPI PUSH0 PUSH2 0x1773 PUSH1 0x40 MLOAD DUP1 PUSH1 0x40 ADD PUSH1 0x40 MSTORE DUP1 PUSH1 0x13 DUP2 MSTORE PUSH1 0x20 ADD PUSH32 0x73636F7265642061206269726469652061742000000000000000000000000000 DUP2 MSTORE POP DUP12 DUP12 DUP1 DUP1 PUSH1 0x1F ADD PUSH1 0x20 DUP1 SWAP2 DIV MUL PUSH1 0x20 ADD PUSH1 0x40 MLOAD SWAP1 DUP2 ADD PUSH1 0x40 MSTORE DUP1 SWAP4 SWAP3 SWAP2 SWAP1 DUP2 DUP2 MSTORE PUSH1 0x20 ADD DUP4 DUP4 DUP1 DUP3 DUP5 CALLDATACOPY PUSH0 DUP2 DUP5 ADD MSTORE PUSH1 0x1F NOT PUSH1 0x1F DUP3 ADD AND SWAP1 POP DUP1 DUP4 ADD SWAP3 POP POP POP POP POP POP POP PUSH2 0x879 JUMP JUMPDEST SWAP1 POP PUSH2 0x17B4 DUP2 PUSH1 0x40 MLOAD DUP1 PUSH1 0x40 ADD PUSH1 0x40 MSTORE DUP1 PUSH1 0x9 DUP2 MSTORE PUSH1 0x20 ADD PUSH32 0x206F6E20686F6C65200000000000000000000000000000000000000000000000 DUP2 MSTORE POP PUSH2 0x879 JUMP JUMPDEST SWAP1 POP PUSH2 0x17D4 DUP2 PUSH2 0x17CF PUSH1 0x1 DUP7 PUSH2 0x17CA SWAP2 SWAP1 PUSH2 0x291C JUMP JUMPDEST PUSH2 0xEF0 JUMP JUMPDEST PUSH2 0x879 JUMP JUMPDEST SWAP1 POP CALLER PUSH20 0xFFFFFFFFFFFFFFFFFFFFFFFFFFFFFFFFFFFFFFFF AND PUSH32 0x667C663F7DF50E4733806612F28E51B36231EB1FCA15167713029E99B2CBCF57 DUP3 PUSH1 0x40 MLOAD PUSH2 0x181C SWAP2 SWAP1 PUSH2 0x2126 JUMP JUMPDEST PUSH1 0x40 MLOAD DUP1 SWAP2 SUB SWAP1 LOG2 POP JUMPDEST PUSH32 0xFFFFFFFFFFFFFFFFFFFFFFFFFFFFFFFFFFFFFFFFFFFFFFFFFFFFFFFFFFFFFFFE DUP2 SUB PUSH2 0x1983 JUMPI PUSH0 PUSH2 0x18D0 PUSH1 0x40 MLOAD DUP1 PUSH1 0x40 ADD PUSH1 0x40 MSTORE DUP1 PUSH1 0x13 DUP2 MSTORE PUSH1 0x20 ADD PUSH32 0x73636F72656420616E206561676C652061742000000000000000000000000000 DUP2 MSTORE POP DUP12 DUP12 DUP1 DUP1 PUSH1 0x1F ADD PUSH1 0x20 DUP1 SWAP2 DIV MUL PUSH1 0x20 ADD PUSH1 0x40 MLOAD SWAP1 DUP2 ADD PUSH1 0x40 MSTORE DUP1 SWAP4 SWAP3 SWAP2 SWAP1 DUP2 DUP2 MSTORE PUSH1 0x20 ADD DUP4 DUP4 DUP1 DUP3 DUP5 CALLDATACOPY PUSH0 DUP2 DUP5 ADD MSTORE PUSH1 0x1F NOT PUSH1 0x1F DUP3 ADD AND SWAP1 POP DUP1 DUP4 ADD SWAP3 POP POP POP POP POP POP POP PUSH2 0x879 JUMP JUMPDEST SWAP1 POP PUSH2 0x1911 DUP2 PUSH1 0x40 MLOAD DUP1 PUSH1 0x40 ADD PUSH1 0x40 MSTORE DUP1 PUSH1 0x9 DUP2 MSTORE PUSH1 0x20 ADD PUSH32 0x206F6E20686F6C65200000000000000000000000000000000000000000000000 DUP2 MSTORE POP PUSH2 0x879 JUMP JUMPDEST SWAP1 POP PUSH2 0x1931 DUP2 PUSH2 0x192C PUSH1 0x1 DUP7 PUSH2 0x1927 SWAP2 SWAP1 PUSH2 0x291C JUMP JUMPDEST PUSH2 0xEF0 JUMP JUMPDEST PUSH2 0x879 JUMP JUMPDEST SWAP1 POP CALLER PUSH20 0xFFFFFFFFFFFFFFFFFFFFFFFFFFFFFFFFFFFFFFFF AND PUSH32 0x667C663F7DF50E4733806612F28E51B36231EB1FCA15167713029E99B2CBCF57 DUP3 PUSH1 0x40 MLOAD PUSH2 0x1979 SWAP2 SWAP1 PUSH2 0x2126 JUMP JUMPDEST PUSH1 0x40 MLOAD DUP1 SWAP2 SUB SWAP1 LOG2 POP JUMPDEST PUSH1 0x1 DUP8 DUP8 DUP5 DUP2 DUP2 LT PUSH2 0x1998 JUMPI PUSH2 0x1997 PUSH2 0x245C JUMP JUMPDEST JUMPDEST SWAP1 POP PUSH1 0x20 MUL ADD CALLDATALOAD SUB PUSH2 0x1ADA JUMPI PUSH0 PUSH2 0x1A27 PUSH1 0x40 MLOAD DUP1 PUSH1 0x40 ADD PUSH1 0x40 MSTORE DUP1 PUSH1 0x15 DUP2 MSTORE PUSH1 0x20 ADD PUSH32 0x574F57206120686F6C6520696E206F6E65206174200000000000000000000000 DUP2 MSTORE POP DUP12 DUP12 DUP1 DUP1 PUSH1 0x1F ADD PUSH1 0x20 DUP1 SWAP2 DIV MUL PUSH1 0x20 ADD PUSH1 0x40 MLOAD SWAP1 DUP2 ADD PUSH1 0x40 MSTORE DUP1 SWAP4 SWAP3 SWAP2 SWAP1 DUP2 DUP2 MSTORE PUSH1 0x20 ADD DUP4 DUP4 DUP1 DUP3 DUP5 CALLDATACOPY PUSH0 DUP2 DUP5 ADD MSTORE PUSH1 0x1F NOT PUSH1 0x1F DUP3 ADD AND SWAP1 POP DUP1 DUP4 ADD SWAP3 POP POP POP POP POP POP POP PUSH2 0x879 JUMP JUMPDEST SWAP1 POP PUSH2 0x1A68 DUP2 PUSH1 0x40 MLOAD DUP1 PUSH1 0x40 ADD PUSH1 0x40 MSTORE DUP1 PUSH1 0x9 DUP2 MSTORE PUSH1 0x20 ADD PUSH32 0x206F6E20686F6C65200000000000000000000000000000000000000000000000 DUP2 MSTORE POP PUSH2 0x879 JUMP JUMPDEST SWAP1 POP PUSH2 0x1A88 DUP2 PUSH2 0x1A83 PUSH1 0x1 DUP7 PUSH2 0x1A7E SWAP2 SWAP1 PUSH2 0x291C JUMP JUMPDEST PUSH2 0xEF0 JUMP JUMPDEST PUSH2 0x879 JUMP JUMPDEST SWAP1 POP CALLER PUSH20 0xFFFFFFFFFFFFFFFFFFFFFFFFFFFFFFFFFFFFFFFF AND PUSH32 0x667C663F7DF50E4733806612F28E51B36231EB1FCA15167713029E99B2CBCF57 DUP3 PUSH1 0x40 MLOAD PUSH2 0x1AD0 SWAP2 SWAP1 PUSH2 0x2126 JUMP JUMPDEST PUSH1 0x40 MLOAD DUP1 SWAP2 SUB SWAP1 LOG2 POP JUMPDEST POP DUP1 DUP1 PUSH1 0x1 ADD SWAP2 POP POP PUSH2 0x127D JUMP JUMPDEST POP POP POP POP POP POP POP POP JUMP JUMPDEST PUSH0 PUSH1 0x36 DUP3 GT ISZERO PUSH2 0x1B04 JUMPI PUSH0 SWAP1 POP PUSH2 0x1B09 JUMP JUMPDEST PUSH1 0x1 SWAP1 POP JUMPDEST SWAP2 SWAP1 POP JUMP JUMPDEST POP DUP1 SLOAD PUSH2 0x1B1A SWAP1 PUSH2 0x24B6 JUMP JUMPDEST PUSH0 DUP3 SSTORE DUP1 PUSH1 0x1F LT PUSH2 0x1B2B JUMPI POP PUSH2 0x1B48 JUMP JUMPDEST PUSH1 0x1F ADD PUSH1 0x20 SWAP1 DIV SWAP1 PUSH0 MSTORE PUSH1 0x20 PUSH0 KECCAK256 SWAP1 DUP2 ADD SWAP1 PUSH2 0x1B47 SWAP2 SWAP1 PUSH2 0x1BB6 JUMP JUMPDEST JUMPDEST POP JUMP JUMPDEST PUSH1 0x40 MLOAD DUP1 PUSH1 0x60 ADD PUSH1 0x40 MSTORE DUP1 PUSH1 0x60 DUP2 MSTORE PUSH1 0x20 ADD PUSH1 0x60 DUP2 MSTORE PUSH1 0x20 ADD PUSH0 DUP2 MSTORE POP SWAP1 JUMP JUMPDEST DUP3 DUP1 SLOAD DUP3 DUP3 SSTORE SWAP1 PUSH0 MSTORE PUSH1 0x20 PUSH0 KECCAK256 SWAP1 DUP2 ADD SWAP3 DUP3 ISZERO PUSH2 0x1BA5 JUMPI SWAP2 PUSH1 0x20 MUL DUP3 ADD JUMPDEST DUP3 DUP2 GT ISZERO PUSH2 0x1BA4 JUMPI DUP3 MLOAD DUP3 SSTORE SWAP2 PUSH1 0x20 ADD SWAP2 SWAP1 PUSH1 0x1 ADD SWAP1 PUSH2 0x1B89 JUMP JUMPDEST JUMPDEST POP SWAP1 POP PUSH2 0x1BB2 SWAP2 SWAP1 PUSH2 0x1BB6 JUMP JUMPDEST POP SWAP1 JUMP JUMPDEST JUMPDEST DUP1 DUP3 GT ISZERO PUSH2 0x1BCD JUMPI PUSH0 DUP2 PUSH0 SWAP1 SSTORE POP PUSH1 0x1 ADD PUSH2 0x1BB7 JUMP JUMPDEST POP SWAP1 JUMP JUMPDEST PUSH0 DUP2 MLOAD SWAP1 POP SWAP2 SWAP1 POP JUMP JUMPDEST PUSH0 DUP3 DUP3 MSTORE PUSH1 0x20 DUP3 ADD SWAP1 POP SWAP3 SWAP2 POP POP JUMP JUMPDEST PUSH0 DUP2 SWAP1 POP PUSH1 0x20 DUP3 ADD SWAP1 POP SWAP2 SWAP1 POP JUMP JUMPDEST PUSH0 DUP2 MLOAD SWAP1 POP SWAP2 SWAP1 POP JUMP JUMPDEST PUSH0 DUP3 DUP3 MSTORE PUSH1 0x20 DUP3 ADD SWAP1 POP SWAP3 SWAP2 POP POP JUMP JUMPDEST DUP3 DUP2 DUP4 MCOPY PUSH0 DUP4 DUP4 ADD MSTORE POP POP POP JUMP JUMPDEST PUSH0 PUSH1 0x1F NOT PUSH1 0x1F DUP4 ADD AND SWAP1 POP SWAP2 SWAP1 POP JUMP JUMPDEST PUSH0 PUSH2 0x1C3C DUP3 PUSH2 0x1BFA JUMP JUMPDEST PUSH2 0x1C46 DUP2 DUP6 PUSH2 0x1C04 JUMP JUMPDEST SWAP4 POP PUSH2 0x1C56 DUP2 DUP6 PUSH1 0x20 DUP7 ADD PUSH2 0x1C14 JUMP JUMPDEST PUSH2 0x1C5F DUP2 PUSH2 0x1C22 JUMP JUMPDEST DUP5 ADD SWAP2 POP POP SWAP3 SWAP2 POP POP JUMP JUMPDEST PUSH0 PUSH2 0x1C75 DUP4 DUP4 PUSH2 0x1C32 JUMP JUMPDEST SWAP1 POP SWAP3 SWAP2 POP POP JUMP JUMPDEST PUSH0 PUSH1 0x20 DUP3 ADD SWAP1 POP SWAP2 SWAP1 POP JUMP JUMPDEST PUSH0 PUSH2 0x1C93 DUP3 PUSH2 0x1BD1 JUMP JUMPDEST PUSH2 0x1C9D DUP2 DUP6 PUSH2 0x1BDB JUMP JUMPDEST SWAP4 POP DUP4 PUSH1 0x20 DUP3 MUL DUP6 ADD PUSH2 0x1CAF DUP6 PUSH2 0x1BEB JUMP JUMPDEST DUP1 PUSH0 JUMPDEST DUP6 DUP2 LT ISZERO PUSH2 0x1CEA JUMPI DUP5 DUP5 SUB DUP10 MSTORE DUP2 MLOAD PUSH2 0x1CCB DUP6 DUP3 PUSH2 0x1C6A JUMP JUMPDEST SWAP5 POP PUSH2 0x1CD6 DUP4 PUSH2 0x1C7D JUMP JUMPDEST SWAP3 POP PUSH1 0x20 DUP11 ADD SWAP10 POP POP PUSH1 0x1 DUP2 ADD SWAP1 POP PUSH2 0x1CB2 JUMP JUMPDEST POP DUP3 SWAP8 POP DUP8 SWAP6 POP POP POP POP POP POP SWAP3 SWAP2 POP POP JUMP JUMPDEST PUSH0 DUP2 MLOAD SWAP1 POP SWAP2 SWAP1 POP JUMP JUMPDEST PUSH0 DUP3 DUP3 MSTORE PUSH1 0x20 DUP3 ADD SWAP1 POP SWAP3 SWAP2 POP POP JUMP JUMPDEST PUSH0 DUP2 SWAP1 POP PUSH1 0x20 DUP3 ADD SWAP1 POP SWAP2 SWAP1 POP JUMP JUMPDEST PUSH0 DUP2 SWAP1 POP SWAP2 SWAP1 POP JUMP JUMPDEST PUSH2 0x1D37 DUP2 PUSH2 0x1D25 JUMP JUMPDEST DUP3 MSTORE POP POP JUMP JUMPDEST PUSH0 PUSH2 0x1D48 DUP4 DUP4 PUSH2 0x1D2E JUMP JUMPDEST PUSH1 0x20 DUP4 ADD SWAP1 POP SWAP3 SWAP2 POP POP JUMP JUMPDEST PUSH0 PUSH1 0x20 DUP3 ADD SWAP1 POP SWAP2 SWAP1 POP JUMP JUMPDEST PUSH0 PUSH2 0x1D6A DUP3 PUSH2 0x1CFC JUMP JUMPDEST PUSH2 0x1D74 DUP2 DUP6 PUSH2 0x1D06 JUMP JUMPDEST SWAP4 POP PUSH2 0x1D7F DUP4 PUSH2 0x1D16 JUMP JUMPDEST DUP1 PUSH0 JUMPDEST DUP4 DUP2 LT ISZERO PUSH2 0x1DAF JUMPI DUP2 MLOAD PUSH2 0x1D96 DUP9 DUP3 PUSH2 0x1D3D JUMP JUMPDEST SWAP8 POP PUSH2 0x1DA1 DUP4 PUSH2 0x1D54 JUMP JUMPDEST SWAP3 POP POP PUSH1 0x1 DUP2 ADD SWAP1 POP PUSH2 0x1D82 JUMP JUMPDEST POP DUP6 SWAP4 POP POP POP POP SWAP3 SWAP2 POP POP JUMP JUMPDEST PUSH0 PUSH1 0x60 DUP3 ADD SWAP1 POP DUP2 DUP2 SUB PUSH0 DUP4 ADD MSTORE PUSH2 0x1DD4 DUP2 DUP7 PUSH2 0x1C89 JUMP JUMPDEST SWAP1 POP DUP2 DUP2 SUB PUSH1 0x20 DUP4 ADD MSTORE PUSH2 0x1DE8 DUP2 DUP6 PUSH2 0x1C89 JUMP JUMPDEST SWAP1 POP DUP2 DUP2 SUB PUSH1 0x40 DUP4 ADD MSTORE PUSH2 0x1DFC DUP2 DUP5 PUSH2 0x1D60 JUMP JUMPDEST SWAP1 POP SWAP5 SWAP4 POP POP POP POP JUMP JUMPDEST PUSH2 0x1E0F DUP2 PUSH2 0x1D25 JUMP JUMPDEST DUP3 MSTORE POP POP JUMP JUMPDEST PUSH0 PUSH1 0x20 DUP3 ADD SWAP1 POP PUSH2 0x1E28 PUSH0 DUP4 ADD DUP5 PUSH2 0x1E06 JUMP JUMPDEST SWAP3 SWAP2 POP POP JUMP JUMPDEST PUSH0 PUSH1 0x40 MLOAD SWAP1 POP SWAP1 JUMP JUMPDEST PUSH0 DUP1 REVERT JUMPDEST PUSH0 DUP1 REVERT JUMPDEST PUSH2 0x1E48 DUP2 PUSH2 0x1D25 JUMP JUMPDEST DUP2 EQ PUSH2 0x1E52 JUMPI PUSH0 DUP1 REVERT JUMPDEST POP JUMP JUMPDEST PUSH0 DUP2 CALLDATALOAD SWAP1 POP PUSH2 0x1E63 DUP2 PUSH2 0x1E3F JUMP JUMPDEST SWAP3 SWAP2 POP POP JUMP JUMPDEST PUSH0 PUSH1 0x20 DUP3 DUP5 SUB SLT ISZERO PUSH2 0x1E7E JUMPI PUSH2 0x1E7D PUSH2 0x1E37 JUMP JUMPDEST JUMPDEST PUSH0 PUSH2 0x1E8B DUP5 DUP3 DUP6 ADD PUSH2 0x1E55 JUMP JUMPDEST SWAP2 POP POP SWAP3 SWAP2 POP POP JUMP JUMPDEST PUSH0 DUP1 REVERT JUMPDEST PUSH0 DUP1 REVERT JUMPDEST PUSH0 DUP1 REVERT JUMPDEST PUSH0 DUP1 DUP4 PUSH1 0x1F DUP5 ADD SLT PUSH2 0x1EB5 JUMPI PUSH2 0x1EB4 PUSH2 0x1E94 JUMP JUMPDEST JUMPDEST DUP3 CALLDATALOAD SWAP1 POP PUSH8 0xFFFFFFFFFFFFFFFF DUP2 GT ISZERO PUSH2 0x1ED2 JUMPI PUSH2 0x1ED1 PUSH2 0x1E98 JUMP JUMPDEST JUMPDEST PUSH1 0x20 DUP4 ADD SWAP2 POP DUP4 PUSH1 0x1 DUP3 MUL DUP4 ADD GT ISZERO PUSH2 0x1EEE JUMPI PUSH2 0x1EED PUSH2 0x1E9C JUMP JUMPDEST JUMPDEST SWAP3 POP SWAP3 SWAP1 POP JUMP JUMPDEST PUSH0 DUP1 PUSH1 0x20 DUP4 DUP6 SUB SLT ISZERO PUSH2 0x1F0B JUMPI PUSH2 0x1F0A PUSH2 0x1E37 JUMP JUMPDEST JUMPDEST PUSH0 DUP4 ADD CALLDATALOAD PUSH8 0xFFFFFFFFFFFFFFFF DUP2 GT ISZERO PUSH2 0x1F28 JUMPI PUSH2 0x1F27 PUSH2 0x1E3B JUMP JUMPDEST JUMPDEST PUSH2 0x1F34 DUP6 DUP3 DUP7 ADD PUSH2 0x1EA0 JUMP JUMPDEST SWAP3 POP SWAP3 POP POP SWAP3 POP SWAP3 SWAP1 POP JUMP JUMPDEST PUSH0 DUP1 REVERT JUMPDEST PUSH32 0x4E487B7100000000000000000000000000000000000000000000000000000000 PUSH0 MSTORE PUSH1 0x41 PUSH1 0x4 MSTORE PUSH1 0x24 PUSH0 REVERT JUMPDEST PUSH2 0x1F7A DUP3 PUSH2 0x1C22 JUMP JUMPDEST DUP2 ADD DUP2 DUP2 LT PUSH8 0xFFFFFFFFFFFFFFFF DUP3 GT OR ISZERO PUSH2 0x1F99 JUMPI PUSH2 0x1F98 PUSH2 0x1F44 JUMP JUMPDEST JUMPDEST DUP1 PUSH1 0x40 MSTORE POP POP POP JUMP JUMPDEST PUSH0 PUSH2 0x1FAB PUSH2 0x1E2E JUMP JUMPDEST SWAP1 POP PUSH2 0x1FB7 DUP3 DUP3 PUSH2 0x1F71 JUMP JUMPDEST SWAP2 SWAP1 POP JUMP JUMPDEST PUSH0 PUSH8 0xFFFFFFFFFFFFFFFF DUP3 GT ISZERO PUSH2 0x1FD6 JUMPI PUSH2 0x1FD5 PUSH2 0x1F44 JUMP JUMPDEST JUMPDEST PUSH2 0x1FDF DUP3 PUSH2 0x1C22 JUMP JUMPDEST SWAP1 POP PUSH1 0x20 DUP2 ADD SWAP1 POP SWAP2 SWAP1 POP JUMP JUMPDEST DUP3 DUP2 DUP4 CALLDATACOPY PUSH0 DUP4 DUP4 ADD MSTORE POP POP POP JUMP JUMPDEST PUSH0 PUSH2 0x200C PUSH2 0x2007 DUP5 PUSH2 0x1FBC JUMP JUMPDEST PUSH2 0x1FA2 JUMP JUMPDEST SWAP1 POP DUP3 DUP2 MSTORE PUSH1 0x20 DUP2 ADD DUP5 DUP5 DUP5 ADD GT ISZERO PUSH2 0x2028 JUMPI PUSH2 0x2027 PUSH2 0x1F40 JUMP JUMPDEST JUMPDEST PUSH2 0x2033 DUP5 DUP3 DUP6 PUSH2 0x1FEC JUMP JUMPDEST POP SWAP4 SWAP3 POP POP POP JUMP JUMPDEST PUSH0 DUP3 PUSH1 0x1F DUP4 ADD SLT PUSH2 0x204F JUMPI PUSH2 0x204E PUSH2 0x1E94 JUMP JUMPDEST JUMPDEST DUP2 CALLDATALOAD PUSH2 0x205F DUP5 DUP3 PUSH1 0x20 DUP7 ADD PUSH2 0x1FFA JUMP JUMPDEST SWAP2 POP POP SWAP3 SWAP2 POP POP JUMP JUMPDEST PUSH0 DUP1 PUSH1 0x40 DUP4 DUP6 SUB SLT ISZERO PUSH2 0x207E JUMPI PUSH2 0x207D PUSH2 0x1E37 JUMP JUMPDEST JUMPDEST PUSH0 DUP4 ADD CALLDATALOAD PUSH8 0xFFFFFFFFFFFFFFFF DUP2 GT ISZERO PUSH2 0x209B JUMPI PUSH2 0x209A PUSH2 0x1E3B JUMP JUMPDEST JUMPDEST PUSH2 0x20A7 DUP6 DUP3 DUP7 ADD PUSH2 0x203B JUMP JUMPDEST SWAP3 POP POP PUSH1 0x20 DUP4 ADD CALLDATALOAD PUSH8 0xFFFFFFFFFFFFFFFF DUP2 GT ISZERO PUSH2 0x20C8 JUMPI PUSH2 0x20C7 PUSH2 0x1E3B JUMP JUMPDEST JUMPDEST PUSH2 0x20D4 DUP6 DUP3 DUP7 ADD PUSH2 0x203B JUMP JUMPDEST SWAP2 POP POP SWAP3 POP SWAP3 SWAP1 POP JUMP JUMPDEST PUSH0 DUP3 DUP3 MSTORE PUSH1 0x20 DUP3 ADD SWAP1 POP SWAP3 SWAP2 POP POP JUMP JUMPDEST PUSH0 PUSH2 0x20F8 DUP3 PUSH2 0x1BFA JUMP JUMPDEST PUSH2 0x2102 DUP2 DUP6 PUSH2 0x20DE JUMP JUMPDEST SWAP4 POP PUSH2 0x2112 DUP2 DUP6 PUSH1 0x20 DUP7 ADD PUSH2 0x1C14 JUMP JUMPDEST PUSH2 0x211B DUP2 PUSH2 0x1C22 JUMP JUMPDEST DUP5 ADD SWAP2 POP POP SWAP3 SWAP2 POP POP JUMP JUMPDEST PUSH0 PUSH1 0x20 DUP3 ADD SWAP1 POP DUP2 DUP2 SUB PUSH0 DUP4 ADD MSTORE PUSH2 0x213E DUP2 DUP5 PUSH2 0x20EE JUMP JUMPDEST SWAP1 POP SWAP3 SWAP2 POP POP JUMP JUMPDEST PUSH0 PUSH1 0x20 DUP3 DUP5 SUB SLT ISZERO PUSH2 0x215B JUMPI PUSH2 0x215A PUSH2 0x1E37 JUMP JUMPDEST JUMPDEST PUSH0 DUP3 ADD CALLDATALOAD PUSH8 0xFFFFFFFFFFFFFFFF DUP2 GT ISZERO PUSH2 0x2178 JUMPI PUSH2 0x2177 PUSH2 0x1E3B JUMP JUMPDEST JUMPDEST PUSH2 0x2184 DUP5 DUP3 DUP6 ADD PUSH2 0x203B JUMP JUMPDEST SWAP2 POP POP SWAP3 SWAP2 POP POP JUMP JUMPDEST PUSH0 DUP2 ISZERO ISZERO SWAP1 POP SWAP2 SWAP1 POP JUMP JUMPDEST PUSH2 0x21A1 DUP2 PUSH2 0x218D JUMP JUMPDEST DUP3 MSTORE POP POP JUMP JUMPDEST PUSH0 PUSH1 0x20 DUP3 ADD SWAP1 POP PUSH2 0x21BA PUSH0 DUP4 ADD DUP5 PUSH2 0x2198 JUMP JUMPDEST SWAP3 SWAP2 POP POP JUMP JUMPDEST PUSH0 DUP1 DUP4 PUSH1 0x1F DUP5 ADD SLT PUSH2 0x21D5 JUMPI PUSH2 0x21D4 PUSH2 0x1E94 JUMP JUMPDEST JUMPDEST DUP3 CALLDATALOAD SWAP1 POP PUSH8 0xFFFFFFFFFFFFFFFF DUP2 GT ISZERO PUSH2 0x21F2 JUMPI PUSH2 0x21F1 PUSH2 0x1E98 JUMP JUMPDEST JUMPDEST PUSH1 0x20 DUP4 ADD SWAP2 POP DUP4 PUSH1 0x20 DUP3 MUL DUP4 ADD GT ISZERO PUSH2 0x220E JUMPI PUSH2 0x220D PUSH2 0x1E9C JUMP JUMPDEST JUMPDEST SWAP3 POP SWAP3 SWAP1 POP JUMP JUMPDEST PUSH0 DUP1 PUSH0 DUP1 PUSH0 DUP1 PUSH0 PUSH1 0x80 DUP9 DUP11 SUB SLT ISZERO PUSH2 0x2230 JUMPI PUSH2 0x222F PUSH2 0x1E37 JUMP JUMPDEST JUMPDEST PUSH0 DUP9 ADD CALLDATALOAD PUSH8 0xFFFFFFFFFFFFFFFF DUP2 GT ISZERO PUSH2 0x224D JUMPI PUSH2 0x224C PUSH2 0x1E3B JUMP JUMPDEST JUMPDEST PUSH2 0x2259 DUP11 DUP3 DUP12 ADD PUSH2 0x1EA0 JUMP JUMPDEST SWAP8 POP SWAP8 POP POP PUSH1 0x20 DUP9 ADD CALLDATALOAD PUSH8 0xFFFFFFFFFFFFFFFF DUP2 GT ISZERO PUSH2 0x227C JUMPI PUSH2 0x227B PUSH2 0x1E3B JUMP JUMPDEST JUMPDEST PUSH2 0x2288 DUP11 DUP3 DUP12 ADD PUSH2 0x1EA0 JUMP JUMPDEST SWAP6 POP SWAP6 POP POP PUSH1 0x40 PUSH2 0x229B DUP11 DUP3 DUP12 ADD PUSH2 0x1E55 JUMP JUMPDEST SWAP4 POP POP PUSH1 0x60 DUP9 ADD CALLDATALOAD PUSH8 0xFFFFFFFFFFFFFFFF DUP2 GT ISZERO PUSH2 0x22BC JUMPI PUSH2 0x22BB PUSH2 0x1E3B JUMP JUMPDEST JUMPDEST PUSH2 0x22C8 DUP11 DUP3 DUP12 ADD PUSH2 0x21C0 JUMP JUMPDEST SWAP3 POP SWAP3 POP POP SWAP3 SWAP6 SWAP9 SWAP2 SWAP5 SWAP8 POP SWAP3 SWAP6 POP JUMP JUMPDEST PUSH0 DUP1 PUSH0 DUP1 PUSH0 PUSH1 0x60 DUP7 DUP9 SUB SLT ISZERO PUSH2 0x22F2 JUMPI PUSH2 0x22F1 PUSH2 0x1E37 JUMP JUMPDEST JUMPDEST PUSH0 DUP7 ADD CALLDATALOAD PUSH8 0xFFFFFFFFFFFFFFFF DUP2 GT ISZERO PUSH2 0x230F JUMPI PUSH2 0x230E PUSH2 0x1E3B JUMP JUMPDEST JUMPDEST PUSH2 0x231B DUP9 DUP3 DUP10 ADD PUSH2 0x1EA0 JUMP JUMPDEST SWAP6 POP SWAP6 POP POP PUSH1 0x20 DUP7 ADD CALLDATALOAD PUSH8 0xFFFFFFFFFFFFFFFF DUP2 GT ISZERO PUSH2 0x233E JUMPI PUSH2 0x233D PUSH2 0x1E3B JUMP JUMPDEST JUMPDEST PUSH2 0x234A DUP9 DUP3 DUP10 ADD PUSH2 0x1EA0 JUMP JUMPDEST SWAP4 POP SWAP4 POP POP PUSH1 0x40 PUSH2 0x235D DUP9 DUP3 DUP10 ADD PUSH2 0x1E55 JUMP JUMPDEST SWAP2 POP POP SWAP3 SWAP6 POP SWAP3 SWAP6 SWAP1 SWAP4 POP JUMP JUMPDEST PUSH0 PUSH1 0x60 DUP4 ADD PUSH0 DUP4 ADD MLOAD DUP5 DUP3 SUB PUSH0 DUP7 ADD MSTORE PUSH2 0x2384 DUP3 DUP3 PUSH2 0x1C32 JUMP JUMPDEST SWAP2 POP POP PUSH1 0x20 DUP4 ADD MLOAD DUP5 DUP3 SUB PUSH1 0x20 DUP7 ADD MSTORE PUSH2 0x239E DUP3 DUP3 PUSH2 0x1C32 JUMP JUMPDEST SWAP2 POP POP PUSH1 0x40 DUP4 ADD MLOAD PUSH2 0x23B3 PUSH1 0x40 DUP7 ADD DUP3 PUSH2 0x1D2E JUMP JUMPDEST POP DUP1 SWAP2 POP POP SWAP3 SWAP2 POP POP JUMP JUMPDEST PUSH0 PUSH1 0x20 DUP3 ADD SWAP1 POP DUP2 DUP2 SUB PUSH0 DUP4 ADD MSTORE PUSH2 0x23D6 DUP2 DUP5 PUSH2 0x236A JUMP JUMPDEST SWAP1 POP SWAP3 SWAP2 POP POP JUMP JUMPDEST PUSH0 DUP1 PUSH0 DUP1 PUSH1 0x40 DUP6 DUP8 SUB SLT ISZERO PUSH2 0x23F6 JUMPI PUSH2 0x23F5 PUSH2 0x1E37 JUMP JUMPDEST JUMPDEST PUSH0 DUP6 ADD CALLDATALOAD PUSH8 0xFFFFFFFFFFFFFFFF DUP2 GT ISZERO PUSH2 0x2413 JUMPI PUSH2 0x2412 PUSH2 0x1E3B JUMP JUMPDEST JUMPDEST PUSH2 0x241F DUP8 DUP3 DUP9 ADD PUSH2 0x1EA0 JUMP JUMPDEST SWAP5 POP SWAP5 POP POP PUSH1 0x20 DUP6 ADD CALLDATALOAD PUSH8 0xFFFFFFFFFFFFFFFF DUP2 GT ISZERO PUSH2 0x2442 JUMPI PUSH2 0x2441 PUSH2 0x1E3B JUMP JUMPDEST JUMPDEST PUSH2 0x244E DUP8 DUP3 DUP9 ADD PUSH2 0x21C0 JUMP JUMPDEST SWAP3 POP SWAP3 POP POP SWAP3 SWAP6 SWAP2 SWAP5 POP SWAP3 POP JUMP JUMPDEST PUSH32 0x4E487B7100000000000000000000000000000000000000000000000000000000 PUSH0 MSTORE PUSH1 0x32 PUSH1 0x4 MSTORE PUSH1 0x24 PUSH0 REVERT JUMPDEST PUSH32 0x4E487B7100000000000000000000000000000000000000000000000000000000 PUSH0 MSTORE PUSH1 0x22 PUSH1 0x4 MSTORE PUSH1 0x24 PUSH0 REVERT JUMPDEST PUSH0 PUSH1 0x2 DUP3 DIV SWAP1 POP PUSH1 0x1 DUP3 AND DUP1 PUSH2 0x24CD JUMPI PUSH1 0x7F DUP3 AND SWAP2 POP JUMPDEST PUSH1 0x20 DUP3 LT DUP2 SUB PUSH2 0x24E0 JUMPI PUSH2 0x24DF PUSH2 0x2489 JUMP JUMPDEST JUMPDEST POP SWAP2 SWAP1 POP JUMP JUMPDEST PUSH0 DUP2 SWAP1 POP SWAP3 SWAP2 POP POP JUMP JUMPDEST PUSH0 DUP2 SWAP1 POP DUP2 PUSH0 MSTORE PUSH1 0x20 PUSH0 KECCAK256 SWAP1 POP SWAP2 SWAP1 POP JUMP JUMPDEST PUSH0 DUP2 SLOAD PUSH2 0x250E DUP2 PUSH2 0x24B6 JUMP JUMPDEST PUSH2 0x2518 DUP2 DUP7 PUSH2 0x24E6 JUMP JUMPDEST SWAP5 POP PUSH1 0x1 DUP3 AND PUSH0 DUP2 EQ PUSH2 0x2532 JUMPI PUSH1 0x1 DUP2 EQ PUSH2 0x2547 JUMPI PUSH2 0x2579 JUMP JUMPDEST PUSH1 0xFF NOT DUP4 AND DUP7 MSTORE DUP2 ISZERO ISZERO DUP3 MUL DUP7 ADD SWAP4 POP PUSH2 0x2579 JUMP JUMPDEST PUSH2 0x2550 DUP6 PUSH2 0x24F0 JUMP JUMPDEST PUSH0 JUMPDEST DUP4 DUP2 LT ISZERO PUSH2 0x2571 JUMPI DUP2 SLOAD DUP2 DUP10 ADD MSTORE PUSH1 0x1 DUP3 ADD SWAP2 POP PUSH1 0x20 DUP2 ADD SWAP1 POP PUSH2 0x2552 JUMP JUMPDEST DUP4 DUP9 ADD SWAP6 POP POP POP JUMPDEST POP POP POP SWAP3 SWAP2 POP POP JUMP JUMPDEST PUSH0 PUSH2 0x258D DUP3 DUP5 PUSH2 0x2502 JUMP JUMPDEST SWAP2 POP DUP2 SWAP1 POP SWAP3 SWAP2 POP POP JUMP JUMPDEST PUSH32 0x68616E6469636170206D757374206265203534206F72206C65737320696E2067 PUSH0 DUP3 ADD MSTORE PUSH32 0x6F6C660000000000000000000000000000000000000000000000000000000000 PUSH1 0x20 DUP3 ADD MSTORE POP JUMP JUMPDEST PUSH0 PUSH2 0x25F2 PUSH1 0x23 DUP4 PUSH2 0x20DE JUMP JUMPDEST SWAP2 POP PUSH2 0x25FD DUP3 PUSH2 0x2598 JUMP JUMPDEST PUSH1 0x40 DUP3 ADD SWAP1 POP SWAP2 SWAP1 POP JUMP JUMPDEST PUSH0 PUSH1 0x20 DUP3 ADD SWAP1 POP DUP2 DUP2 SUB PUSH0 DUP4 ADD MSTORE PUSH2 0x261F DUP2 PUSH2 0x25E6 JUMP JUMPDEST SWAP1 POP SWAP2 SWAP1 POP JUMP JUMPDEST PUSH0 PUSH2 0x2631 DUP4 DUP6 PUSH2 0x24E6 JUMP JUMPDEST SWAP4 POP PUSH2 0x263E DUP4 DUP6 DUP5 PUSH2 0x1FEC JUMP JUMPDEST DUP3 DUP5 ADD SWAP1 POP SWAP4 SWAP3 POP POP POP JUMP JUMPDEST PUSH0 PUSH2 0x2656 DUP3 DUP5 DUP7 PUSH2 0x2626 JUMP JUMPDEST SWAP2 POP DUP2 SWAP1 POP SWAP4 SWAP3 POP POP POP JUMP JUMPDEST PUSH0 PUSH1 0x20 PUSH1 0x1F DUP4 ADD DIV SWAP1 POP SWAP2 SWAP1 POP JUMP JUMPDEST PUSH0 DUP3 DUP3 SHL SWAP1 POP SWAP3 SWAP2 POP POP JUMP JUMPDEST PUSH0 PUSH1 0x8 DUP4 MUL PUSH2 0x26AC PUSH32 0xFFFFFFFFFFFFFFFFFFFFFFFFFFFFFFFFFFFFFFFFFFFFFFFFFFFFFFFFFFFFFFFF DUP3 PUSH2 0x2671 JUMP JUMPDEST PUSH2 0x26B6 DUP7 DUP4 PUSH2 0x2671 JUMP JUMPDEST SWAP6 POP DUP1 NOT DUP5 AND SWAP4 POP DUP1 DUP7 AND DUP5 OR SWAP3 POP POP POP SWAP4 SWAP3 POP POP POP JUMP JUMPDEST PUSH0 DUP2 SWAP1 POP SWAP2 SWAP1 POP JUMP JUMPDEST PUSH0 PUSH2 0x26F1 PUSH2 0x26EC PUSH2 0x26E7 DUP5 PUSH2 0x1D25 JUMP JUMPDEST PUSH2 0x26CE JUMP JUMPDEST PUSH2 0x1D25 JUMP JUMPDEST SWAP1 POP SWAP2 SWAP1 POP JUMP JUMPDEST PUSH0 DUP2 SWAP1 POP SWAP2 SWAP1 POP JUMP JUMPDEST PUSH2 0x270A DUP4 PUSH2 0x26D7 JUMP JUMPDEST PUSH2 0x271E PUSH2 0x2716 DUP3 PUSH2 0x26F8 JUMP JUMPDEST DUP5 DUP5 SLOAD PUSH2 0x267D JUMP JUMPDEST DUP3 SSTORE POP POP POP POP JUMP JUMPDEST PUSH0 SWAP1 JUMP JUMPDEST PUSH2 0x2732 PUSH2 0x2726 JUMP JUMPDEST PUSH2 0x273D DUP2 DUP5 DUP5 PUSH2 0x2701 JUMP JUMPDEST POP POP POP JUMP JUMPDEST JUMPDEST DUP2 DUP2 LT ISZERO PUSH2 0x2760 JUMPI PUSH2 0x2755 PUSH0 DUP3 PUSH2 0x272A JUMP JUMPDEST PUSH1 0x1 DUP2 ADD SWAP1 POP PUSH2 0x2743 JUMP JUMPDEST POP POP JUMP JUMPDEST PUSH1 0x1F DUP3 GT ISZERO PUSH2 0x27A5 JUMPI PUSH2 0x2776 DUP2 PUSH2 0x24F0 JUMP JUMPDEST PUSH2 0x277F DUP5 PUSH2 0x2662 JUMP JUMPDEST DUP2 ADD PUSH1 0x20 DUP6 LT ISZERO PUSH2 0x278E JUMPI DUP2 SWAP1 POP JUMPDEST PUSH2 0x27A2 PUSH2 0x279A DUP6 PUSH2 0x2662 JUMP JUMPDEST DUP4 ADD DUP3 PUSH2 0x2742 JUMP JUMPDEST POP POP JUMPDEST POP POP POP JUMP JUMPDEST PUSH0 DUP3 DUP3 SHR SWAP1 POP SWAP3 SWAP2 POP POP JUMP JUMPDEST PUSH0 PUSH2 0x27C5 PUSH0 NOT DUP5 PUSH1 0x8 MUL PUSH2 0x27AA JUMP JUMPDEST NOT DUP1 DUP4 AND SWAP2 POP POP SWAP3 SWAP2 POP POP JUMP JUMPDEST PUSH0 PUSH2 0x27DD DUP4 DUP4 PUSH2 0x27B6 JUMP JUMPDEST SWAP2 POP DUP3 PUSH1 0x2 MUL DUP3 OR SWAP1 POP SWAP3 SWAP2 POP POP JUMP JUMPDEST PUSH2 0x27F6 DUP3 PUSH2 0x1BFA JUMP JUMPDEST PUSH8 0xFFFFFFFFFFFFFFFF DUP2 GT ISZERO PUSH2 0x280F JUMPI PUSH2 0x280E PUSH2 0x1F44 JUMP JUMPDEST JUMPDEST PUSH2 0x2819 DUP3 SLOAD PUSH2 0x24B6 JUMP JUMPDEST PUSH2 0x2824 DUP3 DUP3 DUP6 PUSH2 0x2764 JUMP JUMPDEST PUSH0 PUSH1 0x20 SWAP1 POP PUSH1 0x1F DUP4 GT PUSH1 0x1 DUP2 EQ PUSH2 0x2855 JUMPI PUSH0 DUP5 ISZERO PUSH2 0x2843 JUMPI DUP3 DUP8 ADD MLOAD SWAP1 POP JUMPDEST PUSH2 0x284D DUP6 DUP3 PUSH2 0x27D2 JUMP JUMPDEST DUP7 SSTORE POP PUSH2 0x28B4 JUMP JUMPDEST PUSH1 0x1F NOT DUP5 AND PUSH2 0x2863 DUP7 PUSH2 0x24F0 JUMP JUMPDEST PUSH0 JUMPDEST DUP3 DUP2 LT ISZERO PUSH2 0x288A JUMPI DUP5 DUP10 ADD MLOAD DUP3 SSTORE PUSH1 0x1 DUP3 ADD SWAP2 POP PUSH1 0x20 DUP6 ADD SWAP5 POP PUSH1 0x20 DUP2 ADD SWAP1 POP PUSH2 0x2865 JUMP JUMPDEST DUP7 DUP4 LT ISZERO PUSH2 0x28A7 JUMPI DUP5 DUP10 ADD MLOAD PUSH2 0x28A3 PUSH1 0x1F DUP10 AND DUP3 PUSH2 0x27B6 JUMP JUMPDEST DUP4 SSTORE POP JUMPDEST PUSH1 0x1 PUSH1 0x2 DUP9 MUL ADD DUP9 SSTORE POP POP POP JUMPDEST POP POP POP POP POP POP JUMP JUMPDEST PUSH32 0x4E487B7100000000000000000000000000000000000000000000000000000000 PUSH0 MSTORE PUSH1 0x11 PUSH1 0x4 MSTORE PUSH1 0x24 PUSH0 REVERT JUMPDEST PUSH0 PUSH2 0x28F3 DUP3 PUSH2 0x1D25 JUMP JUMPDEST SWAP2 POP PUSH2 0x28FE DUP4 PUSH2 0x1D25 JUMP JUMPDEST SWAP3 POP DUP3 DUP3 SUB SWAP1 POP DUP2 DUP2 GT ISZERO PUSH2 0x2916 JUMPI PUSH2 0x2915 PUSH2 0x28BC JUMP JUMPDEST JUMPDEST SWAP3 SWAP2 POP POP JUMP JUMPDEST PUSH0 PUSH2 0x2926 DUP3 PUSH2 0x1D25 JUMP JUMPDEST SWAP2 POP PUSH2 0x2931 DUP4 PUSH2 0x1D25 JUMP JUMPDEST SWAP3 POP DUP3 DUP3 ADD SWAP1 POP DUP1 DUP3 GT ISZERO PUSH2 0x2949 JUMPI PUSH2 0x2948 PUSH2 0x28BC JUMP JUMPDEST JUMPDEST SWAP3 SWAP2 POP POP JUMP JUMPDEST PUSH0 DUP2 SLOAD SWAP1 POP PUSH2 0x295D DUP2 PUSH2 0x24B6 JUMP JUMPDEST SWAP1 POP SWAP2 SWAP1 POP JUMP JUMPDEST PUSH0 DUP2 SWAP1 POP DUP2 PUSH0 MSTORE PUSH1 0x20 PUSH0 KECCAK256 SWAP1 POP SWAP2 SWAP1 POP JUMP JUMPDEST DUP2 DUP2 SUB PUSH2 0x2984 JUMPI POP POP PUSH2 0x2A59 JUMP JUMPDEST PUSH2 0x298D DUP3 PUSH2 0x294F JUMP JUMPDEST PUSH8 0xFFFFFFFFFFFFFFFF DUP2 GT ISZERO PUSH2 0x29A6 JUMPI PUSH2 0x29A5 PUSH2 0x1F44 JUMP JUMPDEST JUMPDEST PUSH2 0x29B0 DUP3 SLOAD PUSH2 0x24B6 JUMP JUMPDEST PUSH2 0x29BB DUP3 DUP3 DUP6 PUSH2 0x2764 JUMP JUMPDEST PUSH0 PUSH1 0x1F DUP4 GT PUSH1 0x1 DUP2 EQ PUSH2 0x29E8 JUMPI PUSH0 DUP5 ISZERO PUSH2 0x29D6 JUMPI DUP3 DUP8 ADD SLOAD SWAP1 POP JUMPDEST PUSH2 0x29E0 DUP6 DUP3 PUSH2 0x27D2 JUMP JUMPDEST DUP7 SSTORE POP PUSH2 0x2A52 JUMP JUMPDEST PUSH1 0x1F NOT DUP5 AND PUSH2 0x29F6 DUP8 PUSH2 0x2964 JUMP JUMPDEST SWAP7 POP PUSH2 0x2A01 DUP7 PUSH2 0x24F0 JUMP JUMPDEST PUSH0 JUMPDEST DUP3 DUP2 LT ISZERO PUSH2 0x2A28 JUMPI DUP5 DUP10 ADD SLOAD DUP3 SSTORE PUSH1 0x1 DUP3 ADD SWAP2 POP PUSH1 0x1 DUP6 ADD SWAP5 POP PUSH1 0x20 DUP2 ADD SWAP1 POP PUSH2 0x2A03 JUMP JUMPDEST DUP7 DUP4 LT ISZERO PUSH2 0x2A45 JUMPI DUP5 DUP10 ADD SLOAD PUSH2 0x2A41 PUSH1 0x1F DUP10 AND DUP3 PUSH2 0x27B6 JUMP JUMPDEST DUP4 SSTORE POP JUMPDEST PUSH1 0x1 PUSH1 0x2 DUP9 MUL ADD DUP9 SSTORE POP POP POP JUMPDEST POP POP POP POP POP POP JUMPDEST JUMP JUMPDEST PUSH32 0x4E487B7100000000000000000000000000000000000000000000000000000000 PUSH0 MSTORE PUSH1 0x31 PUSH1 0x4 MSTORE PUSH1 0x24 PUSH0 REVERT JUMPDEST PUSH0 PUSH2 0x2A92 DUP3 PUSH2 0x1D25 JUMP JUMPDEST SWAP2 POP PUSH32 0xFFFFFFFFFFFFFFFFFFFFFFFFFFFFFFFFFFFFFFFFFFFFFFFFFFFFFFFFFFFFFFFF DUP3 SUB PUSH2 0x2AC4 JUMPI PUSH2 0x2AC3 PUSH2 0x28BC JUMP JUMPDEST JUMPDEST PUSH1 0x1 DUP3 ADD SWAP1 POP SWAP2 SWAP1 POP JUMP JUMPDEST PUSH0 PUSH2 0x2AD9 DUP3 PUSH2 0x1BFA JUMP JUMPDEST PUSH2 0x2AE3 DUP2 DUP6 PUSH2 0x24E6 JUMP JUMPDEST SWAP4 POP PUSH2 0x2AF3 DUP2 DUP6 PUSH1 0x20 DUP7 ADD PUSH2 0x1C14 JUMP JUMPDEST DUP1 DUP5 ADD SWAP2 POP POP SWAP3 SWAP2 POP POP JUMP JUMPDEST PUSH0 PUSH2 0x2B0A DUP3 DUP5 PUSH2 0x2ACF JUMP JUMPDEST SWAP2 POP DUP2 SWAP1 POP SWAP3 SWAP2 POP POP JUMP JUMPDEST POP JUMP JUMPDEST PUSH0 PUSH2 0x2B23 PUSH0 DUP4 PUSH2 0x24E6 JUMP JUMPDEST SWAP2 POP PUSH2 0x2B2E DUP3 PUSH2 0x2B15 JUMP JUMPDEST PUSH0 DUP3 ADD SWAP1 POP SWAP2 SWAP1 POP JUMP JUMPDEST PUSH0 PUSH2 0x2B42 DUP3 PUSH2 0x2B18 JUMP JUMPDEST SWAP2 POP DUP2 SWAP1 POP SWAP2 SWAP1 POP JUMP JUMPDEST PUSH0 DUP3 SWAP1 POP SWAP3 SWAP2 POP POP JUMP JUMPDEST PUSH2 0x2B60 DUP4 DUP4 PUSH2 0x2B4C JUMP JUMPDEST PUSH8 0xFFFFFFFFFFFFFFFF DUP2 GT ISZERO PUSH2 0x2B79 JUMPI PUSH2 0x2B78 PUSH2 0x1F44 JUMP JUMPDEST JUMPDEST PUSH2 0x2B83 DUP3 SLOAD PUSH2 0x24B6 JUMP JUMPDEST PUSH2 0x2B8E DUP3 DUP3 DUP6 PUSH2 0x2764 JUMP JUMPDEST PUSH0 PUSH1 0x1F DUP4 GT PUSH1 0x1 DUP2 EQ PUSH2 0x2BBB JUMPI PUSH0 DUP5 ISZERO PUSH2 0x2BA9 JUMPI DUP3 DUP8 ADD CALLDATALOAD SWAP1 POP JUMPDEST PUSH2 0x2BB3 DUP6 DUP3 PUSH2 0x27D2 JUMP JUMPDEST DUP7 SSTORE POP PUSH2 0x2C1A JUMP JUMPDEST PUSH1 0x1F NOT DUP5 AND PUSH2 0x2BC9 DUP7 PUSH2 0x24F0 JUMP JUMPDEST PUSH0 JUMPDEST DUP3 DUP2 LT ISZERO PUSH2 0x2BF0 JUMPI DUP5 DUP10 ADD CALLDATALOAD DUP3 SSTORE PUSH1 0x1 DUP3 ADD SWAP2 POP PUSH1 0x20 DUP6 ADD SWAP5 POP PUSH1 0x20 DUP2 ADD SWAP1 POP PUSH2 0x2BCB JUMP JUMPDEST DUP7 DUP4 LT ISZERO PUSH2 0x2C0D JUMPI DUP5 DUP10 ADD CALLDATALOAD PUSH2 0x2C09 PUSH1 0x1F DUP10 AND DUP3 PUSH2 0x27B6 JUMP JUMPDEST DUP4 SSTORE POP JUMPDEST PUSH1 0x1 PUSH1 0x2 DUP9 MUL ADD DUP9 SSTORE POP POP POP JUMPDEST POP POP POP POP POP POP POP JUMP JUMPDEST PUSH32 0x6A6F696E65642074686520636C75620000000000000000000000000000000000 PUSH0 DUP3 ADD MSTORE POP JUMP JUMPDEST PUSH0 PUSH2 0x2C57 PUSH1 0xF DUP4 PUSH2 0x20DE JUMP JUMPDEST SWAP2 POP PUSH2 0x2C62 DUP3 PUSH2 0x2C23 JUMP JUMPDEST PUSH1 0x20 DUP3 ADD SWAP1 POP SWAP2 SWAP1 POP JUMP JUMPDEST PUSH0 PUSH1 0x20 DUP3 ADD SWAP1 POP DUP2 DUP2 SUB PUSH0 DUP4 ADD MSTORE PUSH2 0x2C84 DUP2 PUSH2 0x2C4B JUMP JUMPDEST SWAP1 POP SWAP2 SWAP1 POP JUMP JUMPDEST PUSH32 0x4E487B7100000000000000000000000000000000000000000000000000000000 PUSH0 MSTORE PUSH1 0x12 PUSH1 0x4 MSTORE PUSH1 0x24 PUSH0 REVERT JUMPDEST PUSH0 PUSH2 0x2CC2 DUP3 PUSH2 0x1D25 JUMP JUMPDEST SWAP2 POP PUSH2 0x2CCD DUP4 PUSH2 0x1D25 JUMP JUMPDEST SWAP3 POP DUP3 PUSH2 0x2CDD JUMPI PUSH2 0x2CDC PUSH2 0x2C8B JUMP JUMPDEST JUMPDEST DUP3 DUP3 DIV SWAP1 POP SWAP3 SWAP2 POP POP JUMP JUMPDEST PUSH0 PUSH2 0x2CF2 DUP3 PUSH2 0x1D25 JUMP JUMPDEST SWAP2 POP PUSH2 0x2CFD DUP4 PUSH2 0x1D25 JUMP JUMPDEST SWAP3 POP DUP3 DUP3 MUL PUSH2 0x2D0B DUP2 PUSH2 0x1D25 JUMP JUMPDEST SWAP2 POP DUP3 DUP3 DIV DUP5 EQ DUP4 ISZERO OR PUSH2 0x2D22 JUMPI PUSH2 0x2D21 PUSH2 0x28BC JUMP JUMPDEST JUMPDEST POP SWAP3 SWAP2 POP POP JUMP JUMPDEST PUSH0 PUSH1 0xFF DUP3 AND SWAP1 POP SWAP2 SWAP1 POP JUMP JUMPDEST PUSH0 PUSH2 0x2D3F DUP3 PUSH2 0x2D29 JUMP JUMPDEST SWAP2 POP PUSH2 0x2D4A DUP4 PUSH2 0x2D29 JUMP JUMPDEST SWAP3 POP DUP3 DUP3 ADD SWAP1 POP PUSH1 0xFF DUP2 GT ISZERO PUSH2 0x2D63 JUMPI PUSH2 0x2D62 PUSH2 0x28BC JUMP JUMPDEST JUMPDEST SWAP3 SWAP2 POP POP JUMP JUMPDEST PUSH32 0x796F75206861766520746F20706C6179206F6E20612072656769737465726564 PUSH0 DUP3 ADD MSTORE PUSH32 0x20636F7572736500000000000000000000000000000000000000000000000000 PUSH1 0x20 DUP3 ADD MSTORE POP JUMP JUMPDEST PUSH0 PUSH2 0x2DC3 PUSH1 0x27 DUP4 PUSH2 0x20DE JUMP JUMPDEST SWAP2 POP PUSH2 0x2DCE DUP3 PUSH2 0x2D69 JUMP JUMPDEST PUSH1 0x40 DUP3 ADD SWAP1 POP SWAP2 SWAP1 POP JUMP JUMPDEST PUSH0 PUSH1 0x20 DUP3 ADD SWAP1 POP DUP2 DUP2 SUB PUSH0 DUP4 ADD MSTORE PUSH2 0x2DF0 DUP2 PUSH2 0x2DB7 JUMP JUMPDEST SWAP1 POP SWAP2 SWAP1 POP JUMP JUMPDEST PUSH0 DUP2 SWAP1 POP SWAP2 SWAP1 POP JUMP JUMPDEST PUSH0 PUSH2 0x2E0A DUP3 PUSH2 0x2DF7 JUMP JUMPDEST SWAP2 POP PUSH2 0x2E15 DUP4 PUSH2 0x2DF7 JUMP JUMPDEST SWAP3 POP DUP3 DUP3 SUB SWAP1 POP DUP2 DUP2 SLT PUSH0 DUP5 SLT AND DUP3 DUP3 SGT PUSH0 DUP6 SLT ISZERO AND OR ISZERO PUSH2 0x2E3A JUMPI PUSH2 0x2E39 PUSH2 0x28BC JUMP JUMPDEST JUMPDEST SWAP3 SWAP2 POP POP JUMP INVALID LOG2 PUSH5 0x6970667358 0x22 SLT KECCAK256 0xE4 0x2A SWAP9 JUMPDEST REVERT PUSH23 0x2426F0B69CC86658127FCF9F053F0617A4BDF4029852DB 0xCB RETURNDATASIZE LOG4 PUSH5 0x736F6C6343 STOP ADDMOD NOT STOP CALLER "
		},
		"gasEstimates": {
			"creation": {
				"codeDepositCost": "2378800",
				"executionCost": "26816",
				"totalCost": "2405616"
			},
			"external": {
				"addGolfCourse(string,string,uint256,uint256[])": "infinite",
				"concatenateStrings(string,string)": "infinite",
				"deleteCourse(string)": "infinite",
				"getGolfCourses()": "infinite",
				"getMyData()": "infinite",
				"getMyHandicap()": "2548",
				"isCourseExtant(string)": "infinite",
				"joinClub(string,string,uint256)": "infinite",
				"playRound(string,uint256[])": "infinite",
				"setMyHandicap(uint256)": "844",
				"uintToString(uint256)": "infinite"
			},
			"internal": {
				"isHandicapValid(uint256)": "63"
			}
		},
		"methodIdentifiers": {
			"addGolfCourse(string,string,uint256,uint256[])": "adb5097f",
			"concatenateStrings(string,string)": "7a36b3ee",
			"deleteCourse(string)": "3e6b6de2",
			"getGolfCourses()": "18bc8216",
			"getMyData()": "d9c8a38b",
			"getMyHandicap()": "20a6548c",
			"isCourseExtant(string)": "9e5b4fe4",
			"joinClub(string,string,uint256)": "b8b0eadc",
			"playRound(string,uint256[])": "f3e6fe16",
			"setMyHandicap(uint256)": "34a53e3b",
			"uintToString(uint256)": "e9395679"
		}
	},
	"abi": [
		{
			"anonymous": false,
			"inputs": [
				{
					"indexed": true,
					"internalType": "address",
					"name": "sender",
					"type": "address"
				},
				{
					"indexed": false,
					"internalType": "string",
					"name": "message",
					"type": "string"
				}
			],
			"name": "auditMessage",
			"type": "event"
		},
		{
			"inputs": [
				{
					"internalType": "string",
					"name": "_name",
					"type": "string"
				},
				{
					"internalType": "string",
					"name": "_description",
					"type": "string"
				},
				{
					"internalType": "uint256",
					"name": "_numberOfHoles",
					"type": "uint256"
				},
				{
					"internalType": "uint256[]",
					"name": "pars",
					"type": "uint256[]"
				}
			],
			"name": "addGolfCourse",
			"outputs": [],
			"stateMutability": "nonpayable",
			"type": "function"
		},
		{
			"inputs": [
				{
					"internalType": "string",
					"name": "_a",
					"type": "string"
				},
				{
					"internalType": "string",
					"name": "_b",
					"type": "string"
				}
			],
			"name": "concatenateStrings",
			"outputs": [
				{
					"internalType": "string",
					"name": "",
					"type": "string"
				}
			],
			"stateMutability": "pure",
			"type": "function"
		},
		{
			"inputs": [
				{
					"internalType": "string",
					"name": "_courseName",
					"type": "string"
				}
			],
			"name": "deleteCourse",
			"outputs": [],
			"stateMutability": "nonpayable",
			"type": "function"
		},
		{
			"inputs": [],
			"name": "getGolfCourses",
			"outputs": [
				{
					"internalType": "string[]",
					"name": "",
					"type": "string[]"
				},
				{
					"internalType": "string[]",
					"name": "",
					"type": "string[]"
				},
				{
					"internalType": "uint256[]",
					"name": "",
					"type": "uint256[]"
				}
			],
			"stateMutability": "view",
			"type": "function"
		},
		{
			"inputs": [],
			"name": "getMyData",
			"outputs": [
				{
					"components": [
						{
							"internalType": "string",
							"name": "firstName",
							"type": "string"
						},
						{
							"internalType": "string",
							"name": "lastName",
							"type": "string"
						},
						{
							"internalType": "uint256",
							"name": "handicap",
							"type": "uint256"
						}
					],
					"internalType": "struct CaddyShack.Player",
					"name": "",
					"type": "tuple"
				}
			],
			"stateMutability": "view",
			"type": "function"
		},
		{
			"inputs": [],
			"name": "getMyHandicap",
			"outputs": [
				{
					"internalType": "uint256",
					"name": "",
					"type": "uint256"
				}
			],
			"stateMutability": "view",
			"type": "function"
		},
		{
			"inputs": [
				{
					"internalType": "string",
					"name": "_courseName",
					"type": "string"
				}
			],
			"name": "isCourseExtant",
			"outputs": [
				{
					"internalType": "bool",
					"name": "",
					"type": "bool"
				}
			],
			"stateMutability": "view",
			"type": "function"
		},
		{
			"inputs": [
				{
					"internalType": "string",
					"name": "_firstName",
					"type": "string"
				},
				{
					"internalType": "string",
					"name": "_lastName",
					"type": "string"
				},
				{
					"internalType": "uint256",
					"name": "_handicap",
					"type": "uint256"
				}
			],
			"name": "joinClub",
			"outputs": [],
			"stateMutability": "nonpayable",
			"type": "function"
		},
		{
			"inputs": [
				{
					"internalType": "string",
					"name": "_courseName",
					"type": "string"
				},
				{
					"internalType": "uint256[]",
					"name": "_scores",
					"type": "uint256[]"
				}
			],
			"name": "playRound",
			"outputs": [],
			"stateMutability": "nonpayable",
			"type": "function"
		},
		{
			"inputs": [
				{
					"internalType": "uint256",
					"name": "_handicap",
					"type": "uint256"
				}
			],
			"name": "setMyHandicap",
			"outputs": [],
			"stateMutability": "nonpayable",
			"type": "function"
		},
		{
			"inputs": [
				{
					"internalType": "uint256",
					"name": "_uint",
					"type": "uint256"
				}
			],
			"name": "uintToString",
			"outputs": [
				{
					"internalType": "string",
					"name": "",
					"type": "string"
				}
			],
			"stateMutability": "pure",
			"type": "function"
		}
	]
}